{
	"AulasNearX/arrays.sol": {
		"ExemplosArrays": {
			"abi": [
				{
					"inputs": [
						{
							"internalType": "uint256",
							"name": "",
							"type": "uint256"
						}
					],
					"name": "Alunos",
					"outputs": [
						{
							"internalType": "string",
							"name": "",
							"type": "string"
						}
					],
					"stateMutability": "view",
					"type": "function"
				},
				{
					"inputs": [
						{
							"internalType": "uint256",
							"name": "",
							"type": "uint256"
						}
					],
					"name": "DisciplinaNome",
					"outputs": [
						{
							"internalType": "string",
							"name": "",
							"type": "string"
						}
					],
					"stateMutability": "view",
					"type": "function"
				},
				{
					"inputs": [
						{
							"internalType": "uint256",
							"name": "Indicedisciplina",
							"type": "uint256"
						},
						{
							"internalType": "uint256",
							"name": "IndiceProf",
							"type": "uint256"
						}
					],
					"name": "RetornarProfIndiceDisci",
					"outputs": [
						{
							"internalType": "string",
							"name": "",
							"type": "string"
						}
					],
					"stateMutability": "view",
					"type": "function"
				},
				{
					"inputs": [
						{
							"internalType": "uint8",
							"name": "num",
							"type": "uint8"
						},
						{
							"internalType": "string",
							"name": "novoAluno",
							"type": "string"
						}
					],
					"name": "definirAluno",
					"outputs": [],
					"stateMutability": "nonpayable",
					"type": "function"
				},
				{
					"inputs": [
						{
							"internalType": "string",
							"name": "nomeD",
							"type": "string"
						}
					],
					"name": "definirDisciplina",
					"outputs": [],
					"stateMutability": "nonpayable",
					"type": "function"
				},
				{
					"inputs": [
						{
							"internalType": "string",
							"name": "disciplina",
							"type": "string"
						},
						{
							"internalType": "string",
							"name": "professor",
							"type": "string"
						}
					],
					"name": "definirProfeDiciplina",
					"outputs": [],
					"stateMutability": "nonpayable",
					"type": "function"
				},
				{
					"inputs": [
						{
							"internalType": "uint256",
							"name": "numeroD",
							"type": "uint256"
						}
					],
					"name": "deletarElemento",
					"outputs": [],
					"stateMutability": "nonpayable",
					"type": "function"
				}
			],
			"devdoc": {
				"kind": "dev",
				"methods": {},
				"version": 1
			},
			"evm": {
				"assembly": "    /* \"AulasNearX/arrays.sol\":60:2010  contract ExemplosArrays {... */\n  mstore(0x40, 0x80)\n  callvalue\n  dup1\n  iszero\n  tag_1\n  jumpi\n  revert(0x00, 0x00)\ntag_1:\n  pop\n  dataSize(sub_0)\n  dup1\n  dataOffset(sub_0)\n  0x00\n  codecopy\n  0x00\n  return\nstop\n\nsub_0: assembly {\n        /* \"AulasNearX/arrays.sol\":60:2010  contract ExemplosArrays {... */\n      mstore(0x40, 0x80)\n      callvalue\n      dup1\n      iszero\n      tag_1\n      jumpi\n      revert(0x00, 0x00)\n    tag_1:\n      pop\n      jumpi(tag_2, lt(calldatasize, 0x04))\n      shr(0xe0, calldataload(0x00))\n      dup1\n      0x47075d0b\n      gt\n      tag_10\n      jumpi\n      dup1\n      0x47075d0b\n      eq\n      tag_6\n      jumpi\n      dup1\n      0x8476683a\n      eq\n      tag_7\n      jumpi\n      dup1\n      0x887b222f\n      eq\n      tag_8\n      jumpi\n      dup1\n      0xa4199249\n      eq\n      tag_9\n      jumpi\n      jump(tag_2)\n    tag_10:\n      dup1\n      0x04e9ede5\n      eq\n      tag_3\n      jumpi\n      dup1\n      0x346cb861\n      eq\n      tag_4\n      jumpi\n      dup1\n      0x34f156a5\n      eq\n      tag_5\n      jumpi\n    tag_2:\n      revert(0x00, 0x00)\n        /* \"AulasNearX/arrays.sol\":1606:1852  function RetornarProfIndiceDisci(... */\n    tag_3:\n      tag_11\n      0x04\n      dup1\n      calldatasize\n      sub\n      dup2\n      add\n      swap1\n      tag_12\n      swap2\n      swap1\n      tag_13\n      jump\t// in\n    tag_12:\n      tag_14\n      jump\t// in\n    tag_11:\n      mload(0x40)\n      tag_15\n      swap2\n      swap1\n      tag_16\n      jump\t// in\n    tag_15:\n      mload(0x40)\n      dup1\n      swap2\n      sub\n      swap1\n      return\n        /* \"AulasNearX/arrays.sol\":442:542  function deletarElemento(uint256 numeroD) external {... */\n    tag_4:\n      tag_17\n      0x04\n      dup1\n      calldatasize\n      sub\n      dup2\n      add\n      swap1\n      tag_18\n      swap2\n      swap1\n      tag_19\n      jump\t// in\n    tag_18:\n      tag_20\n      jump\t// in\n    tag_17:\n      stop\n        /* \"AulasNearX/arrays.sol\":1401:1557  function definirProfeDiciplina(string memory disciplina, string memory professor) external {... */\n    tag_5:\n      tag_21\n      0x04\n      dup1\n      calldatasize\n      sub\n      dup2\n      add\n      swap1\n      tag_22\n      swap2\n      swap1\n      tag_23\n      jump\t// in\n    tag_22:\n      tag_24\n      jump\t// in\n    tag_21:\n      stop\n        /* \"AulasNearX/arrays.sol\":153:183  string[] public DisciplinaNome */\n    tag_6:\n      tag_25\n      0x04\n      dup1\n      calldatasize\n      sub\n      dup2\n      add\n      swap1\n      tag_26\n      swap2\n      swap1\n      tag_19\n      jump\t// in\n    tag_26:\n      tag_27\n      jump\t// in\n    tag_25:\n      mload(0x40)\n      tag_28\n      swap2\n      swap1\n      tag_16\n      jump\t// in\n    tag_28:\n      mload(0x40)\n      dup1\n      swap2\n      sub\n      swap1\n      return\n        /* \"AulasNearX/arrays.sol\":91:114  string[4] public Alunos */\n    tag_7:\n      tag_29\n      0x04\n      dup1\n      calldatasize\n      sub\n      dup2\n      add\n      swap1\n      tag_30\n      swap2\n      swap1\n      tag_19\n      jump\t// in\n    tag_30:\n      tag_31\n      jump\t// in\n    tag_29:\n      mload(0x40)\n      tag_32\n      swap2\n      swap1\n      tag_16\n      jump\t// in\n    tag_32:\n      mload(0x40)\n      dup1\n      swap2\n      sub\n      swap1\n      return\n        /* \"AulasNearX/arrays.sol\":596:705  function definirAluno(uint8 num, string memory novoAluno) external {... */\n    tag_8:\n      tag_33\n      0x04\n      dup1\n      calldatasize\n      sub\n      dup2\n      add\n      swap1\n      tag_34\n      swap2\n      swap1\n      tag_35\n      jump\t// in\n    tag_34:\n      tag_36\n      jump\t// in\n    tag_33:\n      stop\n        /* \"AulasNearX/arrays.sol\":295:397  function definirDisciplina(string memory nomeD) external {... */\n    tag_9:\n      tag_37\n      0x04\n      dup1\n      calldatasize\n      sub\n      dup2\n      add\n      swap1\n      tag_38\n      swap2\n      swap1\n      tag_39\n      jump\t// in\n    tag_38:\n      tag_40\n      jump\t// in\n    tag_37:\n      stop\n        /* \"AulasNearX/arrays.sol\":1606:1852  function RetornarProfIndiceDisci(... */\n    tag_14:\n        /* \"AulasNearX/arrays.sol\":1760:1773  string memory */\n      0x60\n        /* \"AulasNearX/arrays.sol\":1798:1814  MatrizesDiscProf */\n      0x05\n        /* \"AulasNearX/arrays.sol\":1815:1831  Indicedisciplina */\n      dup4\n        /* \"AulasNearX/arrays.sol\":1798:1832  MatrizesDiscProf[Indicedisciplina] */\n      dup2\n      sload\n      dup2\n      lt\n      tag_42\n      jumpi\n      tag_43\n      tag_44\n      jump\t// in\n    tag_43:\n    tag_42:\n      swap1\n      0x00\n      mstore\n      keccak256(0x00, 0x20)\n      add\n        /* \"AulasNearX/arrays.sol\":1833:1843  IndiceProf */\n      dup3\n        /* \"AulasNearX/arrays.sol\":1798:1844  MatrizesDiscProf[Indicedisciplina][IndiceProf] */\n      dup2\n      sload\n      dup2\n      lt\n      tag_46\n      jumpi\n      tag_47\n      tag_44\n      jump\t// in\n    tag_47:\n    tag_46:\n      swap1\n      0x00\n      mstore\n      keccak256(0x00, 0x20)\n      add\n        /* \"AulasNearX/arrays.sol\":1791:1844  return MatrizesDiscProf[Indicedisciplina][IndiceProf] */\n      dup1\n      sload\n      tag_49\n      swap1\n      tag_50\n      jump\t// in\n    tag_49:\n      dup1\n      0x1f\n      add\n      0x20\n      dup1\n      swap2\n      div\n      mul\n      0x20\n      add\n      mload(0x40)\n      swap1\n      dup2\n      add\n      0x40\n      mstore\n      dup1\n      swap3\n      swap2\n      swap1\n      dup2\n      dup2\n      mstore\n      0x20\n      add\n      dup3\n      dup1\n      sload\n      tag_51\n      swap1\n      tag_50\n      jump\t// in\n    tag_51:\n      dup1\n      iszero\n      tag_52\n      jumpi\n      dup1\n      0x1f\n      lt\n      tag_53\n      jumpi\n      0x0100\n      dup1\n      dup4\n      sload\n      div\n      mul\n      dup4\n      mstore\n      swap2\n      0x20\n      add\n      swap2\n      jump(tag_52)\n    tag_53:\n      dup3\n      add\n      swap2\n      swap1\n      0x00\n      mstore\n      keccak256(0x00, 0x20)\n      swap1\n    tag_54:\n      dup2\n      sload\n      dup2\n      mstore\n      swap1\n      0x01\n      add\n      swap1\n      0x20\n      add\n      dup1\n      dup4\n      gt\n      tag_54\n      jumpi\n      dup3\n      swap1\n      sub\n      0x1f\n      and\n      dup3\n      add\n      swap2\n    tag_52:\n      pop\n      pop\n      pop\n      pop\n      pop\n      swap1\n      pop\n        /* \"AulasNearX/arrays.sol\":1606:1852  function RetornarProfIndiceDisci(... */\n      swap3\n      swap2\n      pop\n      pop\n      jump\t// out\n        /* \"AulasNearX/arrays.sol\":442:542  function deletarElemento(uint256 numeroD) external {... */\n    tag_20:\n        /* \"AulasNearX/arrays.sol\":511:525  DisciplinaNome */\n      0x04\n        /* \"AulasNearX/arrays.sol\":526:533  numeroD */\n      dup2\n        /* \"AulasNearX/arrays.sol\":511:534  DisciplinaNome[numeroD] */\n      dup2\n      sload\n      dup2\n      lt\n      tag_56\n      jumpi\n      tag_57\n      tag_44\n      jump\t// in\n    tag_57:\n    tag_56:\n      swap1\n      0x00\n      mstore\n      keccak256(0x00, 0x20)\n      add\n      0x00\n        /* \"AulasNearX/arrays.sol\":504:534  delete DisciplinaNome[numeroD] */\n      tag_59\n      swap2\n      swap1\n      tag_60\n      jump\t// in\n    tag_59:\n        /* \"AulasNearX/arrays.sol\":442:542  function deletarElemento(uint256 numeroD) external {... */\n      pop\n      jump\t// out\n        /* \"AulasNearX/arrays.sol\":1401:1557  function definirProfeDiciplina(string memory disciplina, string memory professor) external {... */\n    tag_24:\n        /* \"AulasNearX/arrays.sol\":1503:1519  MatrizesDiscProf */\n      0x05\n        /* \"AulasNearX/arrays.sol\":1503:1549  MatrizesDiscProf.push([disciplina, professor]) */\n      mload(0x40)\n      dup1\n      0x40\n      add\n      0x40\n      mstore\n      dup1\n        /* \"AulasNearX/arrays.sol\":1526:1536  disciplina */\n      dup5\n        /* \"AulasNearX/arrays.sol\":1503:1549  MatrizesDiscProf.push([disciplina, professor]) */\n      dup2\n      mstore\n      0x20\n      add\n        /* \"AulasNearX/arrays.sol\":1538:1547  professor */\n      dup4\n        /* \"AulasNearX/arrays.sol\":1503:1549  MatrizesDiscProf.push([disciplina, professor]) */\n      dup2\n      mstore\n      pop\n      swap1\n      dup1\n      0x01\n      dup2\n      sload\n      add\n      dup1\n      dup3\n      sstore\n      dup1\n      swap2\n      pop\n      pop\n      0x01\n      swap1\n      sub\n      swap1\n      0x00\n      mstore\n      keccak256(0x00, 0x20)\n      add\n      0x00\n      swap1\n      swap2\n      swap1\n      swap2\n      swap1\n      swap2\n      pop\n      swap1\n      0x02\n      tag_63\n      swap3\n      swap2\n      swap1\n      tag_64\n      jump\t// in\n    tag_63:\n      pop\n        /* \"AulasNearX/arrays.sol\":1401:1557  function definirProfeDiciplina(string memory disciplina, string memory professor) external {... */\n      pop\n      pop\n      jump\t// out\n        /* \"AulasNearX/arrays.sol\":153:183  string[] public DisciplinaNome */\n    tag_27:\n      0x04\n      dup2\n      dup2\n      sload\n      dup2\n      lt\n      tag_65\n      jumpi\n      0x00\n      dup1\n      revert\n    tag_65:\n      swap1\n      0x00\n      mstore\n      keccak256(0x00, 0x20)\n      add\n      0x00\n      swap2\n      pop\n      swap1\n      pop\n      dup1\n      sload\n      tag_67\n      swap1\n      tag_50\n      jump\t// in\n    tag_67:\n      dup1\n      0x1f\n      add\n      0x20\n      dup1\n      swap2\n      div\n      mul\n      0x20\n      add\n      mload(0x40)\n      swap1\n      dup2\n      add\n      0x40\n      mstore\n      dup1\n      swap3\n      swap2\n      swap1\n      dup2\n      dup2\n      mstore\n      0x20\n      add\n      dup3\n      dup1\n      sload\n      tag_68\n      swap1\n      tag_50\n      jump\t// in\n    tag_68:\n      dup1\n      iszero\n      tag_69\n      jumpi\n      dup1\n      0x1f\n      lt\n      tag_70\n      jumpi\n      0x0100\n      dup1\n      dup4\n      sload\n      div\n      mul\n      dup4\n      mstore\n      swap2\n      0x20\n      add\n      swap2\n      jump(tag_69)\n    tag_70:\n      dup3\n      add\n      swap2\n      swap1\n      0x00\n      mstore\n      keccak256(0x00, 0x20)\n      swap1\n    tag_71:\n      dup2\n      sload\n      dup2\n      mstore\n      swap1\n      0x01\n      add\n      swap1\n      0x20\n      add\n      dup1\n      dup4\n      gt\n      tag_71\n      jumpi\n      dup3\n      swap1\n      sub\n      0x1f\n      and\n      dup3\n      add\n      swap2\n    tag_69:\n      pop\n      pop\n      pop\n      pop\n      pop\n      dup2\n      jump\t// out\n        /* \"AulasNearX/arrays.sol\":91:114  string[4] public Alunos */\n    tag_31:\n      0x00\n      dup2\n      0x04\n      dup2\n      lt\n      tag_72\n      jumpi\n      0x00\n      dup1\n      revert\n    tag_72:\n      add\n      0x00\n      swap2\n      pop\n      swap1\n      pop\n      dup1\n      sload\n      tag_74\n      swap1\n      tag_50\n      jump\t// in\n    tag_74:\n      dup1\n      0x1f\n      add\n      0x20\n      dup1\n      swap2\n      div\n      mul\n      0x20\n      add\n      mload(0x40)\n      swap1\n      dup2\n      add\n      0x40\n      mstore\n      dup1\n      swap3\n      swap2\n      swap1\n      dup2\n      dup2\n      mstore\n      0x20\n      add\n      dup3\n      dup1\n      sload\n      tag_75\n      swap1\n      tag_50\n      jump\t// in\n    tag_75:\n      dup1\n      iszero\n      tag_76\n      jumpi\n      dup1\n      0x1f\n      lt\n      tag_77\n      jumpi\n      0x0100\n      dup1\n      dup4\n      sload\n      div\n      mul\n      dup4\n      mstore\n      swap2\n      0x20\n      add\n      swap2\n      jump(tag_76)\n    tag_77:\n      dup3\n      add\n      swap2\n      swap1\n      0x00\n      mstore\n      keccak256(0x00, 0x20)\n      swap1\n    tag_78:\n      dup2\n      sload\n      dup2\n      mstore\n      swap1\n      0x01\n      add\n      swap1\n      0x20\n      add\n      dup1\n      dup4\n      gt\n      tag_78\n      jumpi\n      dup3\n      swap1\n      sub\n      0x1f\n      and\n      dup3\n      add\n      swap2\n    tag_76:\n      pop\n      pop\n      pop\n      pop\n      pop\n      dup2\n      jump\t// out\n        /* \"AulasNearX/arrays.sol\":596:705  function definirAluno(uint8 num, string memory novoAluno) external {... */\n    tag_36:\n        /* \"AulasNearX/arrays.sol\":688:697  novoAluno */\n      dup1\n        /* \"AulasNearX/arrays.sol\":674:680  Alunos */\n      0x00\n        /* \"AulasNearX/arrays.sol\":681:684  num */\n      dup4\n        /* \"AulasNearX/arrays.sol\":674:685  Alunos[num] */\n      0xff\n      and\n      0x04\n      dup2\n      lt\n      tag_80\n      jumpi\n      tag_81\n      tag_44\n      jump\t// in\n    tag_81:\n    tag_80:\n      add\n        /* \"AulasNearX/arrays.sol\":674:697  Alunos[num] = novoAluno */\n      swap1\n      dup2\n      tag_83\n      swap2\n      swap1\n      tag_84\n      jump\t// in\n    tag_83:\n      pop\n        /* \"AulasNearX/arrays.sol\":596:705  function definirAluno(uint8 num, string memory novoAluno) external {... */\n      pop\n      pop\n      jump\t// out\n        /* \"AulasNearX/arrays.sol\":295:397  function definirDisciplina(string memory nomeD) external {... */\n    tag_40:\n        /* \"AulasNearX/arrays.sol\":363:377  DisciplinaNome */\n      0x04\n        /* \"AulasNearX/arrays.sol\":383:388  nomeD */\n      dup2\n        /* \"AulasNearX/arrays.sol\":363:389  DisciplinaNome.push(nomeD) */\n      swap1\n      dup1\n      0x01\n      dup2\n      sload\n      add\n      dup1\n      dup3\n      sstore\n      dup1\n      swap2\n      pop\n      pop\n      0x01\n      swap1\n      sub\n      swap1\n      0x00\n      mstore\n      keccak256(0x00, 0x20)\n      add\n      0x00\n      swap1\n      swap2\n      swap1\n      swap2\n      swap1\n      swap2\n      pop\n      swap1\n      dup2\n      tag_87\n      swap2\n      swap1\n      tag_84\n      jump\t// in\n    tag_87:\n      pop\n        /* \"AulasNearX/arrays.sol\":295:397  function definirDisciplina(string memory nomeD) external {... */\n      pop\n      jump\t// out\n    tag_60:\n      pop\n      dup1\n      sload\n      tag_88\n      swap1\n      tag_50\n      jump\t// in\n    tag_88:\n      0x00\n      dup3\n      sstore\n      dup1\n      0x1f\n      lt\n      tag_90\n      jumpi\n      pop\n      jump(tag_89)\n    tag_90:\n      0x1f\n      add\n      0x20\n      swap1\n      div\n      swap1\n      0x00\n      mstore\n      keccak256(0x00, 0x20)\n      swap1\n      dup2\n      add\n      swap1\n      tag_91\n      swap2\n      swap1\n      tag_92\n      jump\t// in\n    tag_91:\n    tag_89:\n      pop\n      jump\t// out\n    tag_64:\n      dup3\n      dup1\n      sload\n      dup3\n      dup3\n      sstore\n      swap1\n      0x00\n      mstore\n      keccak256(0x00, 0x20)\n      swap1\n      dup2\n      add\n      swap3\n      dup3\n      iszero\n      tag_93\n      jumpi\n      swap2\n      0x20\n      mul\n      dup3\n      add\n    tag_94:\n      dup3\n      dup2\n      gt\n      iszero\n      tag_95\n      jumpi\n      dup3\n      mload\n      dup3\n      swap1\n      dup2\n      tag_96\n      swap2\n      swap1\n      tag_84\n      jump\t// in\n    tag_96:\n      pop\n      swap2\n      0x20\n      add\n      swap2\n      swap1\n      0x01\n      add\n      swap1\n      jump(tag_94)\n    tag_95:\n    tag_93:\n      pop\n      swap1\n      pop\n      tag_97\n      swap2\n      swap1\n      tag_98\n      jump\t// in\n    tag_97:\n      pop\n      swap1\n      jump\t// out\n    tag_92:\n    tag_99:\n      dup1\n      dup3\n      gt\n      iszero\n      tag_100\n      jumpi\n      0x00\n      dup2\n      0x00\n      swap1\n      sstore\n      pop\n      0x01\n      add\n      jump(tag_99)\n    tag_100:\n      pop\n      swap1\n      jump\t// out\n    tag_98:\n    tag_101:\n      dup1\n      dup3\n      gt\n      iszero\n      tag_102\n      jumpi\n      0x00\n      dup2\n      dup2\n      tag_103\n      swap2\n      swap1\n      tag_60\n      jump\t// in\n    tag_103:\n      pop\n      0x01\n      add\n      jump(tag_101)\n    tag_102:\n      pop\n      swap1\n      jump\t// out\n        /* \"#utility.yul\":7:82   */\n    tag_104:\n        /* \"#utility.yul\":40:46   */\n      0x00\n        /* \"#utility.yul\":73:75   */\n      0x40\n        /* \"#utility.yul\":67:76   */\n      mload\n        /* \"#utility.yul\":57:76   */\n      swap1\n      pop\n        /* \"#utility.yul\":7:82   */\n      swap1\n      jump\t// out\n        /* \"#utility.yul\":88:205   */\n    tag_105:\n        /* \"#utility.yul\":197:198   */\n      0x00\n        /* \"#utility.yul\":194:195   */\n      0x00\n        /* \"#utility.yul\":187:199   */\n      revert\n        /* \"#utility.yul\":211:328   */\n    tag_106:\n        /* \"#utility.yul\":320:321   */\n      0x00\n        /* \"#utility.yul\":317:318   */\n      0x00\n        /* \"#utility.yul\":310:322   */\n      revert\n        /* \"#utility.yul\":334:411   */\n    tag_107:\n        /* \"#utility.yul\":371:378   */\n      0x00\n        /* \"#utility.yul\":400:405   */\n      dup2\n        /* \"#utility.yul\":389:405   */\n      swap1\n      pop\n        /* \"#utility.yul\":334:411   */\n      swap2\n      swap1\n      pop\n      jump\t// out\n        /* \"#utility.yul\":417:539   */\n    tag_108:\n        /* \"#utility.yul\":490:514   */\n      tag_149\n        /* \"#utility.yul\":508:513   */\n      dup2\n        /* \"#utility.yul\":490:514   */\n      tag_107\n      jump\t// in\n    tag_149:\n        /* \"#utility.yul\":483:488   */\n      dup2\n        /* \"#utility.yul\":480:515   */\n      eq\n        /* \"#utility.yul\":470:533   */\n      tag_150\n      jumpi\n        /* \"#utility.yul\":529:530   */\n      0x00\n        /* \"#utility.yul\":526:527   */\n      0x00\n        /* \"#utility.yul\":519:531   */\n      revert\n        /* \"#utility.yul\":470:533   */\n    tag_150:\n        /* \"#utility.yul\":417:539   */\n      pop\n      jump\t// out\n        /* \"#utility.yul\":545:684   */\n    tag_109:\n        /* \"#utility.yul\":591:596   */\n      0x00\n        /* \"#utility.yul\":629:635   */\n      dup2\n        /* \"#utility.yul\":616:636   */\n      calldataload\n        /* \"#utility.yul\":607:636   */\n      swap1\n      pop\n        /* \"#utility.yul\":645:678   */\n      tag_152\n        /* \"#utility.yul\":672:677   */\n      dup2\n        /* \"#utility.yul\":645:678   */\n      tag_108\n      jump\t// in\n    tag_152:\n        /* \"#utility.yul\":545:684   */\n      swap3\n      swap2\n      pop\n      pop\n      jump\t// out\n        /* \"#utility.yul\":690:1164   */\n    tag_13:\n        /* \"#utility.yul\":758:764   */\n      0x00\n        /* \"#utility.yul\":766:772   */\n      0x00\n        /* \"#utility.yul\":815:817   */\n      0x40\n        /* \"#utility.yul\":803:812   */\n      dup4\n        /* \"#utility.yul\":794:801   */\n      dup6\n        /* \"#utility.yul\":790:813   */\n      sub\n        /* \"#utility.yul\":786:818   */\n      slt\n        /* \"#utility.yul\":783:902   */\n      iszero\n      tag_154\n      jumpi\n        /* \"#utility.yul\":821:900   */\n      tag_155\n      tag_105\n      jump\t// in\n    tag_155:\n        /* \"#utility.yul\":783:902   */\n    tag_154:\n        /* \"#utility.yul\":941:942   */\n      0x00\n        /* \"#utility.yul\":966:1019   */\n      tag_156\n        /* \"#utility.yul\":1011:1018   */\n      dup6\n        /* \"#utility.yul\":1002:1008   */\n      dup3\n        /* \"#utility.yul\":991:1000   */\n      dup7\n        /* \"#utility.yul\":987:1009   */\n      add\n        /* \"#utility.yul\":966:1019   */\n      tag_109\n      jump\t// in\n    tag_156:\n        /* \"#utility.yul\":956:1019   */\n      swap3\n      pop\n        /* \"#utility.yul\":912:1029   */\n      pop\n        /* \"#utility.yul\":1068:1070   */\n      0x20\n        /* \"#utility.yul\":1094:1147   */\n      tag_157\n        /* \"#utility.yul\":1139:1146   */\n      dup6\n        /* \"#utility.yul\":1130:1136   */\n      dup3\n        /* \"#utility.yul\":1119:1128   */\n      dup7\n        /* \"#utility.yul\":1115:1137   */\n      add\n        /* \"#utility.yul\":1094:1147   */\n      tag_109\n      jump\t// in\n    tag_157:\n        /* \"#utility.yul\":1084:1147   */\n      swap2\n      pop\n        /* \"#utility.yul\":1039:1157   */\n      pop\n        /* \"#utility.yul\":690:1164   */\n      swap3\n      pop\n      swap3\n      swap1\n      pop\n      jump\t// out\n        /* \"#utility.yul\":1170:1269   */\n    tag_110:\n        /* \"#utility.yul\":1222:1228   */\n      0x00\n        /* \"#utility.yul\":1256:1261   */\n      dup2\n        /* \"#utility.yul\":1250:1262   */\n      mload\n        /* \"#utility.yul\":1240:1262   */\n      swap1\n      pop\n        /* \"#utility.yul\":1170:1269   */\n      swap2\n      swap1\n      pop\n      jump\t// out\n        /* \"#utility.yul\":1275:1444   */\n    tag_111:\n        /* \"#utility.yul\":1359:1370   */\n      0x00\n        /* \"#utility.yul\":1393:1399   */\n      dup3\n        /* \"#utility.yul\":1388:1391   */\n      dup3\n        /* \"#utility.yul\":1381:1400   */\n      mstore\n        /* \"#utility.yul\":1433:1437   */\n      0x20\n        /* \"#utility.yul\":1428:1431   */\n      dup3\n        /* \"#utility.yul\":1424:1438   */\n      add\n        /* \"#utility.yul\":1409:1438   */\n      swap1\n      pop\n        /* \"#utility.yul\":1275:1444   */\n      swap3\n      swap2\n      pop\n      pop\n      jump\t// out\n        /* \"#utility.yul\":1450:1589   */\n    tag_112:\n        /* \"#utility.yul\":1539:1545   */\n      dup3\n        /* \"#utility.yul\":1534:1537   */\n      dup2\n        /* \"#utility.yul\":1529:1532   */\n      dup4\n        /* \"#utility.yul\":1523:1546   */\n      mcopy\n        /* \"#utility.yul\":1580:1581   */\n      0x00\n        /* \"#utility.yul\":1571:1577   */\n      dup4\n        /* \"#utility.yul\":1566:1569   */\n      dup4\n        /* \"#utility.yul\":1562:1578   */\n      add\n        /* \"#utility.yul\":1555:1582   */\n      mstore\n        /* \"#utility.yul\":1450:1589   */\n      pop\n      pop\n      pop\n      jump\t// out\n        /* \"#utility.yul\":1595:1697   */\n    tag_113:\n        /* \"#utility.yul\":1636:1642   */\n      0x00\n        /* \"#utility.yul\":1687:1689   */\n      0x1f\n        /* \"#utility.yul\":1683:1690   */\n      not\n        /* \"#utility.yul\":1678:1680   */\n      0x1f\n        /* \"#utility.yul\":1671:1676   */\n      dup4\n        /* \"#utility.yul\":1667:1681   */\n      add\n        /* \"#utility.yul\":1663:1691   */\n      and\n        /* \"#utility.yul\":1653:1691   */\n      swap1\n      pop\n        /* \"#utility.yul\":1595:1697   */\n      swap2\n      swap1\n      pop\n      jump\t// out\n        /* \"#utility.yul\":1703:2080   */\n    tag_114:\n        /* \"#utility.yul\":1791:1794   */\n      0x00\n        /* \"#utility.yul\":1819:1858   */\n      tag_163\n        /* \"#utility.yul\":1852:1857   */\n      dup3\n        /* \"#utility.yul\":1819:1858   */\n      tag_110\n      jump\t// in\n    tag_163:\n        /* \"#utility.yul\":1874:1945   */\n      tag_164\n        /* \"#utility.yul\":1938:1944   */\n      dup2\n        /* \"#utility.yul\":1933:1936   */\n      dup6\n        /* \"#utility.yul\":1874:1945   */\n      tag_111\n      jump\t// in\n    tag_164:\n        /* \"#utility.yul\":1867:1945   */\n      swap4\n      pop\n        /* \"#utility.yul\":1954:2019   */\n      tag_165\n        /* \"#utility.yul\":2012:2018   */\n      dup2\n        /* \"#utility.yul\":2007:2010   */\n      dup6\n        /* \"#utility.yul\":2000:2004   */\n      0x20\n        /* \"#utility.yul\":1993:1998   */\n      dup7\n        /* \"#utility.yul\":1989:2005   */\n      add\n        /* \"#utility.yul\":1954:2019   */\n      tag_112\n      jump\t// in\n    tag_165:\n        /* \"#utility.yul\":2044:2073   */\n      tag_166\n        /* \"#utility.yul\":2066:2072   */\n      dup2\n        /* \"#utility.yul\":2044:2073   */\n      tag_113\n      jump\t// in\n    tag_166:\n        /* \"#utility.yul\":2039:2042   */\n      dup5\n        /* \"#utility.yul\":2035:2074   */\n      add\n        /* \"#utility.yul\":2028:2074   */\n      swap2\n      pop\n        /* \"#utility.yul\":1795:2080   */\n      pop\n        /* \"#utility.yul\":1703:2080   */\n      swap3\n      swap2\n      pop\n      pop\n      jump\t// out\n        /* \"#utility.yul\":2086:2399   */\n    tag_16:\n        /* \"#utility.yul\":2199:2203   */\n      0x00\n        /* \"#utility.yul\":2237:2239   */\n      0x20\n        /* \"#utility.yul\":2226:2235   */\n      dup3\n        /* \"#utility.yul\":2222:2240   */\n      add\n        /* \"#utility.yul\":2214:2240   */\n      swap1\n      pop\n        /* \"#utility.yul\":2286:2295   */\n      dup2\n        /* \"#utility.yul\":2280:2284   */\n      dup2\n        /* \"#utility.yul\":2276:2296   */\n      sub\n        /* \"#utility.yul\":2272:2273   */\n      0x00\n        /* \"#utility.yul\":2261:2270   */\n      dup4\n        /* \"#utility.yul\":2257:2274   */\n      add\n        /* \"#utility.yul\":2250:2297   */\n      mstore\n        /* \"#utility.yul\":2314:2392   */\n      tag_168\n        /* \"#utility.yul\":2387:2391   */\n      dup2\n        /* \"#utility.yul\":2378:2384   */\n      dup5\n        /* \"#utility.yul\":2314:2392   */\n      tag_114\n      jump\t// in\n    tag_168:\n        /* \"#utility.yul\":2306:2392   */\n      swap1\n      pop\n        /* \"#utility.yul\":2086:2399   */\n      swap3\n      swap2\n      pop\n      pop\n      jump\t// out\n        /* \"#utility.yul\":2405:2734   */\n    tag_19:\n        /* \"#utility.yul\":2464:2470   */\n      0x00\n        /* \"#utility.yul\":2513:2515   */\n      0x20\n        /* \"#utility.yul\":2501:2510   */\n      dup3\n        /* \"#utility.yul\":2492:2499   */\n      dup5\n        /* \"#utility.yul\":2488:2511   */\n      sub\n        /* \"#utility.yul\":2484:2516   */\n      slt\n        /* \"#utility.yul\":2481:2600   */\n      iszero\n      tag_170\n      jumpi\n        /* \"#utility.yul\":2519:2598   */\n      tag_171\n      tag_105\n      jump\t// in\n    tag_171:\n        /* \"#utility.yul\":2481:2600   */\n    tag_170:\n        /* \"#utility.yul\":2639:2640   */\n      0x00\n        /* \"#utility.yul\":2664:2717   */\n      tag_172\n        /* \"#utility.yul\":2709:2716   */\n      dup5\n        /* \"#utility.yul\":2700:2706   */\n      dup3\n        /* \"#utility.yul\":2689:2698   */\n      dup6\n        /* \"#utility.yul\":2685:2707   */\n      add\n        /* \"#utility.yul\":2664:2717   */\n      tag_109\n      jump\t// in\n    tag_172:\n        /* \"#utility.yul\":2654:2717   */\n      swap2\n      pop\n        /* \"#utility.yul\":2610:2727   */\n      pop\n        /* \"#utility.yul\":2405:2734   */\n      swap3\n      swap2\n      pop\n      pop\n      jump\t// out\n        /* \"#utility.yul\":2740:2857   */\n    tag_115:\n        /* \"#utility.yul\":2849:2850   */\n      0x00\n        /* \"#utility.yul\":2846:2847   */\n      0x00\n        /* \"#utility.yul\":2839:2851   */\n      revert\n        /* \"#utility.yul\":2863:2980   */\n    tag_116:\n        /* \"#utility.yul\":2972:2973   */\n      0x00\n        /* \"#utility.yul\":2969:2970   */\n      0x00\n        /* \"#utility.yul\":2962:2974   */\n      revert\n        /* \"#utility.yul\":2986:3166   */\n    tag_117:\n        /* \"#utility.yul\":3034:3111   */\n      0x4e487b7100000000000000000000000000000000000000000000000000000000\n        /* \"#utility.yul\":3031:3032   */\n      0x00\n        /* \"#utility.yul\":3024:3112   */\n      mstore\n        /* \"#utility.yul\":3131:3135   */\n      0x41\n        /* \"#utility.yul\":3128:3129   */\n      0x04\n        /* \"#utility.yul\":3121:3136   */\n      mstore\n        /* \"#utility.yul\":3155:3159   */\n      0x24\n        /* \"#utility.yul\":3152:3153   */\n      0x00\n        /* \"#utility.yul\":3145:3160   */\n      revert\n        /* \"#utility.yul\":3172:3453   */\n    tag_118:\n        /* \"#utility.yul\":3255:3282   */\n      tag_177\n        /* \"#utility.yul\":3277:3281   */\n      dup3\n        /* \"#utility.yul\":3255:3282   */\n      tag_113\n      jump\t// in\n    tag_177:\n        /* \"#utility.yul\":3247:3253   */\n      dup2\n        /* \"#utility.yul\":3243:3283   */\n      add\n        /* \"#utility.yul\":3385:3391   */\n      dup2\n        /* \"#utility.yul\":3373:3383   */\n      dup2\n        /* \"#utility.yul\":3370:3392   */\n      lt\n        /* \"#utility.yul\":3349:3367   */\n      0xffffffffffffffff\n        /* \"#utility.yul\":3337:3347   */\n      dup3\n        /* \"#utility.yul\":3334:3368   */\n      gt\n        /* \"#utility.yul\":3331:3393   */\n      or\n        /* \"#utility.yul\":3328:3416   */\n      iszero\n      tag_178\n      jumpi\n        /* \"#utility.yul\":3396:3414   */\n      tag_179\n      tag_117\n      jump\t// in\n    tag_179:\n        /* \"#utility.yul\":3328:3416   */\n    tag_178:\n        /* \"#utility.yul\":3436:3446   */\n      dup1\n        /* \"#utility.yul\":3432:3434   */\n      0x40\n        /* \"#utility.yul\":3425:3447   */\n      mstore\n        /* \"#utility.yul\":3215:3453   */\n      pop\n        /* \"#utility.yul\":3172:3453   */\n      pop\n      pop\n      jump\t// out\n        /* \"#utility.yul\":3459:3588   */\n    tag_119:\n        /* \"#utility.yul\":3493:3499   */\n      0x00\n        /* \"#utility.yul\":3520:3540   */\n      tag_181\n      tag_104\n      jump\t// in\n    tag_181:\n        /* \"#utility.yul\":3510:3540   */\n      swap1\n      pop\n        /* \"#utility.yul\":3549:3582   */\n      tag_182\n        /* \"#utility.yul\":3577:3581   */\n      dup3\n        /* \"#utility.yul\":3569:3575   */\n      dup3\n        /* \"#utility.yul\":3549:3582   */\n      tag_118\n      jump\t// in\n    tag_182:\n        /* \"#utility.yul\":3459:3588   */\n      swap2\n      swap1\n      pop\n      jump\t// out\n        /* \"#utility.yul\":3594:3902   */\n    tag_120:\n        /* \"#utility.yul\":3656:3660   */\n      0x00\n        /* \"#utility.yul\":3746:3764   */\n      0xffffffffffffffff\n        /* \"#utility.yul\":3738:3744   */\n      dup3\n        /* \"#utility.yul\":3735:3765   */\n      gt\n        /* \"#utility.yul\":3732:3788   */\n      iszero\n      tag_184\n      jumpi\n        /* \"#utility.yul\":3768:3786   */\n      tag_185\n      tag_117\n      jump\t// in\n    tag_185:\n        /* \"#utility.yul\":3732:3788   */\n    tag_184:\n        /* \"#utility.yul\":3806:3835   */\n      tag_186\n        /* \"#utility.yul\":3828:3834   */\n      dup3\n        /* \"#utility.yul\":3806:3835   */\n      tag_113\n      jump\t// in\n    tag_186:\n        /* \"#utility.yul\":3798:3835   */\n      swap1\n      pop\n        /* \"#utility.yul\":3890:3894   */\n      0x20\n        /* \"#utility.yul\":3884:3888   */\n      dup2\n        /* \"#utility.yul\":3880:3895   */\n      add\n        /* \"#utility.yul\":3872:3895   */\n      swap1\n      pop\n        /* \"#utility.yul\":3594:3902   */\n      swap2\n      swap1\n      pop\n      jump\t// out\n        /* \"#utility.yul\":3908:4056   */\n    tag_121:\n        /* \"#utility.yul\":4006:4012   */\n      dup3\n        /* \"#utility.yul\":4001:4004   */\n      dup2\n        /* \"#utility.yul\":3996:3999   */\n      dup4\n        /* \"#utility.yul\":3983:4013   */\n      calldatacopy\n        /* \"#utility.yul\":4047:4048   */\n      0x00\n        /* \"#utility.yul\":4038:4044   */\n      dup4\n        /* \"#utility.yul\":4033:4036   */\n      dup4\n        /* \"#utility.yul\":4029:4045   */\n      add\n        /* \"#utility.yul\":4022:4049   */\n      mstore\n        /* \"#utility.yul\":3908:4056   */\n      pop\n      pop\n      pop\n      jump\t// out\n        /* \"#utility.yul\":4062:4487   */\n    tag_122:\n        /* \"#utility.yul\":4140:4145   */\n      0x00\n        /* \"#utility.yul\":4165:4231   */\n      tag_189\n        /* \"#utility.yul\":4181:4230   */\n      tag_190\n        /* \"#utility.yul\":4223:4229   */\n      dup5\n        /* \"#utility.yul\":4181:4230   */\n      tag_120\n      jump\t// in\n    tag_190:\n        /* \"#utility.yul\":4165:4231   */\n      tag_119\n      jump\t// in\n    tag_189:\n        /* \"#utility.yul\":4156:4231   */\n      swap1\n      pop\n        /* \"#utility.yul\":4254:4260   */\n      dup3\n        /* \"#utility.yul\":4247:4252   */\n      dup2\n        /* \"#utility.yul\":4240:4261   */\n      mstore\n        /* \"#utility.yul\":4292:4296   */\n      0x20\n        /* \"#utility.yul\":4285:4290   */\n      dup2\n        /* \"#utility.yul\":4281:4297   */\n      add\n        /* \"#utility.yul\":4330:4333   */\n      dup5\n        /* \"#utility.yul\":4321:4327   */\n      dup5\n        /* \"#utility.yul\":4316:4319   */\n      dup5\n        /* \"#utility.yul\":4312:4328   */\n      add\n        /* \"#utility.yul\":4309:4334   */\n      gt\n        /* \"#utility.yul\":4306:4418   */\n      iszero\n      tag_191\n      jumpi\n        /* \"#utility.yul\":4337:4416   */\n      tag_192\n      tag_116\n      jump\t// in\n    tag_192:\n        /* \"#utility.yul\":4306:4418   */\n    tag_191:\n        /* \"#utility.yul\":4427:4481   */\n      tag_193\n        /* \"#utility.yul\":4474:4480   */\n      dup5\n        /* \"#utility.yul\":4469:4472   */\n      dup3\n        /* \"#utility.yul\":4464:4467   */\n      dup6\n        /* \"#utility.yul\":4427:4481   */\n      tag_121\n      jump\t// in\n    tag_193:\n        /* \"#utility.yul\":4146:4487   */\n      pop\n        /* \"#utility.yul\":4062:4487   */\n      swap4\n      swap3\n      pop\n      pop\n      pop\n      jump\t// out\n        /* \"#utility.yul\":4507:4847   */\n    tag_123:\n        /* \"#utility.yul\":4563:4568   */\n      0x00\n        /* \"#utility.yul\":4612:4615   */\n      dup3\n        /* \"#utility.yul\":4605:4609   */\n      0x1f\n        /* \"#utility.yul\":4597:4603   */\n      dup4\n        /* \"#utility.yul\":4593:4610   */\n      add\n        /* \"#utility.yul\":4589:4616   */\n      slt\n        /* \"#utility.yul\":4579:4701   */\n      tag_195\n      jumpi\n        /* \"#utility.yul\":4620:4699   */\n      tag_196\n      tag_115\n      jump\t// in\n    tag_196:\n        /* \"#utility.yul\":4579:4701   */\n    tag_195:\n        /* \"#utility.yul\":4737:4743   */\n      dup2\n        /* \"#utility.yul\":4724:4744   */\n      calldataload\n        /* \"#utility.yul\":4762:4841   */\n      tag_197\n        /* \"#utility.yul\":4837:4840   */\n      dup5\n        /* \"#utility.yul\":4829:4835   */\n      dup3\n        /* \"#utility.yul\":4822:4826   */\n      0x20\n        /* \"#utility.yul\":4814:4820   */\n      dup7\n        /* \"#utility.yul\":4810:4827   */\n      add\n        /* \"#utility.yul\":4762:4841   */\n      tag_122\n      jump\t// in\n    tag_197:\n        /* \"#utility.yul\":4753:4841   */\n      swap2\n      pop\n        /* \"#utility.yul\":4569:4847   */\n      pop\n        /* \"#utility.yul\":4507:4847   */\n      swap3\n      swap2\n      pop\n      pop\n      jump\t// out\n        /* \"#utility.yul\":4853:5687   */\n    tag_23:\n        /* \"#utility.yul\":4941:4947   */\n      0x00\n        /* \"#utility.yul\":4949:4955   */\n      0x00\n        /* \"#utility.yul\":4998:5000   */\n      0x40\n        /* \"#utility.yul\":4986:4995   */\n      dup4\n        /* \"#utility.yul\":4977:4984   */\n      dup6\n        /* \"#utility.yul\":4973:4996   */\n      sub\n        /* \"#utility.yul\":4969:5001   */\n      slt\n        /* \"#utility.yul\":4966:5085   */\n      iszero\n      tag_199\n      jumpi\n        /* \"#utility.yul\":5004:5083   */\n      tag_200\n      tag_105\n      jump\t// in\n    tag_200:\n        /* \"#utility.yul\":4966:5085   */\n    tag_199:\n        /* \"#utility.yul\":5152:5153   */\n      0x00\n        /* \"#utility.yul\":5141:5150   */\n      dup4\n        /* \"#utility.yul\":5137:5154   */\n      add\n        /* \"#utility.yul\":5124:5155   */\n      calldataload\n        /* \"#utility.yul\":5182:5200   */\n      0xffffffffffffffff\n        /* \"#utility.yul\":5174:5180   */\n      dup2\n        /* \"#utility.yul\":5171:5201   */\n      gt\n        /* \"#utility.yul\":5168:5285   */\n      iszero\n      tag_201\n      jumpi\n        /* \"#utility.yul\":5204:5283   */\n      tag_202\n      tag_106\n      jump\t// in\n    tag_202:\n        /* \"#utility.yul\":5168:5285   */\n    tag_201:\n        /* \"#utility.yul\":5309:5372   */\n      tag_203\n        /* \"#utility.yul\":5364:5371   */\n      dup6\n        /* \"#utility.yul\":5355:5361   */\n      dup3\n        /* \"#utility.yul\":5344:5353   */\n      dup7\n        /* \"#utility.yul\":5340:5362   */\n      add\n        /* \"#utility.yul\":5309:5372   */\n      tag_123\n      jump\t// in\n    tag_203:\n        /* \"#utility.yul\":5299:5372   */\n      swap3\n      pop\n        /* \"#utility.yul\":5095:5382   */\n      pop\n        /* \"#utility.yul\":5449:5451   */\n      0x20\n        /* \"#utility.yul\":5438:5447   */\n      dup4\n        /* \"#utility.yul\":5434:5452   */\n      add\n        /* \"#utility.yul\":5421:5453   */\n      calldataload\n        /* \"#utility.yul\":5480:5498   */\n      0xffffffffffffffff\n        /* \"#utility.yul\":5472:5478   */\n      dup2\n        /* \"#utility.yul\":5469:5499   */\n      gt\n        /* \"#utility.yul\":5466:5583   */\n      iszero\n      tag_204\n      jumpi\n        /* \"#utility.yul\":5502:5581   */\n      tag_205\n      tag_106\n      jump\t// in\n    tag_205:\n        /* \"#utility.yul\":5466:5583   */\n    tag_204:\n        /* \"#utility.yul\":5607:5670   */\n      tag_206\n        /* \"#utility.yul\":5662:5669   */\n      dup6\n        /* \"#utility.yul\":5653:5659   */\n      dup3\n        /* \"#utility.yul\":5642:5651   */\n      dup7\n        /* \"#utility.yul\":5638:5660   */\n      add\n        /* \"#utility.yul\":5607:5670   */\n      tag_123\n      jump\t// in\n    tag_206:\n        /* \"#utility.yul\":5597:5670   */\n      swap2\n      pop\n        /* \"#utility.yul\":5392:5680   */\n      pop\n        /* \"#utility.yul\":4853:5687   */\n      swap3\n      pop\n      swap3\n      swap1\n      pop\n      jump\t// out\n        /* \"#utility.yul\":5693:5779   */\n    tag_124:\n        /* \"#utility.yul\":5728:5735   */\n      0x00\n        /* \"#utility.yul\":5768:5772   */\n      0xff\n        /* \"#utility.yul\":5761:5766   */\n      dup3\n        /* \"#utility.yul\":5757:5773   */\n      and\n        /* \"#utility.yul\":5746:5773   */\n      swap1\n      pop\n        /* \"#utility.yul\":5693:5779   */\n      swap2\n      swap1\n      pop\n      jump\t// out\n        /* \"#utility.yul\":5785:5903   */\n    tag_125:\n        /* \"#utility.yul\":5856:5878   */\n      tag_209\n        /* \"#utility.yul\":5872:5877   */\n      dup2\n        /* \"#utility.yul\":5856:5878   */\n      tag_124\n      jump\t// in\n    tag_209:\n        /* \"#utility.yul\":5849:5854   */\n      dup2\n        /* \"#utility.yul\":5846:5879   */\n      eq\n        /* \"#utility.yul\":5836:5897   */\n      tag_210\n      jumpi\n        /* \"#utility.yul\":5893:5894   */\n      0x00\n        /* \"#utility.yul\":5890:5891   */\n      0x00\n        /* \"#utility.yul\":5883:5895   */\n      revert\n        /* \"#utility.yul\":5836:5897   */\n    tag_210:\n        /* \"#utility.yul\":5785:5903   */\n      pop\n      jump\t// out\n        /* \"#utility.yul\":5909:6044   */\n    tag_126:\n        /* \"#utility.yul\":5953:5958   */\n      0x00\n        /* \"#utility.yul\":5991:5997   */\n      dup2\n        /* \"#utility.yul\":5978:5998   */\n      calldataload\n        /* \"#utility.yul\":5969:5998   */\n      swap1\n      pop\n        /* \"#utility.yul\":6007:6038   */\n      tag_212\n        /* \"#utility.yul\":6032:6037   */\n      dup2\n        /* \"#utility.yul\":6007:6038   */\n      tag_125\n      jump\t// in\n    tag_212:\n        /* \"#utility.yul\":5909:6044   */\n      swap3\n      swap2\n      pop\n      pop\n      jump\t// out\n        /* \"#utility.yul\":6050:6700   */\n    tag_35:\n        /* \"#utility.yul\":6126:6132   */\n      0x00\n        /* \"#utility.yul\":6134:6140   */\n      0x00\n        /* \"#utility.yul\":6183:6185   */\n      0x40\n        /* \"#utility.yul\":6171:6180   */\n      dup4\n        /* \"#utility.yul\":6162:6169   */\n      dup6\n        /* \"#utility.yul\":6158:6181   */\n      sub\n        /* \"#utility.yul\":6154:6186   */\n      slt\n        /* \"#utility.yul\":6151:6270   */\n      iszero\n      tag_214\n      jumpi\n        /* \"#utility.yul\":6189:6268   */\n      tag_215\n      tag_105\n      jump\t// in\n    tag_215:\n        /* \"#utility.yul\":6151:6270   */\n    tag_214:\n        /* \"#utility.yul\":6309:6310   */\n      0x00\n        /* \"#utility.yul\":6334:6385   */\n      tag_216\n        /* \"#utility.yul\":6377:6384   */\n      dup6\n        /* \"#utility.yul\":6368:6374   */\n      dup3\n        /* \"#utility.yul\":6357:6366   */\n      dup7\n        /* \"#utility.yul\":6353:6375   */\n      add\n        /* \"#utility.yul\":6334:6385   */\n      tag_126\n      jump\t// in\n    tag_216:\n        /* \"#utility.yul\":6324:6385   */\n      swap3\n      pop\n        /* \"#utility.yul\":6280:6395   */\n      pop\n        /* \"#utility.yul\":6462:6464   */\n      0x20\n        /* \"#utility.yul\":6451:6460   */\n      dup4\n        /* \"#utility.yul\":6447:6465   */\n      add\n        /* \"#utility.yul\":6434:6466   */\n      calldataload\n        /* \"#utility.yul\":6493:6511   */\n      0xffffffffffffffff\n        /* \"#utility.yul\":6485:6491   */\n      dup2\n        /* \"#utility.yul\":6482:6512   */\n      gt\n        /* \"#utility.yul\":6479:6596   */\n      iszero\n      tag_217\n      jumpi\n        /* \"#utility.yul\":6515:6594   */\n      tag_218\n      tag_106\n      jump\t// in\n    tag_218:\n        /* \"#utility.yul\":6479:6596   */\n    tag_217:\n        /* \"#utility.yul\":6620:6683   */\n      tag_219\n        /* \"#utility.yul\":6675:6682   */\n      dup6\n        /* \"#utility.yul\":6666:6672   */\n      dup3\n        /* \"#utility.yul\":6655:6664   */\n      dup7\n        /* \"#utility.yul\":6651:6673   */\n      add\n        /* \"#utility.yul\":6620:6683   */\n      tag_123\n      jump\t// in\n    tag_219:\n        /* \"#utility.yul\":6610:6683   */\n      swap2\n      pop\n        /* \"#utility.yul\":6405:6693   */\n      pop\n        /* \"#utility.yul\":6050:6700   */\n      swap3\n      pop\n      swap3\n      swap1\n      pop\n      jump\t// out\n        /* \"#utility.yul\":6706:7215   */\n    tag_39:\n        /* \"#utility.yul\":6775:6781   */\n      0x00\n        /* \"#utility.yul\":6824:6826   */\n      0x20\n        /* \"#utility.yul\":6812:6821   */\n      dup3\n        /* \"#utility.yul\":6803:6810   */\n      dup5\n        /* \"#utility.yul\":6799:6822   */\n      sub\n        /* \"#utility.yul\":6795:6827   */\n      slt\n        /* \"#utility.yul\":6792:6911   */\n      iszero\n      tag_221\n      jumpi\n        /* \"#utility.yul\":6830:6909   */\n      tag_222\n      tag_105\n      jump\t// in\n    tag_222:\n        /* \"#utility.yul\":6792:6911   */\n    tag_221:\n        /* \"#utility.yul\":6978:6979   */\n      0x00\n        /* \"#utility.yul\":6967:6976   */\n      dup3\n        /* \"#utility.yul\":6963:6980   */\n      add\n        /* \"#utility.yul\":6950:6981   */\n      calldataload\n        /* \"#utility.yul\":7008:7026   */\n      0xffffffffffffffff\n        /* \"#utility.yul\":7000:7006   */\n      dup2\n        /* \"#utility.yul\":6997:7027   */\n      gt\n        /* \"#utility.yul\":6994:7111   */\n      iszero\n      tag_223\n      jumpi\n        /* \"#utility.yul\":7030:7109   */\n      tag_224\n      tag_106\n      jump\t// in\n    tag_224:\n        /* \"#utility.yul\":6994:7111   */\n    tag_223:\n        /* \"#utility.yul\":7135:7198   */\n      tag_225\n        /* \"#utility.yul\":7190:7197   */\n      dup5\n        /* \"#utility.yul\":7181:7187   */\n      dup3\n        /* \"#utility.yul\":7170:7179   */\n      dup6\n        /* \"#utility.yul\":7166:7188   */\n      add\n        /* \"#utility.yul\":7135:7198   */\n      tag_123\n      jump\t// in\n    tag_225:\n        /* \"#utility.yul\":7125:7198   */\n      swap2\n      pop\n        /* \"#utility.yul\":6921:7208   */\n      pop\n        /* \"#utility.yul\":6706:7215   */\n      swap3\n      swap2\n      pop\n      pop\n      jump\t// out\n        /* \"#utility.yul\":7221:7401   */\n    tag_44:\n        /* \"#utility.yul\":7269:7346   */\n      0x4e487b7100000000000000000000000000000000000000000000000000000000\n        /* \"#utility.yul\":7266:7267   */\n      0x00\n        /* \"#utility.yul\":7259:7347   */\n      mstore\n        /* \"#utility.yul\":7366:7370   */\n      0x32\n        /* \"#utility.yul\":7363:7364   */\n      0x04\n        /* \"#utility.yul\":7356:7371   */\n      mstore\n        /* \"#utility.yul\":7390:7394   */\n      0x24\n        /* \"#utility.yul\":7387:7388   */\n      0x00\n        /* \"#utility.yul\":7380:7395   */\n      revert\n        /* \"#utility.yul\":7407:7587   */\n    tag_127:\n        /* \"#utility.yul\":7455:7532   */\n      0x4e487b7100000000000000000000000000000000000000000000000000000000\n        /* \"#utility.yul\":7452:7453   */\n      0x00\n        /* \"#utility.yul\":7445:7533   */\n      mstore\n        /* \"#utility.yul\":7552:7556   */\n      0x22\n        /* \"#utility.yul\":7549:7550   */\n      0x04\n        /* \"#utility.yul\":7542:7557   */\n      mstore\n        /* \"#utility.yul\":7576:7580   */\n      0x24\n        /* \"#utility.yul\":7573:7574   */\n      0x00\n        /* \"#utility.yul\":7566:7581   */\n      revert\n        /* \"#utility.yul\":7593:7913   */\n    tag_50:\n        /* \"#utility.yul\":7637:7643   */\n      0x00\n        /* \"#utility.yul\":7674:7675   */\n      0x02\n        /* \"#utility.yul\":7668:7672   */\n      dup3\n        /* \"#utility.yul\":7664:7676   */\n      div\n        /* \"#utility.yul\":7654:7676   */\n      swap1\n      pop\n        /* \"#utility.yul\":7721:7722   */\n      0x01\n        /* \"#utility.yul\":7715:7719   */\n      dup3\n        /* \"#utility.yul\":7711:7723   */\n      and\n        /* \"#utility.yul\":7742:7760   */\n      dup1\n        /* \"#utility.yul\":7732:7813   */\n      tag_229\n      jumpi\n        /* \"#utility.yul\":7798:7802   */\n      0x7f\n        /* \"#utility.yul\":7790:7796   */\n      dup3\n        /* \"#utility.yul\":7786:7803   */\n      and\n        /* \"#utility.yul\":7776:7803   */\n      swap2\n      pop\n        /* \"#utility.yul\":7732:7813   */\n    tag_229:\n        /* \"#utility.yul\":7860:7862   */\n      0x20\n        /* \"#utility.yul\":7852:7858   */\n      dup3\n        /* \"#utility.yul\":7849:7863   */\n      lt\n        /* \"#utility.yul\":7829:7847   */\n      dup2\n        /* \"#utility.yul\":7826:7864   */\n      sub\n        /* \"#utility.yul\":7823:7907   */\n      tag_230\n      jumpi\n        /* \"#utility.yul\":7879:7897   */\n      tag_231\n      tag_127\n      jump\t// in\n    tag_231:\n        /* \"#utility.yul\":7823:7907   */\n    tag_230:\n        /* \"#utility.yul\":7644:7913   */\n      pop\n        /* \"#utility.yul\":7593:7913   */\n      swap2\n      swap1\n      pop\n      jump\t// out\n        /* \"#utility.yul\":7919:8060   */\n    tag_128:\n        /* \"#utility.yul\":7968:7972   */\n      0x00\n        /* \"#utility.yul\":7991:7994   */\n      dup2\n        /* \"#utility.yul\":7983:7994   */\n      swap1\n      pop\n        /* \"#utility.yul\":8014:8017   */\n      dup2\n        /* \"#utility.yul\":8011:8012   */\n      0x00\n        /* \"#utility.yul\":8004:8018   */\n      mstore\n        /* \"#utility.yul\":8048:8052   */\n      0x20\n        /* \"#utility.yul\":8045:8046   */\n      0x00\n        /* \"#utility.yul\":8035:8053   */\n      keccak256\n        /* \"#utility.yul\":8027:8053   */\n      swap1\n      pop\n        /* \"#utility.yul\":7919:8060   */\n      swap2\n      swap1\n      pop\n      jump\t// out\n        /* \"#utility.yul\":8066:8159   */\n    tag_129:\n        /* \"#utility.yul\":8103:8109   */\n      0x00\n        /* \"#utility.yul\":8150:8152   */\n      0x20\n        /* \"#utility.yul\":8145:8147   */\n      0x1f\n        /* \"#utility.yul\":8138:8143   */\n      dup4\n        /* \"#utility.yul\":8134:8148   */\n      add\n        /* \"#utility.yul\":8130:8153   */\n      div\n        /* \"#utility.yul\":8120:8153   */\n      swap1\n      pop\n        /* \"#utility.yul\":8066:8159   */\n      swap2\n      swap1\n      pop\n      jump\t// out\n        /* \"#utility.yul\":8165:8272   */\n    tag_130:\n        /* \"#utility.yul\":8209:8217   */\n      0x00\n        /* \"#utility.yul\":8259:8264   */\n      dup3\n        /* \"#utility.yul\":8253:8257   */\n      dup3\n        /* \"#utility.yul\":8249:8265   */\n      shl\n        /* \"#utility.yul\":8228:8265   */\n      swap1\n      pop\n        /* \"#utility.yul\":8165:8272   */\n      swap3\n      swap2\n      pop\n      pop\n      jump\t// out\n        /* \"#utility.yul\":8278:8671   */\n    tag_131:\n        /* \"#utility.yul\":8347:8353   */\n      0x00\n        /* \"#utility.yul\":8397:8398   */\n      0x08\n        /* \"#utility.yul\":8385:8395   */\n      dup4\n        /* \"#utility.yul\":8381:8399   */\n      mul\n        /* \"#utility.yul\":8420:8517   */\n      tag_236\n        /* \"#utility.yul\":8450:8516   */\n      0xffffffffffffffffffffffffffffffffffffffffffffffffffffffffffffffff\n        /* \"#utility.yul\":8439:8448   */\n      dup3\n        /* \"#utility.yul\":8420:8517   */\n      tag_130\n      jump\t// in\n    tag_236:\n        /* \"#utility.yul\":8538:8577   */\n      tag_237\n        /* \"#utility.yul\":8568:8576   */\n      dup7\n        /* \"#utility.yul\":8557:8566   */\n      dup4\n        /* \"#utility.yul\":8538:8577   */\n      tag_130\n      jump\t// in\n    tag_237:\n        /* \"#utility.yul\":8526:8577   */\n      swap6\n      pop\n        /* \"#utility.yul\":8610:8614   */\n      dup1\n        /* \"#utility.yul\":8606:8615   */\n      not\n        /* \"#utility.yul\":8599:8604   */\n      dup5\n        /* \"#utility.yul\":8595:8616   */\n      and\n        /* \"#utility.yul\":8586:8616   */\n      swap4\n      pop\n        /* \"#utility.yul\":8659:8663   */\n      dup1\n        /* \"#utility.yul\":8649:8657   */\n      dup7\n        /* \"#utility.yul\":8645:8664   */\n      and\n        /* \"#utility.yul\":8638:8643   */\n      dup5\n        /* \"#utility.yul\":8635:8665   */\n      or\n        /* \"#utility.yul\":8625:8665   */\n      swap3\n      pop\n        /* \"#utility.yul\":8354:8671   */\n      pop\n      pop\n        /* \"#utility.yul\":8278:8671   */\n      swap4\n      swap3\n      pop\n      pop\n      pop\n      jump\t// out\n        /* \"#utility.yul\":8677:8737   */\n    tag_132:\n        /* \"#utility.yul\":8705:8708   */\n      0x00\n        /* \"#utility.yul\":8726:8731   */\n      dup2\n        /* \"#utility.yul\":8719:8731   */\n      swap1\n      pop\n        /* \"#utility.yul\":8677:8737   */\n      swap2\n      swap1\n      pop\n      jump\t// out\n        /* \"#utility.yul\":8743:8885   */\n    tag_133:\n        /* \"#utility.yul\":8793:8802   */\n      0x00\n        /* \"#utility.yul\":8826:8879   */\n      tag_240\n        /* \"#utility.yul\":8844:8878   */\n      tag_241\n        /* \"#utility.yul\":8853:8877   */\n      tag_242\n        /* \"#utility.yul\":8871:8876   */\n      dup5\n        /* \"#utility.yul\":8853:8877   */\n      tag_107\n      jump\t// in\n    tag_242:\n        /* \"#utility.yul\":8844:8878   */\n      tag_132\n      jump\t// in\n    tag_241:\n        /* \"#utility.yul\":8826:8879   */\n      tag_107\n      jump\t// in\n    tag_240:\n        /* \"#utility.yul\":8813:8879   */\n      swap1\n      pop\n        /* \"#utility.yul\":8743:8885   */\n      swap2\n      swap1\n      pop\n      jump\t// out\n        /* \"#utility.yul\":8891:8966   */\n    tag_134:\n        /* \"#utility.yul\":8934:8937   */\n      0x00\n        /* \"#utility.yul\":8955:8960   */\n      dup2\n        /* \"#utility.yul\":8948:8960   */\n      swap1\n      pop\n        /* \"#utility.yul\":8891:8966   */\n      swap2\n      swap1\n      pop\n      jump\t// out\n        /* \"#utility.yul\":8972:9241   */\n    tag_135:\n        /* \"#utility.yul\":9082:9121   */\n      tag_245\n        /* \"#utility.yul\":9113:9120   */\n      dup4\n        /* \"#utility.yul\":9082:9121   */\n      tag_133\n      jump\t// in\n    tag_245:\n        /* \"#utility.yul\":9143:9234   */\n      tag_246\n        /* \"#utility.yul\":9192:9233   */\n      tag_247\n        /* \"#utility.yul\":9216:9232   */\n      dup3\n        /* \"#utility.yul\":9192:9233   */\n      tag_134\n      jump\t// in\n    tag_247:\n        /* \"#utility.yul\":9184:9190   */\n      dup5\n        /* \"#utility.yul\":9177:9181   */\n      dup5\n        /* \"#utility.yul\":9171:9182   */\n      sload\n        /* \"#utility.yul\":9143:9234   */\n      tag_131\n      jump\t// in\n    tag_246:\n        /* \"#utility.yul\":9137:9141   */\n      dup3\n        /* \"#utility.yul\":9130:9235   */\n      sstore\n        /* \"#utility.yul\":9048:9241   */\n      pop\n        /* \"#utility.yul\":8972:9241   */\n      pop\n      pop\n      pop\n      jump\t// out\n        /* \"#utility.yul\":9247:9320   */\n    tag_136:\n        /* \"#utility.yul\":9292:9295   */\n      0x00\n        /* \"#utility.yul\":9313:9314   */\n      0x00\n        /* \"#utility.yul\":9306:9314   */\n      swap1\n      pop\n        /* \"#utility.yul\":9247:9320   */\n      swap1\n      jump\t// out\n        /* \"#utility.yul\":9326:9515   */\n    tag_137:\n        /* \"#utility.yul\":9403:9435   */\n      tag_250\n      tag_136\n      jump\t// in\n    tag_250:\n        /* \"#utility.yul\":9444:9509   */\n      tag_251\n        /* \"#utility.yul\":9502:9508   */\n      dup2\n        /* \"#utility.yul\":9494:9500   */\n      dup5\n        /* \"#utility.yul\":9488:9492   */\n      dup5\n        /* \"#utility.yul\":9444:9509   */\n      tag_135\n      jump\t// in\n    tag_251:\n        /* \"#utility.yul\":9379:9515   */\n      pop\n        /* \"#utility.yul\":9326:9515   */\n      pop\n      pop\n      jump\t// out\n        /* \"#utility.yul\":9521:9707   */\n    tag_138:\n        /* \"#utility.yul\":9581:9701   */\n    tag_253:\n        /* \"#utility.yul\":9598:9601   */\n      dup2\n        /* \"#utility.yul\":9591:9596   */\n      dup2\n        /* \"#utility.yul\":9588:9602   */\n      lt\n        /* \"#utility.yul\":9581:9701   */\n      iszero\n      tag_255\n      jumpi\n        /* \"#utility.yul\":9652:9691   */\n      tag_256\n        /* \"#utility.yul\":9689:9690   */\n      0x00\n        /* \"#utility.yul\":9682:9687   */\n      dup3\n        /* \"#utility.yul\":9652:9691   */\n      tag_137\n      jump\t// in\n    tag_256:\n        /* \"#utility.yul\":9625:9626   */\n      0x01\n        /* \"#utility.yul\":9618:9623   */\n      dup2\n        /* \"#utility.yul\":9614:9627   */\n      add\n        /* \"#utility.yul\":9605:9627   */\n      swap1\n      pop\n        /* \"#utility.yul\":9581:9701   */\n      jump(tag_253)\n    tag_255:\n        /* \"#utility.yul\":9521:9707   */\n      pop\n      pop\n      jump\t// out\n        /* \"#utility.yul\":9713:10256   */\n    tag_139:\n        /* \"#utility.yul\":9814:9816   */\n      0x1f\n        /* \"#utility.yul\":9809:9812   */\n      dup3\n        /* \"#utility.yul\":9806:9817   */\n      gt\n        /* \"#utility.yul\":9803:10249   */\n      iszero\n      tag_258\n      jumpi\n        /* \"#utility.yul\":9848:9886   */\n      tag_259\n        /* \"#utility.yul\":9880:9885   */\n      dup2\n        /* \"#utility.yul\":9848:9886   */\n      tag_128\n      jump\t// in\n    tag_259:\n        /* \"#utility.yul\":9932:9961   */\n      tag_260\n        /* \"#utility.yul\":9950:9960   */\n      dup5\n        /* \"#utility.yul\":9932:9961   */\n      tag_129\n      jump\t// in\n    tag_260:\n        /* \"#utility.yul\":9922:9930   */\n      dup2\n        /* \"#utility.yul\":9918:9962   */\n      add\n        /* \"#utility.yul\":10115:10117   */\n      0x20\n        /* \"#utility.yul\":10103:10113   */\n      dup6\n        /* \"#utility.yul\":10100:10118   */\n      lt\n        /* \"#utility.yul\":10097:10146   */\n      iszero\n      tag_261\n      jumpi\n        /* \"#utility.yul\":10136:10144   */\n      dup2\n        /* \"#utility.yul\":10121:10144   */\n      swap1\n      pop\n        /* \"#utility.yul\":10097:10146   */\n    tag_261:\n        /* \"#utility.yul\":10159:10239   */\n      tag_262\n        /* \"#utility.yul\":10215:10237   */\n      tag_263\n        /* \"#utility.yul\":10233:10236   */\n      dup6\n        /* \"#utility.yul\":10215:10237   */\n      tag_129\n      jump\t// in\n    tag_263:\n        /* \"#utility.yul\":10205:10213   */\n      dup4\n        /* \"#utility.yul\":10201:10238   */\n      add\n        /* \"#utility.yul\":10188:10199   */\n      dup3\n        /* \"#utility.yul\":10159:10239   */\n      tag_138\n      jump\t// in\n    tag_262:\n        /* \"#utility.yul\":9818:10249   */\n      pop\n      pop\n        /* \"#utility.yul\":9803:10249   */\n    tag_258:\n        /* \"#utility.yul\":9713:10256   */\n      pop\n      pop\n      pop\n      jump\t// out\n        /* \"#utility.yul\":10262:10379   */\n    tag_140:\n        /* \"#utility.yul\":10316:10324   */\n      0x00\n        /* \"#utility.yul\":10366:10371   */\n      dup3\n        /* \"#utility.yul\":10360:10364   */\n      dup3\n        /* \"#utility.yul\":10356:10372   */\n      shr\n        /* \"#utility.yul\":10335:10372   */\n      swap1\n      pop\n        /* \"#utility.yul\":10262:10379   */\n      swap3\n      swap2\n      pop\n      pop\n      jump\t// out\n        /* \"#utility.yul\":10385:10554   */\n    tag_141:\n        /* \"#utility.yul\":10429:10435   */\n      0x00\n        /* \"#utility.yul\":10462:10513   */\n      tag_266\n        /* \"#utility.yul\":10510:10511   */\n      0x00\n        /* \"#utility.yul\":10506:10512   */\n      not\n        /* \"#utility.yul\":10498:10503   */\n      dup5\n        /* \"#utility.yul\":10495:10496   */\n      0x08\n        /* \"#utility.yul\":10491:10504   */\n      mul\n        /* \"#utility.yul\":10462:10513   */\n      tag_140\n      jump\t// in\n    tag_266:\n        /* \"#utility.yul\":10458:10514   */\n      not\n        /* \"#utility.yul\":10543:10547   */\n      dup1\n        /* \"#utility.yul\":10537:10541   */\n      dup4\n        /* \"#utility.yul\":10533:10548   */\n      and\n        /* \"#utility.yul\":10523:10548   */\n      swap2\n      pop\n        /* \"#utility.yul\":10436:10554   */\n      pop\n        /* \"#utility.yul\":10385:10554   */\n      swap3\n      swap2\n      pop\n      pop\n      jump\t// out\n        /* \"#utility.yul\":10559:10854   */\n    tag_142:\n        /* \"#utility.yul\":10635:10639   */\n      0x00\n        /* \"#utility.yul\":10781:10810   */\n      tag_268\n        /* \"#utility.yul\":10806:10809   */\n      dup4\n        /* \"#utility.yul\":10800:10804   */\n      dup4\n        /* \"#utility.yul\":10781:10810   */\n      tag_141\n      jump\t// in\n    tag_268:\n        /* \"#utility.yul\":10773:10810   */\n      swap2\n      pop\n        /* \"#utility.yul\":10843:10846   */\n      dup3\n        /* \"#utility.yul\":10840:10841   */\n      0x02\n        /* \"#utility.yul\":10836:10847   */\n      mul\n        /* \"#utility.yul\":10830:10834   */\n      dup3\n        /* \"#utility.yul\":10827:10848   */\n      or\n        /* \"#utility.yul\":10819:10848   */\n      swap1\n      pop\n        /* \"#utility.yul\":10559:10854   */\n      swap3\n      swap2\n      pop\n      pop\n      jump\t// out\n        /* \"#utility.yul\":10859:12254   */\n    tag_84:\n        /* \"#utility.yul\":10976:11013   */\n      tag_270\n        /* \"#utility.yul\":11009:11012   */\n      dup3\n        /* \"#utility.yul\":10976:11013   */\n      tag_110\n      jump\t// in\n    tag_270:\n        /* \"#utility.yul\":11078:11096   */\n      0xffffffffffffffff\n        /* \"#utility.yul\":11070:11076   */\n      dup2\n        /* \"#utility.yul\":11067:11097   */\n      gt\n        /* \"#utility.yul\":11064:11120   */\n      iszero\n      tag_271\n      jumpi\n        /* \"#utility.yul\":11100:11118   */\n      tag_272\n      tag_117\n      jump\t// in\n    tag_272:\n        /* \"#utility.yul\":11064:11120   */\n    tag_271:\n        /* \"#utility.yul\":11144:11182   */\n      tag_273\n        /* \"#utility.yul\":11176:11180   */\n      dup3\n        /* \"#utility.yul\":11170:11181   */\n      sload\n        /* \"#utility.yul\":11144:11182   */\n      tag_50\n      jump\t// in\n    tag_273:\n        /* \"#utility.yul\":11229:11296   */\n      tag_274\n        /* \"#utility.yul\":11289:11295   */\n      dup3\n        /* \"#utility.yul\":11281:11287   */\n      dup3\n        /* \"#utility.yul\":11275:11279   */\n      dup6\n        /* \"#utility.yul\":11229:11296   */\n      tag_139\n      jump\t// in\n    tag_274:\n        /* \"#utility.yul\":11323:11324   */\n      0x00\n        /* \"#utility.yul\":11347:11351   */\n      0x20\n        /* \"#utility.yul\":11334:11351   */\n      swap1\n      pop\n        /* \"#utility.yul\":11379:11381   */\n      0x1f\n        /* \"#utility.yul\":11371:11377   */\n      dup4\n        /* \"#utility.yul\":11368:11382   */\n      gt\n        /* \"#utility.yul\":11396:11397   */\n      0x01\n        /* \"#utility.yul\":11391:12009   */\n      dup2\n      eq\n      tag_276\n      jumpi\n        /* \"#utility.yul\":12053:12054   */\n      0x00\n        /* \"#utility.yul\":12070:12076   */\n      dup5\n        /* \"#utility.yul\":12067:12144   */\n      iszero\n      tag_277\n      jumpi\n        /* \"#utility.yul\":12119:12128   */\n      dup3\n        /* \"#utility.yul\":12114:12117   */\n      dup8\n        /* \"#utility.yul\":12110:12129   */\n      add\n        /* \"#utility.yul\":12104:12130   */\n      mload\n        /* \"#utility.yul\":12095:12130   */\n      swap1\n      pop\n        /* \"#utility.yul\":12067:12144   */\n    tag_277:\n        /* \"#utility.yul\":12170:12237   */\n      tag_278\n        /* \"#utility.yul\":12230:12236   */\n      dup6\n        /* \"#utility.yul\":12223:12228   */\n      dup3\n        /* \"#utility.yul\":12170:12237   */\n      tag_142\n      jump\t// in\n    tag_278:\n        /* \"#utility.yul\":12164:12168   */\n      dup7\n        /* \"#utility.yul\":12157:12238   */\n      sstore\n        /* \"#utility.yul\":12026:12248   */\n      pop\n        /* \"#utility.yul\":11361:12248   */\n      jump(tag_275)\n        /* \"#utility.yul\":11391:12009   */\n    tag_276:\n        /* \"#utility.yul\":11443:11447   */\n      0x1f\n        /* \"#utility.yul\":11439:11448   */\n      not\n        /* \"#utility.yul\":11431:11437   */\n      dup5\n        /* \"#utility.yul\":11427:11449   */\n      and\n        /* \"#utility.yul\":11477:11514   */\n      tag_279\n        /* \"#utility.yul\":11509:11513   */\n      dup7\n        /* \"#utility.yul\":11477:11514   */\n      tag_128\n      jump\t// in\n    tag_279:\n        /* \"#utility.yul\":11536:11537   */\n      0x00\n        /* \"#utility.yul\":11550:11758   */\n    tag_280:\n        /* \"#utility.yul\":11564:11571   */\n      dup3\n        /* \"#utility.yul\":11561:11562   */\n      dup2\n        /* \"#utility.yul\":11558:11572   */\n      lt\n        /* \"#utility.yul\":11550:11758   */\n      iszero\n      tag_282\n      jumpi\n        /* \"#utility.yul\":11643:11652   */\n      dup5\n        /* \"#utility.yul\":11638:11641   */\n      dup10\n        /* \"#utility.yul\":11634:11653   */\n      add\n        /* \"#utility.yul\":11628:11654   */\n      mload\n        /* \"#utility.yul\":11620:11626   */\n      dup3\n        /* \"#utility.yul\":11613:11655   */\n      sstore\n        /* \"#utility.yul\":11694:11695   */\n      0x01\n        /* \"#utility.yul\":11686:11692   */\n      dup3\n        /* \"#utility.yul\":11682:11696   */\n      add\n        /* \"#utility.yul\":11672:11696   */\n      swap2\n      pop\n        /* \"#utility.yul\":11741:11743   */\n      0x20\n        /* \"#utility.yul\":11730:11739   */\n      dup6\n        /* \"#utility.yul\":11726:11744   */\n      add\n        /* \"#utility.yul\":11713:11744   */\n      swap5\n      pop\n        /* \"#utility.yul\":11587:11591   */\n      0x20\n        /* \"#utility.yul\":11584:11585   */\n      dup2\n        /* \"#utility.yul\":11580:11592   */\n      add\n        /* \"#utility.yul\":11575:11592   */\n      swap1\n      pop\n        /* \"#utility.yul\":11550:11758   */\n      jump(tag_280)\n    tag_282:\n        /* \"#utility.yul\":11786:11792   */\n      dup7\n        /* \"#utility.yul\":11777:11784   */\n      dup4\n        /* \"#utility.yul\":11774:11793   */\n      lt\n        /* \"#utility.yul\":11771:11950   */\n      iszero\n      tag_283\n      jumpi\n        /* \"#utility.yul\":11844:11853   */\n      dup5\n        /* \"#utility.yul\":11839:11842   */\n      dup10\n        /* \"#utility.yul\":11835:11854   */\n      add\n        /* \"#utility.yul\":11829:11855   */\n      mload\n        /* \"#utility.yul\":11887:11935   */\n      tag_284\n        /* \"#utility.yul\":11929:11933   */\n      0x1f\n        /* \"#utility.yul\":11921:11927   */\n      dup10\n        /* \"#utility.yul\":11917:11934   */\n      and\n        /* \"#utility.yul\":11906:11915   */\n      dup3\n        /* \"#utility.yul\":11887:11935   */\n      tag_141\n      jump\t// in\n    tag_284:\n        /* \"#utility.yul\":11879:11885   */\n      dup4\n        /* \"#utility.yul\":11872:11936   */\n      sstore\n        /* \"#utility.yul\":11794:11950   */\n      pop\n        /* \"#utility.yul\":11771:11950   */\n    tag_283:\n        /* \"#utility.yul\":11996:11997   */\n      0x01\n        /* \"#utility.yul\":11992:11993   */\n      0x02\n        /* \"#utility.yul\":11984:11990   */\n      dup9\n        /* \"#utility.yul\":11980:11994   */\n      mul\n        /* \"#utility.yul\":11976:11998   */\n      add\n        /* \"#utility.yul\":11970:11974   */\n      dup9\n        /* \"#utility.yul\":11963:11999   */\n      sstore\n        /* \"#utility.yul\":11398:12009   */\n      pop\n      pop\n      pop\n        /* \"#utility.yul\":11361:12248   */\n    tag_275:\n      pop\n        /* \"#utility.yul\":10951:12254   */\n      pop\n      pop\n      pop\n        /* \"#utility.yul\":10859:12254   */\n      pop\n      pop\n      jump\t// out\n\n    auxdata: 0xa2646970667358221220b60d51d85a375e848301bf80d8e48d6c5e9b3a04a7705e5dd44d0e3a9a4846f364736f6c634300081e0033\n}\n",
				"bytecode": {
					"linkReferences": {},
					"object": "6080604052348015600e575f5ffd5b50610c158061001c5f395ff3fe608060405234801561000f575f5ffd5b506004361061007b575f3560e01c806347075d0b1161005957806347075d0b146100e75780638476683a14610117578063887b222f14610147578063a4199249146101635761007b565b806304e9ede51461007f578063346cb861146100af57806334f156a5146100cb575b5f5ffd5b61009960048036038101906100949190610574565b61017f565b6040516100a69190610622565b60405180910390f35b6100c960048036038101906100c49190610642565b610246565b005b6100e560048036038101906100e09190610799565b610270565b005b61010160048036038101906100fc9190610642565b6102bc565b60405161010e9190610622565b60405180910390f35b610131600480360381019061012c9190610642565b610362565b60405161013e9190610622565b60405180910390f35b610161600480360381019061015c9190610845565b610400565b005b61017d6004803603810190610178919061089f565b610429565b005b606060058381548110610195576101946108e6565b5b905f5260205f200182815481106101af576101ae6108e6565b5b905f5260205f200180546101c290610940565b80601f01602080910402602001604051908101604052809291908181526020018280546101ee90610940565b80156102395780601f1061021057610100808354040283529160200191610239565b820191905f5260205f20905b81548152906001019060200180831161021c57829003601f168201915b5050505050905092915050565b6004818154811061025a576102596108e6565b5b905f5260205f20015f61026d919061045e565b50565b6005604051806040016040528084815260200183815250908060018154018082558091505060019003905f5260205f20015f909190919091509060026102b792919061049b565b505050565b600481815481106102cb575f80fd5b905f5260205f20015f9150905080546102e390610940565b80601f016020809104026020016040519081016040528092919081815260200182805461030f90610940565b801561035a5780601f106103315761010080835404028352916020019161035a565b820191905f5260205f20905b81548152906001019060200180831161033d57829003601f168201915b505050505081565b5f8160048110610370575f80fd5b015f91509050805461038190610940565b80601f01602080910402602001604051908101604052809291908181526020018280546103ad90610940565b80156103f85780601f106103cf576101008083540402835291602001916103f8565b820191905f5260205f20905b8154815290600101906020018083116103db57829003601f168201915b505050505081565b805f8360ff1660048110610417576104166108e6565b5b0190816104249190610b10565b505050565b600481908060018154018082558091505060019003905f5260205f20015f90919091909150908161045a9190610b10565b5050565b50805461046a90610940565b5f825580601f1061047b5750610498565b601f0160209004905f5260205f209081019061049791906104f2565b5b50565b828054828255905f5260205f209081019282156104e1579160200282015b828111156104e05782518290816104d09190610b10565b50916020019190600101906104b9565b5b5090506104ee919061050d565b5090565b5b80821115610509575f815f9055506001016104f3565b5090565b5b8082111561052c575f8181610523919061045e565b5060010161050e565b5090565b5f604051905090565b5f5ffd5b5f5ffd5b5f819050919050565b61055381610541565b811461055d575f5ffd5b50565b5f8135905061056e8161054a565b92915050565b5f5f6040838503121561058a57610589610539565b5b5f61059785828601610560565b92505060206105a885828601610560565b9150509250929050565b5f81519050919050565b5f82825260208201905092915050565b8281835e5f83830152505050565b5f601f19601f8301169050919050565b5f6105f4826105b2565b6105fe81856105bc565b935061060e8185602086016105cc565b610617816105da565b840191505092915050565b5f6020820190508181035f83015261063a81846105ea565b905092915050565b5f6020828403121561065757610656610539565b5b5f61066484828501610560565b91505092915050565b5f5ffd5b5f5ffd5b7f4e487b71000000000000000000000000000000000000000000000000000000005f52604160045260245ffd5b6106ab826105da565b810181811067ffffffffffffffff821117156106ca576106c9610675565b5b80604052505050565b5f6106dc610530565b90506106e882826106a2565b919050565b5f67ffffffffffffffff82111561070757610706610675565b5b610710826105da565b9050602081019050919050565b828183375f83830152505050565b5f61073d610738846106ed565b6106d3565b90508281526020810184848401111561075957610758610671565b5b61076484828561071d565b509392505050565b5f82601f8301126107805761077f61066d565b5b813561079084826020860161072b565b91505092915050565b5f5f604083850312156107af576107ae610539565b5b5f83013567ffffffffffffffff8111156107cc576107cb61053d565b5b6107d88582860161076c565b925050602083013567ffffffffffffffff8111156107f9576107f861053d565b5b6108058582860161076c565b9150509250929050565b5f60ff82169050919050565b6108248161080f565b811461082e575f5ffd5b50565b5f8135905061083f8161081b565b92915050565b5f5f6040838503121561085b5761085a610539565b5b5f61086885828601610831565b925050602083013567ffffffffffffffff8111156108895761088861053d565b5b6108958582860161076c565b9150509250929050565b5f602082840312156108b4576108b3610539565b5b5f82013567ffffffffffffffff8111156108d1576108d061053d565b5b6108dd8482850161076c565b91505092915050565b7f4e487b71000000000000000000000000000000000000000000000000000000005f52603260045260245ffd5b7f4e487b71000000000000000000000000000000000000000000000000000000005f52602260045260245ffd5b5f600282049050600182168061095757607f821691505b60208210810361096a57610969610913565b5b50919050565b5f819050815f5260205f209050919050565b5f6020601f8301049050919050565b5f82821b905092915050565b5f600883026109cc7fffffffffffffffffffffffffffffffffffffffffffffffffffffffffffffffff82610991565b6109d68683610991565b95508019841693508086168417925050509392505050565b5f819050919050565b5f610a11610a0c610a0784610541565b6109ee565b610541565b9050919050565b5f819050919050565b610a2a836109f7565b610a3e610a3682610a18565b84845461099d565b825550505050565b5f5f905090565b610a55610a46565b610a60818484610a21565b505050565b5b81811015610a8357610a785f82610a4d565b600181019050610a66565b5050565b601f821115610ac857610a9981610970565b610aa284610982565b81016020851015610ab1578190505b610ac5610abd85610982565b830182610a65565b50505b505050565b5f82821c905092915050565b5f610ae85f1984600802610acd565b1980831691505092915050565b5f610b008383610ad9565b9150826002028217905092915050565b610b19826105b2565b67ffffffffffffffff811115610b3257610b31610675565b5b610b3c8254610940565b610b47828285610a87565b5f60209050601f831160018114610b78575f8415610b66578287015190505b610b708582610af5565b865550610bd7565b601f198416610b8686610970565b5f5b82811015610bad57848901518255600182019150602085019450602081019050610b88565b86831015610bca5784890151610bc6601f891682610ad9565b8355505b6001600288020188555050505b50505050505056fea2646970667358221220b60d51d85a375e848301bf80d8e48d6c5e9b3a04a7705e5dd44d0e3a9a4846f364736f6c634300081e0033",
					"opcodes": "PUSH1 0x80 PUSH1 0x40 MSTORE CALLVALUE DUP1 ISZERO PUSH1 0xE JUMPI PUSH0 PUSH0 REVERT JUMPDEST POP PUSH2 0xC15 DUP1 PUSH2 0x1C PUSH0 CODECOPY PUSH0 RETURN INVALID PUSH1 0x80 PUSH1 0x40 MSTORE CALLVALUE DUP1 ISZERO PUSH2 0xF JUMPI PUSH0 PUSH0 REVERT JUMPDEST POP PUSH1 0x4 CALLDATASIZE LT PUSH2 0x7B JUMPI PUSH0 CALLDATALOAD PUSH1 0xE0 SHR DUP1 PUSH4 0x47075D0B GT PUSH2 0x59 JUMPI DUP1 PUSH4 0x47075D0B EQ PUSH2 0xE7 JUMPI DUP1 PUSH4 0x8476683A EQ PUSH2 0x117 JUMPI DUP1 PUSH4 0x887B222F EQ PUSH2 0x147 JUMPI DUP1 PUSH4 0xA4199249 EQ PUSH2 0x163 JUMPI PUSH2 0x7B JUMP JUMPDEST DUP1 PUSH4 0x4E9EDE5 EQ PUSH2 0x7F JUMPI DUP1 PUSH4 0x346CB861 EQ PUSH2 0xAF JUMPI DUP1 PUSH4 0x34F156A5 EQ PUSH2 0xCB JUMPI JUMPDEST PUSH0 PUSH0 REVERT JUMPDEST PUSH2 0x99 PUSH1 0x4 DUP1 CALLDATASIZE SUB DUP2 ADD SWAP1 PUSH2 0x94 SWAP2 SWAP1 PUSH2 0x574 JUMP JUMPDEST PUSH2 0x17F JUMP JUMPDEST PUSH1 0x40 MLOAD PUSH2 0xA6 SWAP2 SWAP1 PUSH2 0x622 JUMP JUMPDEST PUSH1 0x40 MLOAD DUP1 SWAP2 SUB SWAP1 RETURN JUMPDEST PUSH2 0xC9 PUSH1 0x4 DUP1 CALLDATASIZE SUB DUP2 ADD SWAP1 PUSH2 0xC4 SWAP2 SWAP1 PUSH2 0x642 JUMP JUMPDEST PUSH2 0x246 JUMP JUMPDEST STOP JUMPDEST PUSH2 0xE5 PUSH1 0x4 DUP1 CALLDATASIZE SUB DUP2 ADD SWAP1 PUSH2 0xE0 SWAP2 SWAP1 PUSH2 0x799 JUMP JUMPDEST PUSH2 0x270 JUMP JUMPDEST STOP JUMPDEST PUSH2 0x101 PUSH1 0x4 DUP1 CALLDATASIZE SUB DUP2 ADD SWAP1 PUSH2 0xFC SWAP2 SWAP1 PUSH2 0x642 JUMP JUMPDEST PUSH2 0x2BC JUMP JUMPDEST PUSH1 0x40 MLOAD PUSH2 0x10E SWAP2 SWAP1 PUSH2 0x622 JUMP JUMPDEST PUSH1 0x40 MLOAD DUP1 SWAP2 SUB SWAP1 RETURN JUMPDEST PUSH2 0x131 PUSH1 0x4 DUP1 CALLDATASIZE SUB DUP2 ADD SWAP1 PUSH2 0x12C SWAP2 SWAP1 PUSH2 0x642 JUMP JUMPDEST PUSH2 0x362 JUMP JUMPDEST PUSH1 0x40 MLOAD PUSH2 0x13E SWAP2 SWAP1 PUSH2 0x622 JUMP JUMPDEST PUSH1 0x40 MLOAD DUP1 SWAP2 SUB SWAP1 RETURN JUMPDEST PUSH2 0x161 PUSH1 0x4 DUP1 CALLDATASIZE SUB DUP2 ADD SWAP1 PUSH2 0x15C SWAP2 SWAP1 PUSH2 0x845 JUMP JUMPDEST PUSH2 0x400 JUMP JUMPDEST STOP JUMPDEST PUSH2 0x17D PUSH1 0x4 DUP1 CALLDATASIZE SUB DUP2 ADD SWAP1 PUSH2 0x178 SWAP2 SWAP1 PUSH2 0x89F JUMP JUMPDEST PUSH2 0x429 JUMP JUMPDEST STOP JUMPDEST PUSH1 0x60 PUSH1 0x5 DUP4 DUP2 SLOAD DUP2 LT PUSH2 0x195 JUMPI PUSH2 0x194 PUSH2 0x8E6 JUMP JUMPDEST JUMPDEST SWAP1 PUSH0 MSTORE PUSH1 0x20 PUSH0 KECCAK256 ADD DUP3 DUP2 SLOAD DUP2 LT PUSH2 0x1AF JUMPI PUSH2 0x1AE PUSH2 0x8E6 JUMP JUMPDEST JUMPDEST SWAP1 PUSH0 MSTORE PUSH1 0x20 PUSH0 KECCAK256 ADD DUP1 SLOAD PUSH2 0x1C2 SWAP1 PUSH2 0x940 JUMP JUMPDEST DUP1 PUSH1 0x1F ADD PUSH1 0x20 DUP1 SWAP2 DIV MUL PUSH1 0x20 ADD PUSH1 0x40 MLOAD SWAP1 DUP2 ADD PUSH1 0x40 MSTORE DUP1 SWAP3 SWAP2 SWAP1 DUP2 DUP2 MSTORE PUSH1 0x20 ADD DUP3 DUP1 SLOAD PUSH2 0x1EE SWAP1 PUSH2 0x940 JUMP JUMPDEST DUP1 ISZERO PUSH2 0x239 JUMPI DUP1 PUSH1 0x1F LT PUSH2 0x210 JUMPI PUSH2 0x100 DUP1 DUP4 SLOAD DIV MUL DUP4 MSTORE SWAP2 PUSH1 0x20 ADD SWAP2 PUSH2 0x239 JUMP JUMPDEST DUP3 ADD SWAP2 SWAP1 PUSH0 MSTORE PUSH1 0x20 PUSH0 KECCAK256 SWAP1 JUMPDEST DUP2 SLOAD DUP2 MSTORE SWAP1 PUSH1 0x1 ADD SWAP1 PUSH1 0x20 ADD DUP1 DUP4 GT PUSH2 0x21C JUMPI DUP3 SWAP1 SUB PUSH1 0x1F AND DUP3 ADD SWAP2 JUMPDEST POP POP POP POP POP SWAP1 POP SWAP3 SWAP2 POP POP JUMP JUMPDEST PUSH1 0x4 DUP2 DUP2 SLOAD DUP2 LT PUSH2 0x25A JUMPI PUSH2 0x259 PUSH2 0x8E6 JUMP JUMPDEST JUMPDEST SWAP1 PUSH0 MSTORE PUSH1 0x20 PUSH0 KECCAK256 ADD PUSH0 PUSH2 0x26D SWAP2 SWAP1 PUSH2 0x45E JUMP JUMPDEST POP JUMP JUMPDEST PUSH1 0x5 PUSH1 0x40 MLOAD DUP1 PUSH1 0x40 ADD PUSH1 0x40 MSTORE DUP1 DUP5 DUP2 MSTORE PUSH1 0x20 ADD DUP4 DUP2 MSTORE POP SWAP1 DUP1 PUSH1 0x1 DUP2 SLOAD ADD DUP1 DUP3 SSTORE DUP1 SWAP2 POP POP PUSH1 0x1 SWAP1 SUB SWAP1 PUSH0 MSTORE PUSH1 0x20 PUSH0 KECCAK256 ADD PUSH0 SWAP1 SWAP2 SWAP1 SWAP2 SWAP1 SWAP2 POP SWAP1 PUSH1 0x2 PUSH2 0x2B7 SWAP3 SWAP2 SWAP1 PUSH2 0x49B JUMP JUMPDEST POP POP POP JUMP JUMPDEST PUSH1 0x4 DUP2 DUP2 SLOAD DUP2 LT PUSH2 0x2CB JUMPI PUSH0 DUP1 REVERT JUMPDEST SWAP1 PUSH0 MSTORE PUSH1 0x20 PUSH0 KECCAK256 ADD PUSH0 SWAP2 POP SWAP1 POP DUP1 SLOAD PUSH2 0x2E3 SWAP1 PUSH2 0x940 JUMP JUMPDEST DUP1 PUSH1 0x1F ADD PUSH1 0x20 DUP1 SWAP2 DIV MUL PUSH1 0x20 ADD PUSH1 0x40 MLOAD SWAP1 DUP2 ADD PUSH1 0x40 MSTORE DUP1 SWAP3 SWAP2 SWAP1 DUP2 DUP2 MSTORE PUSH1 0x20 ADD DUP3 DUP1 SLOAD PUSH2 0x30F SWAP1 PUSH2 0x940 JUMP JUMPDEST DUP1 ISZERO PUSH2 0x35A JUMPI DUP1 PUSH1 0x1F LT PUSH2 0x331 JUMPI PUSH2 0x100 DUP1 DUP4 SLOAD DIV MUL DUP4 MSTORE SWAP2 PUSH1 0x20 ADD SWAP2 PUSH2 0x35A JUMP JUMPDEST DUP3 ADD SWAP2 SWAP1 PUSH0 MSTORE PUSH1 0x20 PUSH0 KECCAK256 SWAP1 JUMPDEST DUP2 SLOAD DUP2 MSTORE SWAP1 PUSH1 0x1 ADD SWAP1 PUSH1 0x20 ADD DUP1 DUP4 GT PUSH2 0x33D JUMPI DUP3 SWAP1 SUB PUSH1 0x1F AND DUP3 ADD SWAP2 JUMPDEST POP POP POP POP POP DUP2 JUMP JUMPDEST PUSH0 DUP2 PUSH1 0x4 DUP2 LT PUSH2 0x370 JUMPI PUSH0 DUP1 REVERT JUMPDEST ADD PUSH0 SWAP2 POP SWAP1 POP DUP1 SLOAD PUSH2 0x381 SWAP1 PUSH2 0x940 JUMP JUMPDEST DUP1 PUSH1 0x1F ADD PUSH1 0x20 DUP1 SWAP2 DIV MUL PUSH1 0x20 ADD PUSH1 0x40 MLOAD SWAP1 DUP2 ADD PUSH1 0x40 MSTORE DUP1 SWAP3 SWAP2 SWAP1 DUP2 DUP2 MSTORE PUSH1 0x20 ADD DUP3 DUP1 SLOAD PUSH2 0x3AD SWAP1 PUSH2 0x940 JUMP JUMPDEST DUP1 ISZERO PUSH2 0x3F8 JUMPI DUP1 PUSH1 0x1F LT PUSH2 0x3CF JUMPI PUSH2 0x100 DUP1 DUP4 SLOAD DIV MUL DUP4 MSTORE SWAP2 PUSH1 0x20 ADD SWAP2 PUSH2 0x3F8 JUMP JUMPDEST DUP3 ADD SWAP2 SWAP1 PUSH0 MSTORE PUSH1 0x20 PUSH0 KECCAK256 SWAP1 JUMPDEST DUP2 SLOAD DUP2 MSTORE SWAP1 PUSH1 0x1 ADD SWAP1 PUSH1 0x20 ADD DUP1 DUP4 GT PUSH2 0x3DB JUMPI DUP3 SWAP1 SUB PUSH1 0x1F AND DUP3 ADD SWAP2 JUMPDEST POP POP POP POP POP DUP2 JUMP JUMPDEST DUP1 PUSH0 DUP4 PUSH1 0xFF AND PUSH1 0x4 DUP2 LT PUSH2 0x417 JUMPI PUSH2 0x416 PUSH2 0x8E6 JUMP JUMPDEST JUMPDEST ADD SWAP1 DUP2 PUSH2 0x424 SWAP2 SWAP1 PUSH2 0xB10 JUMP JUMPDEST POP POP POP JUMP JUMPDEST PUSH1 0x4 DUP2 SWAP1 DUP1 PUSH1 0x1 DUP2 SLOAD ADD DUP1 DUP3 SSTORE DUP1 SWAP2 POP POP PUSH1 0x1 SWAP1 SUB SWAP1 PUSH0 MSTORE PUSH1 0x20 PUSH0 KECCAK256 ADD PUSH0 SWAP1 SWAP2 SWAP1 SWAP2 SWAP1 SWAP2 POP SWAP1 DUP2 PUSH2 0x45A SWAP2 SWAP1 PUSH2 0xB10 JUMP JUMPDEST POP POP JUMP JUMPDEST POP DUP1 SLOAD PUSH2 0x46A SWAP1 PUSH2 0x940 JUMP JUMPDEST PUSH0 DUP3 SSTORE DUP1 PUSH1 0x1F LT PUSH2 0x47B JUMPI POP PUSH2 0x498 JUMP JUMPDEST PUSH1 0x1F ADD PUSH1 0x20 SWAP1 DIV SWAP1 PUSH0 MSTORE PUSH1 0x20 PUSH0 KECCAK256 SWAP1 DUP2 ADD SWAP1 PUSH2 0x497 SWAP2 SWAP1 PUSH2 0x4F2 JUMP JUMPDEST JUMPDEST POP JUMP JUMPDEST DUP3 DUP1 SLOAD DUP3 DUP3 SSTORE SWAP1 PUSH0 MSTORE PUSH1 0x20 PUSH0 KECCAK256 SWAP1 DUP2 ADD SWAP3 DUP3 ISZERO PUSH2 0x4E1 JUMPI SWAP2 PUSH1 0x20 MUL DUP3 ADD JUMPDEST DUP3 DUP2 GT ISZERO PUSH2 0x4E0 JUMPI DUP3 MLOAD DUP3 SWAP1 DUP2 PUSH2 0x4D0 SWAP2 SWAP1 PUSH2 0xB10 JUMP JUMPDEST POP SWAP2 PUSH1 0x20 ADD SWAP2 SWAP1 PUSH1 0x1 ADD SWAP1 PUSH2 0x4B9 JUMP JUMPDEST JUMPDEST POP SWAP1 POP PUSH2 0x4EE SWAP2 SWAP1 PUSH2 0x50D JUMP JUMPDEST POP SWAP1 JUMP JUMPDEST JUMPDEST DUP1 DUP3 GT ISZERO PUSH2 0x509 JUMPI PUSH0 DUP2 PUSH0 SWAP1 SSTORE POP PUSH1 0x1 ADD PUSH2 0x4F3 JUMP JUMPDEST POP SWAP1 JUMP JUMPDEST JUMPDEST DUP1 DUP3 GT ISZERO PUSH2 0x52C JUMPI PUSH0 DUP2 DUP2 PUSH2 0x523 SWAP2 SWAP1 PUSH2 0x45E JUMP JUMPDEST POP PUSH1 0x1 ADD PUSH2 0x50E JUMP JUMPDEST POP SWAP1 JUMP JUMPDEST PUSH0 PUSH1 0x40 MLOAD SWAP1 POP SWAP1 JUMP JUMPDEST PUSH0 PUSH0 REVERT JUMPDEST PUSH0 PUSH0 REVERT JUMPDEST PUSH0 DUP2 SWAP1 POP SWAP2 SWAP1 POP JUMP JUMPDEST PUSH2 0x553 DUP2 PUSH2 0x541 JUMP JUMPDEST DUP2 EQ PUSH2 0x55D JUMPI PUSH0 PUSH0 REVERT JUMPDEST POP JUMP JUMPDEST PUSH0 DUP2 CALLDATALOAD SWAP1 POP PUSH2 0x56E DUP2 PUSH2 0x54A JUMP JUMPDEST SWAP3 SWAP2 POP POP JUMP JUMPDEST PUSH0 PUSH0 PUSH1 0x40 DUP4 DUP6 SUB SLT ISZERO PUSH2 0x58A JUMPI PUSH2 0x589 PUSH2 0x539 JUMP JUMPDEST JUMPDEST PUSH0 PUSH2 0x597 DUP6 DUP3 DUP7 ADD PUSH2 0x560 JUMP JUMPDEST SWAP3 POP POP PUSH1 0x20 PUSH2 0x5A8 DUP6 DUP3 DUP7 ADD PUSH2 0x560 JUMP JUMPDEST SWAP2 POP POP SWAP3 POP SWAP3 SWAP1 POP JUMP JUMPDEST PUSH0 DUP2 MLOAD SWAP1 POP SWAP2 SWAP1 POP JUMP JUMPDEST PUSH0 DUP3 DUP3 MSTORE PUSH1 0x20 DUP3 ADD SWAP1 POP SWAP3 SWAP2 POP POP JUMP JUMPDEST DUP3 DUP2 DUP4 MCOPY PUSH0 DUP4 DUP4 ADD MSTORE POP POP POP JUMP JUMPDEST PUSH0 PUSH1 0x1F NOT PUSH1 0x1F DUP4 ADD AND SWAP1 POP SWAP2 SWAP1 POP JUMP JUMPDEST PUSH0 PUSH2 0x5F4 DUP3 PUSH2 0x5B2 JUMP JUMPDEST PUSH2 0x5FE DUP2 DUP6 PUSH2 0x5BC JUMP JUMPDEST SWAP4 POP PUSH2 0x60E DUP2 DUP6 PUSH1 0x20 DUP7 ADD PUSH2 0x5CC JUMP JUMPDEST PUSH2 0x617 DUP2 PUSH2 0x5DA JUMP JUMPDEST DUP5 ADD SWAP2 POP POP SWAP3 SWAP2 POP POP JUMP JUMPDEST PUSH0 PUSH1 0x20 DUP3 ADD SWAP1 POP DUP2 DUP2 SUB PUSH0 DUP4 ADD MSTORE PUSH2 0x63A DUP2 DUP5 PUSH2 0x5EA JUMP JUMPDEST SWAP1 POP SWAP3 SWAP2 POP POP JUMP JUMPDEST PUSH0 PUSH1 0x20 DUP3 DUP5 SUB SLT ISZERO PUSH2 0x657 JUMPI PUSH2 0x656 PUSH2 0x539 JUMP JUMPDEST JUMPDEST PUSH0 PUSH2 0x664 DUP5 DUP3 DUP6 ADD PUSH2 0x560 JUMP JUMPDEST SWAP2 POP POP SWAP3 SWAP2 POP POP JUMP JUMPDEST PUSH0 PUSH0 REVERT JUMPDEST PUSH0 PUSH0 REVERT JUMPDEST PUSH32 0x4E487B7100000000000000000000000000000000000000000000000000000000 PUSH0 MSTORE PUSH1 0x41 PUSH1 0x4 MSTORE PUSH1 0x24 PUSH0 REVERT JUMPDEST PUSH2 0x6AB DUP3 PUSH2 0x5DA JUMP JUMPDEST DUP2 ADD DUP2 DUP2 LT PUSH8 0xFFFFFFFFFFFFFFFF DUP3 GT OR ISZERO PUSH2 0x6CA JUMPI PUSH2 0x6C9 PUSH2 0x675 JUMP JUMPDEST JUMPDEST DUP1 PUSH1 0x40 MSTORE POP POP POP JUMP JUMPDEST PUSH0 PUSH2 0x6DC PUSH2 0x530 JUMP JUMPDEST SWAP1 POP PUSH2 0x6E8 DUP3 DUP3 PUSH2 0x6A2 JUMP JUMPDEST SWAP2 SWAP1 POP JUMP JUMPDEST PUSH0 PUSH8 0xFFFFFFFFFFFFFFFF DUP3 GT ISZERO PUSH2 0x707 JUMPI PUSH2 0x706 PUSH2 0x675 JUMP JUMPDEST JUMPDEST PUSH2 0x710 DUP3 PUSH2 0x5DA JUMP JUMPDEST SWAP1 POP PUSH1 0x20 DUP2 ADD SWAP1 POP SWAP2 SWAP1 POP JUMP JUMPDEST DUP3 DUP2 DUP4 CALLDATACOPY PUSH0 DUP4 DUP4 ADD MSTORE POP POP POP JUMP JUMPDEST PUSH0 PUSH2 0x73D PUSH2 0x738 DUP5 PUSH2 0x6ED JUMP JUMPDEST PUSH2 0x6D3 JUMP JUMPDEST SWAP1 POP DUP3 DUP2 MSTORE PUSH1 0x20 DUP2 ADD DUP5 DUP5 DUP5 ADD GT ISZERO PUSH2 0x759 JUMPI PUSH2 0x758 PUSH2 0x671 JUMP JUMPDEST JUMPDEST PUSH2 0x764 DUP5 DUP3 DUP6 PUSH2 0x71D JUMP JUMPDEST POP SWAP4 SWAP3 POP POP POP JUMP JUMPDEST PUSH0 DUP3 PUSH1 0x1F DUP4 ADD SLT PUSH2 0x780 JUMPI PUSH2 0x77F PUSH2 0x66D JUMP JUMPDEST JUMPDEST DUP2 CALLDATALOAD PUSH2 0x790 DUP5 DUP3 PUSH1 0x20 DUP7 ADD PUSH2 0x72B JUMP JUMPDEST SWAP2 POP POP SWAP3 SWAP2 POP POP JUMP JUMPDEST PUSH0 PUSH0 PUSH1 0x40 DUP4 DUP6 SUB SLT ISZERO PUSH2 0x7AF JUMPI PUSH2 0x7AE PUSH2 0x539 JUMP JUMPDEST JUMPDEST PUSH0 DUP4 ADD CALLDATALOAD PUSH8 0xFFFFFFFFFFFFFFFF DUP2 GT ISZERO PUSH2 0x7CC JUMPI PUSH2 0x7CB PUSH2 0x53D JUMP JUMPDEST JUMPDEST PUSH2 0x7D8 DUP6 DUP3 DUP7 ADD PUSH2 0x76C JUMP JUMPDEST SWAP3 POP POP PUSH1 0x20 DUP4 ADD CALLDATALOAD PUSH8 0xFFFFFFFFFFFFFFFF DUP2 GT ISZERO PUSH2 0x7F9 JUMPI PUSH2 0x7F8 PUSH2 0x53D JUMP JUMPDEST JUMPDEST PUSH2 0x805 DUP6 DUP3 DUP7 ADD PUSH2 0x76C JUMP JUMPDEST SWAP2 POP POP SWAP3 POP SWAP3 SWAP1 POP JUMP JUMPDEST PUSH0 PUSH1 0xFF DUP3 AND SWAP1 POP SWAP2 SWAP1 POP JUMP JUMPDEST PUSH2 0x824 DUP2 PUSH2 0x80F JUMP JUMPDEST DUP2 EQ PUSH2 0x82E JUMPI PUSH0 PUSH0 REVERT JUMPDEST POP JUMP JUMPDEST PUSH0 DUP2 CALLDATALOAD SWAP1 POP PUSH2 0x83F DUP2 PUSH2 0x81B JUMP JUMPDEST SWAP3 SWAP2 POP POP JUMP JUMPDEST PUSH0 PUSH0 PUSH1 0x40 DUP4 DUP6 SUB SLT ISZERO PUSH2 0x85B JUMPI PUSH2 0x85A PUSH2 0x539 JUMP JUMPDEST JUMPDEST PUSH0 PUSH2 0x868 DUP6 DUP3 DUP7 ADD PUSH2 0x831 JUMP JUMPDEST SWAP3 POP POP PUSH1 0x20 DUP4 ADD CALLDATALOAD PUSH8 0xFFFFFFFFFFFFFFFF DUP2 GT ISZERO PUSH2 0x889 JUMPI PUSH2 0x888 PUSH2 0x53D JUMP JUMPDEST JUMPDEST PUSH2 0x895 DUP6 DUP3 DUP7 ADD PUSH2 0x76C JUMP JUMPDEST SWAP2 POP POP SWAP3 POP SWAP3 SWAP1 POP JUMP JUMPDEST PUSH0 PUSH1 0x20 DUP3 DUP5 SUB SLT ISZERO PUSH2 0x8B4 JUMPI PUSH2 0x8B3 PUSH2 0x539 JUMP JUMPDEST JUMPDEST PUSH0 DUP3 ADD CALLDATALOAD PUSH8 0xFFFFFFFFFFFFFFFF DUP2 GT ISZERO PUSH2 0x8D1 JUMPI PUSH2 0x8D0 PUSH2 0x53D JUMP JUMPDEST JUMPDEST PUSH2 0x8DD DUP5 DUP3 DUP6 ADD PUSH2 0x76C JUMP JUMPDEST SWAP2 POP POP SWAP3 SWAP2 POP POP JUMP JUMPDEST PUSH32 0x4E487B7100000000000000000000000000000000000000000000000000000000 PUSH0 MSTORE PUSH1 0x32 PUSH1 0x4 MSTORE PUSH1 0x24 PUSH0 REVERT JUMPDEST PUSH32 0x4E487B7100000000000000000000000000000000000000000000000000000000 PUSH0 MSTORE PUSH1 0x22 PUSH1 0x4 MSTORE PUSH1 0x24 PUSH0 REVERT JUMPDEST PUSH0 PUSH1 0x2 DUP3 DIV SWAP1 POP PUSH1 0x1 DUP3 AND DUP1 PUSH2 0x957 JUMPI PUSH1 0x7F DUP3 AND SWAP2 POP JUMPDEST PUSH1 0x20 DUP3 LT DUP2 SUB PUSH2 0x96A JUMPI PUSH2 0x969 PUSH2 0x913 JUMP JUMPDEST JUMPDEST POP SWAP2 SWAP1 POP JUMP JUMPDEST PUSH0 DUP2 SWAP1 POP DUP2 PUSH0 MSTORE PUSH1 0x20 PUSH0 KECCAK256 SWAP1 POP SWAP2 SWAP1 POP JUMP JUMPDEST PUSH0 PUSH1 0x20 PUSH1 0x1F DUP4 ADD DIV SWAP1 POP SWAP2 SWAP1 POP JUMP JUMPDEST PUSH0 DUP3 DUP3 SHL SWAP1 POP SWAP3 SWAP2 POP POP JUMP JUMPDEST PUSH0 PUSH1 0x8 DUP4 MUL PUSH2 0x9CC PUSH32 0xFFFFFFFFFFFFFFFFFFFFFFFFFFFFFFFFFFFFFFFFFFFFFFFFFFFFFFFFFFFFFFFF DUP3 PUSH2 0x991 JUMP JUMPDEST PUSH2 0x9D6 DUP7 DUP4 PUSH2 0x991 JUMP JUMPDEST SWAP6 POP DUP1 NOT DUP5 AND SWAP4 POP DUP1 DUP7 AND DUP5 OR SWAP3 POP POP POP SWAP4 SWAP3 POP POP POP JUMP JUMPDEST PUSH0 DUP2 SWAP1 POP SWAP2 SWAP1 POP JUMP JUMPDEST PUSH0 PUSH2 0xA11 PUSH2 0xA0C PUSH2 0xA07 DUP5 PUSH2 0x541 JUMP JUMPDEST PUSH2 0x9EE JUMP JUMPDEST PUSH2 0x541 JUMP JUMPDEST SWAP1 POP SWAP2 SWAP1 POP JUMP JUMPDEST PUSH0 DUP2 SWAP1 POP SWAP2 SWAP1 POP JUMP JUMPDEST PUSH2 0xA2A DUP4 PUSH2 0x9F7 JUMP JUMPDEST PUSH2 0xA3E PUSH2 0xA36 DUP3 PUSH2 0xA18 JUMP JUMPDEST DUP5 DUP5 SLOAD PUSH2 0x99D JUMP JUMPDEST DUP3 SSTORE POP POP POP POP JUMP JUMPDEST PUSH0 PUSH0 SWAP1 POP SWAP1 JUMP JUMPDEST PUSH2 0xA55 PUSH2 0xA46 JUMP JUMPDEST PUSH2 0xA60 DUP2 DUP5 DUP5 PUSH2 0xA21 JUMP JUMPDEST POP POP POP JUMP JUMPDEST JUMPDEST DUP2 DUP2 LT ISZERO PUSH2 0xA83 JUMPI PUSH2 0xA78 PUSH0 DUP3 PUSH2 0xA4D JUMP JUMPDEST PUSH1 0x1 DUP2 ADD SWAP1 POP PUSH2 0xA66 JUMP JUMPDEST POP POP JUMP JUMPDEST PUSH1 0x1F DUP3 GT ISZERO PUSH2 0xAC8 JUMPI PUSH2 0xA99 DUP2 PUSH2 0x970 JUMP JUMPDEST PUSH2 0xAA2 DUP5 PUSH2 0x982 JUMP JUMPDEST DUP2 ADD PUSH1 0x20 DUP6 LT ISZERO PUSH2 0xAB1 JUMPI DUP2 SWAP1 POP JUMPDEST PUSH2 0xAC5 PUSH2 0xABD DUP6 PUSH2 0x982 JUMP JUMPDEST DUP4 ADD DUP3 PUSH2 0xA65 JUMP JUMPDEST POP POP JUMPDEST POP POP POP JUMP JUMPDEST PUSH0 DUP3 DUP3 SHR SWAP1 POP SWAP3 SWAP2 POP POP JUMP JUMPDEST PUSH0 PUSH2 0xAE8 PUSH0 NOT DUP5 PUSH1 0x8 MUL PUSH2 0xACD JUMP JUMPDEST NOT DUP1 DUP4 AND SWAP2 POP POP SWAP3 SWAP2 POP POP JUMP JUMPDEST PUSH0 PUSH2 0xB00 DUP4 DUP4 PUSH2 0xAD9 JUMP JUMPDEST SWAP2 POP DUP3 PUSH1 0x2 MUL DUP3 OR SWAP1 POP SWAP3 SWAP2 POP POP JUMP JUMPDEST PUSH2 0xB19 DUP3 PUSH2 0x5B2 JUMP JUMPDEST PUSH8 0xFFFFFFFFFFFFFFFF DUP2 GT ISZERO PUSH2 0xB32 JUMPI PUSH2 0xB31 PUSH2 0x675 JUMP JUMPDEST JUMPDEST PUSH2 0xB3C DUP3 SLOAD PUSH2 0x940 JUMP JUMPDEST PUSH2 0xB47 DUP3 DUP3 DUP6 PUSH2 0xA87 JUMP JUMPDEST PUSH0 PUSH1 0x20 SWAP1 POP PUSH1 0x1F DUP4 GT PUSH1 0x1 DUP2 EQ PUSH2 0xB78 JUMPI PUSH0 DUP5 ISZERO PUSH2 0xB66 JUMPI DUP3 DUP8 ADD MLOAD SWAP1 POP JUMPDEST PUSH2 0xB70 DUP6 DUP3 PUSH2 0xAF5 JUMP JUMPDEST DUP7 SSTORE POP PUSH2 0xBD7 JUMP JUMPDEST PUSH1 0x1F NOT DUP5 AND PUSH2 0xB86 DUP7 PUSH2 0x970 JUMP JUMPDEST PUSH0 JUMPDEST DUP3 DUP2 LT ISZERO PUSH2 0xBAD JUMPI DUP5 DUP10 ADD MLOAD DUP3 SSTORE PUSH1 0x1 DUP3 ADD SWAP2 POP PUSH1 0x20 DUP6 ADD SWAP5 POP PUSH1 0x20 DUP2 ADD SWAP1 POP PUSH2 0xB88 JUMP JUMPDEST DUP7 DUP4 LT ISZERO PUSH2 0xBCA JUMPI DUP5 DUP10 ADD MLOAD PUSH2 0xBC6 PUSH1 0x1F DUP10 AND DUP3 PUSH2 0xAD9 JUMP JUMPDEST DUP4 SSTORE POP JUMPDEST PUSH1 0x1 PUSH1 0x2 DUP9 MUL ADD DUP9 SSTORE POP POP POP JUMPDEST POP POP POP POP POP POP JUMP INVALID LOG2 PUSH5 0x6970667358 0x22 SLT KECCAK256 0xB6 0xD MLOAD 0xD8 GAS CALLDATACOPY MCOPY DUP5 DUP4 ADD 0xBF DUP1 0xD8 RETF DUP14 PUSH13 0x5E9B3A04A7705E5DD44D0E3A9A BASEFEE CHAINID RETURN PUSH5 0x736F6C6343 STOP ADDMOD 0x1E STOP CALLER "
				},
				"gasEstimates": {
					"creation": {
						"codeDepositCost": "618600",
						"executionCost": "649",
						"totalCost": "619249"
					},
					"external": {
						"Alunos(uint256)": "infinite",
						"DisciplinaNome(uint256)": "infinite",
						"RetornarProfIndiceDisci(uint256,uint256)": "infinite",
						"definirAluno(uint8,string)": "infinite",
						"definirDisciplina(string)": "infinite",
						"definirProfeDiciplina(string,string)": "infinite",
						"deletarElemento(uint256)": "infinite"
					}
				},
				"methodIdentifiers": {
					"Alunos(uint256)": "8476683a",
					"DisciplinaNome(uint256)": "47075d0b",
					"RetornarProfIndiceDisci(uint256,uint256)": "04e9ede5",
					"definirAluno(uint8,string)": "887b222f",
					"definirDisciplina(string)": "a4199249",
					"definirProfeDiciplina(string,string)": "34f156a5",
					"deletarElemento(uint256)": "346cb861"
				}
			},
			"storageLayout": {
				"storage": [
					{
						"astId": 5,
						"contract": "AulasNearX/arrays.sol:ExemplosArrays",
						"label": "Alunos",
						"offset": 0,
						"slot": "0",
						"type": "t_array(t_string_storage)4_storage"
					},
					{
						"astId": 8,
						"contract": "AulasNearX/arrays.sol:ExemplosArrays",
						"label": "DisciplinaNome",
						"offset": 0,
						"slot": "4",
						"type": "t_array(t_string_storage)dyn_storage"
					},
					{
						"astId": 12,
						"contract": "AulasNearX/arrays.sol:ExemplosArrays",
						"label": "MatrizesDiscProf",
						"offset": 0,
						"slot": "5",
						"type": "t_array(t_array(t_string_storage)dyn_storage)dyn_storage"
					}
				],
				"types": {
					"t_array(t_array(t_string_storage)dyn_storage)dyn_storage": {
						"base": "t_array(t_string_storage)dyn_storage",
						"encoding": "dynamic_array",
						"label": "string[][]",
						"numberOfBytes": "32"
					},
					"t_array(t_string_storage)4_storage": {
						"base": "t_string_storage",
						"encoding": "inplace",
						"label": "string[4]",
						"numberOfBytes": "128"
					},
					"t_array(t_string_storage)dyn_storage": {
						"base": "t_string_storage",
						"encoding": "dynamic_array",
						"label": "string[]",
						"numberOfBytes": "32"
					},
					"t_string_storage": {
						"encoding": "bytes",
						"label": "string",
						"numberOfBytes": "32"
					}
				}
			},
			"userdoc": {
				"kind": "user",
				"methods": {},
				"version": 1
			}
		}
	}
}