{
	"AulasNearX/exeMapping.sol": {
		"NovaTurmaMapping": {
			"abi": [
				{
					"inputs": [
						{
							"internalType": "address",
							"name": "",
							"type": "address"
						},
						{
							"internalType": "address",
							"name": "",
							"type": "address"
						}
					],
					"name": "NotaProfAluno",
					"outputs": [
						{
							"internalType": "uint256",
							"name": "",
							"type": "uint256"
						}
					],
					"stateMutability": "view",
					"type": "function"
				},
				{
					"inputs": [
						{
							"internalType": "string",
							"name": "",
							"type": "string"
						}
					],
					"name": "dicionario",
					"outputs": [
						{
							"internalType": "string",
							"name": "",
							"type": "string"
						}
					],
					"stateMutability": "view",
					"type": "function"
				},
				{
					"inputs": [
						{
							"internalType": "address",
							"name": "",
							"type": "address"
						}
					],
					"name": "presenca",
					"outputs": [
						{
							"internalType": "bool",
							"name": "",
							"type": "bool"
						}
					],
					"stateMutability": "view",
					"type": "function"
				},
				{
					"inputs": [
						{
							"internalType": "string",
							"name": "",
							"type": "string"
						}
					],
					"name": "presencaNumero",
					"outputs": [
						{
							"internalType": "uint256",
							"name": "",
							"type": "uint256"
						}
					],
					"stateMutability": "view",
					"type": "function"
				},
				{
					"inputs": [
						{
							"internalType": "address",
							"name": "_aluno",
							"type": "address"
						},
						{
							"internalType": "uint256",
							"name": "_nota",
							"type": "uint256"
						}
					],
					"name": "setarNotaAluno",
					"outputs": [],
					"stateMutability": "nonpayable",
					"type": "function"
				},
				{
					"inputs": [
						{
							"internalType": "uint256",
							"name": "_numeroChegada",
							"type": "uint256"
						},
						{
							"internalType": "string",
							"name": "_nomedoAluno",
							"type": "string"
						}
					],
					"name": "setarNumpresenca",
					"outputs": [],
					"stateMutability": "nonpayable",
					"type": "function"
				},
				{
					"inputs": [
						{
							"internalType": "string",
							"name": "_palavra",
							"type": "string"
						},
						{
							"internalType": "string",
							"name": "_significado",
							"type": "string"
						}
					],
					"name": "setarPalavrasAoDicio",
					"outputs": [],
					"stateMutability": "nonpayable",
					"type": "function"
				},
				{
					"inputs": [],
					"name": "setarPresenca",
					"outputs": [],
					"stateMutability": "nonpayable",
					"type": "function"
				}
			],
			"devdoc": {
				"kind": "dev",
				"methods": {},
				"version": 1
			},
			"evm": {
				"assembly": "    /* \"AulasNearX/exeMapping.sol\":179:1582  contract NovaTurmaMapping {... */\n  mstore(0x40, 0x80)\n  callvalue\n  dup1\n  iszero\n  tag_1\n  jumpi\n  revert(0x00, 0x00)\ntag_1:\n  pop\n  dataSize(sub_0)\n  dup1\n  dataOffset(sub_0)\n  0x00\n  codecopy\n  0x00\n  return\nstop\n\nsub_0: assembly {\n        /* \"AulasNearX/exeMapping.sol\":179:1582  contract NovaTurmaMapping {... */\n      mstore(0x40, 0x80)\n      callvalue\n      dup1\n      iszero\n      tag_1\n      jumpi\n      revert(0x00, 0x00)\n    tag_1:\n      pop\n      jumpi(tag_2, lt(calldatasize, 0x04))\n      shr(0xe0, calldataload(0x00))\n      dup1\n      0xdd670d7b\n      gt\n      tag_11\n      jumpi\n      dup1\n      0xdd670d7b\n      eq\n      tag_7\n      jumpi\n      dup1\n      0xdeb0663c\n      eq\n      tag_8\n      jumpi\n      dup1\n      0xf94ce269\n      eq\n      tag_9\n      jumpi\n      dup1\n      0xfc34f47f\n      eq\n      tag_10\n      jumpi\n      jump(tag_2)\n    tag_11:\n      dup1\n      0x5ff856ea\n      eq\n      tag_3\n      jumpi\n      dup1\n      0x7e5205b8\n      eq\n      tag_4\n      jumpi\n      dup1\n      0xb5098300\n      eq\n      tag_5\n      jumpi\n      dup1\n      0xc1007889\n      eq\n      tag_6\n      jumpi\n    tag_2:\n      revert(0x00, 0x00)\n        /* \"AulasNearX/exeMapping.sol\":1023:1174  function setarNumpresenca(uint256 _numeroChegada, string memory _nomedoAluno) external {... */\n    tag_3:\n      tag_12\n      0x04\n      dup1\n      calldatasize\n      sub\n      dup2\n      add\n      swap1\n      tag_13\n      swap2\n      swap1\n      tag_14\n      jump\t// in\n    tag_13:\n      tag_15\n      jump\t// in\n    tag_12:\n      stop\n        /* \"AulasNearX/exeMapping.sol\":1455:1579  function setarNotaAluno(address _aluno, uint256 _nota) external {... */\n    tag_4:\n      tag_16\n      0x04\n      dup1\n      calldatasize\n      sub\n      dup2\n      add\n      swap1\n      tag_17\n      swap2\n      swap1\n      tag_18\n      jump\t// in\n    tag_17:\n      tag_19\n      jump\t// in\n    tag_16:\n      stop\n        /* \"AulasNearX/exeMapping.sol\":1277:1357  function setarPresenca() external {... */\n    tag_5:\n      tag_20\n      tag_21\n      jump\t// in\n    tag_20:\n      stop\n        /* \"AulasNearX/exeMapping.sol\":807:952  function setarPalavrasAoDicio(string memory _palavra, string memory _significado) external {... */\n    tag_6:\n      tag_22\n      0x04\n      dup1\n      calldatasize\n      sub\n      dup2\n      add\n      swap1\n      tag_23\n      swap2\n      swap1\n      tag_24\n      jump\t// in\n    tag_23:\n      tag_25\n      jump\t// in\n    tag_22:\n      stop\n        /* \"AulasNearX/exeMapping.sol\":541:581  mapping(address => bool) public presenca */\n    tag_7:\n      tag_26\n      0x04\n      dup1\n      calldatasize\n      sub\n      dup2\n      add\n      swap1\n      tag_27\n      swap2\n      swap1\n      tag_28\n      jump\t// in\n    tag_27:\n      tag_29\n      jump\t// in\n    tag_26:\n      mload(0x40)\n      tag_30\n      swap2\n      swap1\n      tag_31\n      jump\t// in\n    tag_30:\n      mload(0x40)\n      dup1\n      swap2\n      sub\n      swap1\n      return\n        /* \"AulasNearX/exeMapping.sol\":251:294  mapping(string => string) public dicionario */\n    tag_8:\n      tag_32\n      0x04\n      dup1\n      calldatasize\n      sub\n      dup2\n      add\n      swap1\n      tag_33\n      swap2\n      swap1\n      tag_34\n      jump\t// in\n    tag_33:\n      tag_35\n      jump\t// in\n    tag_32:\n      mload(0x40)\n      tag_36\n      swap2\n      swap1\n      tag_37\n      jump\t// in\n    tag_36:\n      mload(0x40)\n      dup1\n      swap2\n      sub\n      swap1\n      return\n        /* \"AulasNearX/exeMapping.sol\":379:427  mapping(string => uint256) public presencaNumero */\n    tag_9:\n      tag_38\n      0x04\n      dup1\n      calldatasize\n      sub\n      dup2\n      add\n      swap1\n      tag_39\n      swap2\n      swap1\n      tag_34\n      jump\t// in\n    tag_39:\n      tag_40\n      jump\t// in\n    tag_38:\n      mload(0x40)\n      tag_41\n      swap2\n      swap1\n      tag_42\n      jump\t// in\n    tag_41:\n      mload(0x40)\n      dup1\n      swap2\n      sub\n      swap1\n      return\n        /* \"AulasNearX/exeMapping.sol\":685:753  mapping(address => mapping(address => uint256)) public NotaProfAluno */\n    tag_10:\n      tag_43\n      0x04\n      dup1\n      calldatasize\n      sub\n      dup2\n      add\n      swap1\n      tag_44\n      swap2\n      swap1\n      tag_45\n      jump\t// in\n    tag_44:\n      tag_46\n      jump\t// in\n    tag_43:\n      mload(0x40)\n      tag_47\n      swap2\n      swap1\n      tag_42\n      jump\t// in\n    tag_47:\n      mload(0x40)\n      dup1\n      swap2\n      sub\n      swap1\n      return\n        /* \"AulasNearX/exeMapping.sol\":1023:1174  function setarNumpresenca(uint256 _numeroChegada, string memory _nomedoAluno) external {... */\n    tag_15:\n        /* \"AulasNearX/exeMapping.sol\":1152:1166  _numeroChegada */\n      dup2\n        /* \"AulasNearX/exeMapping.sol\":1121:1135  presencaNumero */\n      0x01\n        /* \"AulasNearX/exeMapping.sol\":1136:1148  _nomedoAluno */\n      dup3\n        /* \"AulasNearX/exeMapping.sol\":1121:1149  presencaNumero[_nomedoAluno] */\n      mload(0x40)\n      tag_49\n      swap2\n      swap1\n      tag_50\n      jump\t// in\n    tag_49:\n      swap1\n      dup2\n      mstore\n      0x20\n      add\n      mload(0x40)\n      dup1\n      swap2\n      sub\n      swap1\n      keccak256\n        /* \"AulasNearX/exeMapping.sol\":1121:1166  presencaNumero[_nomedoAluno] = _numeroChegada */\n      dup2\n      swap1\n      sstore\n      pop\n        /* \"AulasNearX/exeMapping.sol\":1023:1174  function setarNumpresenca(uint256 _numeroChegada, string memory _nomedoAluno) external {... */\n      pop\n      pop\n      jump\t// out\n        /* \"AulasNearX/exeMapping.sol\":1455:1579  function setarNotaAluno(address _aluno, uint256 _nota) external {... */\n    tag_19:\n        /* \"AulasNearX/exeMapping.sol\":1566:1571  _nota */\n      dup1\n        /* \"AulasNearX/exeMapping.sol\":1530:1543  NotaProfAluno */\n      0x03\n        /* \"AulasNearX/exeMapping.sol\":1530:1555  NotaProfAluno[msg.sender] */\n      0x00\n        /* \"AulasNearX/exeMapping.sol\":1544:1554  msg.sender */\n      caller\n        /* \"AulasNearX/exeMapping.sol\":1530:1555  NotaProfAluno[msg.sender] */\n      0xffffffffffffffffffffffffffffffffffffffff\n      and\n      0xffffffffffffffffffffffffffffffffffffffff\n      and\n      dup2\n      mstore\n      0x20\n      add\n      swap1\n      dup2\n      mstore\n      0x20\n      add\n      0x00\n      keccak256\n        /* \"AulasNearX/exeMapping.sol\":1530:1563  NotaProfAluno[msg.sender][_aluno] */\n      0x00\n        /* \"AulasNearX/exeMapping.sol\":1556:1562  _aluno */\n      dup5\n        /* \"AulasNearX/exeMapping.sol\":1530:1563  NotaProfAluno[msg.sender][_aluno] */\n      0xffffffffffffffffffffffffffffffffffffffff\n      and\n      0xffffffffffffffffffffffffffffffffffffffff\n      and\n      dup2\n      mstore\n      0x20\n      add\n      swap1\n      dup2\n      mstore\n      0x20\n      add\n      0x00\n      keccak256\n        /* \"AulasNearX/exeMapping.sol\":1530:1571  NotaProfAluno[msg.sender][_aluno] = _nota */\n      dup2\n      swap1\n      sstore\n      pop\n        /* \"AulasNearX/exeMapping.sol\":1455:1579  function setarNotaAluno(address _aluno, uint256 _nota) external {... */\n      pop\n      pop\n      jump\t// out\n        /* \"AulasNearX/exeMapping.sol\":1277:1357  function setarPresenca() external {... */\n    tag_21:\n        /* \"AulasNearX/exeMapping.sol\":1345:1349  true */\n      0x01\n        /* \"AulasNearX/exeMapping.sol\":1322:1330  presenca */\n      0x02\n        /* \"AulasNearX/exeMapping.sol\":1322:1342  presenca[msg.sender] */\n      0x00\n        /* \"AulasNearX/exeMapping.sol\":1331:1341  msg.sender */\n      caller\n        /* \"AulasNearX/exeMapping.sol\":1322:1342  presenca[msg.sender] */\n      0xffffffffffffffffffffffffffffffffffffffff\n      and\n      0xffffffffffffffffffffffffffffffffffffffff\n      and\n      dup2\n      mstore\n      0x20\n      add\n      swap1\n      dup2\n      mstore\n      0x20\n      add\n      0x00\n      keccak256\n      0x00\n        /* \"AulasNearX/exeMapping.sol\":1322:1349  presenca[msg.sender] = true */\n      0x0100\n      exp\n      dup2\n      sload\n      dup2\n      0xff\n      mul\n      not\n      and\n      swap1\n      dup4\n      iszero\n      iszero\n      mul\n      or\n      swap1\n      sstore\n      pop\n        /* \"AulasNearX/exeMapping.sol\":1277:1357  function setarPresenca() external {... */\n      jump\t// out\n        /* \"AulasNearX/exeMapping.sol\":807:952  function setarPalavrasAoDicio(string memory _palavra, string memory _significado) external {... */\n    tag_25:\n        /* \"AulasNearX/exeMapping.sol\":932:944  _significado */\n      dup1\n        /* \"AulasNearX/exeMapping.sol\":909:919  dicionario */\n      0x00\n        /* \"AulasNearX/exeMapping.sol\":920:928  _palavra */\n      dup4\n        /* \"AulasNearX/exeMapping.sol\":909:929  dicionario[_palavra] */\n      mload(0x40)\n      tag_54\n      swap2\n      swap1\n      tag_50\n      jump\t// in\n    tag_54:\n      swap1\n      dup2\n      mstore\n      0x20\n      add\n      mload(0x40)\n      dup1\n      swap2\n      sub\n      swap1\n      keccak256\n        /* \"AulasNearX/exeMapping.sol\":909:944  dicionario[_palavra] = _significado */\n      swap1\n      dup2\n      tag_55\n      swap2\n      swap1\n      tag_56\n      jump\t// in\n    tag_55:\n      pop\n        /* \"AulasNearX/exeMapping.sol\":807:952  function setarPalavrasAoDicio(string memory _palavra, string memory _significado) external {... */\n      pop\n      pop\n      jump\t// out\n        /* \"AulasNearX/exeMapping.sol\":541:581  mapping(address => bool) public presenca */\n    tag_29:\n      mstore(0x20, 0x02)\n      dup1\n      0x00\n      mstore\n      keccak256(0x00, 0x40)\n      0x00\n      swap2\n      pop\n      sload\n      swap1\n      0x0100\n      exp\n      swap1\n      div\n      0xff\n      and\n      dup2\n      jump\t// out\n        /* \"AulasNearX/exeMapping.sol\":251:294  mapping(string => string) public dicionario */\n    tag_35:\n      0x00\n      dup2\n      dup1\n      mload\n      0x20\n      dup2\n      add\n      dup3\n      add\n      dup1\n      mload\n      dup5\n      dup3\n      mstore\n      0x20\n      dup4\n      add\n      0x20\n      dup6\n      add\n      keccak256\n      dup2\n      dup4\n      mstore\n      dup1\n      swap6\n      pop\n      pop\n      pop\n      pop\n      pop\n      pop\n      0x00\n      swap2\n      pop\n      swap1\n      pop\n      dup1\n      sload\n      tag_57\n      swap1\n      tag_58\n      jump\t// in\n    tag_57:\n      dup1\n      0x1f\n      add\n      0x20\n      dup1\n      swap2\n      div\n      mul\n      0x20\n      add\n      mload(0x40)\n      swap1\n      dup2\n      add\n      0x40\n      mstore\n      dup1\n      swap3\n      swap2\n      swap1\n      dup2\n      dup2\n      mstore\n      0x20\n      add\n      dup3\n      dup1\n      sload\n      tag_59\n      swap1\n      tag_58\n      jump\t// in\n    tag_59:\n      dup1\n      iszero\n      tag_60\n      jumpi\n      dup1\n      0x1f\n      lt\n      tag_61\n      jumpi\n      0x0100\n      dup1\n      dup4\n      sload\n      div\n      mul\n      dup4\n      mstore\n      swap2\n      0x20\n      add\n      swap2\n      jump(tag_60)\n    tag_61:\n      dup3\n      add\n      swap2\n      swap1\n      0x00\n      mstore\n      keccak256(0x00, 0x20)\n      swap1\n    tag_62:\n      dup2\n      sload\n      dup2\n      mstore\n      swap1\n      0x01\n      add\n      swap1\n      0x20\n      add\n      dup1\n      dup4\n      gt\n      tag_62\n      jumpi\n      dup3\n      swap1\n      sub\n      0x1f\n      and\n      dup3\n      add\n      swap2\n    tag_60:\n      pop\n      pop\n      pop\n      pop\n      pop\n      dup2\n      jump\t// out\n        /* \"AulasNearX/exeMapping.sol\":379:427  mapping(string => uint256) public presencaNumero */\n    tag_40:\n      0x01\n      dup2\n      dup1\n      mload\n      0x20\n      dup2\n      add\n      dup3\n      add\n      dup1\n      mload\n      dup5\n      dup3\n      mstore\n      0x20\n      dup4\n      add\n      0x20\n      dup6\n      add\n      keccak256\n      dup2\n      dup4\n      mstore\n      dup1\n      swap6\n      pop\n      pop\n      pop\n      pop\n      pop\n      pop\n      0x00\n      swap2\n      pop\n      swap1\n      pop\n      sload\n      dup2\n      jump\t// out\n        /* \"AulasNearX/exeMapping.sol\":685:753  mapping(address => mapping(address => uint256)) public NotaProfAluno */\n    tag_46:\n      mstore(0x20, 0x03)\n      dup2\n      0x00\n      mstore\n      mstore(0x20, keccak256(0x00, 0x40))\n      dup1\n      0x00\n      mstore\n      keccak256(0x00, 0x40)\n      0x00\n      swap2\n      pop\n      swap2\n      pop\n      pop\n      sload\n      dup2\n      jump\t// out\n        /* \"#utility.yul\":7:82   */\n    tag_63:\n        /* \"#utility.yul\":40:46   */\n      0x00\n        /* \"#utility.yul\":73:75   */\n      0x40\n        /* \"#utility.yul\":67:76   */\n      mload\n        /* \"#utility.yul\":57:76   */\n      swap1\n      pop\n        /* \"#utility.yul\":7:82   */\n      swap1\n      jump\t// out\n        /* \"#utility.yul\":88:205   */\n    tag_64:\n        /* \"#utility.yul\":197:198   */\n      0x00\n        /* \"#utility.yul\":194:195   */\n      0x00\n        /* \"#utility.yul\":187:199   */\n      revert\n        /* \"#utility.yul\":211:328   */\n    tag_65:\n        /* \"#utility.yul\":320:321   */\n      0x00\n        /* \"#utility.yul\":317:318   */\n      0x00\n        /* \"#utility.yul\":310:322   */\n      revert\n        /* \"#utility.yul\":334:411   */\n    tag_66:\n        /* \"#utility.yul\":371:378   */\n      0x00\n        /* \"#utility.yul\":400:405   */\n      dup2\n        /* \"#utility.yul\":389:405   */\n      swap1\n      pop\n        /* \"#utility.yul\":334:411   */\n      swap2\n      swap1\n      pop\n      jump\t// out\n        /* \"#utility.yul\":417:539   */\n    tag_67:\n        /* \"#utility.yul\":490:514   */\n      tag_114\n        /* \"#utility.yul\":508:513   */\n      dup2\n        /* \"#utility.yul\":490:514   */\n      tag_66\n      jump\t// in\n    tag_114:\n        /* \"#utility.yul\":483:488   */\n      dup2\n        /* \"#utility.yul\":480:515   */\n      eq\n        /* \"#utility.yul\":470:533   */\n      tag_115\n      jumpi\n        /* \"#utility.yul\":529:530   */\n      0x00\n        /* \"#utility.yul\":526:527   */\n      0x00\n        /* \"#utility.yul\":519:531   */\n      revert\n        /* \"#utility.yul\":470:533   */\n    tag_115:\n        /* \"#utility.yul\":417:539   */\n      pop\n      jump\t// out\n        /* \"#utility.yul\":545:684   */\n    tag_68:\n        /* \"#utility.yul\":591:596   */\n      0x00\n        /* \"#utility.yul\":629:635   */\n      dup2\n        /* \"#utility.yul\":616:636   */\n      calldataload\n        /* \"#utility.yul\":607:636   */\n      swap1\n      pop\n        /* \"#utility.yul\":645:678   */\n      tag_117\n        /* \"#utility.yul\":672:677   */\n      dup2\n        /* \"#utility.yul\":645:678   */\n      tag_67\n      jump\t// in\n    tag_117:\n        /* \"#utility.yul\":545:684   */\n      swap3\n      swap2\n      pop\n      pop\n      jump\t// out\n        /* \"#utility.yul\":690:807   */\n    tag_69:\n        /* \"#utility.yul\":799:800   */\n      0x00\n        /* \"#utility.yul\":796:797   */\n      0x00\n        /* \"#utility.yul\":789:801   */\n      revert\n        /* \"#utility.yul\":813:930   */\n    tag_70:\n        /* \"#utility.yul\":922:923   */\n      0x00\n        /* \"#utility.yul\":919:920   */\n      0x00\n        /* \"#utility.yul\":912:924   */\n      revert\n        /* \"#utility.yul\":936:1038   */\n    tag_71:\n        /* \"#utility.yul\":977:983   */\n      0x00\n        /* \"#utility.yul\":1028:1030   */\n      0x1f\n        /* \"#utility.yul\":1024:1031   */\n      not\n        /* \"#utility.yul\":1019:1021   */\n      0x1f\n        /* \"#utility.yul\":1012:1017   */\n      dup4\n        /* \"#utility.yul\":1008:1022   */\n      add\n        /* \"#utility.yul\":1004:1032   */\n      and\n        /* \"#utility.yul\":994:1032   */\n      swap1\n      pop\n        /* \"#utility.yul\":936:1038   */\n      swap2\n      swap1\n      pop\n      jump\t// out\n        /* \"#utility.yul\":1044:1224   */\n    tag_72:\n        /* \"#utility.yul\":1092:1169   */\n      0x4e487b7100000000000000000000000000000000000000000000000000000000\n        /* \"#utility.yul\":1089:1090   */\n      0x00\n        /* \"#utility.yul\":1082:1170   */\n      mstore\n        /* \"#utility.yul\":1189:1193   */\n      0x41\n        /* \"#utility.yul\":1186:1187   */\n      0x04\n        /* \"#utility.yul\":1179:1194   */\n      mstore\n        /* \"#utility.yul\":1213:1217   */\n      0x24\n        /* \"#utility.yul\":1210:1211   */\n      0x00\n        /* \"#utility.yul\":1203:1218   */\n      revert\n        /* \"#utility.yul\":1230:1511   */\n    tag_73:\n        /* \"#utility.yul\":1313:1340   */\n      tag_123\n        /* \"#utility.yul\":1335:1339   */\n      dup3\n        /* \"#utility.yul\":1313:1340   */\n      tag_71\n      jump\t// in\n    tag_123:\n        /* \"#utility.yul\":1305:1311   */\n      dup2\n        /* \"#utility.yul\":1301:1341   */\n      add\n        /* \"#utility.yul\":1443:1449   */\n      dup2\n        /* \"#utility.yul\":1431:1441   */\n      dup2\n        /* \"#utility.yul\":1428:1450   */\n      lt\n        /* \"#utility.yul\":1407:1425   */\n      0xffffffffffffffff\n        /* \"#utility.yul\":1395:1405   */\n      dup3\n        /* \"#utility.yul\":1392:1426   */\n      gt\n        /* \"#utility.yul\":1389:1451   */\n      or\n        /* \"#utility.yul\":1386:1474   */\n      iszero\n      tag_124\n      jumpi\n        /* \"#utility.yul\":1454:1472   */\n      tag_125\n      tag_72\n      jump\t// in\n    tag_125:\n        /* \"#utility.yul\":1386:1474   */\n    tag_124:\n        /* \"#utility.yul\":1494:1504   */\n      dup1\n        /* \"#utility.yul\":1490:1492   */\n      0x40\n        /* \"#utility.yul\":1483:1505   */\n      mstore\n        /* \"#utility.yul\":1273:1511   */\n      pop\n        /* \"#utility.yul\":1230:1511   */\n      pop\n      pop\n      jump\t// out\n        /* \"#utility.yul\":1517:1646   */\n    tag_74:\n        /* \"#utility.yul\":1551:1557   */\n      0x00\n        /* \"#utility.yul\":1578:1598   */\n      tag_127\n      tag_63\n      jump\t// in\n    tag_127:\n        /* \"#utility.yul\":1568:1598   */\n      swap1\n      pop\n        /* \"#utility.yul\":1607:1640   */\n      tag_128\n        /* \"#utility.yul\":1635:1639   */\n      dup3\n        /* \"#utility.yul\":1627:1633   */\n      dup3\n        /* \"#utility.yul\":1607:1640   */\n      tag_73\n      jump\t// in\n    tag_128:\n        /* \"#utility.yul\":1517:1646   */\n      swap2\n      swap1\n      pop\n      jump\t// out\n        /* \"#utility.yul\":1652:1960   */\n    tag_75:\n        /* \"#utility.yul\":1714:1718   */\n      0x00\n        /* \"#utility.yul\":1804:1822   */\n      0xffffffffffffffff\n        /* \"#utility.yul\":1796:1802   */\n      dup3\n        /* \"#utility.yul\":1793:1823   */\n      gt\n        /* \"#utility.yul\":1790:1846   */\n      iszero\n      tag_130\n      jumpi\n        /* \"#utility.yul\":1826:1844   */\n      tag_131\n      tag_72\n      jump\t// in\n    tag_131:\n        /* \"#utility.yul\":1790:1846   */\n    tag_130:\n        /* \"#utility.yul\":1864:1893   */\n      tag_132\n        /* \"#utility.yul\":1886:1892   */\n      dup3\n        /* \"#utility.yul\":1864:1893   */\n      tag_71\n      jump\t// in\n    tag_132:\n        /* \"#utility.yul\":1856:1893   */\n      swap1\n      pop\n        /* \"#utility.yul\":1948:1952   */\n      0x20\n        /* \"#utility.yul\":1942:1946   */\n      dup2\n        /* \"#utility.yul\":1938:1953   */\n      add\n        /* \"#utility.yul\":1930:1953   */\n      swap1\n      pop\n        /* \"#utility.yul\":1652:1960   */\n      swap2\n      swap1\n      pop\n      jump\t// out\n        /* \"#utility.yul\":1966:2114   */\n    tag_76:\n        /* \"#utility.yul\":2064:2070   */\n      dup3\n        /* \"#utility.yul\":2059:2062   */\n      dup2\n        /* \"#utility.yul\":2054:2057   */\n      dup4\n        /* \"#utility.yul\":2041:2071   */\n      calldatacopy\n        /* \"#utility.yul\":2105:2106   */\n      0x00\n        /* \"#utility.yul\":2096:2102   */\n      dup4\n        /* \"#utility.yul\":2091:2094   */\n      dup4\n        /* \"#utility.yul\":2087:2103   */\n      add\n        /* \"#utility.yul\":2080:2107   */\n      mstore\n        /* \"#utility.yul\":1966:2114   */\n      pop\n      pop\n      pop\n      jump\t// out\n        /* \"#utility.yul\":2120:2545   */\n    tag_77:\n        /* \"#utility.yul\":2198:2203   */\n      0x00\n        /* \"#utility.yul\":2223:2289   */\n      tag_135\n        /* \"#utility.yul\":2239:2288   */\n      tag_136\n        /* \"#utility.yul\":2281:2287   */\n      dup5\n        /* \"#utility.yul\":2239:2288   */\n      tag_75\n      jump\t// in\n    tag_136:\n        /* \"#utility.yul\":2223:2289   */\n      tag_74\n      jump\t// in\n    tag_135:\n        /* \"#utility.yul\":2214:2289   */\n      swap1\n      pop\n        /* \"#utility.yul\":2312:2318   */\n      dup3\n        /* \"#utility.yul\":2305:2310   */\n      dup2\n        /* \"#utility.yul\":2298:2319   */\n      mstore\n        /* \"#utility.yul\":2350:2354   */\n      0x20\n        /* \"#utility.yul\":2343:2348   */\n      dup2\n        /* \"#utility.yul\":2339:2355   */\n      add\n        /* \"#utility.yul\":2388:2391   */\n      dup5\n        /* \"#utility.yul\":2379:2385   */\n      dup5\n        /* \"#utility.yul\":2374:2377   */\n      dup5\n        /* \"#utility.yul\":2370:2386   */\n      add\n        /* \"#utility.yul\":2367:2392   */\n      gt\n        /* \"#utility.yul\":2364:2476   */\n      iszero\n      tag_137\n      jumpi\n        /* \"#utility.yul\":2395:2474   */\n      tag_138\n      tag_70\n      jump\t// in\n    tag_138:\n        /* \"#utility.yul\":2364:2476   */\n    tag_137:\n        /* \"#utility.yul\":2485:2539   */\n      tag_139\n        /* \"#utility.yul\":2532:2538   */\n      dup5\n        /* \"#utility.yul\":2527:2530   */\n      dup3\n        /* \"#utility.yul\":2522:2525   */\n      dup6\n        /* \"#utility.yul\":2485:2539   */\n      tag_76\n      jump\t// in\n    tag_139:\n        /* \"#utility.yul\":2204:2545   */\n      pop\n        /* \"#utility.yul\":2120:2545   */\n      swap4\n      swap3\n      pop\n      pop\n      pop\n      jump\t// out\n        /* \"#utility.yul\":2565:2905   */\n    tag_78:\n        /* \"#utility.yul\":2621:2626   */\n      0x00\n        /* \"#utility.yul\":2670:2673   */\n      dup3\n        /* \"#utility.yul\":2663:2667   */\n      0x1f\n        /* \"#utility.yul\":2655:2661   */\n      dup4\n        /* \"#utility.yul\":2651:2668   */\n      add\n        /* \"#utility.yul\":2647:2674   */\n      slt\n        /* \"#utility.yul\":2637:2759   */\n      tag_141\n      jumpi\n        /* \"#utility.yul\":2678:2757   */\n      tag_142\n      tag_69\n      jump\t// in\n    tag_142:\n        /* \"#utility.yul\":2637:2759   */\n    tag_141:\n        /* \"#utility.yul\":2795:2801   */\n      dup2\n        /* \"#utility.yul\":2782:2802   */\n      calldataload\n        /* \"#utility.yul\":2820:2899   */\n      tag_143\n        /* \"#utility.yul\":2895:2898   */\n      dup5\n        /* \"#utility.yul\":2887:2893   */\n      dup3\n        /* \"#utility.yul\":2880:2884   */\n      0x20\n        /* \"#utility.yul\":2872:2878   */\n      dup7\n        /* \"#utility.yul\":2868:2885   */\n      add\n        /* \"#utility.yul\":2820:2899   */\n      tag_77\n      jump\t// in\n    tag_143:\n        /* \"#utility.yul\":2811:2899   */\n      swap2\n      pop\n        /* \"#utility.yul\":2627:2905   */\n      pop\n        /* \"#utility.yul\":2565:2905   */\n      swap3\n      swap2\n      pop\n      pop\n      jump\t// out\n        /* \"#utility.yul\":2911:3565   */\n    tag_14:\n        /* \"#utility.yul\":2989:2995   */\n      0x00\n        /* \"#utility.yul\":2997:3003   */\n      0x00\n        /* \"#utility.yul\":3046:3048   */\n      0x40\n        /* \"#utility.yul\":3034:3043   */\n      dup4\n        /* \"#utility.yul\":3025:3032   */\n      dup6\n        /* \"#utility.yul\":3021:3044   */\n      sub\n        /* \"#utility.yul\":3017:3049   */\n      slt\n        /* \"#utility.yul\":3014:3133   */\n      iszero\n      tag_145\n      jumpi\n        /* \"#utility.yul\":3052:3131   */\n      tag_146\n      tag_64\n      jump\t// in\n    tag_146:\n        /* \"#utility.yul\":3014:3133   */\n    tag_145:\n        /* \"#utility.yul\":3172:3173   */\n      0x00\n        /* \"#utility.yul\":3197:3250   */\n      tag_147\n        /* \"#utility.yul\":3242:3249   */\n      dup6\n        /* \"#utility.yul\":3233:3239   */\n      dup3\n        /* \"#utility.yul\":3222:3231   */\n      dup7\n        /* \"#utility.yul\":3218:3240   */\n      add\n        /* \"#utility.yul\":3197:3250   */\n      tag_68\n      jump\t// in\n    tag_147:\n        /* \"#utility.yul\":3187:3250   */\n      swap3\n      pop\n        /* \"#utility.yul\":3143:3260   */\n      pop\n        /* \"#utility.yul\":3327:3329   */\n      0x20\n        /* \"#utility.yul\":3316:3325   */\n      dup4\n        /* \"#utility.yul\":3312:3330   */\n      add\n        /* \"#utility.yul\":3299:3331   */\n      calldataload\n        /* \"#utility.yul\":3358:3376   */\n      0xffffffffffffffff\n        /* \"#utility.yul\":3350:3356   */\n      dup2\n        /* \"#utility.yul\":3347:3377   */\n      gt\n        /* \"#utility.yul\":3344:3461   */\n      iszero\n      tag_148\n      jumpi\n        /* \"#utility.yul\":3380:3459   */\n      tag_149\n      tag_65\n      jump\t// in\n    tag_149:\n        /* \"#utility.yul\":3344:3461   */\n    tag_148:\n        /* \"#utility.yul\":3485:3548   */\n      tag_150\n        /* \"#utility.yul\":3540:3547   */\n      dup6\n        /* \"#utility.yul\":3531:3537   */\n      dup3\n        /* \"#utility.yul\":3520:3529   */\n      dup7\n        /* \"#utility.yul\":3516:3538   */\n      add\n        /* \"#utility.yul\":3485:3548   */\n      tag_78\n      jump\t// in\n    tag_150:\n        /* \"#utility.yul\":3475:3548   */\n      swap2\n      pop\n        /* \"#utility.yul\":3270:3558   */\n      pop\n        /* \"#utility.yul\":2911:3565   */\n      swap3\n      pop\n      swap3\n      swap1\n      pop\n      jump\t// out\n        /* \"#utility.yul\":3571:3697   */\n    tag_79:\n        /* \"#utility.yul\":3608:3615   */\n      0x00\n        /* \"#utility.yul\":3648:3690   */\n      0xffffffffffffffffffffffffffffffffffffffff\n        /* \"#utility.yul\":3641:3646   */\n      dup3\n        /* \"#utility.yul\":3637:3691   */\n      and\n        /* \"#utility.yul\":3626:3691   */\n      swap1\n      pop\n        /* \"#utility.yul\":3571:3697   */\n      swap2\n      swap1\n      pop\n      jump\t// out\n        /* \"#utility.yul\":3703:3799   */\n    tag_80:\n        /* \"#utility.yul\":3740:3747   */\n      0x00\n        /* \"#utility.yul\":3769:3793   */\n      tag_153\n        /* \"#utility.yul\":3787:3792   */\n      dup3\n        /* \"#utility.yul\":3769:3793   */\n      tag_79\n      jump\t// in\n    tag_153:\n        /* \"#utility.yul\":3758:3793   */\n      swap1\n      pop\n        /* \"#utility.yul\":3703:3799   */\n      swap2\n      swap1\n      pop\n      jump\t// out\n        /* \"#utility.yul\":3805:3927   */\n    tag_81:\n        /* \"#utility.yul\":3878:3902   */\n      tag_155\n        /* \"#utility.yul\":3896:3901   */\n      dup2\n        /* \"#utility.yul\":3878:3902   */\n      tag_80\n      jump\t// in\n    tag_155:\n        /* \"#utility.yul\":3871:3876   */\n      dup2\n        /* \"#utility.yul\":3868:3903   */\n      eq\n        /* \"#utility.yul\":3858:3921   */\n      tag_156\n      jumpi\n        /* \"#utility.yul\":3917:3918   */\n      0x00\n        /* \"#utility.yul\":3914:3915   */\n      0x00\n        /* \"#utility.yul\":3907:3919   */\n      revert\n        /* \"#utility.yul\":3858:3921   */\n    tag_156:\n        /* \"#utility.yul\":3805:3927   */\n      pop\n      jump\t// out\n        /* \"#utility.yul\":3933:4072   */\n    tag_82:\n        /* \"#utility.yul\":3979:3984   */\n      0x00\n        /* \"#utility.yul\":4017:4023   */\n      dup2\n        /* \"#utility.yul\":4004:4024   */\n      calldataload\n        /* \"#utility.yul\":3995:4024   */\n      swap1\n      pop\n        /* \"#utility.yul\":4033:4066   */\n      tag_158\n        /* \"#utility.yul\":4060:4065   */\n      dup2\n        /* \"#utility.yul\":4033:4066   */\n      tag_81\n      jump\t// in\n    tag_158:\n        /* \"#utility.yul\":3933:4072   */\n      swap3\n      swap2\n      pop\n      pop\n      jump\t// out\n        /* \"#utility.yul\":4078:4552   */\n    tag_18:\n        /* \"#utility.yul\":4146:4152   */\n      0x00\n        /* \"#utility.yul\":4154:4160   */\n      0x00\n        /* \"#utility.yul\":4203:4205   */\n      0x40\n        /* \"#utility.yul\":4191:4200   */\n      dup4\n        /* \"#utility.yul\":4182:4189   */\n      dup6\n        /* \"#utility.yul\":4178:4201   */\n      sub\n        /* \"#utility.yul\":4174:4206   */\n      slt\n        /* \"#utility.yul\":4171:4290   */\n      iszero\n      tag_160\n      jumpi\n        /* \"#utility.yul\":4209:4288   */\n      tag_161\n      tag_64\n      jump\t// in\n    tag_161:\n        /* \"#utility.yul\":4171:4290   */\n    tag_160:\n        /* \"#utility.yul\":4329:4330   */\n      0x00\n        /* \"#utility.yul\":4354:4407   */\n      tag_162\n        /* \"#utility.yul\":4399:4406   */\n      dup6\n        /* \"#utility.yul\":4390:4396   */\n      dup3\n        /* \"#utility.yul\":4379:4388   */\n      dup7\n        /* \"#utility.yul\":4375:4397   */\n      add\n        /* \"#utility.yul\":4354:4407   */\n      tag_82\n      jump\t// in\n    tag_162:\n        /* \"#utility.yul\":4344:4407   */\n      swap3\n      pop\n        /* \"#utility.yul\":4300:4417   */\n      pop\n        /* \"#utility.yul\":4456:4458   */\n      0x20\n        /* \"#utility.yul\":4482:4535   */\n      tag_163\n        /* \"#utility.yul\":4527:4534   */\n      dup6\n        /* \"#utility.yul\":4518:4524   */\n      dup3\n        /* \"#utility.yul\":4507:4516   */\n      dup7\n        /* \"#utility.yul\":4503:4525   */\n      add\n        /* \"#utility.yul\":4482:4535   */\n      tag_68\n      jump\t// in\n    tag_163:\n        /* \"#utility.yul\":4472:4535   */\n      swap2\n      pop\n        /* \"#utility.yul\":4427:4545   */\n      pop\n        /* \"#utility.yul\":4078:4552   */\n      swap3\n      pop\n      swap3\n      swap1\n      pop\n      jump\t// out\n        /* \"#utility.yul\":4558:5392   */\n    tag_24:\n        /* \"#utility.yul\":4646:4652   */\n      0x00\n        /* \"#utility.yul\":4654:4660   */\n      0x00\n        /* \"#utility.yul\":4703:4705   */\n      0x40\n        /* \"#utility.yul\":4691:4700   */\n      dup4\n        /* \"#utility.yul\":4682:4689   */\n      dup6\n        /* \"#utility.yul\":4678:4701   */\n      sub\n        /* \"#utility.yul\":4674:4706   */\n      slt\n        /* \"#utility.yul\":4671:4790   */\n      iszero\n      tag_165\n      jumpi\n        /* \"#utility.yul\":4709:4788   */\n      tag_166\n      tag_64\n      jump\t// in\n    tag_166:\n        /* \"#utility.yul\":4671:4790   */\n    tag_165:\n        /* \"#utility.yul\":4857:4858   */\n      0x00\n        /* \"#utility.yul\":4846:4855   */\n      dup4\n        /* \"#utility.yul\":4842:4859   */\n      add\n        /* \"#utility.yul\":4829:4860   */\n      calldataload\n        /* \"#utility.yul\":4887:4905   */\n      0xffffffffffffffff\n        /* \"#utility.yul\":4879:4885   */\n      dup2\n        /* \"#utility.yul\":4876:4906   */\n      gt\n        /* \"#utility.yul\":4873:4990   */\n      iszero\n      tag_167\n      jumpi\n        /* \"#utility.yul\":4909:4988   */\n      tag_168\n      tag_65\n      jump\t// in\n    tag_168:\n        /* \"#utility.yul\":4873:4990   */\n    tag_167:\n        /* \"#utility.yul\":5014:5077   */\n      tag_169\n        /* \"#utility.yul\":5069:5076   */\n      dup6\n        /* \"#utility.yul\":5060:5066   */\n      dup3\n        /* \"#utility.yul\":5049:5058   */\n      dup7\n        /* \"#utility.yul\":5045:5067   */\n      add\n        /* \"#utility.yul\":5014:5077   */\n      tag_78\n      jump\t// in\n    tag_169:\n        /* \"#utility.yul\":5004:5077   */\n      swap3\n      pop\n        /* \"#utility.yul\":4800:5087   */\n      pop\n        /* \"#utility.yul\":5154:5156   */\n      0x20\n        /* \"#utility.yul\":5143:5152   */\n      dup4\n        /* \"#utility.yul\":5139:5157   */\n      add\n        /* \"#utility.yul\":5126:5158   */\n      calldataload\n        /* \"#utility.yul\":5185:5203   */\n      0xffffffffffffffff\n        /* \"#utility.yul\":5177:5183   */\n      dup2\n        /* \"#utility.yul\":5174:5204   */\n      gt\n        /* \"#utility.yul\":5171:5288   */\n      iszero\n      tag_170\n      jumpi\n        /* \"#utility.yul\":5207:5286   */\n      tag_171\n      tag_65\n      jump\t// in\n    tag_171:\n        /* \"#utility.yul\":5171:5288   */\n    tag_170:\n        /* \"#utility.yul\":5312:5375   */\n      tag_172\n        /* \"#utility.yul\":5367:5374   */\n      dup6\n        /* \"#utility.yul\":5358:5364   */\n      dup3\n        /* \"#utility.yul\":5347:5356   */\n      dup7\n        /* \"#utility.yul\":5343:5365   */\n      add\n        /* \"#utility.yul\":5312:5375   */\n      tag_78\n      jump\t// in\n    tag_172:\n        /* \"#utility.yul\":5302:5375   */\n      swap2\n      pop\n        /* \"#utility.yul\":5097:5385   */\n      pop\n        /* \"#utility.yul\":4558:5392   */\n      swap3\n      pop\n      swap3\n      swap1\n      pop\n      jump\t// out\n        /* \"#utility.yul\":5398:5727   */\n    tag_28:\n        /* \"#utility.yul\":5457:5463   */\n      0x00\n        /* \"#utility.yul\":5506:5508   */\n      0x20\n        /* \"#utility.yul\":5494:5503   */\n      dup3\n        /* \"#utility.yul\":5485:5492   */\n      dup5\n        /* \"#utility.yul\":5481:5504   */\n      sub\n        /* \"#utility.yul\":5477:5509   */\n      slt\n        /* \"#utility.yul\":5474:5593   */\n      iszero\n      tag_174\n      jumpi\n        /* \"#utility.yul\":5512:5591   */\n      tag_175\n      tag_64\n      jump\t// in\n    tag_175:\n        /* \"#utility.yul\":5474:5593   */\n    tag_174:\n        /* \"#utility.yul\":5632:5633   */\n      0x00\n        /* \"#utility.yul\":5657:5710   */\n      tag_176\n        /* \"#utility.yul\":5702:5709   */\n      dup5\n        /* \"#utility.yul\":5693:5699   */\n      dup3\n        /* \"#utility.yul\":5682:5691   */\n      dup6\n        /* \"#utility.yul\":5678:5700   */\n      add\n        /* \"#utility.yul\":5657:5710   */\n      tag_82\n      jump\t// in\n    tag_176:\n        /* \"#utility.yul\":5647:5710   */\n      swap2\n      pop\n        /* \"#utility.yul\":5603:5720   */\n      pop\n        /* \"#utility.yul\":5398:5727   */\n      swap3\n      swap2\n      pop\n      pop\n      jump\t// out\n        /* \"#utility.yul\":5733:5823   */\n    tag_83:\n        /* \"#utility.yul\":5767:5774   */\n      0x00\n        /* \"#utility.yul\":5810:5815   */\n      dup2\n        /* \"#utility.yul\":5803:5816   */\n      iszero\n        /* \"#utility.yul\":5796:5817   */\n      iszero\n        /* \"#utility.yul\":5785:5817   */\n      swap1\n      pop\n        /* \"#utility.yul\":5733:5823   */\n      swap2\n      swap1\n      pop\n      jump\t// out\n        /* \"#utility.yul\":5829:5938   */\n    tag_84:\n        /* \"#utility.yul\":5910:5931   */\n      tag_179\n        /* \"#utility.yul\":5925:5930   */\n      dup2\n        /* \"#utility.yul\":5910:5931   */\n      tag_83\n      jump\t// in\n    tag_179:\n        /* \"#utility.yul\":5905:5908   */\n      dup3\n        /* \"#utility.yul\":5898:5932   */\n      mstore\n        /* \"#utility.yul\":5829:5938   */\n      pop\n      pop\n      jump\t// out\n        /* \"#utility.yul\":5944:6154   */\n    tag_31:\n        /* \"#utility.yul\":6031:6035   */\n      0x00\n        /* \"#utility.yul\":6069:6071   */\n      0x20\n        /* \"#utility.yul\":6058:6067   */\n      dup3\n        /* \"#utility.yul\":6054:6072   */\n      add\n        /* \"#utility.yul\":6046:6072   */\n      swap1\n      pop\n        /* \"#utility.yul\":6082:6147   */\n      tag_181\n        /* \"#utility.yul\":6144:6145   */\n      0x00\n        /* \"#utility.yul\":6133:6142   */\n      dup4\n        /* \"#utility.yul\":6129:6146   */\n      add\n        /* \"#utility.yul\":6120:6126   */\n      dup5\n        /* \"#utility.yul\":6082:6147   */\n      tag_84\n      jump\t// in\n    tag_181:\n        /* \"#utility.yul\":5944:6154   */\n      swap3\n      swap2\n      pop\n      pop\n      jump\t// out\n        /* \"#utility.yul\":6160:6669   */\n    tag_34:\n        /* \"#utility.yul\":6229:6235   */\n      0x00\n        /* \"#utility.yul\":6278:6280   */\n      0x20\n        /* \"#utility.yul\":6266:6275   */\n      dup3\n        /* \"#utility.yul\":6257:6264   */\n      dup5\n        /* \"#utility.yul\":6253:6276   */\n      sub\n        /* \"#utility.yul\":6249:6281   */\n      slt\n        /* \"#utility.yul\":6246:6365   */\n      iszero\n      tag_183\n      jumpi\n        /* \"#utility.yul\":6284:6363   */\n      tag_184\n      tag_64\n      jump\t// in\n    tag_184:\n        /* \"#utility.yul\":6246:6365   */\n    tag_183:\n        /* \"#utility.yul\":6432:6433   */\n      0x00\n        /* \"#utility.yul\":6421:6430   */\n      dup3\n        /* \"#utility.yul\":6417:6434   */\n      add\n        /* \"#utility.yul\":6404:6435   */\n      calldataload\n        /* \"#utility.yul\":6462:6480   */\n      0xffffffffffffffff\n        /* \"#utility.yul\":6454:6460   */\n      dup2\n        /* \"#utility.yul\":6451:6481   */\n      gt\n        /* \"#utility.yul\":6448:6565   */\n      iszero\n      tag_185\n      jumpi\n        /* \"#utility.yul\":6484:6563   */\n      tag_186\n      tag_65\n      jump\t// in\n    tag_186:\n        /* \"#utility.yul\":6448:6565   */\n    tag_185:\n        /* \"#utility.yul\":6589:6652   */\n      tag_187\n        /* \"#utility.yul\":6644:6651   */\n      dup5\n        /* \"#utility.yul\":6635:6641   */\n      dup3\n        /* \"#utility.yul\":6624:6633   */\n      dup6\n        /* \"#utility.yul\":6620:6642   */\n      add\n        /* \"#utility.yul\":6589:6652   */\n      tag_78\n      jump\t// in\n    tag_187:\n        /* \"#utility.yul\":6579:6652   */\n      swap2\n      pop\n        /* \"#utility.yul\":6375:6662   */\n      pop\n        /* \"#utility.yul\":6160:6669   */\n      swap3\n      swap2\n      pop\n      pop\n      jump\t// out\n        /* \"#utility.yul\":6675:6774   */\n    tag_85:\n        /* \"#utility.yul\":6727:6733   */\n      0x00\n        /* \"#utility.yul\":6761:6766   */\n      dup2\n        /* \"#utility.yul\":6755:6767   */\n      mload\n        /* \"#utility.yul\":6745:6767   */\n      swap1\n      pop\n        /* \"#utility.yul\":6675:6774   */\n      swap2\n      swap1\n      pop\n      jump\t// out\n        /* \"#utility.yul\":6780:6949   */\n    tag_86:\n        /* \"#utility.yul\":6864:6875   */\n      0x00\n        /* \"#utility.yul\":6898:6904   */\n      dup3\n        /* \"#utility.yul\":6893:6896   */\n      dup3\n        /* \"#utility.yul\":6886:6905   */\n      mstore\n        /* \"#utility.yul\":6938:6942   */\n      0x20\n        /* \"#utility.yul\":6933:6936   */\n      dup3\n        /* \"#utility.yul\":6929:6943   */\n      add\n        /* \"#utility.yul\":6914:6943   */\n      swap1\n      pop\n        /* \"#utility.yul\":6780:6949   */\n      swap3\n      swap2\n      pop\n      pop\n      jump\t// out\n        /* \"#utility.yul\":6955:7094   */\n    tag_87:\n        /* \"#utility.yul\":7044:7050   */\n      dup3\n        /* \"#utility.yul\":7039:7042   */\n      dup2\n        /* \"#utility.yul\":7034:7037   */\n      dup4\n        /* \"#utility.yul\":7028:7051   */\n      mcopy\n        /* \"#utility.yul\":7085:7086   */\n      0x00\n        /* \"#utility.yul\":7076:7082   */\n      dup4\n        /* \"#utility.yul\":7071:7074   */\n      dup4\n        /* \"#utility.yul\":7067:7083   */\n      add\n        /* \"#utility.yul\":7060:7087   */\n      mstore\n        /* \"#utility.yul\":6955:7094   */\n      pop\n      pop\n      pop\n      jump\t// out\n        /* \"#utility.yul\":7100:7477   */\n    tag_88:\n        /* \"#utility.yul\":7188:7191   */\n      0x00\n        /* \"#utility.yul\":7216:7255   */\n      tag_192\n        /* \"#utility.yul\":7249:7254   */\n      dup3\n        /* \"#utility.yul\":7216:7255   */\n      tag_85\n      jump\t// in\n    tag_192:\n        /* \"#utility.yul\":7271:7342   */\n      tag_193\n        /* \"#utility.yul\":7335:7341   */\n      dup2\n        /* \"#utility.yul\":7330:7333   */\n      dup6\n        /* \"#utility.yul\":7271:7342   */\n      tag_86\n      jump\t// in\n    tag_193:\n        /* \"#utility.yul\":7264:7342   */\n      swap4\n      pop\n        /* \"#utility.yul\":7351:7416   */\n      tag_194\n        /* \"#utility.yul\":7409:7415   */\n      dup2\n        /* \"#utility.yul\":7404:7407   */\n      dup6\n        /* \"#utility.yul\":7397:7401   */\n      0x20\n        /* \"#utility.yul\":7390:7395   */\n      dup7\n        /* \"#utility.yul\":7386:7402   */\n      add\n        /* \"#utility.yul\":7351:7416   */\n      tag_87\n      jump\t// in\n    tag_194:\n        /* \"#utility.yul\":7441:7470   */\n      tag_195\n        /* \"#utility.yul\":7463:7469   */\n      dup2\n        /* \"#utility.yul\":7441:7470   */\n      tag_71\n      jump\t// in\n    tag_195:\n        /* \"#utility.yul\":7436:7439   */\n      dup5\n        /* \"#utility.yul\":7432:7471   */\n      add\n        /* \"#utility.yul\":7425:7471   */\n      swap2\n      pop\n        /* \"#utility.yul\":7192:7477   */\n      pop\n        /* \"#utility.yul\":7100:7477   */\n      swap3\n      swap2\n      pop\n      pop\n      jump\t// out\n        /* \"#utility.yul\":7483:7796   */\n    tag_37:\n        /* \"#utility.yul\":7596:7600   */\n      0x00\n        /* \"#utility.yul\":7634:7636   */\n      0x20\n        /* \"#utility.yul\":7623:7632   */\n      dup3\n        /* \"#utility.yul\":7619:7637   */\n      add\n        /* \"#utility.yul\":7611:7637   */\n      swap1\n      pop\n        /* \"#utility.yul\":7683:7692   */\n      dup2\n        /* \"#utility.yul\":7677:7681   */\n      dup2\n        /* \"#utility.yul\":7673:7693   */\n      sub\n        /* \"#utility.yul\":7669:7670   */\n      0x00\n        /* \"#utility.yul\":7658:7667   */\n      dup4\n        /* \"#utility.yul\":7654:7671   */\n      add\n        /* \"#utility.yul\":7647:7694   */\n      mstore\n        /* \"#utility.yul\":7711:7789   */\n      tag_197\n        /* \"#utility.yul\":7784:7788   */\n      dup2\n        /* \"#utility.yul\":7775:7781   */\n      dup5\n        /* \"#utility.yul\":7711:7789   */\n      tag_88\n      jump\t// in\n    tag_197:\n        /* \"#utility.yul\":7703:7789   */\n      swap1\n      pop\n        /* \"#utility.yul\":7483:7796   */\n      swap3\n      swap2\n      pop\n      pop\n      jump\t// out\n        /* \"#utility.yul\":7802:7920   */\n    tag_89:\n        /* \"#utility.yul\":7889:7913   */\n      tag_199\n        /* \"#utility.yul\":7907:7912   */\n      dup2\n        /* \"#utility.yul\":7889:7913   */\n      tag_66\n      jump\t// in\n    tag_199:\n        /* \"#utility.yul\":7884:7887   */\n      dup3\n        /* \"#utility.yul\":7877:7914   */\n      mstore\n        /* \"#utility.yul\":7802:7920   */\n      pop\n      pop\n      jump\t// out\n        /* \"#utility.yul\":7926:8148   */\n    tag_42:\n        /* \"#utility.yul\":8019:8023   */\n      0x00\n        /* \"#utility.yul\":8057:8059   */\n      0x20\n        /* \"#utility.yul\":8046:8055   */\n      dup3\n        /* \"#utility.yul\":8042:8060   */\n      add\n        /* \"#utility.yul\":8034:8060   */\n      swap1\n      pop\n        /* \"#utility.yul\":8070:8141   */\n      tag_201\n        /* \"#utility.yul\":8138:8139   */\n      0x00\n        /* \"#utility.yul\":8127:8136   */\n      dup4\n        /* \"#utility.yul\":8123:8140   */\n      add\n        /* \"#utility.yul\":8114:8120   */\n      dup5\n        /* \"#utility.yul\":8070:8141   */\n      tag_89\n      jump\t// in\n    tag_201:\n        /* \"#utility.yul\":7926:8148   */\n      swap3\n      swap2\n      pop\n      pop\n      jump\t// out\n        /* \"#utility.yul\":8154:8628   */\n    tag_45:\n        /* \"#utility.yul\":8222:8228   */\n      0x00\n        /* \"#utility.yul\":8230:8236   */\n      0x00\n        /* \"#utility.yul\":8279:8281   */\n      0x40\n        /* \"#utility.yul\":8267:8276   */\n      dup4\n        /* \"#utility.yul\":8258:8265   */\n      dup6\n        /* \"#utility.yul\":8254:8277   */\n      sub\n        /* \"#utility.yul\":8250:8282   */\n      slt\n        /* \"#utility.yul\":8247:8366   */\n      iszero\n      tag_203\n      jumpi\n        /* \"#utility.yul\":8285:8364   */\n      tag_204\n      tag_64\n      jump\t// in\n    tag_204:\n        /* \"#utility.yul\":8247:8366   */\n    tag_203:\n        /* \"#utility.yul\":8405:8406   */\n      0x00\n        /* \"#utility.yul\":8430:8483   */\n      tag_205\n        /* \"#utility.yul\":8475:8482   */\n      dup6\n        /* \"#utility.yul\":8466:8472   */\n      dup3\n        /* \"#utility.yul\":8455:8464   */\n      dup7\n        /* \"#utility.yul\":8451:8473   */\n      add\n        /* \"#utility.yul\":8430:8483   */\n      tag_82\n      jump\t// in\n    tag_205:\n        /* \"#utility.yul\":8420:8483   */\n      swap3\n      pop\n        /* \"#utility.yul\":8376:8493   */\n      pop\n        /* \"#utility.yul\":8532:8534   */\n      0x20\n        /* \"#utility.yul\":8558:8611   */\n      tag_206\n        /* \"#utility.yul\":8603:8610   */\n      dup6\n        /* \"#utility.yul\":8594:8600   */\n      dup3\n        /* \"#utility.yul\":8583:8592   */\n      dup7\n        /* \"#utility.yul\":8579:8601   */\n      add\n        /* \"#utility.yul\":8558:8611   */\n      tag_82\n      jump\t// in\n    tag_206:\n        /* \"#utility.yul\":8548:8611   */\n      swap2\n      pop\n        /* \"#utility.yul\":8503:8621   */\n      pop\n        /* \"#utility.yul\":8154:8628   */\n      swap3\n      pop\n      swap3\n      swap1\n      pop\n      jump\t// out\n        /* \"#utility.yul\":8634:8782   */\n    tag_90:\n        /* \"#utility.yul\":8736:8747   */\n      0x00\n        /* \"#utility.yul\":8773:8776   */\n      dup2\n        /* \"#utility.yul\":8758:8776   */\n      swap1\n      pop\n        /* \"#utility.yul\":8634:8782   */\n      swap3\n      swap2\n      pop\n      pop\n      jump\t// out\n        /* \"#utility.yul\":8788:9178   */\n    tag_91:\n        /* \"#utility.yul\":8894:8897   */\n      0x00\n        /* \"#utility.yul\":8922:8961   */\n      tag_209\n        /* \"#utility.yul\":8955:8960   */\n      dup3\n        /* \"#utility.yul\":8922:8961   */\n      tag_85\n      jump\t// in\n    tag_209:\n        /* \"#utility.yul\":8977:9066   */\n      tag_210\n        /* \"#utility.yul\":9059:9065   */\n      dup2\n        /* \"#utility.yul\":9054:9057   */\n      dup6\n        /* \"#utility.yul\":8977:9066   */\n      tag_90\n      jump\t// in\n    tag_210:\n        /* \"#utility.yul\":8970:9066   */\n      swap4\n      pop\n        /* \"#utility.yul\":9075:9140   */\n      tag_211\n        /* \"#utility.yul\":9133:9139   */\n      dup2\n        /* \"#utility.yul\":9128:9131   */\n      dup6\n        /* \"#utility.yul\":9121:9125   */\n      0x20\n        /* \"#utility.yul\":9114:9119   */\n      dup7\n        /* \"#utility.yul\":9110:9126   */\n      add\n        /* \"#utility.yul\":9075:9140   */\n      tag_87\n      jump\t// in\n    tag_211:\n        /* \"#utility.yul\":9165:9171   */\n      dup1\n        /* \"#utility.yul\":9160:9163   */\n      dup5\n        /* \"#utility.yul\":9156:9172   */\n      add\n        /* \"#utility.yul\":9149:9172   */\n      swap2\n      pop\n        /* \"#utility.yul\":8898:9178   */\n      pop\n        /* \"#utility.yul\":8788:9178   */\n      swap3\n      swap2\n      pop\n      pop\n      jump\t// out\n        /* \"#utility.yul\":9184:9459   */\n    tag_50:\n        /* \"#utility.yul\":9316:9319   */\n      0x00\n        /* \"#utility.yul\":9338:9433   */\n      tag_213\n        /* \"#utility.yul\":9429:9432   */\n      dup3\n        /* \"#utility.yul\":9420:9426   */\n      dup5\n        /* \"#utility.yul\":9338:9433   */\n      tag_91\n      jump\t// in\n    tag_213:\n        /* \"#utility.yul\":9331:9433   */\n      swap2\n      pop\n        /* \"#utility.yul\":9450:9453   */\n      dup2\n        /* \"#utility.yul\":9443:9453   */\n      swap1\n      pop\n        /* \"#utility.yul\":9184:9459   */\n      swap3\n      swap2\n      pop\n      pop\n      jump\t// out\n        /* \"#utility.yul\":9465:9645   */\n    tag_92:\n        /* \"#utility.yul\":9513:9590   */\n      0x4e487b7100000000000000000000000000000000000000000000000000000000\n        /* \"#utility.yul\":9510:9511   */\n      0x00\n        /* \"#utility.yul\":9503:9591   */\n      mstore\n        /* \"#utility.yul\":9610:9614   */\n      0x22\n        /* \"#utility.yul\":9607:9608   */\n      0x04\n        /* \"#utility.yul\":9600:9615   */\n      mstore\n        /* \"#utility.yul\":9634:9638   */\n      0x24\n        /* \"#utility.yul\":9631:9632   */\n      0x00\n        /* \"#utility.yul\":9624:9639   */\n      revert\n        /* \"#utility.yul\":9651:9971   */\n    tag_58:\n        /* \"#utility.yul\":9695:9701   */\n      0x00\n        /* \"#utility.yul\":9732:9733   */\n      0x02\n        /* \"#utility.yul\":9726:9730   */\n      dup3\n        /* \"#utility.yul\":9722:9734   */\n      div\n        /* \"#utility.yul\":9712:9734   */\n      swap1\n      pop\n        /* \"#utility.yul\":9779:9780   */\n      0x01\n        /* \"#utility.yul\":9773:9777   */\n      dup3\n        /* \"#utility.yul\":9769:9781   */\n      and\n        /* \"#utility.yul\":9800:9818   */\n      dup1\n        /* \"#utility.yul\":9790:9871   */\n      tag_216\n      jumpi\n        /* \"#utility.yul\":9856:9860   */\n      0x7f\n        /* \"#utility.yul\":9848:9854   */\n      dup3\n        /* \"#utility.yul\":9844:9861   */\n      and\n        /* \"#utility.yul\":9834:9861   */\n      swap2\n      pop\n        /* \"#utility.yul\":9790:9871   */\n    tag_216:\n        /* \"#utility.yul\":9918:9920   */\n      0x20\n        /* \"#utility.yul\":9910:9916   */\n      dup3\n        /* \"#utility.yul\":9907:9921   */\n      lt\n        /* \"#utility.yul\":9887:9905   */\n      dup2\n        /* \"#utility.yul\":9884:9922   */\n      sub\n        /* \"#utility.yul\":9881:9965   */\n      tag_217\n      jumpi\n        /* \"#utility.yul\":9937:9955   */\n      tag_218\n      tag_92\n      jump\t// in\n    tag_218:\n        /* \"#utility.yul\":9881:9965   */\n    tag_217:\n        /* \"#utility.yul\":9702:9971   */\n      pop\n        /* \"#utility.yul\":9651:9971   */\n      swap2\n      swap1\n      pop\n      jump\t// out\n        /* \"#utility.yul\":9977:10118   */\n    tag_93:\n        /* \"#utility.yul\":10026:10030   */\n      0x00\n        /* \"#utility.yul\":10049:10052   */\n      dup2\n        /* \"#utility.yul\":10041:10052   */\n      swap1\n      pop\n        /* \"#utility.yul\":10072:10075   */\n      dup2\n        /* \"#utility.yul\":10069:10070   */\n      0x00\n        /* \"#utility.yul\":10062:10076   */\n      mstore\n        /* \"#utility.yul\":10106:10110   */\n      0x20\n        /* \"#utility.yul\":10103:10104   */\n      0x00\n        /* \"#utility.yul\":10093:10111   */\n      keccak256\n        /* \"#utility.yul\":10085:10111   */\n      swap1\n      pop\n        /* \"#utility.yul\":9977:10118   */\n      swap2\n      swap1\n      pop\n      jump\t// out\n        /* \"#utility.yul\":10124:10217   */\n    tag_94:\n        /* \"#utility.yul\":10161:10167   */\n      0x00\n        /* \"#utility.yul\":10208:10210   */\n      0x20\n        /* \"#utility.yul\":10203:10205   */\n      0x1f\n        /* \"#utility.yul\":10196:10201   */\n      dup4\n        /* \"#utility.yul\":10192:10206   */\n      add\n        /* \"#utility.yul\":10188:10211   */\n      div\n        /* \"#utility.yul\":10178:10211   */\n      swap1\n      pop\n        /* \"#utility.yul\":10124:10217   */\n      swap2\n      swap1\n      pop\n      jump\t// out\n        /* \"#utility.yul\":10223:10330   */\n    tag_95:\n        /* \"#utility.yul\":10267:10275   */\n      0x00\n        /* \"#utility.yul\":10317:10322   */\n      dup3\n        /* \"#utility.yul\":10311:10315   */\n      dup3\n        /* \"#utility.yul\":10307:10323   */\n      shl\n        /* \"#utility.yul\":10286:10323   */\n      swap1\n      pop\n        /* \"#utility.yul\":10223:10330   */\n      swap3\n      swap2\n      pop\n      pop\n      jump\t// out\n        /* \"#utility.yul\":10336:10729   */\n    tag_96:\n        /* \"#utility.yul\":10405:10411   */\n      0x00\n        /* \"#utility.yul\":10455:10456   */\n      0x08\n        /* \"#utility.yul\":10443:10453   */\n      dup4\n        /* \"#utility.yul\":10439:10457   */\n      mul\n        /* \"#utility.yul\":10478:10575   */\n      tag_223\n        /* \"#utility.yul\":10508:10574   */\n      0xffffffffffffffffffffffffffffffffffffffffffffffffffffffffffffffff\n        /* \"#utility.yul\":10497:10506   */\n      dup3\n        /* \"#utility.yul\":10478:10575   */\n      tag_95\n      jump\t// in\n    tag_223:\n        /* \"#utility.yul\":10596:10635   */\n      tag_224\n        /* \"#utility.yul\":10626:10634   */\n      dup7\n        /* \"#utility.yul\":10615:10624   */\n      dup4\n        /* \"#utility.yul\":10596:10635   */\n      tag_95\n      jump\t// in\n    tag_224:\n        /* \"#utility.yul\":10584:10635   */\n      swap6\n      pop\n        /* \"#utility.yul\":10668:10672   */\n      dup1\n        /* \"#utility.yul\":10664:10673   */\n      not\n        /* \"#utility.yul\":10657:10662   */\n      dup5\n        /* \"#utility.yul\":10653:10674   */\n      and\n        /* \"#utility.yul\":10644:10674   */\n      swap4\n      pop\n        /* \"#utility.yul\":10717:10721   */\n      dup1\n        /* \"#utility.yul\":10707:10715   */\n      dup7\n        /* \"#utility.yul\":10703:10722   */\n      and\n        /* \"#utility.yul\":10696:10701   */\n      dup5\n        /* \"#utility.yul\":10693:10723   */\n      or\n        /* \"#utility.yul\":10683:10723   */\n      swap3\n      pop\n        /* \"#utility.yul\":10412:10729   */\n      pop\n      pop\n        /* \"#utility.yul\":10336:10729   */\n      swap4\n      swap3\n      pop\n      pop\n      pop\n      jump\t// out\n        /* \"#utility.yul\":10735:10795   */\n    tag_97:\n        /* \"#utility.yul\":10763:10766   */\n      0x00\n        /* \"#utility.yul\":10784:10789   */\n      dup2\n        /* \"#utility.yul\":10777:10789   */\n      swap1\n      pop\n        /* \"#utility.yul\":10735:10795   */\n      swap2\n      swap1\n      pop\n      jump\t// out\n        /* \"#utility.yul\":10801:10943   */\n    tag_98:\n        /* \"#utility.yul\":10851:10860   */\n      0x00\n        /* \"#utility.yul\":10884:10937   */\n      tag_227\n        /* \"#utility.yul\":10902:10936   */\n      tag_228\n        /* \"#utility.yul\":10911:10935   */\n      tag_229\n        /* \"#utility.yul\":10929:10934   */\n      dup5\n        /* \"#utility.yul\":10911:10935   */\n      tag_66\n      jump\t// in\n    tag_229:\n        /* \"#utility.yul\":10902:10936   */\n      tag_97\n      jump\t// in\n    tag_228:\n        /* \"#utility.yul\":10884:10937   */\n      tag_66\n      jump\t// in\n    tag_227:\n        /* \"#utility.yul\":10871:10937   */\n      swap1\n      pop\n        /* \"#utility.yul\":10801:10943   */\n      swap2\n      swap1\n      pop\n      jump\t// out\n        /* \"#utility.yul\":10949:11024   */\n    tag_99:\n        /* \"#utility.yul\":10992:10995   */\n      0x00\n        /* \"#utility.yul\":11013:11018   */\n      dup2\n        /* \"#utility.yul\":11006:11018   */\n      swap1\n      pop\n        /* \"#utility.yul\":10949:11024   */\n      swap2\n      swap1\n      pop\n      jump\t// out\n        /* \"#utility.yul\":11030:11299   */\n    tag_100:\n        /* \"#utility.yul\":11140:11179   */\n      tag_232\n        /* \"#utility.yul\":11171:11178   */\n      dup4\n        /* \"#utility.yul\":11140:11179   */\n      tag_98\n      jump\t// in\n    tag_232:\n        /* \"#utility.yul\":11201:11292   */\n      tag_233\n        /* \"#utility.yul\":11250:11291   */\n      tag_234\n        /* \"#utility.yul\":11274:11290   */\n      dup3\n        /* \"#utility.yul\":11250:11291   */\n      tag_99\n      jump\t// in\n    tag_234:\n        /* \"#utility.yul\":11242:11248   */\n      dup5\n        /* \"#utility.yul\":11235:11239   */\n      dup5\n        /* \"#utility.yul\":11229:11240   */\n      sload\n        /* \"#utility.yul\":11201:11292   */\n      tag_96\n      jump\t// in\n    tag_233:\n        /* \"#utility.yul\":11195:11199   */\n      dup3\n        /* \"#utility.yul\":11188:11293   */\n      sstore\n        /* \"#utility.yul\":11106:11299   */\n      pop\n        /* \"#utility.yul\":11030:11299   */\n      pop\n      pop\n      pop\n      jump\t// out\n        /* \"#utility.yul\":11305:11378   */\n    tag_101:\n        /* \"#utility.yul\":11350:11353   */\n      0x00\n        /* \"#utility.yul\":11371:11372   */\n      0x00\n        /* \"#utility.yul\":11364:11372   */\n      swap1\n      pop\n        /* \"#utility.yul\":11305:11378   */\n      swap1\n      jump\t// out\n        /* \"#utility.yul\":11384:11573   */\n    tag_102:\n        /* \"#utility.yul\":11461:11493   */\n      tag_237\n      tag_101\n      jump\t// in\n    tag_237:\n        /* \"#utility.yul\":11502:11567   */\n      tag_238\n        /* \"#utility.yul\":11560:11566   */\n      dup2\n        /* \"#utility.yul\":11552:11558   */\n      dup5\n        /* \"#utility.yul\":11546:11550   */\n      dup5\n        /* \"#utility.yul\":11502:11567   */\n      tag_100\n      jump\t// in\n    tag_238:\n        /* \"#utility.yul\":11437:11573   */\n      pop\n        /* \"#utility.yul\":11384:11573   */\n      pop\n      pop\n      jump\t// out\n        /* \"#utility.yul\":11579:11765   */\n    tag_103:\n        /* \"#utility.yul\":11639:11759   */\n    tag_240:\n        /* \"#utility.yul\":11656:11659   */\n      dup2\n        /* \"#utility.yul\":11649:11654   */\n      dup2\n        /* \"#utility.yul\":11646:11660   */\n      lt\n        /* \"#utility.yul\":11639:11759   */\n      iszero\n      tag_242\n      jumpi\n        /* \"#utility.yul\":11710:11749   */\n      tag_243\n        /* \"#utility.yul\":11747:11748   */\n      0x00\n        /* \"#utility.yul\":11740:11745   */\n      dup3\n        /* \"#utility.yul\":11710:11749   */\n      tag_102\n      jump\t// in\n    tag_243:\n        /* \"#utility.yul\":11683:11684   */\n      0x01\n        /* \"#utility.yul\":11676:11681   */\n      dup2\n        /* \"#utility.yul\":11672:11685   */\n      add\n        /* \"#utility.yul\":11663:11685   */\n      swap1\n      pop\n        /* \"#utility.yul\":11639:11759   */\n      jump(tag_240)\n    tag_242:\n        /* \"#utility.yul\":11579:11765   */\n      pop\n      pop\n      jump\t// out\n        /* \"#utility.yul\":11771:12314   */\n    tag_104:\n        /* \"#utility.yul\":11872:11874   */\n      0x1f\n        /* \"#utility.yul\":11867:11870   */\n      dup3\n        /* \"#utility.yul\":11864:11875   */\n      gt\n        /* \"#utility.yul\":11861:12307   */\n      iszero\n      tag_245\n      jumpi\n        /* \"#utility.yul\":11906:11944   */\n      tag_246\n        /* \"#utility.yul\":11938:11943   */\n      dup2\n        /* \"#utility.yul\":11906:11944   */\n      tag_93\n      jump\t// in\n    tag_246:\n        /* \"#utility.yul\":11990:12019   */\n      tag_247\n        /* \"#utility.yul\":12008:12018   */\n      dup5\n        /* \"#utility.yul\":11990:12019   */\n      tag_94\n      jump\t// in\n    tag_247:\n        /* \"#utility.yul\":11980:11988   */\n      dup2\n        /* \"#utility.yul\":11976:12020   */\n      add\n        /* \"#utility.yul\":12173:12175   */\n      0x20\n        /* \"#utility.yul\":12161:12171   */\n      dup6\n        /* \"#utility.yul\":12158:12176   */\n      lt\n        /* \"#utility.yul\":12155:12204   */\n      iszero\n      tag_248\n      jumpi\n        /* \"#utility.yul\":12194:12202   */\n      dup2\n        /* \"#utility.yul\":12179:12202   */\n      swap1\n      pop\n        /* \"#utility.yul\":12155:12204   */\n    tag_248:\n        /* \"#utility.yul\":12217:12297   */\n      tag_249\n        /* \"#utility.yul\":12273:12295   */\n      tag_250\n        /* \"#utility.yul\":12291:12294   */\n      dup6\n        /* \"#utility.yul\":12273:12295   */\n      tag_94\n      jump\t// in\n    tag_250:\n        /* \"#utility.yul\":12263:12271   */\n      dup4\n        /* \"#utility.yul\":12259:12296   */\n      add\n        /* \"#utility.yul\":12246:12257   */\n      dup3\n        /* \"#utility.yul\":12217:12297   */\n      tag_103\n      jump\t// in\n    tag_249:\n        /* \"#utility.yul\":11876:12307   */\n      pop\n      pop\n        /* \"#utility.yul\":11861:12307   */\n    tag_245:\n        /* \"#utility.yul\":11771:12314   */\n      pop\n      pop\n      pop\n      jump\t// out\n        /* \"#utility.yul\":12320:12437   */\n    tag_105:\n        /* \"#utility.yul\":12374:12382   */\n      0x00\n        /* \"#utility.yul\":12424:12429   */\n      dup3\n        /* \"#utility.yul\":12418:12422   */\n      dup3\n        /* \"#utility.yul\":12414:12430   */\n      shr\n        /* \"#utility.yul\":12393:12430   */\n      swap1\n      pop\n        /* \"#utility.yul\":12320:12437   */\n      swap3\n      swap2\n      pop\n      pop\n      jump\t// out\n        /* \"#utility.yul\":12443:12612   */\n    tag_106:\n        /* \"#utility.yul\":12487:12493   */\n      0x00\n        /* \"#utility.yul\":12520:12571   */\n      tag_253\n        /* \"#utility.yul\":12568:12569   */\n      0x00\n        /* \"#utility.yul\":12564:12570   */\n      not\n        /* \"#utility.yul\":12556:12561   */\n      dup5\n        /* \"#utility.yul\":12553:12554   */\n      0x08\n        /* \"#utility.yul\":12549:12562   */\n      mul\n        /* \"#utility.yul\":12520:12571   */\n      tag_105\n      jump\t// in\n    tag_253:\n        /* \"#utility.yul\":12516:12572   */\n      not\n        /* \"#utility.yul\":12601:12605   */\n      dup1\n        /* \"#utility.yul\":12595:12599   */\n      dup4\n        /* \"#utility.yul\":12591:12606   */\n      and\n        /* \"#utility.yul\":12581:12606   */\n      swap2\n      pop\n        /* \"#utility.yul\":12494:12612   */\n      pop\n        /* \"#utility.yul\":12443:12612   */\n      swap3\n      swap2\n      pop\n      pop\n      jump\t// out\n        /* \"#utility.yul\":12617:12912   */\n    tag_107:\n        /* \"#utility.yul\":12693:12697   */\n      0x00\n        /* \"#utility.yul\":12839:12868   */\n      tag_255\n        /* \"#utility.yul\":12864:12867   */\n      dup4\n        /* \"#utility.yul\":12858:12862   */\n      dup4\n        /* \"#utility.yul\":12839:12868   */\n      tag_106\n      jump\t// in\n    tag_255:\n        /* \"#utility.yul\":12831:12868   */\n      swap2\n      pop\n        /* \"#utility.yul\":12901:12904   */\n      dup3\n        /* \"#utility.yul\":12898:12899   */\n      0x02\n        /* \"#utility.yul\":12894:12905   */\n      mul\n        /* \"#utility.yul\":12888:12892   */\n      dup3\n        /* \"#utility.yul\":12885:12906   */\n      or\n        /* \"#utility.yul\":12877:12906   */\n      swap1\n      pop\n        /* \"#utility.yul\":12617:12912   */\n      swap3\n      swap2\n      pop\n      pop\n      jump\t// out\n        /* \"#utility.yul\":12917:14312   */\n    tag_56:\n        /* \"#utility.yul\":13034:13071   */\n      tag_257\n        /* \"#utility.yul\":13067:13070   */\n      dup3\n        /* \"#utility.yul\":13034:13071   */\n      tag_85\n      jump\t// in\n    tag_257:\n        /* \"#utility.yul\":13136:13154   */\n      0xffffffffffffffff\n        /* \"#utility.yul\":13128:13134   */\n      dup2\n        /* \"#utility.yul\":13125:13155   */\n      gt\n        /* \"#utility.yul\":13122:13178   */\n      iszero\n      tag_258\n      jumpi\n        /* \"#utility.yul\":13158:13176   */\n      tag_259\n      tag_72\n      jump\t// in\n    tag_259:\n        /* \"#utility.yul\":13122:13178   */\n    tag_258:\n        /* \"#utility.yul\":13202:13240   */\n      tag_260\n        /* \"#utility.yul\":13234:13238   */\n      dup3\n        /* \"#utility.yul\":13228:13239   */\n      sload\n        /* \"#utility.yul\":13202:13240   */\n      tag_58\n      jump\t// in\n    tag_260:\n        /* \"#utility.yul\":13287:13354   */\n      tag_261\n        /* \"#utility.yul\":13347:13353   */\n      dup3\n        /* \"#utility.yul\":13339:13345   */\n      dup3\n        /* \"#utility.yul\":13333:13337   */\n      dup6\n        /* \"#utility.yul\":13287:13354   */\n      tag_104\n      jump\t// in\n    tag_261:\n        /* \"#utility.yul\":13381:13382   */\n      0x00\n        /* \"#utility.yul\":13405:13409   */\n      0x20\n        /* \"#utility.yul\":13392:13409   */\n      swap1\n      pop\n        /* \"#utility.yul\":13437:13439   */\n      0x1f\n        /* \"#utility.yul\":13429:13435   */\n      dup4\n        /* \"#utility.yul\":13426:13440   */\n      gt\n        /* \"#utility.yul\":13454:13455   */\n      0x01\n        /* \"#utility.yul\":13449:14067   */\n      dup2\n      eq\n      tag_263\n      jumpi\n        /* \"#utility.yul\":14111:14112   */\n      0x00\n        /* \"#utility.yul\":14128:14134   */\n      dup5\n        /* \"#utility.yul\":14125:14202   */\n      iszero\n      tag_264\n      jumpi\n        /* \"#utility.yul\":14177:14186   */\n      dup3\n        /* \"#utility.yul\":14172:14175   */\n      dup8\n        /* \"#utility.yul\":14168:14187   */\n      add\n        /* \"#utility.yul\":14162:14188   */\n      mload\n        /* \"#utility.yul\":14153:14188   */\n      swap1\n      pop\n        /* \"#utility.yul\":14125:14202   */\n    tag_264:\n        /* \"#utility.yul\":14228:14295   */\n      tag_265\n        /* \"#utility.yul\":14288:14294   */\n      dup6\n        /* \"#utility.yul\":14281:14286   */\n      dup3\n        /* \"#utility.yul\":14228:14295   */\n      tag_107\n      jump\t// in\n    tag_265:\n        /* \"#utility.yul\":14222:14226   */\n      dup7\n        /* \"#utility.yul\":14215:14296   */\n      sstore\n        /* \"#utility.yul\":14084:14306   */\n      pop\n        /* \"#utility.yul\":13419:14306   */\n      jump(tag_262)\n        /* \"#utility.yul\":13449:14067   */\n    tag_263:\n        /* \"#utility.yul\":13501:13505   */\n      0x1f\n        /* \"#utility.yul\":13497:13506   */\n      not\n        /* \"#utility.yul\":13489:13495   */\n      dup5\n        /* \"#utility.yul\":13485:13507   */\n      and\n        /* \"#utility.yul\":13535:13572   */\n      tag_266\n        /* \"#utility.yul\":13567:13571   */\n      dup7\n        /* \"#utility.yul\":13535:13572   */\n      tag_93\n      jump\t// in\n    tag_266:\n        /* \"#utility.yul\":13594:13595   */\n      0x00\n        /* \"#utility.yul\":13608:13816   */\n    tag_267:\n        /* \"#utility.yul\":13622:13629   */\n      dup3\n        /* \"#utility.yul\":13619:13620   */\n      dup2\n        /* \"#utility.yul\":13616:13630   */\n      lt\n        /* \"#utility.yul\":13608:13816   */\n      iszero\n      tag_269\n      jumpi\n        /* \"#utility.yul\":13701:13710   */\n      dup5\n        /* \"#utility.yul\":13696:13699   */\n      dup10\n        /* \"#utility.yul\":13692:13711   */\n      add\n        /* \"#utility.yul\":13686:13712   */\n      mload\n        /* \"#utility.yul\":13678:13684   */\n      dup3\n        /* \"#utility.yul\":13671:13713   */\n      sstore\n        /* \"#utility.yul\":13752:13753   */\n      0x01\n        /* \"#utility.yul\":13744:13750   */\n      dup3\n        /* \"#utility.yul\":13740:13754   */\n      add\n        /* \"#utility.yul\":13730:13754   */\n      swap2\n      pop\n        /* \"#utility.yul\":13799:13801   */\n      0x20\n        /* \"#utility.yul\":13788:13797   */\n      dup6\n        /* \"#utility.yul\":13784:13802   */\n      add\n        /* \"#utility.yul\":13771:13802   */\n      swap5\n      pop\n        /* \"#utility.yul\":13645:13649   */\n      0x20\n        /* \"#utility.yul\":13642:13643   */\n      dup2\n        /* \"#utility.yul\":13638:13650   */\n      add\n        /* \"#utility.yul\":13633:13650   */\n      swap1\n      pop\n        /* \"#utility.yul\":13608:13816   */\n      jump(tag_267)\n    tag_269:\n        /* \"#utility.yul\":13844:13850   */\n      dup7\n        /* \"#utility.yul\":13835:13842   */\n      dup4\n        /* \"#utility.yul\":13832:13851   */\n      lt\n        /* \"#utility.yul\":13829:14008   */\n      iszero\n      tag_270\n      jumpi\n        /* \"#utility.yul\":13902:13911   */\n      dup5\n        /* \"#utility.yul\":13897:13900   */\n      dup10\n        /* \"#utility.yul\":13893:13912   */\n      add\n        /* \"#utility.yul\":13887:13913   */\n      mload\n        /* \"#utility.yul\":13945:13993   */\n      tag_271\n        /* \"#utility.yul\":13987:13991   */\n      0x1f\n        /* \"#utility.yul\":13979:13985   */\n      dup10\n        /* \"#utility.yul\":13975:13992   */\n      and\n        /* \"#utility.yul\":13964:13973   */\n      dup3\n        /* \"#utility.yul\":13945:13993   */\n      tag_106\n      jump\t// in\n    tag_271:\n        /* \"#utility.yul\":13937:13943   */\n      dup4\n        /* \"#utility.yul\":13930:13994   */\n      sstore\n        /* \"#utility.yul\":13852:14008   */\n      pop\n        /* \"#utility.yul\":13829:14008   */\n    tag_270:\n        /* \"#utility.yul\":14054:14055   */\n      0x01\n        /* \"#utility.yul\":14050:14051   */\n      0x02\n        /* \"#utility.yul\":14042:14048   */\n      dup9\n        /* \"#utility.yul\":14038:14052   */\n      mul\n        /* \"#utility.yul\":14034:14056   */\n      add\n        /* \"#utility.yul\":14028:14032   */\n      dup9\n        /* \"#utility.yul\":14021:14057   */\n      sstore\n        /* \"#utility.yul\":13456:14067   */\n      pop\n      pop\n      pop\n        /* \"#utility.yul\":13419:14306   */\n    tag_262:\n      pop\n        /* \"#utility.yul\":13009:14312   */\n      pop\n      pop\n      pop\n        /* \"#utility.yul\":12917:14312   */\n      pop\n      pop\n      jump\t// out\n\n    auxdata: 0xa2646970667358221220938b8b98ad59b82a3194404f821a5121b1dcddeeed77a26715059291176a257364736f6c634300081e0033\n}\n",
				"bytecode": {
					"linkReferences": {},
					"object": "6080604052348015600e575f5ffd5b50610bb78061001c5f395ff3fe608060405234801561000f575f5ffd5b5060043610610086575f3560e01c8063dd670d7b11610059578063dd670d7b146100e8578063deb0663c14610118578063f94ce26914610148578063fc34f47f1461017857610086565b80635ff856ea1461008a5780637e5205b8146100a6578063b5098300146100c2578063c1007889146100cc575b5f5ffd5b6100a4600480360381019061009f9190610572565b6101a8565b005b6100c060048036038101906100bb9190610626565b6101cf565b005b6100ca610250565b005b6100e660048036038101906100e19190610664565b6102a7565b005b61010260048036038101906100fd91906106da565b6102d6565b60405161010f919061071f565b60405180910390f35b610132600480360381019061012d9190610738565b6102f3565b60405161013f91906107df565b60405180910390f35b610162600480360381019061015d9190610738565b6103a5565b60405161016f919061080e565b60405180910390f35b610192600480360381019061018d9190610827565b6103d2565b60405161019f919061080e565b60405180910390f35b816001826040516101b9919061089f565b9081526020016040518091039020819055505050565b8060035f3373ffffffffffffffffffffffffffffffffffffffff1673ffffffffffffffffffffffffffffffffffffffff1681526020019081526020015f205f8473ffffffffffffffffffffffffffffffffffffffff1673ffffffffffffffffffffffffffffffffffffffff1681526020019081526020015f20819055505050565b600160025f3373ffffffffffffffffffffffffffffffffffffffff1673ffffffffffffffffffffffffffffffffffffffff1681526020019081526020015f205f6101000a81548160ff021916908315150217905550565b805f836040516102b7919061089f565b908152602001604051809103902090816102d19190610ab2565b505050565b6002602052805f5260405f205f915054906101000a900460ff1681565b5f818051602081018201805184825260208301602085012081835280955050505050505f915090508054610326906108e2565b80601f0160208091040260200160405190810160405280929190818152602001828054610352906108e2565b801561039d5780601f106103745761010080835404028352916020019161039d565b820191905f5260205f20905b81548152906001019060200180831161038057829003601f168201915b505050505081565b6001818051602081018201805184825260208301602085012081835280955050505050505f915090505481565b6003602052815f5260405f20602052805f5260405f205f91509150505481565b5f604051905090565b5f5ffd5b5f5ffd5b5f819050919050565b61041581610403565b811461041f575f5ffd5b50565b5f813590506104308161040c565b92915050565b5f5ffd5b5f5ffd5b5f601f19601f8301169050919050565b7f4e487b71000000000000000000000000000000000000000000000000000000005f52604160045260245ffd5b6104848261043e565b810181811067ffffffffffffffff821117156104a3576104a261044e565b5b80604052505050565b5f6104b56103f2565b90506104c1828261047b565b919050565b5f67ffffffffffffffff8211156104e0576104df61044e565b5b6104e98261043e565b9050602081019050919050565b828183375f83830152505050565b5f610516610511846104c6565b6104ac565b9050828152602081018484840111156105325761053161043a565b5b61053d8482856104f6565b509392505050565b5f82601f83011261055957610558610436565b5b8135610569848260208601610504565b91505092915050565b5f5f60408385031215610588576105876103fb565b5b5f61059585828601610422565b925050602083013567ffffffffffffffff8111156105b6576105b56103ff565b5b6105c285828601610545565b9150509250929050565b5f73ffffffffffffffffffffffffffffffffffffffff82169050919050565b5f6105f5826105cc565b9050919050565b610605816105eb565b811461060f575f5ffd5b50565b5f81359050610620816105fc565b92915050565b5f5f6040838503121561063c5761063b6103fb565b5b5f61064985828601610612565b925050602061065a85828601610422565b9150509250929050565b5f5f6040838503121561067a576106796103fb565b5b5f83013567ffffffffffffffff811115610697576106966103ff565b5b6106a385828601610545565b925050602083013567ffffffffffffffff8111156106c4576106c36103ff565b5b6106d085828601610545565b9150509250929050565b5f602082840312156106ef576106ee6103fb565b5b5f6106fc84828501610612565b91505092915050565b5f8115159050919050565b61071981610705565b82525050565b5f6020820190506107325f830184610710565b92915050565b5f6020828403121561074d5761074c6103fb565b5b5f82013567ffffffffffffffff81111561076a576107696103ff565b5b61077684828501610545565b91505092915050565b5f81519050919050565b5f82825260208201905092915050565b8281835e5f83830152505050565b5f6107b18261077f565b6107bb8185610789565b93506107cb818560208601610799565b6107d48161043e565b840191505092915050565b5f6020820190508181035f8301526107f781846107a7565b905092915050565b61080881610403565b82525050565b5f6020820190506108215f8301846107ff565b92915050565b5f5f6040838503121561083d5761083c6103fb565b5b5f61084a85828601610612565b925050602061085b85828601610612565b9150509250929050565b5f81905092915050565b5f6108798261077f565b6108838185610865565b9350610893818560208601610799565b80840191505092915050565b5f6108aa828461086f565b915081905092915050565b7f4e487b71000000000000000000000000000000000000000000000000000000005f52602260045260245ffd5b5f60028204905060018216806108f957607f821691505b60208210810361090c5761090b6108b5565b5b50919050565b5f819050815f5260205f209050919050565b5f6020601f8301049050919050565b5f82821b905092915050565b5f6008830261096e7fffffffffffffffffffffffffffffffffffffffffffffffffffffffffffffffff82610933565b6109788683610933565b95508019841693508086168417925050509392505050565b5f819050919050565b5f6109b36109ae6109a984610403565b610990565b610403565b9050919050565b5f819050919050565b6109cc83610999565b6109e06109d8826109ba565b84845461093f565b825550505050565b5f5f905090565b6109f76109e8565b610a028184846109c3565b505050565b5b81811015610a2557610a1a5f826109ef565b600181019050610a08565b5050565b601f821115610a6a57610a3b81610912565b610a4484610924565b81016020851015610a53578190505b610a67610a5f85610924565b830182610a07565b50505b505050565b5f82821c905092915050565b5f610a8a5f1984600802610a6f565b1980831691505092915050565b5f610aa28383610a7b565b9150826002028217905092915050565b610abb8261077f565b67ffffffffffffffff811115610ad457610ad361044e565b5b610ade82546108e2565b610ae9828285610a29565b5f60209050601f831160018114610b1a575f8415610b08578287015190505b610b128582610a97565b865550610b79565b601f198416610b2886610912565b5f5b82811015610b4f57848901518255600182019150602085019450602081019050610b2a565b86831015610b6c5784890151610b68601f891682610a7b565b8355505b6001600288020188555050505b50505050505056fea2646970667358221220938b8b98ad59b82a3194404f821a5121b1dcddeeed77a26715059291176a257364736f6c634300081e0033",
					"opcodes": "PUSH1 0x80 PUSH1 0x40 MSTORE CALLVALUE DUP1 ISZERO PUSH1 0xE JUMPI PUSH0 PUSH0 REVERT JUMPDEST POP PUSH2 0xBB7 DUP1 PUSH2 0x1C PUSH0 CODECOPY PUSH0 RETURN INVALID PUSH1 0x80 PUSH1 0x40 MSTORE CALLVALUE DUP1 ISZERO PUSH2 0xF JUMPI PUSH0 PUSH0 REVERT JUMPDEST POP PUSH1 0x4 CALLDATASIZE LT PUSH2 0x86 JUMPI PUSH0 CALLDATALOAD PUSH1 0xE0 SHR DUP1 PUSH4 0xDD670D7B GT PUSH2 0x59 JUMPI DUP1 PUSH4 0xDD670D7B EQ PUSH2 0xE8 JUMPI DUP1 PUSH4 0xDEB0663C EQ PUSH2 0x118 JUMPI DUP1 PUSH4 0xF94CE269 EQ PUSH2 0x148 JUMPI DUP1 PUSH4 0xFC34F47F EQ PUSH2 0x178 JUMPI PUSH2 0x86 JUMP JUMPDEST DUP1 PUSH4 0x5FF856EA EQ PUSH2 0x8A JUMPI DUP1 PUSH4 0x7E5205B8 EQ PUSH2 0xA6 JUMPI DUP1 PUSH4 0xB5098300 EQ PUSH2 0xC2 JUMPI DUP1 PUSH4 0xC1007889 EQ PUSH2 0xCC JUMPI JUMPDEST PUSH0 PUSH0 REVERT JUMPDEST PUSH2 0xA4 PUSH1 0x4 DUP1 CALLDATASIZE SUB DUP2 ADD SWAP1 PUSH2 0x9F SWAP2 SWAP1 PUSH2 0x572 JUMP JUMPDEST PUSH2 0x1A8 JUMP JUMPDEST STOP JUMPDEST PUSH2 0xC0 PUSH1 0x4 DUP1 CALLDATASIZE SUB DUP2 ADD SWAP1 PUSH2 0xBB SWAP2 SWAP1 PUSH2 0x626 JUMP JUMPDEST PUSH2 0x1CF JUMP JUMPDEST STOP JUMPDEST PUSH2 0xCA PUSH2 0x250 JUMP JUMPDEST STOP JUMPDEST PUSH2 0xE6 PUSH1 0x4 DUP1 CALLDATASIZE SUB DUP2 ADD SWAP1 PUSH2 0xE1 SWAP2 SWAP1 PUSH2 0x664 JUMP JUMPDEST PUSH2 0x2A7 JUMP JUMPDEST STOP JUMPDEST PUSH2 0x102 PUSH1 0x4 DUP1 CALLDATASIZE SUB DUP2 ADD SWAP1 PUSH2 0xFD SWAP2 SWAP1 PUSH2 0x6DA JUMP JUMPDEST PUSH2 0x2D6 JUMP JUMPDEST PUSH1 0x40 MLOAD PUSH2 0x10F SWAP2 SWAP1 PUSH2 0x71F JUMP JUMPDEST PUSH1 0x40 MLOAD DUP1 SWAP2 SUB SWAP1 RETURN JUMPDEST PUSH2 0x132 PUSH1 0x4 DUP1 CALLDATASIZE SUB DUP2 ADD SWAP1 PUSH2 0x12D SWAP2 SWAP1 PUSH2 0x738 JUMP JUMPDEST PUSH2 0x2F3 JUMP JUMPDEST PUSH1 0x40 MLOAD PUSH2 0x13F SWAP2 SWAP1 PUSH2 0x7DF JUMP JUMPDEST PUSH1 0x40 MLOAD DUP1 SWAP2 SUB SWAP1 RETURN JUMPDEST PUSH2 0x162 PUSH1 0x4 DUP1 CALLDATASIZE SUB DUP2 ADD SWAP1 PUSH2 0x15D SWAP2 SWAP1 PUSH2 0x738 JUMP JUMPDEST PUSH2 0x3A5 JUMP JUMPDEST PUSH1 0x40 MLOAD PUSH2 0x16F SWAP2 SWAP1 PUSH2 0x80E JUMP JUMPDEST PUSH1 0x40 MLOAD DUP1 SWAP2 SUB SWAP1 RETURN JUMPDEST PUSH2 0x192 PUSH1 0x4 DUP1 CALLDATASIZE SUB DUP2 ADD SWAP1 PUSH2 0x18D SWAP2 SWAP1 PUSH2 0x827 JUMP JUMPDEST PUSH2 0x3D2 JUMP JUMPDEST PUSH1 0x40 MLOAD PUSH2 0x19F SWAP2 SWAP1 PUSH2 0x80E JUMP JUMPDEST PUSH1 0x40 MLOAD DUP1 SWAP2 SUB SWAP1 RETURN JUMPDEST DUP2 PUSH1 0x1 DUP3 PUSH1 0x40 MLOAD PUSH2 0x1B9 SWAP2 SWAP1 PUSH2 0x89F JUMP JUMPDEST SWAP1 DUP2 MSTORE PUSH1 0x20 ADD PUSH1 0x40 MLOAD DUP1 SWAP2 SUB SWAP1 KECCAK256 DUP2 SWAP1 SSTORE POP POP POP JUMP JUMPDEST DUP1 PUSH1 0x3 PUSH0 CALLER PUSH20 0xFFFFFFFFFFFFFFFFFFFFFFFFFFFFFFFFFFFFFFFF AND PUSH20 0xFFFFFFFFFFFFFFFFFFFFFFFFFFFFFFFFFFFFFFFF AND DUP2 MSTORE PUSH1 0x20 ADD SWAP1 DUP2 MSTORE PUSH1 0x20 ADD PUSH0 KECCAK256 PUSH0 DUP5 PUSH20 0xFFFFFFFFFFFFFFFFFFFFFFFFFFFFFFFFFFFFFFFF AND PUSH20 0xFFFFFFFFFFFFFFFFFFFFFFFFFFFFFFFFFFFFFFFF AND DUP2 MSTORE PUSH1 0x20 ADD SWAP1 DUP2 MSTORE PUSH1 0x20 ADD PUSH0 KECCAK256 DUP2 SWAP1 SSTORE POP POP POP JUMP JUMPDEST PUSH1 0x1 PUSH1 0x2 PUSH0 CALLER PUSH20 0xFFFFFFFFFFFFFFFFFFFFFFFFFFFFFFFFFFFFFFFF AND PUSH20 0xFFFFFFFFFFFFFFFFFFFFFFFFFFFFFFFFFFFFFFFF AND DUP2 MSTORE PUSH1 0x20 ADD SWAP1 DUP2 MSTORE PUSH1 0x20 ADD PUSH0 KECCAK256 PUSH0 PUSH2 0x100 EXP DUP2 SLOAD DUP2 PUSH1 0xFF MUL NOT AND SWAP1 DUP4 ISZERO ISZERO MUL OR SWAP1 SSTORE POP JUMP JUMPDEST DUP1 PUSH0 DUP4 PUSH1 0x40 MLOAD PUSH2 0x2B7 SWAP2 SWAP1 PUSH2 0x89F JUMP JUMPDEST SWAP1 DUP2 MSTORE PUSH1 0x20 ADD PUSH1 0x40 MLOAD DUP1 SWAP2 SUB SWAP1 KECCAK256 SWAP1 DUP2 PUSH2 0x2D1 SWAP2 SWAP1 PUSH2 0xAB2 JUMP JUMPDEST POP POP POP JUMP JUMPDEST PUSH1 0x2 PUSH1 0x20 MSTORE DUP1 PUSH0 MSTORE PUSH1 0x40 PUSH0 KECCAK256 PUSH0 SWAP2 POP SLOAD SWAP1 PUSH2 0x100 EXP SWAP1 DIV PUSH1 0xFF AND DUP2 JUMP JUMPDEST PUSH0 DUP2 DUP1 MLOAD PUSH1 0x20 DUP2 ADD DUP3 ADD DUP1 MLOAD DUP5 DUP3 MSTORE PUSH1 0x20 DUP4 ADD PUSH1 0x20 DUP6 ADD KECCAK256 DUP2 DUP4 MSTORE DUP1 SWAP6 POP POP POP POP POP POP PUSH0 SWAP2 POP SWAP1 POP DUP1 SLOAD PUSH2 0x326 SWAP1 PUSH2 0x8E2 JUMP JUMPDEST DUP1 PUSH1 0x1F ADD PUSH1 0x20 DUP1 SWAP2 DIV MUL PUSH1 0x20 ADD PUSH1 0x40 MLOAD SWAP1 DUP2 ADD PUSH1 0x40 MSTORE DUP1 SWAP3 SWAP2 SWAP1 DUP2 DUP2 MSTORE PUSH1 0x20 ADD DUP3 DUP1 SLOAD PUSH2 0x352 SWAP1 PUSH2 0x8E2 JUMP JUMPDEST DUP1 ISZERO PUSH2 0x39D JUMPI DUP1 PUSH1 0x1F LT PUSH2 0x374 JUMPI PUSH2 0x100 DUP1 DUP4 SLOAD DIV MUL DUP4 MSTORE SWAP2 PUSH1 0x20 ADD SWAP2 PUSH2 0x39D JUMP JUMPDEST DUP3 ADD SWAP2 SWAP1 PUSH0 MSTORE PUSH1 0x20 PUSH0 KECCAK256 SWAP1 JUMPDEST DUP2 SLOAD DUP2 MSTORE SWAP1 PUSH1 0x1 ADD SWAP1 PUSH1 0x20 ADD DUP1 DUP4 GT PUSH2 0x380 JUMPI DUP3 SWAP1 SUB PUSH1 0x1F AND DUP3 ADD SWAP2 JUMPDEST POP POP POP POP POP DUP2 JUMP JUMPDEST PUSH1 0x1 DUP2 DUP1 MLOAD PUSH1 0x20 DUP2 ADD DUP3 ADD DUP1 MLOAD DUP5 DUP3 MSTORE PUSH1 0x20 DUP4 ADD PUSH1 0x20 DUP6 ADD KECCAK256 DUP2 DUP4 MSTORE DUP1 SWAP6 POP POP POP POP POP POP PUSH0 SWAP2 POP SWAP1 POP SLOAD DUP2 JUMP JUMPDEST PUSH1 0x3 PUSH1 0x20 MSTORE DUP2 PUSH0 MSTORE PUSH1 0x40 PUSH0 KECCAK256 PUSH1 0x20 MSTORE DUP1 PUSH0 MSTORE PUSH1 0x40 PUSH0 KECCAK256 PUSH0 SWAP2 POP SWAP2 POP POP SLOAD DUP2 JUMP JUMPDEST PUSH0 PUSH1 0x40 MLOAD SWAP1 POP SWAP1 JUMP JUMPDEST PUSH0 PUSH0 REVERT JUMPDEST PUSH0 PUSH0 REVERT JUMPDEST PUSH0 DUP2 SWAP1 POP SWAP2 SWAP1 POP JUMP JUMPDEST PUSH2 0x415 DUP2 PUSH2 0x403 JUMP JUMPDEST DUP2 EQ PUSH2 0x41F JUMPI PUSH0 PUSH0 REVERT JUMPDEST POP JUMP JUMPDEST PUSH0 DUP2 CALLDATALOAD SWAP1 POP PUSH2 0x430 DUP2 PUSH2 0x40C JUMP JUMPDEST SWAP3 SWAP2 POP POP JUMP JUMPDEST PUSH0 PUSH0 REVERT JUMPDEST PUSH0 PUSH0 REVERT JUMPDEST PUSH0 PUSH1 0x1F NOT PUSH1 0x1F DUP4 ADD AND SWAP1 POP SWAP2 SWAP1 POP JUMP JUMPDEST PUSH32 0x4E487B7100000000000000000000000000000000000000000000000000000000 PUSH0 MSTORE PUSH1 0x41 PUSH1 0x4 MSTORE PUSH1 0x24 PUSH0 REVERT JUMPDEST PUSH2 0x484 DUP3 PUSH2 0x43E JUMP JUMPDEST DUP2 ADD DUP2 DUP2 LT PUSH8 0xFFFFFFFFFFFFFFFF DUP3 GT OR ISZERO PUSH2 0x4A3 JUMPI PUSH2 0x4A2 PUSH2 0x44E JUMP JUMPDEST JUMPDEST DUP1 PUSH1 0x40 MSTORE POP POP POP JUMP JUMPDEST PUSH0 PUSH2 0x4B5 PUSH2 0x3F2 JUMP JUMPDEST SWAP1 POP PUSH2 0x4C1 DUP3 DUP3 PUSH2 0x47B JUMP JUMPDEST SWAP2 SWAP1 POP JUMP JUMPDEST PUSH0 PUSH8 0xFFFFFFFFFFFFFFFF DUP3 GT ISZERO PUSH2 0x4E0 JUMPI PUSH2 0x4DF PUSH2 0x44E JUMP JUMPDEST JUMPDEST PUSH2 0x4E9 DUP3 PUSH2 0x43E JUMP JUMPDEST SWAP1 POP PUSH1 0x20 DUP2 ADD SWAP1 POP SWAP2 SWAP1 POP JUMP JUMPDEST DUP3 DUP2 DUP4 CALLDATACOPY PUSH0 DUP4 DUP4 ADD MSTORE POP POP POP JUMP JUMPDEST PUSH0 PUSH2 0x516 PUSH2 0x511 DUP5 PUSH2 0x4C6 JUMP JUMPDEST PUSH2 0x4AC JUMP JUMPDEST SWAP1 POP DUP3 DUP2 MSTORE PUSH1 0x20 DUP2 ADD DUP5 DUP5 DUP5 ADD GT ISZERO PUSH2 0x532 JUMPI PUSH2 0x531 PUSH2 0x43A JUMP JUMPDEST JUMPDEST PUSH2 0x53D DUP5 DUP3 DUP6 PUSH2 0x4F6 JUMP JUMPDEST POP SWAP4 SWAP3 POP POP POP JUMP JUMPDEST PUSH0 DUP3 PUSH1 0x1F DUP4 ADD SLT PUSH2 0x559 JUMPI PUSH2 0x558 PUSH2 0x436 JUMP JUMPDEST JUMPDEST DUP2 CALLDATALOAD PUSH2 0x569 DUP5 DUP3 PUSH1 0x20 DUP7 ADD PUSH2 0x504 JUMP JUMPDEST SWAP2 POP POP SWAP3 SWAP2 POP POP JUMP JUMPDEST PUSH0 PUSH0 PUSH1 0x40 DUP4 DUP6 SUB SLT ISZERO PUSH2 0x588 JUMPI PUSH2 0x587 PUSH2 0x3FB JUMP JUMPDEST JUMPDEST PUSH0 PUSH2 0x595 DUP6 DUP3 DUP7 ADD PUSH2 0x422 JUMP JUMPDEST SWAP3 POP POP PUSH1 0x20 DUP4 ADD CALLDATALOAD PUSH8 0xFFFFFFFFFFFFFFFF DUP2 GT ISZERO PUSH2 0x5B6 JUMPI PUSH2 0x5B5 PUSH2 0x3FF JUMP JUMPDEST JUMPDEST PUSH2 0x5C2 DUP6 DUP3 DUP7 ADD PUSH2 0x545 JUMP JUMPDEST SWAP2 POP POP SWAP3 POP SWAP3 SWAP1 POP JUMP JUMPDEST PUSH0 PUSH20 0xFFFFFFFFFFFFFFFFFFFFFFFFFFFFFFFFFFFFFFFF DUP3 AND SWAP1 POP SWAP2 SWAP1 POP JUMP JUMPDEST PUSH0 PUSH2 0x5F5 DUP3 PUSH2 0x5CC JUMP JUMPDEST SWAP1 POP SWAP2 SWAP1 POP JUMP JUMPDEST PUSH2 0x605 DUP2 PUSH2 0x5EB JUMP JUMPDEST DUP2 EQ PUSH2 0x60F JUMPI PUSH0 PUSH0 REVERT JUMPDEST POP JUMP JUMPDEST PUSH0 DUP2 CALLDATALOAD SWAP1 POP PUSH2 0x620 DUP2 PUSH2 0x5FC JUMP JUMPDEST SWAP3 SWAP2 POP POP JUMP JUMPDEST PUSH0 PUSH0 PUSH1 0x40 DUP4 DUP6 SUB SLT ISZERO PUSH2 0x63C JUMPI PUSH2 0x63B PUSH2 0x3FB JUMP JUMPDEST JUMPDEST PUSH0 PUSH2 0x649 DUP6 DUP3 DUP7 ADD PUSH2 0x612 JUMP JUMPDEST SWAP3 POP POP PUSH1 0x20 PUSH2 0x65A DUP6 DUP3 DUP7 ADD PUSH2 0x422 JUMP JUMPDEST SWAP2 POP POP SWAP3 POP SWAP3 SWAP1 POP JUMP JUMPDEST PUSH0 PUSH0 PUSH1 0x40 DUP4 DUP6 SUB SLT ISZERO PUSH2 0x67A JUMPI PUSH2 0x679 PUSH2 0x3FB JUMP JUMPDEST JUMPDEST PUSH0 DUP4 ADD CALLDATALOAD PUSH8 0xFFFFFFFFFFFFFFFF DUP2 GT ISZERO PUSH2 0x697 JUMPI PUSH2 0x696 PUSH2 0x3FF JUMP JUMPDEST JUMPDEST PUSH2 0x6A3 DUP6 DUP3 DUP7 ADD PUSH2 0x545 JUMP JUMPDEST SWAP3 POP POP PUSH1 0x20 DUP4 ADD CALLDATALOAD PUSH8 0xFFFFFFFFFFFFFFFF DUP2 GT ISZERO PUSH2 0x6C4 JUMPI PUSH2 0x6C3 PUSH2 0x3FF JUMP JUMPDEST JUMPDEST PUSH2 0x6D0 DUP6 DUP3 DUP7 ADD PUSH2 0x545 JUMP JUMPDEST SWAP2 POP POP SWAP3 POP SWAP3 SWAP1 POP JUMP JUMPDEST PUSH0 PUSH1 0x20 DUP3 DUP5 SUB SLT ISZERO PUSH2 0x6EF JUMPI PUSH2 0x6EE PUSH2 0x3FB JUMP JUMPDEST JUMPDEST PUSH0 PUSH2 0x6FC DUP5 DUP3 DUP6 ADD PUSH2 0x612 JUMP JUMPDEST SWAP2 POP POP SWAP3 SWAP2 POP POP JUMP JUMPDEST PUSH0 DUP2 ISZERO ISZERO SWAP1 POP SWAP2 SWAP1 POP JUMP JUMPDEST PUSH2 0x719 DUP2 PUSH2 0x705 JUMP JUMPDEST DUP3 MSTORE POP POP JUMP JUMPDEST PUSH0 PUSH1 0x20 DUP3 ADD SWAP1 POP PUSH2 0x732 PUSH0 DUP4 ADD DUP5 PUSH2 0x710 JUMP JUMPDEST SWAP3 SWAP2 POP POP JUMP JUMPDEST PUSH0 PUSH1 0x20 DUP3 DUP5 SUB SLT ISZERO PUSH2 0x74D JUMPI PUSH2 0x74C PUSH2 0x3FB JUMP JUMPDEST JUMPDEST PUSH0 DUP3 ADD CALLDATALOAD PUSH8 0xFFFFFFFFFFFFFFFF DUP2 GT ISZERO PUSH2 0x76A JUMPI PUSH2 0x769 PUSH2 0x3FF JUMP JUMPDEST JUMPDEST PUSH2 0x776 DUP5 DUP3 DUP6 ADD PUSH2 0x545 JUMP JUMPDEST SWAP2 POP POP SWAP3 SWAP2 POP POP JUMP JUMPDEST PUSH0 DUP2 MLOAD SWAP1 POP SWAP2 SWAP1 POP JUMP JUMPDEST PUSH0 DUP3 DUP3 MSTORE PUSH1 0x20 DUP3 ADD SWAP1 POP SWAP3 SWAP2 POP POP JUMP JUMPDEST DUP3 DUP2 DUP4 MCOPY PUSH0 DUP4 DUP4 ADD MSTORE POP POP POP JUMP JUMPDEST PUSH0 PUSH2 0x7B1 DUP3 PUSH2 0x77F JUMP JUMPDEST PUSH2 0x7BB DUP2 DUP6 PUSH2 0x789 JUMP JUMPDEST SWAP4 POP PUSH2 0x7CB DUP2 DUP6 PUSH1 0x20 DUP7 ADD PUSH2 0x799 JUMP JUMPDEST PUSH2 0x7D4 DUP2 PUSH2 0x43E JUMP JUMPDEST DUP5 ADD SWAP2 POP POP SWAP3 SWAP2 POP POP JUMP JUMPDEST PUSH0 PUSH1 0x20 DUP3 ADD SWAP1 POP DUP2 DUP2 SUB PUSH0 DUP4 ADD MSTORE PUSH2 0x7F7 DUP2 DUP5 PUSH2 0x7A7 JUMP JUMPDEST SWAP1 POP SWAP3 SWAP2 POP POP JUMP JUMPDEST PUSH2 0x808 DUP2 PUSH2 0x403 JUMP JUMPDEST DUP3 MSTORE POP POP JUMP JUMPDEST PUSH0 PUSH1 0x20 DUP3 ADD SWAP1 POP PUSH2 0x821 PUSH0 DUP4 ADD DUP5 PUSH2 0x7FF JUMP JUMPDEST SWAP3 SWAP2 POP POP JUMP JUMPDEST PUSH0 PUSH0 PUSH1 0x40 DUP4 DUP6 SUB SLT ISZERO PUSH2 0x83D JUMPI PUSH2 0x83C PUSH2 0x3FB JUMP JUMPDEST JUMPDEST PUSH0 PUSH2 0x84A DUP6 DUP3 DUP7 ADD PUSH2 0x612 JUMP JUMPDEST SWAP3 POP POP PUSH1 0x20 PUSH2 0x85B DUP6 DUP3 DUP7 ADD PUSH2 0x612 JUMP JUMPDEST SWAP2 POP POP SWAP3 POP SWAP3 SWAP1 POP JUMP JUMPDEST PUSH0 DUP2 SWAP1 POP SWAP3 SWAP2 POP POP JUMP JUMPDEST PUSH0 PUSH2 0x879 DUP3 PUSH2 0x77F JUMP JUMPDEST PUSH2 0x883 DUP2 DUP6 PUSH2 0x865 JUMP JUMPDEST SWAP4 POP PUSH2 0x893 DUP2 DUP6 PUSH1 0x20 DUP7 ADD PUSH2 0x799 JUMP JUMPDEST DUP1 DUP5 ADD SWAP2 POP POP SWAP3 SWAP2 POP POP JUMP JUMPDEST PUSH0 PUSH2 0x8AA DUP3 DUP5 PUSH2 0x86F JUMP JUMPDEST SWAP2 POP DUP2 SWAP1 POP SWAP3 SWAP2 POP POP JUMP JUMPDEST PUSH32 0x4E487B7100000000000000000000000000000000000000000000000000000000 PUSH0 MSTORE PUSH1 0x22 PUSH1 0x4 MSTORE PUSH1 0x24 PUSH0 REVERT JUMPDEST PUSH0 PUSH1 0x2 DUP3 DIV SWAP1 POP PUSH1 0x1 DUP3 AND DUP1 PUSH2 0x8F9 JUMPI PUSH1 0x7F DUP3 AND SWAP2 POP JUMPDEST PUSH1 0x20 DUP3 LT DUP2 SUB PUSH2 0x90C JUMPI PUSH2 0x90B PUSH2 0x8B5 JUMP JUMPDEST JUMPDEST POP SWAP2 SWAP1 POP JUMP JUMPDEST PUSH0 DUP2 SWAP1 POP DUP2 PUSH0 MSTORE PUSH1 0x20 PUSH0 KECCAK256 SWAP1 POP SWAP2 SWAP1 POP JUMP JUMPDEST PUSH0 PUSH1 0x20 PUSH1 0x1F DUP4 ADD DIV SWAP1 POP SWAP2 SWAP1 POP JUMP JUMPDEST PUSH0 DUP3 DUP3 SHL SWAP1 POP SWAP3 SWAP2 POP POP JUMP JUMPDEST PUSH0 PUSH1 0x8 DUP4 MUL PUSH2 0x96E PUSH32 0xFFFFFFFFFFFFFFFFFFFFFFFFFFFFFFFFFFFFFFFFFFFFFFFFFFFFFFFFFFFFFFFF DUP3 PUSH2 0x933 JUMP JUMPDEST PUSH2 0x978 DUP7 DUP4 PUSH2 0x933 JUMP JUMPDEST SWAP6 POP DUP1 NOT DUP5 AND SWAP4 POP DUP1 DUP7 AND DUP5 OR SWAP3 POP POP POP SWAP4 SWAP3 POP POP POP JUMP JUMPDEST PUSH0 DUP2 SWAP1 POP SWAP2 SWAP1 POP JUMP JUMPDEST PUSH0 PUSH2 0x9B3 PUSH2 0x9AE PUSH2 0x9A9 DUP5 PUSH2 0x403 JUMP JUMPDEST PUSH2 0x990 JUMP JUMPDEST PUSH2 0x403 JUMP JUMPDEST SWAP1 POP SWAP2 SWAP1 POP JUMP JUMPDEST PUSH0 DUP2 SWAP1 POP SWAP2 SWAP1 POP JUMP JUMPDEST PUSH2 0x9CC DUP4 PUSH2 0x999 JUMP JUMPDEST PUSH2 0x9E0 PUSH2 0x9D8 DUP3 PUSH2 0x9BA JUMP JUMPDEST DUP5 DUP5 SLOAD PUSH2 0x93F JUMP JUMPDEST DUP3 SSTORE POP POP POP POP JUMP JUMPDEST PUSH0 PUSH0 SWAP1 POP SWAP1 JUMP JUMPDEST PUSH2 0x9F7 PUSH2 0x9E8 JUMP JUMPDEST PUSH2 0xA02 DUP2 DUP5 DUP5 PUSH2 0x9C3 JUMP JUMPDEST POP POP POP JUMP JUMPDEST JUMPDEST DUP2 DUP2 LT ISZERO PUSH2 0xA25 JUMPI PUSH2 0xA1A PUSH0 DUP3 PUSH2 0x9EF JUMP JUMPDEST PUSH1 0x1 DUP2 ADD SWAP1 POP PUSH2 0xA08 JUMP JUMPDEST POP POP JUMP JUMPDEST PUSH1 0x1F DUP3 GT ISZERO PUSH2 0xA6A JUMPI PUSH2 0xA3B DUP2 PUSH2 0x912 JUMP JUMPDEST PUSH2 0xA44 DUP5 PUSH2 0x924 JUMP JUMPDEST DUP2 ADD PUSH1 0x20 DUP6 LT ISZERO PUSH2 0xA53 JUMPI DUP2 SWAP1 POP JUMPDEST PUSH2 0xA67 PUSH2 0xA5F DUP6 PUSH2 0x924 JUMP JUMPDEST DUP4 ADD DUP3 PUSH2 0xA07 JUMP JUMPDEST POP POP JUMPDEST POP POP POP JUMP JUMPDEST PUSH0 DUP3 DUP3 SHR SWAP1 POP SWAP3 SWAP2 POP POP JUMP JUMPDEST PUSH0 PUSH2 0xA8A PUSH0 NOT DUP5 PUSH1 0x8 MUL PUSH2 0xA6F JUMP JUMPDEST NOT DUP1 DUP4 AND SWAP2 POP POP SWAP3 SWAP2 POP POP JUMP JUMPDEST PUSH0 PUSH2 0xAA2 DUP4 DUP4 PUSH2 0xA7B JUMP JUMPDEST SWAP2 POP DUP3 PUSH1 0x2 MUL DUP3 OR SWAP1 POP SWAP3 SWAP2 POP POP JUMP JUMPDEST PUSH2 0xABB DUP3 PUSH2 0x77F JUMP JUMPDEST PUSH8 0xFFFFFFFFFFFFFFFF DUP2 GT ISZERO PUSH2 0xAD4 JUMPI PUSH2 0xAD3 PUSH2 0x44E JUMP JUMPDEST JUMPDEST PUSH2 0xADE DUP3 SLOAD PUSH2 0x8E2 JUMP JUMPDEST PUSH2 0xAE9 DUP3 DUP3 DUP6 PUSH2 0xA29 JUMP JUMPDEST PUSH0 PUSH1 0x20 SWAP1 POP PUSH1 0x1F DUP4 GT PUSH1 0x1 DUP2 EQ PUSH2 0xB1A JUMPI PUSH0 DUP5 ISZERO PUSH2 0xB08 JUMPI DUP3 DUP8 ADD MLOAD SWAP1 POP JUMPDEST PUSH2 0xB12 DUP6 DUP3 PUSH2 0xA97 JUMP JUMPDEST DUP7 SSTORE POP PUSH2 0xB79 JUMP JUMPDEST PUSH1 0x1F NOT DUP5 AND PUSH2 0xB28 DUP7 PUSH2 0x912 JUMP JUMPDEST PUSH0 JUMPDEST DUP3 DUP2 LT ISZERO PUSH2 0xB4F JUMPI DUP5 DUP10 ADD MLOAD DUP3 SSTORE PUSH1 0x1 DUP3 ADD SWAP2 POP PUSH1 0x20 DUP6 ADD SWAP5 POP PUSH1 0x20 DUP2 ADD SWAP1 POP PUSH2 0xB2A JUMP JUMPDEST DUP7 DUP4 LT ISZERO PUSH2 0xB6C JUMPI DUP5 DUP10 ADD MLOAD PUSH2 0xB68 PUSH1 0x1F DUP10 AND DUP3 PUSH2 0xA7B JUMP JUMPDEST DUP4 SSTORE POP JUMPDEST PUSH1 0x1 PUSH1 0x2 DUP9 MUL ADD DUP9 SSTORE POP POP POP JUMPDEST POP POP POP POP POP POP JUMP INVALID LOG2 PUSH5 0x6970667358 0x22 SLT KECCAK256 SWAP4 DUP12 DUP12 SWAP9 0xAD MSIZE 0xB8 0x2A BALANCE SWAP5 BLOCKHASH 0x4F DUP3 BYTE MLOAD 0x21 0xB1 0xDC 0xDD RETURNCONTRACT 0xED PUSH24 0xA26715059291176A257364736F6C634300081E0033000000 "
				},
				"gasEstimates": {
					"creation": {
						"codeDepositCost": "599800",
						"executionCost": "630",
						"totalCost": "600430"
					},
					"external": {
						"NotaProfAluno(address,address)": "infinite",
						"dicionario(string)": "infinite",
						"presenca(address)": "2833",
						"presencaNumero(string)": "infinite",
						"setarNotaAluno(address,uint256)": "22931",
						"setarNumpresenca(uint256,string)": "infinite",
						"setarPalavrasAoDicio(string,string)": "infinite",
						"setarPresenca()": "24541"
					}
				},
				"methodIdentifiers": {
					"NotaProfAluno(address,address)": "fc34f47f",
					"dicionario(string)": "deb0663c",
					"presenca(address)": "dd670d7b",
					"presencaNumero(string)": "f94ce269",
					"setarNotaAluno(address,uint256)": "7e5205b8",
					"setarNumpresenca(uint256,string)": "5ff856ea",
					"setarPalavrasAoDicio(string,string)": "c1007889",
					"setarPresenca()": "b5098300"
				}
			},
			"storageLayout": {
				"storage": [
					{
						"astId": 5,
						"contract": "AulasNearX/exeMapping.sol:NovaTurmaMapping",
						"label": "dicionario",
						"offset": 0,
						"slot": "0",
						"type": "t_mapping(t_string_memory_ptr,t_string_storage)"
					},
					{
						"astId": 9,
						"contract": "AulasNearX/exeMapping.sol:NovaTurmaMapping",
						"label": "presencaNumero",
						"offset": 0,
						"slot": "1",
						"type": "t_mapping(t_string_memory_ptr,t_uint256)"
					},
					{
						"astId": 13,
						"contract": "AulasNearX/exeMapping.sol:NovaTurmaMapping",
						"label": "presenca",
						"offset": 0,
						"slot": "2",
						"type": "t_mapping(t_address,t_bool)"
					},
					{
						"astId": 19,
						"contract": "AulasNearX/exeMapping.sol:NovaTurmaMapping",
						"label": "NotaProfAluno",
						"offset": 0,
						"slot": "3",
						"type": "t_mapping(t_address,t_mapping(t_address,t_uint256))"
					}
				],
				"types": {
					"t_address": {
						"encoding": "inplace",
						"label": "address",
						"numberOfBytes": "20"
					},
					"t_bool": {
						"encoding": "inplace",
						"label": "bool",
						"numberOfBytes": "1"
					},
					"t_mapping(t_address,t_bool)": {
						"encoding": "mapping",
						"key": "t_address",
						"label": "mapping(address => bool)",
						"numberOfBytes": "32",
						"value": "t_bool"
					},
					"t_mapping(t_address,t_mapping(t_address,t_uint256))": {
						"encoding": "mapping",
						"key": "t_address",
						"label": "mapping(address => mapping(address => uint256))",
						"numberOfBytes": "32",
						"value": "t_mapping(t_address,t_uint256)"
					},
					"t_mapping(t_address,t_uint256)": {
						"encoding": "mapping",
						"key": "t_address",
						"label": "mapping(address => uint256)",
						"numberOfBytes": "32",
						"value": "t_uint256"
					},
					"t_mapping(t_string_memory_ptr,t_string_storage)": {
						"encoding": "mapping",
						"key": "t_string_memory_ptr",
						"label": "mapping(string => string)",
						"numberOfBytes": "32",
						"value": "t_string_storage"
					},
					"t_mapping(t_string_memory_ptr,t_uint256)": {
						"encoding": "mapping",
						"key": "t_string_memory_ptr",
						"label": "mapping(string => uint256)",
						"numberOfBytes": "32",
						"value": "t_uint256"
					},
					"t_string_memory_ptr": {
						"encoding": "bytes",
						"label": "string",
						"numberOfBytes": "32"
					},
					"t_string_storage": {
						"encoding": "bytes",
						"label": "string",
						"numberOfBytes": "32"
					},
					"t_uint256": {
						"encoding": "inplace",
						"label": "uint256",
						"numberOfBytes": "32"
					}
				}
			},
			"userdoc": {
				"kind": "user",
				"methods": {},
				"version": 1
			}
		}
	}
}