{
	"contracts/calculadora.sol": {
		"Exemplovariavel": {
			"abi": [
				{
					"inputs": [
						{
							"internalType": "uint8",
							"name": "_numero",
							"type": "uint8"
						}
					],
					"name": "inseriMaxuint",
					"outputs": [],
					"stateMutability": "nonpayable",
					"type": "function"
				},
				{
					"inputs": [
						{
							"internalType": "uint256",
							"name": "_numero",
							"type": "uint256"
						}
					],
					"name": "inserirNumero",
					"outputs": [],
					"stateMutability": "nonpayable",
					"type": "function"
				},
				{
					"inputs": [
						{
							"internalType": "int256",
							"name": "_numero",
							"type": "int256"
						}
					],
					"name": "inserirNumeroNegativo",
					"outputs": [],
					"stateMutability": "nonpayable",
					"type": "function"
				},
				{
					"inputs": [],
					"name": "maxPermit",
					"outputs": [
						{
							"internalType": "uint8",
							"name": "",
							"type": "uint8"
						}
					],
					"stateMutability": "view",
					"type": "function"
				},
				{
					"inputs": [],
					"name": "negativo",
					"outputs": [
						{
							"internalType": "int256",
							"name": "",
							"type": "int256"
						}
					],
					"stateMutability": "view",
					"type": "function"
				},
				{
					"inputs": [],
					"name": "numero",
					"outputs": [
						{
							"internalType": "uint256",
							"name": "",
							"type": "uint256"
						}
					],
					"stateMutability": "view",
					"type": "function"
				},
				{
					"inputs": [],
					"name": "numeroNegativo",
					"outputs": [
						{
							"internalType": "int256",
							"name": "",
							"type": "int256"
						}
					],
					"stateMutability": "view",
					"type": "function"
				},
				{
					"inputs": [],
					"name": "resultadoDaSoma",
					"outputs": [
						{
							"internalType": "uint256",
							"name": "",
							"type": "uint256"
						}
					],
					"stateMutability": "view",
					"type": "function"
				},
				{
					"inputs": [
						{
							"internalType": "uint256",
							"name": "_valorA",
							"type": "uint256"
						},
						{
							"internalType": "uint256",
							"name": "_valorB",
							"type": "uint256"
						}
					],
					"name": "somarValores",
					"outputs": [],
					"stateMutability": "nonpayable",
					"type": "function"
				},
				{
					"inputs": [],
					"name": "testLimit",
					"outputs": [
						{
							"internalType": "uint8",
							"name": "",
							"type": "uint8"
						}
					],
					"stateMutability": "view",
					"type": "function"
				},
				{
					"inputs": [
						{
							"internalType": "int256",
							"name": "_numero",
							"type": "int256"
						}
					],
					"name": "testeNegativo",
					"outputs": [
						{
							"internalType": "int256",
							"name": "",
							"type": "int256"
						}
					],
					"stateMutability": "pure",
					"type": "function"
				}
			],
			"devdoc": {
				"kind": "dev",
				"methods": {},
				"version": 1
			},
			"evm": {
				"assembly": "    /* \"contracts/calculadora.sol\":60:1068  contract Exemplovariavel {... */\n  mstore(0x40, 0x80)\n    /* \"contracts/calculadora.sol\":150:153  255 */\n  0xff\n    /* \"contracts/calculadora.sol\":125:153  uint8 public maxPermit = 255 */\n  0x00\n  exp(0x0100, 0x00)\n  dup2\n  sload\n  dup2\n  0xff\n  mul\n  not\n  and\n  swap1\n  dup4\n  0xff\n  and\n  mul\n  or\n  swap1\n  sstore\n  pop\n    /* \"contracts/calculadora.sol\":214:216  -1 */\n  0xffffffffffffffffffffffffffffffffffffffffffffffffffffffffffffffff\n    /* \"contracts/calculadora.sol\":189:216  int256 public negativo = -1 */\n  0x01\n  sstore\n    /* \"contracts/calculadora.sol\":60:1068  contract Exemplovariavel {... */\n  callvalue\n  dup1\n  iszero\n  tag_1\n  jumpi\n  revert(0x00, 0x00)\ntag_1:\n  pop\n  dataSize(sub_0)\n  dup1\n  dataOffset(sub_0)\n  0x00\n  codecopy\n  0x00\n  return\nstop\n\nsub_0: assembly {\n        /* \"contracts/calculadora.sol\":60:1068  contract Exemplovariavel {... */\n      mstore(0x40, 0x80)\n      callvalue\n      dup1\n      iszero\n      tag_1\n      jumpi\n      revert(0x00, 0x00)\n    tag_1:\n      pop\n      jumpi(tag_2, lt(calldatasize, 0x04))\n      shr(0xe0, calldataload(0x00))\n      dup1\n      0x91f5de38\n      gt\n      tag_14\n      jumpi\n      dup1\n      0x91f5de38\n      eq\n      tag_8\n      jumpi\n      dup1\n      0xa0ba56dc\n      eq\n      tag_9\n      jumpi\n      dup1\n      0xbb6522bf\n      eq\n      tag_10\n      jumpi\n      dup1\n      0xda97736b\n      eq\n      tag_11\n      jumpi\n      dup1\n      0xf06ecb3a\n      eq\n      tag_12\n      jumpi\n      dup1\n      0xf8b39cf1\n      eq\n      tag_13\n      jumpi\n      jump(tag_2)\n    tag_14:\n      dup1\n      0x1bbd7ad0\n      eq\n      tag_3\n      jumpi\n      dup1\n      0x50f12114\n      eq\n      tag_4\n      jumpi\n      dup1\n      0x623b356f\n      eq\n      tag_5\n      jumpi\n      dup1\n      0x64017e2c\n      eq\n      tag_6\n      jumpi\n      dup1\n      0x893fc555\n      eq\n      tag_7\n      jumpi\n    tag_2:\n      revert(0x00, 0x00)\n        /* \"contracts/calculadora.sol\":422:507  function inseriMaxuint(uint8 _numero) external {... */\n    tag_3:\n      tag_15\n      0x04\n      dup1\n      calldatasize\n      sub\n      dup2\n      add\n      swap1\n      tag_16\n      swap2\n      swap1\n      tag_17\n      jump\t// in\n    tag_16:\n      tag_18\n      jump\t// in\n    tag_15:\n      stop\n        /* \"contracts/calculadora.sol\":946:1065  function somarValores(uint256 _valorA, uint256 _valorB) external {... */\n    tag_4:\n      tag_19\n      0x04\n      dup1\n      calldatasize\n      sub\n      dup2\n      add\n      swap1\n      tag_20\n      swap2\n      swap1\n      tag_21\n      jump\t// in\n    tag_20:\n      tag_22\n      jump\t// in\n    tag_19:\n      stop\n        /* \"contracts/calculadora.sol\":251:279  int256 public numeroNegativo */\n    tag_5:\n      tag_23\n      tag_24\n      jump\t// in\n    tag_23:\n      mload(0x40)\n      tag_25\n      swap2\n      swap1\n      tag_26\n      jump\t// in\n    tag_25:\n      mload(0x40)\n      dup1\n      swap2\n      sub\n      swap1\n      return\n        /* \"contracts/calculadora.sol\":189:216  int256 public negativo = -1 */\n    tag_6:\n      tag_27\n      tag_28\n      jump\t// in\n    tag_27:\n      mload(0x40)\n      tag_29\n      swap2\n      swap1\n      tag_26\n      jump\t// in\n    tag_29:\n      mload(0x40)\n      dup1\n      swap2\n      sub\n      swap1\n      return\n        /* \"contracts/calculadora.sol\":714:818  function testeNegativo(int256 _numero) external pure returns (int256) {... */\n    tag_7:\n      tag_30\n      0x04\n      dup1\n      calldatasize\n      sub\n      dup2\n      add\n      swap1\n      tag_31\n      swap2\n      swap1\n      tag_32\n      jump\t// in\n    tag_31:\n      tag_33\n      jump\t// in\n    tag_30:\n      mload(0x40)\n      tag_34\n      swap2\n      swap1\n      tag_26\n      jump\t// in\n    tag_34:\n      mload(0x40)\n      dup1\n      swap2\n      sub\n      swap1\n      return\n        /* \"contracts/calculadora.sol\":223:244  uint256 public numero */\n    tag_8:\n      tag_35\n      tag_36\n      jump\t// in\n    tag_35:\n      mload(0x40)\n      tag_37\n      swap2\n      swap1\n      tag_38\n      jump\t// in\n    tag_37:\n      mload(0x40)\n      dup1\n      swap2\n      sub\n      swap1\n      return\n        /* \"contracts/calculadora.sol\":160:182  uint8 public testLimit */\n    tag_9:\n      tag_39\n      tag_40\n      jump\t// in\n    tag_39:\n      mload(0x40)\n      tag_41\n      swap2\n      swap1\n      tag_42\n      jump\t// in\n    tag_41:\n      mload(0x40)\n      dup1\n      swap2\n      sub\n      swap1\n      return\n        /* \"contracts/calculadora.sol\":607:706  function inserirNumeroNegativo(int256 _numero) external {... */\n    tag_10:\n      tag_43\n      0x04\n      dup1\n      calldatasize\n      sub\n      dup2\n      add\n      swap1\n      tag_44\n      swap2\n      swap1\n      tag_32\n      jump\t// in\n    tag_44:\n      tag_45\n      jump\t// in\n    tag_43:\n      stop\n        /* \"contracts/calculadora.sol\":515:599  function inserirNumero(uint256 _numero) external {... */\n    tag_11:\n      tag_46\n      0x04\n      dup1\n      calldatasize\n      sub\n      dup2\n      add\n      swap1\n      tag_47\n      swap2\n      swap1\n      tag_48\n      jump\t// in\n    tag_47:\n      tag_49\n      jump\t// in\n    tag_46:\n      stop\n        /* \"contracts/calculadora.sol\":125:153  uint8 public maxPermit = 255 */\n    tag_12:\n      tag_50\n      tag_51\n      jump\t// in\n    tag_50:\n      mload(0x40)\n      tag_52\n      swap2\n      swap1\n      tag_42\n      jump\t// in\n    tag_52:\n      mload(0x40)\n      dup1\n      swap2\n      sub\n      swap1\n      return\n        /* \"contracts/calculadora.sol\":346:376  uint256 public resultadoDaSoma */\n    tag_13:\n      tag_53\n      tag_54\n      jump\t// in\n    tag_53:\n      mload(0x40)\n      tag_55\n      swap2\n      swap1\n      tag_38\n      jump\t// in\n    tag_55:\n      mload(0x40)\n      dup1\n      swap2\n      sub\n      swap1\n      return\n        /* \"contracts/calculadora.sol\":422:507  function inseriMaxuint(uint8 _numero) external {... */\n    tag_18:\n        /* \"contracts/calculadora.sol\":492:499  _numero */\n      dup1\n        /* \"contracts/calculadora.sol\":480:489  testLimit */\n      0x00\n      0x01\n        /* \"contracts/calculadora.sol\":480:499  testLimit = _numero */\n      0x0100\n      exp\n      dup2\n      sload\n      dup2\n      0xff\n      mul\n      not\n      and\n      swap1\n      dup4\n      0xff\n      and\n      mul\n      or\n      swap1\n      sstore\n      pop\n        /* \"contracts/calculadora.sol\":422:507  function inseriMaxuint(uint8 _numero) external {... */\n      pop\n      jump\t// out\n        /* \"contracts/calculadora.sol\":946:1065  function somarValores(uint256 _valorA, uint256 _valorB) external {... */\n    tag_22:\n        /* \"contracts/calculadora.sol\":1050:1057  _valorB */\n      dup1\n        /* \"contracts/calculadora.sol\":1040:1047  _valorA */\n      dup3\n        /* \"contracts/calculadora.sol\":1040:1057  _valorA + _valorB */\n      tag_58\n      swap2\n      swap1\n      tag_59\n      jump\t// in\n    tag_58:\n        /* \"contracts/calculadora.sol\":1022:1037  resultadoDaSoma */\n      0x04\n        /* \"contracts/calculadora.sol\":1022:1057  resultadoDaSoma = _valorA + _valorB */\n      dup2\n      swap1\n      sstore\n      pop\n        /* \"contracts/calculadora.sol\":946:1065  function somarValores(uint256 _valorA, uint256 _valorB) external {... */\n      pop\n      pop\n      jump\t// out\n        /* \"contracts/calculadora.sol\":251:279  int256 public numeroNegativo */\n    tag_24:\n      sload(0x03)\n      dup2\n      jump\t// out\n        /* \"contracts/calculadora.sol\":189:216  int256 public negativo = -1 */\n    tag_28:\n      sload(0x01)\n      dup2\n      jump\t// out\n        /* \"contracts/calculadora.sol\":714:818  function testeNegativo(int256 _numero) external pure returns (int256) {... */\n    tag_33:\n        /* \"contracts/calculadora.sol\":776:782  int256 */\n      0x00\n        /* \"contracts/calculadora.sol\":802:809  _numero */\n      dup2\n        /* \"contracts/calculadora.sol\":795:809  return _numero */\n      swap1\n      pop\n        /* \"contracts/calculadora.sol\":714:818  function testeNegativo(int256 _numero) external pure returns (int256) {... */\n      swap2\n      swap1\n      pop\n      jump\t// out\n        /* \"contracts/calculadora.sol\":223:244  uint256 public numero */\n    tag_36:\n      sload(0x02)\n      dup2\n      jump\t// out\n        /* \"contracts/calculadora.sol\":160:182  uint8 public testLimit */\n    tag_40:\n      0x00\n      0x01\n      swap1\n      sload\n      swap1\n      0x0100\n      exp\n      swap1\n      div\n      0xff\n      and\n      dup2\n      jump\t// out\n        /* \"contracts/calculadora.sol\":607:706  function inserirNumeroNegativo(int256 _numero) external {... */\n    tag_45:\n        /* \"contracts/calculadora.sol\":691:698  _numero */\n      dup1\n        /* \"contracts/calculadora.sol\":674:688  numeroNegativo */\n      0x03\n        /* \"contracts/calculadora.sol\":674:698  numeroNegativo = _numero */\n      dup2\n      swap1\n      sstore\n      pop\n        /* \"contracts/calculadora.sol\":607:706  function inserirNumeroNegativo(int256 _numero) external {... */\n      pop\n      jump\t// out\n        /* \"contracts/calculadora.sol\":515:599  function inserirNumero(uint256 _numero) external {... */\n    tag_49:\n        /* \"contracts/calculadora.sol\":584:591  _numero */\n      dup1\n        /* \"contracts/calculadora.sol\":575:581  numero */\n      0x02\n        /* \"contracts/calculadora.sol\":575:591  numero = _numero */\n      dup2\n      swap1\n      sstore\n      pop\n        /* \"contracts/calculadora.sol\":515:599  function inserirNumero(uint256 _numero) external {... */\n      pop\n      jump\t// out\n        /* \"contracts/calculadora.sol\":125:153  uint8 public maxPermit = 255 */\n    tag_51:\n      0x00\n      0x00\n      swap1\n      sload\n      swap1\n      0x0100\n      exp\n      swap1\n      div\n      0xff\n      and\n      dup2\n      jump\t// out\n        /* \"contracts/calculadora.sol\":346:376  uint256 public resultadoDaSoma */\n    tag_54:\n      sload(0x04)\n      dup2\n      jump\t// out\n        /* \"#utility.yul\":88:205   */\n    tag_64:\n        /* \"#utility.yul\":197:198   */\n      0x00\n        /* \"#utility.yul\":194:195   */\n      0x00\n        /* \"#utility.yul\":187:199   */\n      revert\n        /* \"#utility.yul\":334:420   */\n    tag_66:\n        /* \"#utility.yul\":369:376   */\n      0x00\n        /* \"#utility.yul\":409:413   */\n      0xff\n        /* \"#utility.yul\":402:407   */\n      dup3\n        /* \"#utility.yul\":398:414   */\n      and\n        /* \"#utility.yul\":387:414   */\n      swap1\n      pop\n        /* \"#utility.yul\":334:420   */\n      swap2\n      swap1\n      pop\n      jump\t// out\n        /* \"#utility.yul\":426:544   */\n    tag_67:\n        /* \"#utility.yul\":497:519   */\n      tag_85\n        /* \"#utility.yul\":513:518   */\n      dup2\n        /* \"#utility.yul\":497:519   */\n      tag_66\n      jump\t// in\n    tag_85:\n        /* \"#utility.yul\":490:495   */\n      dup2\n        /* \"#utility.yul\":487:520   */\n      eq\n        /* \"#utility.yul\":477:538   */\n      tag_86\n      jumpi\n        /* \"#utility.yul\":534:535   */\n      0x00\n        /* \"#utility.yul\":531:532   */\n      0x00\n        /* \"#utility.yul\":524:536   */\n      revert\n        /* \"#utility.yul\":477:538   */\n    tag_86:\n        /* \"#utility.yul\":426:544   */\n      pop\n      jump\t// out\n        /* \"#utility.yul\":550:685   */\n    tag_68:\n        /* \"#utility.yul\":594:599   */\n      0x00\n        /* \"#utility.yul\":632:638   */\n      dup2\n        /* \"#utility.yul\":619:639   */\n      calldataload\n        /* \"#utility.yul\":610:639   */\n      swap1\n      pop\n        /* \"#utility.yul\":648:679   */\n      tag_88\n        /* \"#utility.yul\":673:678   */\n      dup2\n        /* \"#utility.yul\":648:679   */\n      tag_67\n      jump\t// in\n    tag_88:\n        /* \"#utility.yul\":550:685   */\n      swap3\n      swap2\n      pop\n      pop\n      jump\t// out\n        /* \"#utility.yul\":691:1016   */\n    tag_17:\n        /* \"#utility.yul\":748:754   */\n      0x00\n        /* \"#utility.yul\":797:799   */\n      0x20\n        /* \"#utility.yul\":785:794   */\n      dup3\n        /* \"#utility.yul\":776:783   */\n      dup5\n        /* \"#utility.yul\":772:795   */\n      sub\n        /* \"#utility.yul\":768:800   */\n      slt\n        /* \"#utility.yul\":765:884   */\n      iszero\n      tag_90\n      jumpi\n        /* \"#utility.yul\":803:882   */\n      tag_91\n      tag_64\n      jump\t// in\n    tag_91:\n        /* \"#utility.yul\":765:884   */\n    tag_90:\n        /* \"#utility.yul\":923:924   */\n      0x00\n        /* \"#utility.yul\":948:999   */\n      tag_92\n        /* \"#utility.yul\":991:998   */\n      dup5\n        /* \"#utility.yul\":982:988   */\n      dup3\n        /* \"#utility.yul\":971:980   */\n      dup6\n        /* \"#utility.yul\":967:989   */\n      add\n        /* \"#utility.yul\":948:999   */\n      tag_68\n      jump\t// in\n    tag_92:\n        /* \"#utility.yul\":938:999   */\n      swap2\n      pop\n        /* \"#utility.yul\":894:1009   */\n      pop\n        /* \"#utility.yul\":691:1016   */\n      swap3\n      swap2\n      pop\n      pop\n      jump\t// out\n        /* \"#utility.yul\":1022:1099   */\n    tag_69:\n        /* \"#utility.yul\":1059:1066   */\n      0x00\n        /* \"#utility.yul\":1088:1093   */\n      dup2\n        /* \"#utility.yul\":1077:1093   */\n      swap1\n      pop\n        /* \"#utility.yul\":1022:1099   */\n      swap2\n      swap1\n      pop\n      jump\t// out\n        /* \"#utility.yul\":1105:1227   */\n    tag_70:\n        /* \"#utility.yul\":1178:1202   */\n      tag_95\n        /* \"#utility.yul\":1196:1201   */\n      dup2\n        /* \"#utility.yul\":1178:1202   */\n      tag_69\n      jump\t// in\n    tag_95:\n        /* \"#utility.yul\":1171:1176   */\n      dup2\n        /* \"#utility.yul\":1168:1203   */\n      eq\n        /* \"#utility.yul\":1158:1221   */\n      tag_96\n      jumpi\n        /* \"#utility.yul\":1217:1218   */\n      0x00\n        /* \"#utility.yul\":1214:1215   */\n      0x00\n        /* \"#utility.yul\":1207:1219   */\n      revert\n        /* \"#utility.yul\":1158:1221   */\n    tag_96:\n        /* \"#utility.yul\":1105:1227   */\n      pop\n      jump\t// out\n        /* \"#utility.yul\":1233:1372   */\n    tag_71:\n        /* \"#utility.yul\":1279:1284   */\n      0x00\n        /* \"#utility.yul\":1317:1323   */\n      dup2\n        /* \"#utility.yul\":1304:1324   */\n      calldataload\n        /* \"#utility.yul\":1295:1324   */\n      swap1\n      pop\n        /* \"#utility.yul\":1333:1366   */\n      tag_98\n        /* \"#utility.yul\":1360:1365   */\n      dup2\n        /* \"#utility.yul\":1333:1366   */\n      tag_70\n      jump\t// in\n    tag_98:\n        /* \"#utility.yul\":1233:1372   */\n      swap3\n      swap2\n      pop\n      pop\n      jump\t// out\n        /* \"#utility.yul\":1378:1852   */\n    tag_21:\n        /* \"#utility.yul\":1446:1452   */\n      0x00\n        /* \"#utility.yul\":1454:1460   */\n      0x00\n        /* \"#utility.yul\":1503:1505   */\n      0x40\n        /* \"#utility.yul\":1491:1500   */\n      dup4\n        /* \"#utility.yul\":1482:1489   */\n      dup6\n        /* \"#utility.yul\":1478:1501   */\n      sub\n        /* \"#utility.yul\":1474:1506   */\n      slt\n        /* \"#utility.yul\":1471:1590   */\n      iszero\n      tag_100\n      jumpi\n        /* \"#utility.yul\":1509:1588   */\n      tag_101\n      tag_64\n      jump\t// in\n    tag_101:\n        /* \"#utility.yul\":1471:1590   */\n    tag_100:\n        /* \"#utility.yul\":1629:1630   */\n      0x00\n        /* \"#utility.yul\":1654:1707   */\n      tag_102\n        /* \"#utility.yul\":1699:1706   */\n      dup6\n        /* \"#utility.yul\":1690:1696   */\n      dup3\n        /* \"#utility.yul\":1679:1688   */\n      dup7\n        /* \"#utility.yul\":1675:1697   */\n      add\n        /* \"#utility.yul\":1654:1707   */\n      tag_71\n      jump\t// in\n    tag_102:\n        /* \"#utility.yul\":1644:1707   */\n      swap3\n      pop\n        /* \"#utility.yul\":1600:1717   */\n      pop\n        /* \"#utility.yul\":1756:1758   */\n      0x20\n        /* \"#utility.yul\":1782:1835   */\n      tag_103\n        /* \"#utility.yul\":1827:1834   */\n      dup6\n        /* \"#utility.yul\":1818:1824   */\n      dup3\n        /* \"#utility.yul\":1807:1816   */\n      dup7\n        /* \"#utility.yul\":1803:1825   */\n      add\n        /* \"#utility.yul\":1782:1835   */\n      tag_71\n      jump\t// in\n    tag_103:\n        /* \"#utility.yul\":1772:1835   */\n      swap2\n      pop\n        /* \"#utility.yul\":1727:1845   */\n      pop\n        /* \"#utility.yul\":1378:1852   */\n      swap3\n      pop\n      swap3\n      swap1\n      pop\n      jump\t// out\n        /* \"#utility.yul\":1858:1934   */\n    tag_72:\n        /* \"#utility.yul\":1894:1901   */\n      0x00\n        /* \"#utility.yul\":1923:1928   */\n      dup2\n        /* \"#utility.yul\":1912:1928   */\n      swap1\n      pop\n        /* \"#utility.yul\":1858:1934   */\n      swap2\n      swap1\n      pop\n      jump\t// out\n        /* \"#utility.yul\":1940:2055   */\n    tag_73:\n        /* \"#utility.yul\":2025:2048   */\n      tag_106\n        /* \"#utility.yul\":2042:2047   */\n      dup2\n        /* \"#utility.yul\":2025:2048   */\n      tag_72\n      jump\t// in\n    tag_106:\n        /* \"#utility.yul\":2020:2023   */\n      dup3\n        /* \"#utility.yul\":2013:2049   */\n      mstore\n        /* \"#utility.yul\":1940:2055   */\n      pop\n      pop\n      jump\t// out\n        /* \"#utility.yul\":2061:2279   */\n    tag_26:\n        /* \"#utility.yul\":2152:2156   */\n      0x00\n        /* \"#utility.yul\":2190:2192   */\n      0x20\n        /* \"#utility.yul\":2179:2188   */\n      dup3\n        /* \"#utility.yul\":2175:2193   */\n      add\n        /* \"#utility.yul\":2167:2193   */\n      swap1\n      pop\n        /* \"#utility.yul\":2203:2272   */\n      tag_108\n        /* \"#utility.yul\":2269:2270   */\n      0x00\n        /* \"#utility.yul\":2258:2267   */\n      dup4\n        /* \"#utility.yul\":2254:2271   */\n      add\n        /* \"#utility.yul\":2245:2251   */\n      dup5\n        /* \"#utility.yul\":2203:2272   */\n      tag_73\n      jump\t// in\n    tag_108:\n        /* \"#utility.yul\":2061:2279   */\n      swap3\n      swap2\n      pop\n      pop\n      jump\t// out\n        /* \"#utility.yul\":2285:2405   */\n    tag_74:\n        /* \"#utility.yul\":2357:2380   */\n      tag_110\n        /* \"#utility.yul\":2374:2379   */\n      dup2\n        /* \"#utility.yul\":2357:2380   */\n      tag_72\n      jump\t// in\n    tag_110:\n        /* \"#utility.yul\":2350:2355   */\n      dup2\n        /* \"#utility.yul\":2347:2381   */\n      eq\n        /* \"#utility.yul\":2337:2399   */\n      tag_111\n      jumpi\n        /* \"#utility.yul\":2395:2396   */\n      0x00\n        /* \"#utility.yul\":2392:2393   */\n      0x00\n        /* \"#utility.yul\":2385:2397   */\n      revert\n        /* \"#utility.yul\":2337:2399   */\n    tag_111:\n        /* \"#utility.yul\":2285:2405   */\n      pop\n      jump\t// out\n        /* \"#utility.yul\":2411:2548   */\n    tag_75:\n        /* \"#utility.yul\":2456:2461   */\n      0x00\n        /* \"#utility.yul\":2494:2500   */\n      dup2\n        /* \"#utility.yul\":2481:2501   */\n      calldataload\n        /* \"#utility.yul\":2472:2501   */\n      swap1\n      pop\n        /* \"#utility.yul\":2510:2542   */\n      tag_113\n        /* \"#utility.yul\":2536:2541   */\n      dup2\n        /* \"#utility.yul\":2510:2542   */\n      tag_74\n      jump\t// in\n    tag_113:\n        /* \"#utility.yul\":2411:2548   */\n      swap3\n      swap2\n      pop\n      pop\n      jump\t// out\n        /* \"#utility.yul\":2554:2881   */\n    tag_32:\n        /* \"#utility.yul\":2612:2618   */\n      0x00\n        /* \"#utility.yul\":2661:2663   */\n      0x20\n        /* \"#utility.yul\":2649:2658   */\n      dup3\n        /* \"#utility.yul\":2640:2647   */\n      dup5\n        /* \"#utility.yul\":2636:2659   */\n      sub\n        /* \"#utility.yul\":2632:2664   */\n      slt\n        /* \"#utility.yul\":2629:2748   */\n      iszero\n      tag_115\n      jumpi\n        /* \"#utility.yul\":2667:2746   */\n      tag_116\n      tag_64\n      jump\t// in\n    tag_116:\n        /* \"#utility.yul\":2629:2748   */\n    tag_115:\n        /* \"#utility.yul\":2787:2788   */\n      0x00\n        /* \"#utility.yul\":2812:2864   */\n      tag_117\n        /* \"#utility.yul\":2856:2863   */\n      dup5\n        /* \"#utility.yul\":2847:2853   */\n      dup3\n        /* \"#utility.yul\":2836:2845   */\n      dup6\n        /* \"#utility.yul\":2832:2854   */\n      add\n        /* \"#utility.yul\":2812:2864   */\n      tag_75\n      jump\t// in\n    tag_117:\n        /* \"#utility.yul\":2802:2864   */\n      swap2\n      pop\n        /* \"#utility.yul\":2758:2874   */\n      pop\n        /* \"#utility.yul\":2554:2881   */\n      swap3\n      swap2\n      pop\n      pop\n      jump\t// out\n        /* \"#utility.yul\":2887:3005   */\n    tag_76:\n        /* \"#utility.yul\":2974:2998   */\n      tag_119\n        /* \"#utility.yul\":2992:2997   */\n      dup2\n        /* \"#utility.yul\":2974:2998   */\n      tag_69\n      jump\t// in\n    tag_119:\n        /* \"#utility.yul\":2969:2972   */\n      dup3\n        /* \"#utility.yul\":2962:2999   */\n      mstore\n        /* \"#utility.yul\":2887:3005   */\n      pop\n      pop\n      jump\t// out\n        /* \"#utility.yul\":3011:3233   */\n    tag_38:\n        /* \"#utility.yul\":3104:3108   */\n      0x00\n        /* \"#utility.yul\":3142:3144   */\n      0x20\n        /* \"#utility.yul\":3131:3140   */\n      dup3\n        /* \"#utility.yul\":3127:3145   */\n      add\n        /* \"#utility.yul\":3119:3145   */\n      swap1\n      pop\n        /* \"#utility.yul\":3155:3226   */\n      tag_121\n        /* \"#utility.yul\":3223:3224   */\n      0x00\n        /* \"#utility.yul\":3212:3221   */\n      dup4\n        /* \"#utility.yul\":3208:3225   */\n      add\n        /* \"#utility.yul\":3199:3205   */\n      dup5\n        /* \"#utility.yul\":3155:3226   */\n      tag_76\n      jump\t// in\n    tag_121:\n        /* \"#utility.yul\":3011:3233   */\n      swap3\n      swap2\n      pop\n      pop\n      jump\t// out\n        /* \"#utility.yul\":3239:3351   */\n    tag_77:\n        /* \"#utility.yul\":3322:3344   */\n      tag_123\n        /* \"#utility.yul\":3338:3343   */\n      dup2\n        /* \"#utility.yul\":3322:3344   */\n      tag_66\n      jump\t// in\n    tag_123:\n        /* \"#utility.yul\":3317:3320   */\n      dup3\n        /* \"#utility.yul\":3310:3345   */\n      mstore\n        /* \"#utility.yul\":3239:3351   */\n      pop\n      pop\n      jump\t// out\n        /* \"#utility.yul\":3357:3571   */\n    tag_42:\n        /* \"#utility.yul\":3446:3450   */\n      0x00\n        /* \"#utility.yul\":3484:3486   */\n      0x20\n        /* \"#utility.yul\":3473:3482   */\n      dup3\n        /* \"#utility.yul\":3469:3487   */\n      add\n        /* \"#utility.yul\":3461:3487   */\n      swap1\n      pop\n        /* \"#utility.yul\":3497:3564   */\n      tag_125\n        /* \"#utility.yul\":3561:3562   */\n      0x00\n        /* \"#utility.yul\":3550:3559   */\n      dup4\n        /* \"#utility.yul\":3546:3563   */\n      add\n        /* \"#utility.yul\":3537:3543   */\n      dup5\n        /* \"#utility.yul\":3497:3564   */\n      tag_77\n      jump\t// in\n    tag_125:\n        /* \"#utility.yul\":3357:3571   */\n      swap3\n      swap2\n      pop\n      pop\n      jump\t// out\n        /* \"#utility.yul\":3577:3906   */\n    tag_48:\n        /* \"#utility.yul\":3636:3642   */\n      0x00\n        /* \"#utility.yul\":3685:3687   */\n      0x20\n        /* \"#utility.yul\":3673:3682   */\n      dup3\n        /* \"#utility.yul\":3664:3671   */\n      dup5\n        /* \"#utility.yul\":3660:3683   */\n      sub\n        /* \"#utility.yul\":3656:3688   */\n      slt\n        /* \"#utility.yul\":3653:3772   */\n      iszero\n      tag_127\n      jumpi\n        /* \"#utility.yul\":3691:3770   */\n      tag_128\n      tag_64\n      jump\t// in\n    tag_128:\n        /* \"#utility.yul\":3653:3772   */\n    tag_127:\n        /* \"#utility.yul\":3811:3812   */\n      0x00\n        /* \"#utility.yul\":3836:3889   */\n      tag_129\n        /* \"#utility.yul\":3881:3888   */\n      dup5\n        /* \"#utility.yul\":3872:3878   */\n      dup3\n        /* \"#utility.yul\":3861:3870   */\n      dup6\n        /* \"#utility.yul\":3857:3879   */\n      add\n        /* \"#utility.yul\":3836:3889   */\n      tag_71\n      jump\t// in\n    tag_129:\n        /* \"#utility.yul\":3826:3889   */\n      swap2\n      pop\n        /* \"#utility.yul\":3782:3899   */\n      pop\n        /* \"#utility.yul\":3577:3906   */\n      swap3\n      swap2\n      pop\n      pop\n      jump\t// out\n        /* \"#utility.yul\":3912:4092   */\n    tag_78:\n        /* \"#utility.yul\":3960:4037   */\n      0x4e487b7100000000000000000000000000000000000000000000000000000000\n        /* \"#utility.yul\":3957:3958   */\n      0x00\n        /* \"#utility.yul\":3950:4038   */\n      mstore\n        /* \"#utility.yul\":4057:4061   */\n      0x11\n        /* \"#utility.yul\":4054:4055   */\n      0x04\n        /* \"#utility.yul\":4047:4062   */\n      mstore\n        /* \"#utility.yul\":4081:4085   */\n      0x24\n        /* \"#utility.yul\":4078:4079   */\n      0x00\n        /* \"#utility.yul\":4071:4086   */\n      revert\n        /* \"#utility.yul\":4098:4289   */\n    tag_59:\n        /* \"#utility.yul\":4138:4141   */\n      0x00\n        /* \"#utility.yul\":4157:4177   */\n      tag_132\n        /* \"#utility.yul\":4175:4176   */\n      dup3\n        /* \"#utility.yul\":4157:4177   */\n      tag_69\n      jump\t// in\n    tag_132:\n        /* \"#utility.yul\":4152:4177   */\n      swap2\n      pop\n        /* \"#utility.yul\":4191:4211   */\n      tag_133\n        /* \"#utility.yul\":4209:4210   */\n      dup4\n        /* \"#utility.yul\":4191:4211   */\n      tag_69\n      jump\t// in\n    tag_133:\n        /* \"#utility.yul\":4186:4211   */\n      swap3\n      pop\n        /* \"#utility.yul\":4234:4235   */\n      dup3\n        /* \"#utility.yul\":4231:4232   */\n      dup3\n        /* \"#utility.yul\":4227:4236   */\n      add\n        /* \"#utility.yul\":4220:4236   */\n      swap1\n      pop\n        /* \"#utility.yul\":4255:4258   */\n      dup1\n        /* \"#utility.yul\":4252:4253   */\n      dup3\n        /* \"#utility.yul\":4249:4259   */\n      gt\n        /* \"#utility.yul\":4246:4282   */\n      iszero\n      tag_134\n      jumpi\n        /* \"#utility.yul\":4262:4280   */\n      tag_135\n      tag_78\n      jump\t// in\n    tag_135:\n        /* \"#utility.yul\":4246:4282   */\n    tag_134:\n        /* \"#utility.yul\":4098:4289   */\n      swap3\n      swap2\n      pop\n      pop\n      jump\t// out\n\n    auxdata: 0xa26469706673582212202d1ef438f03334f4dd8e87605c04ac37d2f2cfa0096725a870542c5c3689f61a64736f6c634300081e0033\n}\n",
				"bytecode": {
					"linkReferences": {},
					"object": "608060405260ff5f5f6101000a81548160ff021916908360ff1602179055507fffffffffffffffffffffffffffffffffffffffffffffffffffffffffffffffff600155348015604c575f5ffd5b506104f78061005a5f395ff3fe608060405234801561000f575f5ffd5b50600436106100a7575f3560e01c806391f5de381161006f57806391f5de381461014f578063a0ba56dc1461016d578063bb6522bf1461018b578063da97736b146101a7578063f06ecb3a146101c3578063f8b39cf1146101e1576100a7565b80631bbd7ad0146100ab57806350f12114146100c7578063623b356f146100e357806364017e2c14610101578063893fc5551461011f575b5f5ffd5b6100c560048036038101906100c091906102c4565b6101ff565b005b6100e160048036038101906100dc9190610322565b61021c565b005b6100eb610232565b6040516100f89190610378565b60405180910390f35b610109610238565b6040516101169190610378565b60405180910390f35b610139600480360381019061013491906103bb565b61023e565b6040516101469190610378565b60405180910390f35b610157610247565b60405161016491906103f5565b60405180910390f35b61017561024d565b604051610182919061041d565b60405180910390f35b6101a560048036038101906101a091906103bb565b61025f565b005b6101c160048036038101906101bc9190610436565b610269565b005b6101cb610273565b6040516101d8919061041d565b60405180910390f35b6101e9610284565b6040516101f691906103f5565b60405180910390f35b805f60016101000a81548160ff021916908360ff16021790555050565b8082610228919061048e565b6004819055505050565b60035481565b60015481565b5f819050919050565b60025481565b5f60019054906101000a900460ff1681565b8060038190555050565b8060028190555050565b5f5f9054906101000a900460ff1681565b60045481565b5f5ffd5b5f60ff82169050919050565b6102a38161028e565b81146102ad575f5ffd5b50565b5f813590506102be8161029a565b92915050565b5f602082840312156102d9576102d861028a565b5b5f6102e6848285016102b0565b91505092915050565b5f819050919050565b610301816102ef565b811461030b575f5ffd5b50565b5f8135905061031c816102f8565b92915050565b5f5f604083850312156103385761033761028a565b5b5f6103458582860161030e565b92505060206103568582860161030e565b9150509250929050565b5f819050919050565b61037281610360565b82525050565b5f60208201905061038b5f830184610369565b92915050565b61039a81610360565b81146103a4575f5ffd5b50565b5f813590506103b581610391565b92915050565b5f602082840312156103d0576103cf61028a565b5b5f6103dd848285016103a7565b91505092915050565b6103ef816102ef565b82525050565b5f6020820190506104085f8301846103e6565b92915050565b6104178161028e565b82525050565b5f6020820190506104305f83018461040e565b92915050565b5f6020828403121561044b5761044a61028a565b5b5f6104588482850161030e565b91505092915050565b7f4e487b71000000000000000000000000000000000000000000000000000000005f52601160045260245ffd5b5f610498826102ef565b91506104a3836102ef565b92508282019050808211156104bb576104ba610461565b5b9291505056fea26469706673582212202d1ef438f03334f4dd8e87605c04ac37d2f2cfa0096725a870542c5c3689f61a64736f6c634300081e0033",
					"opcodes": "PUSH1 0x80 PUSH1 0x40 MSTORE PUSH1 0xFF PUSH0 PUSH0 PUSH2 0x100 EXP DUP2 SLOAD DUP2 PUSH1 0xFF MUL NOT AND SWAP1 DUP4 PUSH1 0xFF AND MUL OR SWAP1 SSTORE POP PUSH32 0xFFFFFFFFFFFFFFFFFFFFFFFFFFFFFFFFFFFFFFFFFFFFFFFFFFFFFFFFFFFFFFFF PUSH1 0x1 SSTORE CALLVALUE DUP1 ISZERO PUSH1 0x4C JUMPI PUSH0 PUSH0 REVERT JUMPDEST POP PUSH2 0x4F7 DUP1 PUSH2 0x5A PUSH0 CODECOPY PUSH0 RETURN INVALID PUSH1 0x80 PUSH1 0x40 MSTORE CALLVALUE DUP1 ISZERO PUSH2 0xF JUMPI PUSH0 PUSH0 REVERT JUMPDEST POP PUSH1 0x4 CALLDATASIZE LT PUSH2 0xA7 JUMPI PUSH0 CALLDATALOAD PUSH1 0xE0 SHR DUP1 PUSH4 0x91F5DE38 GT PUSH2 0x6F JUMPI DUP1 PUSH4 0x91F5DE38 EQ PUSH2 0x14F JUMPI DUP1 PUSH4 0xA0BA56DC EQ PUSH2 0x16D JUMPI DUP1 PUSH4 0xBB6522BF EQ PUSH2 0x18B JUMPI DUP1 PUSH4 0xDA97736B EQ PUSH2 0x1A7 JUMPI DUP1 PUSH4 0xF06ECB3A EQ PUSH2 0x1C3 JUMPI DUP1 PUSH4 0xF8B39CF1 EQ PUSH2 0x1E1 JUMPI PUSH2 0xA7 JUMP JUMPDEST DUP1 PUSH4 0x1BBD7AD0 EQ PUSH2 0xAB JUMPI DUP1 PUSH4 0x50F12114 EQ PUSH2 0xC7 JUMPI DUP1 PUSH4 0x623B356F EQ PUSH2 0xE3 JUMPI DUP1 PUSH4 0x64017E2C EQ PUSH2 0x101 JUMPI DUP1 PUSH4 0x893FC555 EQ PUSH2 0x11F JUMPI JUMPDEST PUSH0 PUSH0 REVERT JUMPDEST PUSH2 0xC5 PUSH1 0x4 DUP1 CALLDATASIZE SUB DUP2 ADD SWAP1 PUSH2 0xC0 SWAP2 SWAP1 PUSH2 0x2C4 JUMP JUMPDEST PUSH2 0x1FF JUMP JUMPDEST STOP JUMPDEST PUSH2 0xE1 PUSH1 0x4 DUP1 CALLDATASIZE SUB DUP2 ADD SWAP1 PUSH2 0xDC SWAP2 SWAP1 PUSH2 0x322 JUMP JUMPDEST PUSH2 0x21C JUMP JUMPDEST STOP JUMPDEST PUSH2 0xEB PUSH2 0x232 JUMP JUMPDEST PUSH1 0x40 MLOAD PUSH2 0xF8 SWAP2 SWAP1 PUSH2 0x378 JUMP JUMPDEST PUSH1 0x40 MLOAD DUP1 SWAP2 SUB SWAP1 RETURN JUMPDEST PUSH2 0x109 PUSH2 0x238 JUMP JUMPDEST PUSH1 0x40 MLOAD PUSH2 0x116 SWAP2 SWAP1 PUSH2 0x378 JUMP JUMPDEST PUSH1 0x40 MLOAD DUP1 SWAP2 SUB SWAP1 RETURN JUMPDEST PUSH2 0x139 PUSH1 0x4 DUP1 CALLDATASIZE SUB DUP2 ADD SWAP1 PUSH2 0x134 SWAP2 SWAP1 PUSH2 0x3BB JUMP JUMPDEST PUSH2 0x23E JUMP JUMPDEST PUSH1 0x40 MLOAD PUSH2 0x146 SWAP2 SWAP1 PUSH2 0x378 JUMP JUMPDEST PUSH1 0x40 MLOAD DUP1 SWAP2 SUB SWAP1 RETURN JUMPDEST PUSH2 0x157 PUSH2 0x247 JUMP JUMPDEST PUSH1 0x40 MLOAD PUSH2 0x164 SWAP2 SWAP1 PUSH2 0x3F5 JUMP JUMPDEST PUSH1 0x40 MLOAD DUP1 SWAP2 SUB SWAP1 RETURN JUMPDEST PUSH2 0x175 PUSH2 0x24D JUMP JUMPDEST PUSH1 0x40 MLOAD PUSH2 0x182 SWAP2 SWAP1 PUSH2 0x41D JUMP JUMPDEST PUSH1 0x40 MLOAD DUP1 SWAP2 SUB SWAP1 RETURN JUMPDEST PUSH2 0x1A5 PUSH1 0x4 DUP1 CALLDATASIZE SUB DUP2 ADD SWAP1 PUSH2 0x1A0 SWAP2 SWAP1 PUSH2 0x3BB JUMP JUMPDEST PUSH2 0x25F JUMP JUMPDEST STOP JUMPDEST PUSH2 0x1C1 PUSH1 0x4 DUP1 CALLDATASIZE SUB DUP2 ADD SWAP1 PUSH2 0x1BC SWAP2 SWAP1 PUSH2 0x436 JUMP JUMPDEST PUSH2 0x269 JUMP JUMPDEST STOP JUMPDEST PUSH2 0x1CB PUSH2 0x273 JUMP JUMPDEST PUSH1 0x40 MLOAD PUSH2 0x1D8 SWAP2 SWAP1 PUSH2 0x41D JUMP JUMPDEST PUSH1 0x40 MLOAD DUP1 SWAP2 SUB SWAP1 RETURN JUMPDEST PUSH2 0x1E9 PUSH2 0x284 JUMP JUMPDEST PUSH1 0x40 MLOAD PUSH2 0x1F6 SWAP2 SWAP1 PUSH2 0x3F5 JUMP JUMPDEST PUSH1 0x40 MLOAD DUP1 SWAP2 SUB SWAP1 RETURN JUMPDEST DUP1 PUSH0 PUSH1 0x1 PUSH2 0x100 EXP DUP2 SLOAD DUP2 PUSH1 0xFF MUL NOT AND SWAP1 DUP4 PUSH1 0xFF AND MUL OR SWAP1 SSTORE POP POP JUMP JUMPDEST DUP1 DUP3 PUSH2 0x228 SWAP2 SWAP1 PUSH2 0x48E JUMP JUMPDEST PUSH1 0x4 DUP2 SWAP1 SSTORE POP POP POP JUMP JUMPDEST PUSH1 0x3 SLOAD DUP2 JUMP JUMPDEST PUSH1 0x1 SLOAD DUP2 JUMP JUMPDEST PUSH0 DUP2 SWAP1 POP SWAP2 SWAP1 POP JUMP JUMPDEST PUSH1 0x2 SLOAD DUP2 JUMP JUMPDEST PUSH0 PUSH1 0x1 SWAP1 SLOAD SWAP1 PUSH2 0x100 EXP SWAP1 DIV PUSH1 0xFF AND DUP2 JUMP JUMPDEST DUP1 PUSH1 0x3 DUP2 SWAP1 SSTORE POP POP JUMP JUMPDEST DUP1 PUSH1 0x2 DUP2 SWAP1 SSTORE POP POP JUMP JUMPDEST PUSH0 PUSH0 SWAP1 SLOAD SWAP1 PUSH2 0x100 EXP SWAP1 DIV PUSH1 0xFF AND DUP2 JUMP JUMPDEST PUSH1 0x4 SLOAD DUP2 JUMP JUMPDEST PUSH0 PUSH0 REVERT JUMPDEST PUSH0 PUSH1 0xFF DUP3 AND SWAP1 POP SWAP2 SWAP1 POP JUMP JUMPDEST PUSH2 0x2A3 DUP2 PUSH2 0x28E JUMP JUMPDEST DUP2 EQ PUSH2 0x2AD JUMPI PUSH0 PUSH0 REVERT JUMPDEST POP JUMP JUMPDEST PUSH0 DUP2 CALLDATALOAD SWAP1 POP PUSH2 0x2BE DUP2 PUSH2 0x29A JUMP JUMPDEST SWAP3 SWAP2 POP POP JUMP JUMPDEST PUSH0 PUSH1 0x20 DUP3 DUP5 SUB SLT ISZERO PUSH2 0x2D9 JUMPI PUSH2 0x2D8 PUSH2 0x28A JUMP JUMPDEST JUMPDEST PUSH0 PUSH2 0x2E6 DUP5 DUP3 DUP6 ADD PUSH2 0x2B0 JUMP JUMPDEST SWAP2 POP POP SWAP3 SWAP2 POP POP JUMP JUMPDEST PUSH0 DUP2 SWAP1 POP SWAP2 SWAP1 POP JUMP JUMPDEST PUSH2 0x301 DUP2 PUSH2 0x2EF JUMP JUMPDEST DUP2 EQ PUSH2 0x30B JUMPI PUSH0 PUSH0 REVERT JUMPDEST POP JUMP JUMPDEST PUSH0 DUP2 CALLDATALOAD SWAP1 POP PUSH2 0x31C DUP2 PUSH2 0x2F8 JUMP JUMPDEST SWAP3 SWAP2 POP POP JUMP JUMPDEST PUSH0 PUSH0 PUSH1 0x40 DUP4 DUP6 SUB SLT ISZERO PUSH2 0x338 JUMPI PUSH2 0x337 PUSH2 0x28A JUMP JUMPDEST JUMPDEST PUSH0 PUSH2 0x345 DUP6 DUP3 DUP7 ADD PUSH2 0x30E JUMP JUMPDEST SWAP3 POP POP PUSH1 0x20 PUSH2 0x356 DUP6 DUP3 DUP7 ADD PUSH2 0x30E JUMP JUMPDEST SWAP2 POP POP SWAP3 POP SWAP3 SWAP1 POP JUMP JUMPDEST PUSH0 DUP2 SWAP1 POP SWAP2 SWAP1 POP JUMP JUMPDEST PUSH2 0x372 DUP2 PUSH2 0x360 JUMP JUMPDEST DUP3 MSTORE POP POP JUMP JUMPDEST PUSH0 PUSH1 0x20 DUP3 ADD SWAP1 POP PUSH2 0x38B PUSH0 DUP4 ADD DUP5 PUSH2 0x369 JUMP JUMPDEST SWAP3 SWAP2 POP POP JUMP JUMPDEST PUSH2 0x39A DUP2 PUSH2 0x360 JUMP JUMPDEST DUP2 EQ PUSH2 0x3A4 JUMPI PUSH0 PUSH0 REVERT JUMPDEST POP JUMP JUMPDEST PUSH0 DUP2 CALLDATALOAD SWAP1 POP PUSH2 0x3B5 DUP2 PUSH2 0x391 JUMP JUMPDEST SWAP3 SWAP2 POP POP JUMP JUMPDEST PUSH0 PUSH1 0x20 DUP3 DUP5 SUB SLT ISZERO PUSH2 0x3D0 JUMPI PUSH2 0x3CF PUSH2 0x28A JUMP JUMPDEST JUMPDEST PUSH0 PUSH2 0x3DD DUP5 DUP3 DUP6 ADD PUSH2 0x3A7 JUMP JUMPDEST SWAP2 POP POP SWAP3 SWAP2 POP POP JUMP JUMPDEST PUSH2 0x3EF DUP2 PUSH2 0x2EF JUMP JUMPDEST DUP3 MSTORE POP POP JUMP JUMPDEST PUSH0 PUSH1 0x20 DUP3 ADD SWAP1 POP PUSH2 0x408 PUSH0 DUP4 ADD DUP5 PUSH2 0x3E6 JUMP JUMPDEST SWAP3 SWAP2 POP POP JUMP JUMPDEST PUSH2 0x417 DUP2 PUSH2 0x28E JUMP JUMPDEST DUP3 MSTORE POP POP JUMP JUMPDEST PUSH0 PUSH1 0x20 DUP3 ADD SWAP1 POP PUSH2 0x430 PUSH0 DUP4 ADD DUP5 PUSH2 0x40E JUMP JUMPDEST SWAP3 SWAP2 POP POP JUMP JUMPDEST PUSH0 PUSH1 0x20 DUP3 DUP5 SUB SLT ISZERO PUSH2 0x44B JUMPI PUSH2 0x44A PUSH2 0x28A JUMP JUMPDEST JUMPDEST PUSH0 PUSH2 0x458 DUP5 DUP3 DUP6 ADD PUSH2 0x30E JUMP JUMPDEST SWAP2 POP POP SWAP3 SWAP2 POP POP JUMP JUMPDEST PUSH32 0x4E487B7100000000000000000000000000000000000000000000000000000000 PUSH0 MSTORE PUSH1 0x11 PUSH1 0x4 MSTORE PUSH1 0x24 PUSH0 REVERT JUMPDEST PUSH0 PUSH2 0x498 DUP3 PUSH2 0x2EF JUMP JUMPDEST SWAP2 POP PUSH2 0x4A3 DUP4 PUSH2 0x2EF JUMP JUMPDEST SWAP3 POP DUP3 DUP3 ADD SWAP1 POP DUP1 DUP3 GT ISZERO PUSH2 0x4BB JUMPI PUSH2 0x4BA PUSH2 0x461 JUMP JUMPDEST JUMPDEST SWAP3 SWAP2 POP POP JUMP INVALID LOG2 PUSH5 0x6970667358 0x22 SLT KECCAK256 0x2D 0x1E DELEGATECALL CODESIZE CREATE CALLER CALLVALUE DELEGATECALL 0xDD DUP15 DUP8 PUSH1 0x5C DIV 0xAC CALLDATACOPY 0xD2 CALLCODE 0xCF LOG0 MULMOD PUSH8 0x25A870542C5C3689 0xF6 BYTE PUSH5 0x736F6C6343 STOP ADDMOD 0x1E STOP CALLER "
				},
				"gasEstimates": {
					"creation": {
						"codeDepositCost": "254200",
						"executionCost": "46663",
						"totalCost": "300863"
					},
					"external": {
						"inseriMaxuint(uint8)": "24724",
						"inserirNumero(uint256)": "22581",
						"inserirNumeroNegativo(int256)": "22559",
						"maxPermit()": "2553",
						"negativo()": "2492",
						"numero()": "2425",
						"numeroNegativo()": "2470",
						"resultadoDaSoma()": "2535",
						"somarValores(uint256,uint256)": "infinite",
						"testLimit()": "2538",
						"testeNegativo(int256)": "infinite"
					}
				},
				"methodIdentifiers": {
					"inseriMaxuint(uint8)": "1bbd7ad0",
					"inserirNumero(uint256)": "da97736b",
					"inserirNumeroNegativo(int256)": "bb6522bf",
					"maxPermit()": "f06ecb3a",
					"negativo()": "64017e2c",
					"numero()": "91f5de38",
					"numeroNegativo()": "623b356f",
					"resultadoDaSoma()": "f8b39cf1",
					"somarValores(uint256,uint256)": "50f12114",
					"testLimit()": "a0ba56dc",
					"testeNegativo(int256)": "893fc555"
				}
			},
			"storageLayout": {
				"storage": [
					{
						"astId": 4,
						"contract": "contracts/calculadora.sol:Exemplovariavel",
						"label": "maxPermit",
						"offset": 0,
						"slot": "0",
						"type": "t_uint8"
					},
					{
						"astId": 6,
						"contract": "contracts/calculadora.sol:Exemplovariavel",
						"label": "testLimit",
						"offset": 1,
						"slot": "0",
						"type": "t_uint8"
					},
					{
						"astId": 10,
						"contract": "contracts/calculadora.sol:Exemplovariavel",
						"label": "negativo",
						"offset": 0,
						"slot": "1",
						"type": "t_int256"
					},
					{
						"astId": 12,
						"contract": "contracts/calculadora.sol:Exemplovariavel",
						"label": "numero",
						"offset": 0,
						"slot": "2",
						"type": "t_uint256"
					},
					{
						"astId": 14,
						"contract": "contracts/calculadora.sol:Exemplovariavel",
						"label": "numeroNegativo",
						"offset": 0,
						"slot": "3",
						"type": "t_int256"
					},
					{
						"astId": 16,
						"contract": "contracts/calculadora.sol:Exemplovariavel",
						"label": "resultadoDaSoma",
						"offset": 0,
						"slot": "4",
						"type": "t_uint256"
					}
				],
				"types": {
					"t_int256": {
						"encoding": "inplace",
						"label": "int256",
						"numberOfBytes": "32"
					},
					"t_uint256": {
						"encoding": "inplace",
						"label": "uint256",
						"numberOfBytes": "32"
					},
					"t_uint8": {
						"encoding": "inplace",
						"label": "uint8",
						"numberOfBytes": "1"
					}
				}
			},
			"userdoc": {
				"kind": "user",
				"methods": {},
				"version": 1
			}
		}
	}
}