{
	"AulasNearX/Operadores.sol": {
		"Operadores": {
			"abi": [
				{
					"inputs": [
						{
							"internalType": "uint256",
							"name": "a",
							"type": "uint256"
						},
						{
							"internalType": "uint256",
							"name": "b",
							"type": "uint256"
						}
					],
					"name": "calculaMultiplicacao",
					"outputs": [
						{
							"internalType": "uint256",
							"name": "",
							"type": "uint256"
						}
					],
					"stateMutability": "pure",
					"type": "function"
				},
				{
					"inputs": [
						{
							"internalType": "uint256",
							"name": "a",
							"type": "uint256"
						},
						{
							"internalType": "uint256",
							"name": "b",
							"type": "uint256"
						}
					],
					"name": "calcularMedia",
					"outputs": [
						{
							"internalType": "uint256",
							"name": "",
							"type": "uint256"
						}
					],
					"stateMutability": "pure",
					"type": "function"
				},
				{
					"inputs": [
						{
							"internalType": "uint256",
							"name": "a",
							"type": "uint256"
						},
						{
							"internalType": "uint256",
							"name": "b",
							"type": "uint256"
						}
					],
					"name": "compararNumeros",
					"outputs": [
						{
							"internalType": "string",
							"name": "",
							"type": "string"
						}
					],
					"stateMutability": "pure",
					"type": "function"
				},
				{
					"inputs": [
						{
							"internalType": "bool",
							"name": "a",
							"type": "bool"
						},
						{
							"internalType": "bool",
							"name": "b",
							"type": "bool"
						}
					],
					"name": "testarE",
					"outputs": [
						{
							"internalType": "bool",
							"name": "",
							"type": "bool"
						}
					],
					"stateMutability": "pure",
					"type": "function"
				},
				{
					"inputs": [
						{
							"internalType": "bool",
							"name": "a",
							"type": "bool"
						},
						{
							"internalType": "bool",
							"name": "b",
							"type": "bool"
						}
					],
					"name": "testarOu",
					"outputs": [
						{
							"internalType": "bool",
							"name": "",
							"type": "bool"
						}
					],
					"stateMutability": "pure",
					"type": "function"
				}
			],
			"devdoc": {
				"kind": "dev",
				"methods": {},
				"version": 1
			},
			"evm": {
				"assembly": "    /* \"AulasNearX/Operadores.sol\":60:1452  contract Operadores {... */\n  mstore(0x40, 0x80)\n  callvalue\n  dup1\n  iszero\n  tag_1\n  jumpi\n  revert(0x00, 0x00)\ntag_1:\n  pop\n  dataSize(sub_0)\n  dup1\n  dataOffset(sub_0)\n  0x00\n  codecopy\n  0x00\n  return\nstop\n\nsub_0: assembly {\n        /* \"AulasNearX/Operadores.sol\":60:1452  contract Operadores {... */\n      mstore(0x40, 0x80)\n      callvalue\n      dup1\n      iszero\n      tag_1\n      jumpi\n      revert(0x00, 0x00)\n    tag_1:\n      pop\n      jumpi(tag_2, lt(calldatasize, 0x04))\n      shr(0xe0, calldataload(0x00))\n      dup1\n      0x23d88c77\n      eq\n      tag_3\n      jumpi\n      dup1\n      0x2729ca39\n      eq\n      tag_4\n      jumpi\n      dup1\n      0x2b4dc48d\n      eq\n      tag_5\n      jumpi\n      dup1\n      0x3b8a8b0b\n      eq\n      tag_6\n      jumpi\n      dup1\n      0xc299157b\n      eq\n      tag_7\n      jumpi\n    tag_2:\n      revert(0x00, 0x00)\n        /* \"AulasNearX/Operadores.sol\":605:735  function testarOu(bool a, bool b) public pure returns (bool) {... */\n    tag_3:\n      tag_8\n      0x04\n      dup1\n      calldatasize\n      sub\n      dup2\n      add\n      swap1\n      tag_9\n      swap2\n      swap1\n      tag_10\n      jump\t// in\n    tag_9:\n      tag_11\n      jump\t// in\n    tag_8:\n      mload(0x40)\n      tag_12\n      swap2\n      swap1\n      tag_13\n      jump\t// in\n    tag_12:\n      mload(0x40)\n      dup1\n      swap2\n      sub\n      swap1\n      return\n        /* \"AulasNearX/Operadores.sol\":801:893  function testarE(bool a, bool b) public pure returns (bool) {... */\n    tag_4:\n      tag_14\n      0x04\n      dup1\n      calldatasize\n      sub\n      dup2\n      add\n      swap1\n      tag_15\n      swap2\n      swap1\n      tag_10\n      jump\t// in\n    tag_15:\n      tag_16\n      jump\t// in\n    tag_14:\n      mload(0x40)\n      tag_17\n      swap2\n      swap1\n      tag_13\n      jump\t// in\n    tag_17:\n      mload(0x40)\n      dup1\n      swap2\n      sub\n      swap1\n      return\n        /* \"AulasNearX/Operadores.sol\":335:489  function calculaMultiplicacao(uint256 a, uint256 b) public pure returns (uint256) {... */\n    tag_5:\n      tag_18\n      0x04\n      dup1\n      calldatasize\n      sub\n      dup2\n      add\n      swap1\n      tag_19\n      swap2\n      swap1\n      tag_20\n      jump\t// in\n    tag_19:\n      tag_21\n      jump\t// in\n    tag_18:\n      mload(0x40)\n      tag_22\n      swap2\n      swap1\n      tag_23\n      jump\t// in\n    tag_22:\n      mload(0x40)\n      dup1\n      swap2\n      sub\n      swap1\n      return\n        /* \"AulasNearX/Operadores.sol\":997:1449  function compararNumeros(uint256 a, uint256 b) public pure returns (string memory) {... */\n    tag_6:\n      tag_24\n      0x04\n      dup1\n      calldatasize\n      sub\n      dup2\n      add\n      swap1\n      tag_25\n      swap2\n      swap1\n      tag_20\n      jump\t// in\n    tag_25:\n      tag_26\n      jump\t// in\n    tag_24:\n      mload(0x40)\n      tag_27\n      swap2\n      swap1\n      tag_28\n      jump\t// in\n    tag_27:\n      mload(0x40)\n      dup1\n      swap2\n      sub\n      swap1\n      return\n        /* \"AulasNearX/Operadores.sol\":147:291  function calcularMedia(uint256 a, uint256 b) public pure returns (uint256) {... */\n    tag_7:\n      tag_29\n      0x04\n      dup1\n      calldatasize\n      sub\n      dup2\n      add\n      swap1\n      tag_30\n      swap2\n      swap1\n      tag_20\n      jump\t// in\n    tag_30:\n      tag_31\n      jump\t// in\n    tag_29:\n      mload(0x40)\n      tag_32\n      swap2\n      swap1\n      tag_23\n      jump\t// in\n    tag_32:\n      mload(0x40)\n      dup1\n      swap2\n      sub\n      swap1\n      return\n        /* \"AulasNearX/Operadores.sol\":605:735  function testarOu(bool a, bool b) public pure returns (bool) {... */\n    tag_11:\n        /* \"AulasNearX/Operadores.sol\":660:664  bool */\n      0x00\n        /* \"AulasNearX/Operadores.sol\":677:691  bool resultado */\n      0x00\n        /* \"AulasNearX/Operadores.sol\":694:695  a */\n      dup4\n        /* \"AulasNearX/Operadores.sol\":694:700  a || b */\n      dup1\n      tag_34\n      jumpi\n      pop\n        /* \"AulasNearX/Operadores.sol\":699:700  b */\n      dup3\n        /* \"AulasNearX/Operadores.sol\":694:700  a || b */\n    tag_34:\n        /* \"AulasNearX/Operadores.sol\":677:700  bool resultado = a || b */\n      swap1\n      pop\n        /* \"AulasNearX/Operadores.sol\":718:727  resultado */\n      dup1\n        /* \"AulasNearX/Operadores.sol\":711:727  return resultado */\n      swap2\n      pop\n      pop\n        /* \"AulasNearX/Operadores.sol\":605:735  function testarOu(bool a, bool b) public pure returns (bool) {... */\n      swap3\n      swap2\n      pop\n      pop\n      jump\t// out\n        /* \"AulasNearX/Operadores.sol\":801:893  function testarE(bool a, bool b) public pure returns (bool) {... */\n    tag_16:\n        /* \"AulasNearX/Operadores.sol\":855:859  bool */\n      0x00\n        /* \"AulasNearX/Operadores.sol\":879:880  a */\n      dup3\n        /* \"AulasNearX/Operadores.sol\":879:885  a && b */\n      dup1\n      iszero\n      tag_36\n      jumpi\n      pop\n        /* \"AulasNearX/Operadores.sol\":884:885  b */\n      dup2\n        /* \"AulasNearX/Operadores.sol\":879:885  a && b */\n    tag_36:\n        /* \"AulasNearX/Operadores.sol\":872:885  return a && b */\n      swap1\n      pop\n        /* \"AulasNearX/Operadores.sol\":801:893  function testarE(bool a, bool b) public pure returns (bool) {... */\n      swap3\n      swap2\n      pop\n      pop\n      jump\t// out\n        /* \"AulasNearX/Operadores.sol\":335:489  function calculaMultiplicacao(uint256 a, uint256 b) public pure returns (uint256) {... */\n    tag_21:\n        /* \"AulasNearX/Operadores.sol\":408:415  uint256 */\n      0x00\n        /* \"AulasNearX/Operadores.sol\":428:445  uint256 resultado */\n      0x00\n        /* \"AulasNearX/Operadores.sol\":452:453  b */\n      dup3\n        /* \"AulasNearX/Operadores.sol\":448:449  a */\n      dup5\n        /* \"AulasNearX/Operadores.sol\":448:453  a * b */\n      tag_38\n      swap2\n      swap1\n      tag_39\n      jump\t// in\n    tag_38:\n        /* \"AulasNearX/Operadores.sol\":428:453  uint256 resultado = a * b */\n      swap1\n      pop\n        /* \"AulasNearX/Operadores.sol\":472:481  resultado */\n      dup1\n        /* \"AulasNearX/Operadores.sol\":465:481  return resultado */\n      swap2\n      pop\n      pop\n        /* \"AulasNearX/Operadores.sol\":335:489  function calculaMultiplicacao(uint256 a, uint256 b) public pure returns (uint256) {... */\n      swap3\n      swap2\n      pop\n      pop\n      jump\t// out\n        /* \"AulasNearX/Operadores.sol\":997:1449  function compararNumeros(uint256 a, uint256 b) public pure returns (string memory) {... */\n    tag_26:\n        /* \"AulasNearX/Operadores.sol\":1065:1078  string memory */\n      0x60\n        /* \"AulasNearX/Operadores.sol\":1153:1154  b */\n      dup2\n        /* \"AulasNearX/Operadores.sol\":1149:1150  a */\n      dup4\n        /* \"AulasNearX/Operadores.sol\":1149:1154  a > b */\n      gt\n        /* \"AulasNearX/Operadores.sol\":1145:1442  if (a > b) {... */\n      iszero\n      tag_41\n      jumpi\n        /* \"AulasNearX/Operadores.sol\":1171:1188  return \"A ganhou\" */\n      mload(0x40)\n      dup1\n      0x40\n      add\n      0x40\n      mstore\n      dup1\n      0x08\n      dup2\n      mstore\n      0x20\n      add\n      0x412067616e686f75000000000000000000000000000000000000000000000000\n      dup2\n      mstore\n      pop\n      swap1\n      pop\n      jump(tag_40)\n        /* \"AulasNearX/Operadores.sol\":1145:1442  if (a > b) {... */\n    tag_41:\n        /* \"AulasNearX/Operadores.sol\":1276:1277  b */\n      dup2\n        /* \"AulasNearX/Operadores.sol\":1272:1273  a */\n      dup4\n        /* \"AulasNearX/Operadores.sol\":1272:1277  a < b */\n      lt\n        /* \"AulasNearX/Operadores.sol\":1268:1442  if (a < b) {... */\n      iszero\n      tag_43\n      jumpi\n        /* \"AulasNearX/Operadores.sol\":1294:1311  return \"B ganhou\" */\n      mload(0x40)\n      dup1\n      0x40\n      add\n      0x40\n      mstore\n      dup1\n      0x08\n      dup2\n      mstore\n      0x20\n      add\n      0x422067616e686f75000000000000000000000000000000000000000000000000\n      dup2\n      mstore\n      pop\n      swap1\n      pop\n      jump(tag_40)\n        /* \"AulasNearX/Operadores.sol\":1268:1442  if (a < b) {... */\n    tag_43:\n        /* \"AulasNearX/Operadores.sol\":1415:1430  return \"Empate\" */\n      mload(0x40)\n      dup1\n      0x40\n      add\n      0x40\n      mstore\n      dup1\n      0x06\n      dup2\n      mstore\n      0x20\n      add\n      0x456d706174650000000000000000000000000000000000000000000000000000\n      dup2\n      mstore\n      pop\n      swap1\n      pop\n        /* \"AulasNearX/Operadores.sol\":997:1449  function compararNumeros(uint256 a, uint256 b) public pure returns (string memory) {... */\n    tag_40:\n      swap3\n      swap2\n      pop\n      pop\n      jump\t// out\n        /* \"AulasNearX/Operadores.sol\":147:291  function calcularMedia(uint256 a, uint256 b) public pure returns (uint256) {... */\n    tag_31:\n        /* \"AulasNearX/Operadores.sol\":213:220  uint256 */\n      0x00\n        /* \"AulasNearX/Operadores.sol\":233:246  uint256 media */\n      0x00\n        /* \"AulasNearX/Operadores.sol\":259:260  2 */\n      0x02\n        /* \"AulasNearX/Operadores.sol\":254:255  b */\n      dup4\n        /* \"AulasNearX/Operadores.sol\":250:251  a */\n      dup6\n        /* \"AulasNearX/Operadores.sol\":250:255  a + b */\n      tag_46\n      swap2\n      swap1\n      tag_47\n      jump\t// in\n    tag_46:\n        /* \"AulasNearX/Operadores.sol\":249:260  (a + b) / 2 */\n      tag_48\n      swap2\n      swap1\n      tag_49\n      jump\t// in\n    tag_48:\n        /* \"AulasNearX/Operadores.sol\":233:260  uint256 media = (a + b) / 2 */\n      swap1\n      pop\n        /* \"AulasNearX/Operadores.sol\":278:283  media */\n      dup1\n        /* \"AulasNearX/Operadores.sol\":271:283  return media */\n      swap2\n      pop\n      pop\n        /* \"AulasNearX/Operadores.sol\":147:291  function calcularMedia(uint256 a, uint256 b) public pure returns (uint256) {... */\n      swap3\n      swap2\n      pop\n      pop\n      jump\t// out\n        /* \"#utility.yul\":88:205   */\n    tag_51:\n        /* \"#utility.yul\":197:198   */\n      0x00\n        /* \"#utility.yul\":194:195   */\n      0x00\n        /* \"#utility.yul\":187:199   */\n      revert\n        /* \"#utility.yul\":334:424   */\n    tag_53:\n        /* \"#utility.yul\":368:375   */\n      0x00\n        /* \"#utility.yul\":411:416   */\n      dup2\n        /* \"#utility.yul\":404:417   */\n      iszero\n        /* \"#utility.yul\":397:418   */\n      iszero\n        /* \"#utility.yul\":386:418   */\n      swap1\n      pop\n        /* \"#utility.yul\":334:424   */\n      swap2\n      swap1\n      pop\n      jump\t// out\n        /* \"#utility.yul\":430:546   */\n    tag_54:\n        /* \"#utility.yul\":500:521   */\n      tag_74\n        /* \"#utility.yul\":515:520   */\n      dup2\n        /* \"#utility.yul\":500:521   */\n      tag_53\n      jump\t// in\n    tag_74:\n        /* \"#utility.yul\":493:498   */\n      dup2\n        /* \"#utility.yul\":490:522   */\n      eq\n        /* \"#utility.yul\":480:540   */\n      tag_75\n      jumpi\n        /* \"#utility.yul\":536:537   */\n      0x00\n        /* \"#utility.yul\":533:534   */\n      0x00\n        /* \"#utility.yul\":526:538   */\n      revert\n        /* \"#utility.yul\":480:540   */\n    tag_75:\n        /* \"#utility.yul\":430:546   */\n      pop\n      jump\t// out\n        /* \"#utility.yul\":552:685   */\n    tag_55:\n        /* \"#utility.yul\":595:600   */\n      0x00\n        /* \"#utility.yul\":633:639   */\n      dup2\n        /* \"#utility.yul\":620:640   */\n      calldataload\n        /* \"#utility.yul\":611:640   */\n      swap1\n      pop\n        /* \"#utility.yul\":649:679   */\n      tag_77\n        /* \"#utility.yul\":673:678   */\n      dup2\n        /* \"#utility.yul\":649:679   */\n      tag_54\n      jump\t// in\n    tag_77:\n        /* \"#utility.yul\":552:685   */\n      swap3\n      swap2\n      pop\n      pop\n      jump\t// out\n        /* \"#utility.yul\":691:1153   */\n    tag_10:\n        /* \"#utility.yul\":753:759   */\n      0x00\n        /* \"#utility.yul\":761:767   */\n      0x00\n        /* \"#utility.yul\":810:812   */\n      0x40\n        /* \"#utility.yul\":798:807   */\n      dup4\n        /* \"#utility.yul\":789:796   */\n      dup6\n        /* \"#utility.yul\":785:808   */\n      sub\n        /* \"#utility.yul\":781:813   */\n      slt\n        /* \"#utility.yul\":778:897   */\n      iszero\n      tag_79\n      jumpi\n        /* \"#utility.yul\":816:895   */\n      tag_80\n      tag_51\n      jump\t// in\n    tag_80:\n        /* \"#utility.yul\":778:897   */\n    tag_79:\n        /* \"#utility.yul\":936:937   */\n      0x00\n        /* \"#utility.yul\":961:1011   */\n      tag_81\n        /* \"#utility.yul\":1003:1010   */\n      dup6\n        /* \"#utility.yul\":994:1000   */\n      dup3\n        /* \"#utility.yul\":983:992   */\n      dup7\n        /* \"#utility.yul\":979:1001   */\n      add\n        /* \"#utility.yul\":961:1011   */\n      tag_55\n      jump\t// in\n    tag_81:\n        /* \"#utility.yul\":951:1011   */\n      swap3\n      pop\n        /* \"#utility.yul\":907:1021   */\n      pop\n        /* \"#utility.yul\":1060:1062   */\n      0x20\n        /* \"#utility.yul\":1086:1136   */\n      tag_82\n        /* \"#utility.yul\":1128:1135   */\n      dup6\n        /* \"#utility.yul\":1119:1125   */\n      dup3\n        /* \"#utility.yul\":1108:1117   */\n      dup7\n        /* \"#utility.yul\":1104:1126   */\n      add\n        /* \"#utility.yul\":1086:1136   */\n      tag_55\n      jump\t// in\n    tag_82:\n        /* \"#utility.yul\":1076:1136   */\n      swap2\n      pop\n        /* \"#utility.yul\":1031:1146   */\n      pop\n        /* \"#utility.yul\":691:1153   */\n      swap3\n      pop\n      swap3\n      swap1\n      pop\n      jump\t// out\n        /* \"#utility.yul\":1159:1268   */\n    tag_56:\n        /* \"#utility.yul\":1240:1261   */\n      tag_84\n        /* \"#utility.yul\":1255:1260   */\n      dup2\n        /* \"#utility.yul\":1240:1261   */\n      tag_53\n      jump\t// in\n    tag_84:\n        /* \"#utility.yul\":1235:1238   */\n      dup3\n        /* \"#utility.yul\":1228:1262   */\n      mstore\n        /* \"#utility.yul\":1159:1268   */\n      pop\n      pop\n      jump\t// out\n        /* \"#utility.yul\":1274:1484   */\n    tag_13:\n        /* \"#utility.yul\":1361:1365   */\n      0x00\n        /* \"#utility.yul\":1399:1401   */\n      0x20\n        /* \"#utility.yul\":1388:1397   */\n      dup3\n        /* \"#utility.yul\":1384:1402   */\n      add\n        /* \"#utility.yul\":1376:1402   */\n      swap1\n      pop\n        /* \"#utility.yul\":1412:1477   */\n      tag_86\n        /* \"#utility.yul\":1474:1475   */\n      0x00\n        /* \"#utility.yul\":1463:1472   */\n      dup4\n        /* \"#utility.yul\":1459:1476   */\n      add\n        /* \"#utility.yul\":1450:1456   */\n      dup5\n        /* \"#utility.yul\":1412:1477   */\n      tag_56\n      jump\t// in\n    tag_86:\n        /* \"#utility.yul\":1274:1484   */\n      swap3\n      swap2\n      pop\n      pop\n      jump\t// out\n        /* \"#utility.yul\":1490:1567   */\n    tag_57:\n        /* \"#utility.yul\":1527:1534   */\n      0x00\n        /* \"#utility.yul\":1556:1561   */\n      dup2\n        /* \"#utility.yul\":1545:1561   */\n      swap1\n      pop\n        /* \"#utility.yul\":1490:1567   */\n      swap2\n      swap1\n      pop\n      jump\t// out\n        /* \"#utility.yul\":1573:1695   */\n    tag_58:\n        /* \"#utility.yul\":1646:1670   */\n      tag_89\n        /* \"#utility.yul\":1664:1669   */\n      dup2\n        /* \"#utility.yul\":1646:1670   */\n      tag_57\n      jump\t// in\n    tag_89:\n        /* \"#utility.yul\":1639:1644   */\n      dup2\n        /* \"#utility.yul\":1636:1671   */\n      eq\n        /* \"#utility.yul\":1626:1689   */\n      tag_90\n      jumpi\n        /* \"#utility.yul\":1685:1686   */\n      0x00\n        /* \"#utility.yul\":1682:1683   */\n      0x00\n        /* \"#utility.yul\":1675:1687   */\n      revert\n        /* \"#utility.yul\":1626:1689   */\n    tag_90:\n        /* \"#utility.yul\":1573:1695   */\n      pop\n      jump\t// out\n        /* \"#utility.yul\":1701:1840   */\n    tag_59:\n        /* \"#utility.yul\":1747:1752   */\n      0x00\n        /* \"#utility.yul\":1785:1791   */\n      dup2\n        /* \"#utility.yul\":1772:1792   */\n      calldataload\n        /* \"#utility.yul\":1763:1792   */\n      swap1\n      pop\n        /* \"#utility.yul\":1801:1834   */\n      tag_92\n        /* \"#utility.yul\":1828:1833   */\n      dup2\n        /* \"#utility.yul\":1801:1834   */\n      tag_58\n      jump\t// in\n    tag_92:\n        /* \"#utility.yul\":1701:1840   */\n      swap3\n      swap2\n      pop\n      pop\n      jump\t// out\n        /* \"#utility.yul\":1846:2320   */\n    tag_20:\n        /* \"#utility.yul\":1914:1920   */\n      0x00\n        /* \"#utility.yul\":1922:1928   */\n      0x00\n        /* \"#utility.yul\":1971:1973   */\n      0x40\n        /* \"#utility.yul\":1959:1968   */\n      dup4\n        /* \"#utility.yul\":1950:1957   */\n      dup6\n        /* \"#utility.yul\":1946:1969   */\n      sub\n        /* \"#utility.yul\":1942:1974   */\n      slt\n        /* \"#utility.yul\":1939:2058   */\n      iszero\n      tag_94\n      jumpi\n        /* \"#utility.yul\":1977:2056   */\n      tag_95\n      tag_51\n      jump\t// in\n    tag_95:\n        /* \"#utility.yul\":1939:2058   */\n    tag_94:\n        /* \"#utility.yul\":2097:2098   */\n      0x00\n        /* \"#utility.yul\":2122:2175   */\n      tag_96\n        /* \"#utility.yul\":2167:2174   */\n      dup6\n        /* \"#utility.yul\":2158:2164   */\n      dup3\n        /* \"#utility.yul\":2147:2156   */\n      dup7\n        /* \"#utility.yul\":2143:2165   */\n      add\n        /* \"#utility.yul\":2122:2175   */\n      tag_59\n      jump\t// in\n    tag_96:\n        /* \"#utility.yul\":2112:2175   */\n      swap3\n      pop\n        /* \"#utility.yul\":2068:2185   */\n      pop\n        /* \"#utility.yul\":2224:2226   */\n      0x20\n        /* \"#utility.yul\":2250:2303   */\n      tag_97\n        /* \"#utility.yul\":2295:2302   */\n      dup6\n        /* \"#utility.yul\":2286:2292   */\n      dup3\n        /* \"#utility.yul\":2275:2284   */\n      dup7\n        /* \"#utility.yul\":2271:2293   */\n      add\n        /* \"#utility.yul\":2250:2303   */\n      tag_59\n      jump\t// in\n    tag_97:\n        /* \"#utility.yul\":2240:2303   */\n      swap2\n      pop\n        /* \"#utility.yul\":2195:2313   */\n      pop\n        /* \"#utility.yul\":1846:2320   */\n      swap3\n      pop\n      swap3\n      swap1\n      pop\n      jump\t// out\n        /* \"#utility.yul\":2326:2444   */\n    tag_60:\n        /* \"#utility.yul\":2413:2437   */\n      tag_99\n        /* \"#utility.yul\":2431:2436   */\n      dup2\n        /* \"#utility.yul\":2413:2437   */\n      tag_57\n      jump\t// in\n    tag_99:\n        /* \"#utility.yul\":2408:2411   */\n      dup3\n        /* \"#utility.yul\":2401:2438   */\n      mstore\n        /* \"#utility.yul\":2326:2444   */\n      pop\n      pop\n      jump\t// out\n        /* \"#utility.yul\":2450:2672   */\n    tag_23:\n        /* \"#utility.yul\":2543:2547   */\n      0x00\n        /* \"#utility.yul\":2581:2583   */\n      0x20\n        /* \"#utility.yul\":2570:2579   */\n      dup3\n        /* \"#utility.yul\":2566:2584   */\n      add\n        /* \"#utility.yul\":2558:2584   */\n      swap1\n      pop\n        /* \"#utility.yul\":2594:2665   */\n      tag_101\n        /* \"#utility.yul\":2662:2663   */\n      0x00\n        /* \"#utility.yul\":2651:2660   */\n      dup4\n        /* \"#utility.yul\":2647:2664   */\n      add\n        /* \"#utility.yul\":2638:2644   */\n      dup5\n        /* \"#utility.yul\":2594:2665   */\n      tag_60\n      jump\t// in\n    tag_101:\n        /* \"#utility.yul\":2450:2672   */\n      swap3\n      swap2\n      pop\n      pop\n      jump\t// out\n        /* \"#utility.yul\":2678:2777   */\n    tag_61:\n        /* \"#utility.yul\":2730:2736   */\n      0x00\n        /* \"#utility.yul\":2764:2769   */\n      dup2\n        /* \"#utility.yul\":2758:2770   */\n      mload\n        /* \"#utility.yul\":2748:2770   */\n      swap1\n      pop\n        /* \"#utility.yul\":2678:2777   */\n      swap2\n      swap1\n      pop\n      jump\t// out\n        /* \"#utility.yul\":2783:2952   */\n    tag_62:\n        /* \"#utility.yul\":2867:2878   */\n      0x00\n        /* \"#utility.yul\":2901:2907   */\n      dup3\n        /* \"#utility.yul\":2896:2899   */\n      dup3\n        /* \"#utility.yul\":2889:2908   */\n      mstore\n        /* \"#utility.yul\":2941:2945   */\n      0x20\n        /* \"#utility.yul\":2936:2939   */\n      dup3\n        /* \"#utility.yul\":2932:2946   */\n      add\n        /* \"#utility.yul\":2917:2946   */\n      swap1\n      pop\n        /* \"#utility.yul\":2783:2952   */\n      swap3\n      swap2\n      pop\n      pop\n      jump\t// out\n        /* \"#utility.yul\":2958:3097   */\n    tag_63:\n        /* \"#utility.yul\":3047:3053   */\n      dup3\n        /* \"#utility.yul\":3042:3045   */\n      dup2\n        /* \"#utility.yul\":3037:3040   */\n      dup4\n        /* \"#utility.yul\":3031:3054   */\n      mcopy\n        /* \"#utility.yul\":3088:3089   */\n      0x00\n        /* \"#utility.yul\":3079:3085   */\n      dup4\n        /* \"#utility.yul\":3074:3077   */\n      dup4\n        /* \"#utility.yul\":3070:3086   */\n      add\n        /* \"#utility.yul\":3063:3090   */\n      mstore\n        /* \"#utility.yul\":2958:3097   */\n      pop\n      pop\n      pop\n      jump\t// out\n        /* \"#utility.yul\":3103:3205   */\n    tag_64:\n        /* \"#utility.yul\":3144:3150   */\n      0x00\n        /* \"#utility.yul\":3195:3197   */\n      0x1f\n        /* \"#utility.yul\":3191:3198   */\n      not\n        /* \"#utility.yul\":3186:3188   */\n      0x1f\n        /* \"#utility.yul\":3179:3184   */\n      dup4\n        /* \"#utility.yul\":3175:3189   */\n      add\n        /* \"#utility.yul\":3171:3199   */\n      and\n        /* \"#utility.yul\":3161:3199   */\n      swap1\n      pop\n        /* \"#utility.yul\":3103:3205   */\n      swap2\n      swap1\n      pop\n      jump\t// out\n        /* \"#utility.yul\":3211:3588   */\n    tag_65:\n        /* \"#utility.yul\":3299:3302   */\n      0x00\n        /* \"#utility.yul\":3327:3366   */\n      tag_107\n        /* \"#utility.yul\":3360:3365   */\n      dup3\n        /* \"#utility.yul\":3327:3366   */\n      tag_61\n      jump\t// in\n    tag_107:\n        /* \"#utility.yul\":3382:3453   */\n      tag_108\n        /* \"#utility.yul\":3446:3452   */\n      dup2\n        /* \"#utility.yul\":3441:3444   */\n      dup6\n        /* \"#utility.yul\":3382:3453   */\n      tag_62\n      jump\t// in\n    tag_108:\n        /* \"#utility.yul\":3375:3453   */\n      swap4\n      pop\n        /* \"#utility.yul\":3462:3527   */\n      tag_109\n        /* \"#utility.yul\":3520:3526   */\n      dup2\n        /* \"#utility.yul\":3515:3518   */\n      dup6\n        /* \"#utility.yul\":3508:3512   */\n      0x20\n        /* \"#utility.yul\":3501:3506   */\n      dup7\n        /* \"#utility.yul\":3497:3513   */\n      add\n        /* \"#utility.yul\":3462:3527   */\n      tag_63\n      jump\t// in\n    tag_109:\n        /* \"#utility.yul\":3552:3581   */\n      tag_110\n        /* \"#utility.yul\":3574:3580   */\n      dup2\n        /* \"#utility.yul\":3552:3581   */\n      tag_64\n      jump\t// in\n    tag_110:\n        /* \"#utility.yul\":3547:3550   */\n      dup5\n        /* \"#utility.yul\":3543:3582   */\n      add\n        /* \"#utility.yul\":3536:3582   */\n      swap2\n      pop\n        /* \"#utility.yul\":3303:3588   */\n      pop\n        /* \"#utility.yul\":3211:3588   */\n      swap3\n      swap2\n      pop\n      pop\n      jump\t// out\n        /* \"#utility.yul\":3594:3907   */\n    tag_28:\n        /* \"#utility.yul\":3707:3711   */\n      0x00\n        /* \"#utility.yul\":3745:3747   */\n      0x20\n        /* \"#utility.yul\":3734:3743   */\n      dup3\n        /* \"#utility.yul\":3730:3748   */\n      add\n        /* \"#utility.yul\":3722:3748   */\n      swap1\n      pop\n        /* \"#utility.yul\":3794:3803   */\n      dup2\n        /* \"#utility.yul\":3788:3792   */\n      dup2\n        /* \"#utility.yul\":3784:3804   */\n      sub\n        /* \"#utility.yul\":3780:3781   */\n      0x00\n        /* \"#utility.yul\":3769:3778   */\n      dup4\n        /* \"#utility.yul\":3765:3782   */\n      add\n        /* \"#utility.yul\":3758:3805   */\n      mstore\n        /* \"#utility.yul\":3822:3900   */\n      tag_112\n        /* \"#utility.yul\":3895:3899   */\n      dup2\n        /* \"#utility.yul\":3886:3892   */\n      dup5\n        /* \"#utility.yul\":3822:3900   */\n      tag_65\n      jump\t// in\n    tag_112:\n        /* \"#utility.yul\":3814:3900   */\n      swap1\n      pop\n        /* \"#utility.yul\":3594:3907   */\n      swap3\n      swap2\n      pop\n      pop\n      jump\t// out\n        /* \"#utility.yul\":3913:4093   */\n    tag_66:\n        /* \"#utility.yul\":3961:4038   */\n      0x4e487b7100000000000000000000000000000000000000000000000000000000\n        /* \"#utility.yul\":3958:3959   */\n      0x00\n        /* \"#utility.yul\":3951:4039   */\n      mstore\n        /* \"#utility.yul\":4058:4062   */\n      0x11\n        /* \"#utility.yul\":4055:4056   */\n      0x04\n        /* \"#utility.yul\":4048:4063   */\n      mstore\n        /* \"#utility.yul\":4082:4086   */\n      0x24\n        /* \"#utility.yul\":4079:4080   */\n      0x00\n        /* \"#utility.yul\":4072:4087   */\n      revert\n        /* \"#utility.yul\":4099:4509   */\n    tag_39:\n        /* \"#utility.yul\":4139:4146   */\n      0x00\n        /* \"#utility.yul\":4162:4182   */\n      tag_115\n        /* \"#utility.yul\":4180:4181   */\n      dup3\n        /* \"#utility.yul\":4162:4182   */\n      tag_57\n      jump\t// in\n    tag_115:\n        /* \"#utility.yul\":4157:4182   */\n      swap2\n      pop\n        /* \"#utility.yul\":4196:4216   */\n      tag_116\n        /* \"#utility.yul\":4214:4215   */\n      dup4\n        /* \"#utility.yul\":4196:4216   */\n      tag_57\n      jump\t// in\n    tag_116:\n        /* \"#utility.yul\":4191:4216   */\n      swap3\n      pop\n        /* \"#utility.yul\":4251:4252   */\n      dup3\n        /* \"#utility.yul\":4248:4249   */\n      dup3\n        /* \"#utility.yul\":4244:4253   */\n      mul\n        /* \"#utility.yul\":4273:4303   */\n      tag_117\n        /* \"#utility.yul\":4291:4302   */\n      dup2\n        /* \"#utility.yul\":4273:4303   */\n      tag_57\n      jump\t// in\n    tag_117:\n        /* \"#utility.yul\":4262:4303   */\n      swap2\n      pop\n        /* \"#utility.yul\":4452:4453   */\n      dup3\n        /* \"#utility.yul\":4443:4450   */\n      dup3\n        /* \"#utility.yul\":4439:4454   */\n      div\n        /* \"#utility.yul\":4436:4437   */\n      dup5\n        /* \"#utility.yul\":4433:4455   */\n      eq\n        /* \"#utility.yul\":4413:4414   */\n      dup4\n        /* \"#utility.yul\":4406:4415   */\n      iszero\n        /* \"#utility.yul\":4386:4469   */\n      or\n        /* \"#utility.yul\":4363:4502   */\n      tag_118\n      jumpi\n        /* \"#utility.yul\":4482:4500   */\n      tag_119\n      tag_66\n      jump\t// in\n    tag_119:\n        /* \"#utility.yul\":4363:4502   */\n    tag_118:\n        /* \"#utility.yul\":4147:4509   */\n      pop\n        /* \"#utility.yul\":4099:4509   */\n      swap3\n      swap2\n      pop\n      pop\n      jump\t// out\n        /* \"#utility.yul\":4515:4706   */\n    tag_47:\n        /* \"#utility.yul\":4555:4558   */\n      0x00\n        /* \"#utility.yul\":4574:4594   */\n      tag_121\n        /* \"#utility.yul\":4592:4593   */\n      dup3\n        /* \"#utility.yul\":4574:4594   */\n      tag_57\n      jump\t// in\n    tag_121:\n        /* \"#utility.yul\":4569:4594   */\n      swap2\n      pop\n        /* \"#utility.yul\":4608:4628   */\n      tag_122\n        /* \"#utility.yul\":4626:4627   */\n      dup4\n        /* \"#utility.yul\":4608:4628   */\n      tag_57\n      jump\t// in\n    tag_122:\n        /* \"#utility.yul\":4603:4628   */\n      swap3\n      pop\n        /* \"#utility.yul\":4651:4652   */\n      dup3\n        /* \"#utility.yul\":4648:4649   */\n      dup3\n        /* \"#utility.yul\":4644:4653   */\n      add\n        /* \"#utility.yul\":4637:4653   */\n      swap1\n      pop\n        /* \"#utility.yul\":4672:4675   */\n      dup1\n        /* \"#utility.yul\":4669:4670   */\n      dup3\n        /* \"#utility.yul\":4666:4676   */\n      gt\n        /* \"#utility.yul\":4663:4699   */\n      iszero\n      tag_123\n      jumpi\n        /* \"#utility.yul\":4679:4697   */\n      tag_124\n      tag_66\n      jump\t// in\n    tag_124:\n        /* \"#utility.yul\":4663:4699   */\n    tag_123:\n        /* \"#utility.yul\":4515:4706   */\n      swap3\n      swap2\n      pop\n      pop\n      jump\t// out\n        /* \"#utility.yul\":4712:4892   */\n    tag_67:\n        /* \"#utility.yul\":4760:4837   */\n      0x4e487b7100000000000000000000000000000000000000000000000000000000\n        /* \"#utility.yul\":4757:4758   */\n      0x00\n        /* \"#utility.yul\":4750:4838   */\n      mstore\n        /* \"#utility.yul\":4857:4861   */\n      0x12\n        /* \"#utility.yul\":4854:4855   */\n      0x04\n        /* \"#utility.yul\":4847:4862   */\n      mstore\n        /* \"#utility.yul\":4881:4885   */\n      0x24\n        /* \"#utility.yul\":4878:4879   */\n      0x00\n        /* \"#utility.yul\":4871:4886   */\n      revert\n        /* \"#utility.yul\":4898:5083   */\n    tag_49:\n        /* \"#utility.yul\":4938:4939   */\n      0x00\n        /* \"#utility.yul\":4955:4975   */\n      tag_127\n        /* \"#utility.yul\":4973:4974   */\n      dup3\n        /* \"#utility.yul\":4955:4975   */\n      tag_57\n      jump\t// in\n    tag_127:\n        /* \"#utility.yul\":4950:4975   */\n      swap2\n      pop\n        /* \"#utility.yul\":4989:5009   */\n      tag_128\n        /* \"#utility.yul\":5007:5008   */\n      dup4\n        /* \"#utility.yul\":4989:5009   */\n      tag_57\n      jump\t// in\n    tag_128:\n        /* \"#utility.yul\":4984:5009   */\n      swap3\n      pop\n        /* \"#utility.yul\":5028:5029   */\n      dup3\n        /* \"#utility.yul\":5018:5053   */\n      tag_129\n      jumpi\n        /* \"#utility.yul\":5033:5051   */\n      tag_130\n      tag_67\n      jump\t// in\n    tag_130:\n        /* \"#utility.yul\":5018:5053   */\n    tag_129:\n        /* \"#utility.yul\":5075:5076   */\n      dup3\n        /* \"#utility.yul\":5072:5073   */\n      dup3\n        /* \"#utility.yul\":5068:5077   */\n      div\n        /* \"#utility.yul\":5063:5077   */\n      swap1\n      pop\n        /* \"#utility.yul\":4898:5083   */\n      swap3\n      swap2\n      pop\n      pop\n      jump\t// out\n\n    auxdata: 0xa2646970667358221220a4ebf311957bf84437e571e490f57e6d31cbb932cc3334e15cce88c463f218c364736f6c634300081e0033\n}\n",
				"bytecode": {
					"linkReferences": {},
					"object": "6080604052348015600e575f5ffd5b5061057a8061001c5f395ff3fe608060405234801561000f575f5ffd5b5060043610610055575f3560e01c806323d88c77146100595780632729ca39146100895780632b4dc48d146100b95780633b8a8b0b146100e9578063c299157b14610119575b5f5ffd5b610073600480360381019061006e91906102b7565b610149565b6040516100809190610304565b60405180910390f35b6100a3600480360381019061009e91906102b7565b610160565b6040516100b09190610304565b60405180910390f35b6100d360048036038101906100ce9190610350565b610173565b6040516100e0919061039d565b60405180910390f35b61010360048036038101906100fe9190610350565b61018d565b6040516101109190610426565b60405180910390f35b610133600480360381019061012e9190610350565b610258565b604051610140919061039d565b60405180910390f35b5f5f83806101545750825b90508091505092915050565b5f82801561016b5750815b905092915050565b5f5f82846101819190610473565b90508091505092915050565b6060818311156101d4576040518060400160405280600881526020017f412067616e686f750000000000000000000000000000000000000000000000008152509050610252565b81831015610219576040518060400160405280600881526020017f422067616e686f750000000000000000000000000000000000000000000000008152509050610252565b6040518060400160405280600681526020017f456d70617465000000000000000000000000000000000000000000000000000081525090505b92915050565b5f5f6002838561026891906104b4565b6102729190610514565b90508091505092915050565b5f5ffd5b5f8115159050919050565b61029681610282565b81146102a0575f5ffd5b50565b5f813590506102b18161028d565b92915050565b5f5f604083850312156102cd576102cc61027e565b5b5f6102da858286016102a3565b92505060206102eb858286016102a3565b9150509250929050565b6102fe81610282565b82525050565b5f6020820190506103175f8301846102f5565b92915050565b5f819050919050565b61032f8161031d565b8114610339575f5ffd5b50565b5f8135905061034a81610326565b92915050565b5f5f604083850312156103665761036561027e565b5b5f6103738582860161033c565b92505060206103848582860161033c565b9150509250929050565b6103978161031d565b82525050565b5f6020820190506103b05f83018461038e565b92915050565b5f81519050919050565b5f82825260208201905092915050565b8281835e5f83830152505050565b5f601f19601f8301169050919050565b5f6103f8826103b6565b61040281856103c0565b93506104128185602086016103d0565b61041b816103de565b840191505092915050565b5f6020820190508181035f83015261043e81846103ee565b905092915050565b7f4e487b71000000000000000000000000000000000000000000000000000000005f52601160045260245ffd5b5f61047d8261031d565b91506104888361031d565b92508282026104968161031d565b915082820484148315176104ad576104ac610446565b5b5092915050565b5f6104be8261031d565b91506104c98361031d565b92508282019050808211156104e1576104e0610446565b5b92915050565b7f4e487b71000000000000000000000000000000000000000000000000000000005f52601260045260245ffd5b5f61051e8261031d565b91506105298361031d565b925082610539576105386104e7565b5b82820490509291505056fea2646970667358221220a4ebf311957bf84437e571e490f57e6d31cbb932cc3334e15cce88c463f218c364736f6c634300081e0033",
					"opcodes": "PUSH1 0x80 PUSH1 0x40 MSTORE CALLVALUE DUP1 ISZERO PUSH1 0xE JUMPI PUSH0 PUSH0 REVERT JUMPDEST POP PUSH2 0x57A DUP1 PUSH2 0x1C PUSH0 CODECOPY PUSH0 RETURN INVALID PUSH1 0x80 PUSH1 0x40 MSTORE CALLVALUE DUP1 ISZERO PUSH2 0xF JUMPI PUSH0 PUSH0 REVERT JUMPDEST POP PUSH1 0x4 CALLDATASIZE LT PUSH2 0x55 JUMPI PUSH0 CALLDATALOAD PUSH1 0xE0 SHR DUP1 PUSH4 0x23D88C77 EQ PUSH2 0x59 JUMPI DUP1 PUSH4 0x2729CA39 EQ PUSH2 0x89 JUMPI DUP1 PUSH4 0x2B4DC48D EQ PUSH2 0xB9 JUMPI DUP1 PUSH4 0x3B8A8B0B EQ PUSH2 0xE9 JUMPI DUP1 PUSH4 0xC299157B EQ PUSH2 0x119 JUMPI JUMPDEST PUSH0 PUSH0 REVERT JUMPDEST PUSH2 0x73 PUSH1 0x4 DUP1 CALLDATASIZE SUB DUP2 ADD SWAP1 PUSH2 0x6E SWAP2 SWAP1 PUSH2 0x2B7 JUMP JUMPDEST PUSH2 0x149 JUMP JUMPDEST PUSH1 0x40 MLOAD PUSH2 0x80 SWAP2 SWAP1 PUSH2 0x304 JUMP JUMPDEST PUSH1 0x40 MLOAD DUP1 SWAP2 SUB SWAP1 RETURN JUMPDEST PUSH2 0xA3 PUSH1 0x4 DUP1 CALLDATASIZE SUB DUP2 ADD SWAP1 PUSH2 0x9E SWAP2 SWAP1 PUSH2 0x2B7 JUMP JUMPDEST PUSH2 0x160 JUMP JUMPDEST PUSH1 0x40 MLOAD PUSH2 0xB0 SWAP2 SWAP1 PUSH2 0x304 JUMP JUMPDEST PUSH1 0x40 MLOAD DUP1 SWAP2 SUB SWAP1 RETURN JUMPDEST PUSH2 0xD3 PUSH1 0x4 DUP1 CALLDATASIZE SUB DUP2 ADD SWAP1 PUSH2 0xCE SWAP2 SWAP1 PUSH2 0x350 JUMP JUMPDEST PUSH2 0x173 JUMP JUMPDEST PUSH1 0x40 MLOAD PUSH2 0xE0 SWAP2 SWAP1 PUSH2 0x39D JUMP JUMPDEST PUSH1 0x40 MLOAD DUP1 SWAP2 SUB SWAP1 RETURN JUMPDEST PUSH2 0x103 PUSH1 0x4 DUP1 CALLDATASIZE SUB DUP2 ADD SWAP1 PUSH2 0xFE SWAP2 SWAP1 PUSH2 0x350 JUMP JUMPDEST PUSH2 0x18D JUMP JUMPDEST PUSH1 0x40 MLOAD PUSH2 0x110 SWAP2 SWAP1 PUSH2 0x426 JUMP JUMPDEST PUSH1 0x40 MLOAD DUP1 SWAP2 SUB SWAP1 RETURN JUMPDEST PUSH2 0x133 PUSH1 0x4 DUP1 CALLDATASIZE SUB DUP2 ADD SWAP1 PUSH2 0x12E SWAP2 SWAP1 PUSH2 0x350 JUMP JUMPDEST PUSH2 0x258 JUMP JUMPDEST PUSH1 0x40 MLOAD PUSH2 0x140 SWAP2 SWAP1 PUSH2 0x39D JUMP JUMPDEST PUSH1 0x40 MLOAD DUP1 SWAP2 SUB SWAP1 RETURN JUMPDEST PUSH0 PUSH0 DUP4 DUP1 PUSH2 0x154 JUMPI POP DUP3 JUMPDEST SWAP1 POP DUP1 SWAP2 POP POP SWAP3 SWAP2 POP POP JUMP JUMPDEST PUSH0 DUP3 DUP1 ISZERO PUSH2 0x16B JUMPI POP DUP2 JUMPDEST SWAP1 POP SWAP3 SWAP2 POP POP JUMP JUMPDEST PUSH0 PUSH0 DUP3 DUP5 PUSH2 0x181 SWAP2 SWAP1 PUSH2 0x473 JUMP JUMPDEST SWAP1 POP DUP1 SWAP2 POP POP SWAP3 SWAP2 POP POP JUMP JUMPDEST PUSH1 0x60 DUP2 DUP4 GT ISZERO PUSH2 0x1D4 JUMPI PUSH1 0x40 MLOAD DUP1 PUSH1 0x40 ADD PUSH1 0x40 MSTORE DUP1 PUSH1 0x8 DUP2 MSTORE PUSH1 0x20 ADD PUSH32 0x412067616E686F75000000000000000000000000000000000000000000000000 DUP2 MSTORE POP SWAP1 POP PUSH2 0x252 JUMP JUMPDEST DUP2 DUP4 LT ISZERO PUSH2 0x219 JUMPI PUSH1 0x40 MLOAD DUP1 PUSH1 0x40 ADD PUSH1 0x40 MSTORE DUP1 PUSH1 0x8 DUP2 MSTORE PUSH1 0x20 ADD PUSH32 0x422067616E686F75000000000000000000000000000000000000000000000000 DUP2 MSTORE POP SWAP1 POP PUSH2 0x252 JUMP JUMPDEST PUSH1 0x40 MLOAD DUP1 PUSH1 0x40 ADD PUSH1 0x40 MSTORE DUP1 PUSH1 0x6 DUP2 MSTORE PUSH1 0x20 ADD PUSH32 0x456D706174650000000000000000000000000000000000000000000000000000 DUP2 MSTORE POP SWAP1 POP JUMPDEST SWAP3 SWAP2 POP POP JUMP JUMPDEST PUSH0 PUSH0 PUSH1 0x2 DUP4 DUP6 PUSH2 0x268 SWAP2 SWAP1 PUSH2 0x4B4 JUMP JUMPDEST PUSH2 0x272 SWAP2 SWAP1 PUSH2 0x514 JUMP JUMPDEST SWAP1 POP DUP1 SWAP2 POP POP SWAP3 SWAP2 POP POP JUMP JUMPDEST PUSH0 PUSH0 REVERT JUMPDEST PUSH0 DUP2 ISZERO ISZERO SWAP1 POP SWAP2 SWAP1 POP JUMP JUMPDEST PUSH2 0x296 DUP2 PUSH2 0x282 JUMP JUMPDEST DUP2 EQ PUSH2 0x2A0 JUMPI PUSH0 PUSH0 REVERT JUMPDEST POP JUMP JUMPDEST PUSH0 DUP2 CALLDATALOAD SWAP1 POP PUSH2 0x2B1 DUP2 PUSH2 0x28D JUMP JUMPDEST SWAP3 SWAP2 POP POP JUMP JUMPDEST PUSH0 PUSH0 PUSH1 0x40 DUP4 DUP6 SUB SLT ISZERO PUSH2 0x2CD JUMPI PUSH2 0x2CC PUSH2 0x27E JUMP JUMPDEST JUMPDEST PUSH0 PUSH2 0x2DA DUP6 DUP3 DUP7 ADD PUSH2 0x2A3 JUMP JUMPDEST SWAP3 POP POP PUSH1 0x20 PUSH2 0x2EB DUP6 DUP3 DUP7 ADD PUSH2 0x2A3 JUMP JUMPDEST SWAP2 POP POP SWAP3 POP SWAP3 SWAP1 POP JUMP JUMPDEST PUSH2 0x2FE DUP2 PUSH2 0x282 JUMP JUMPDEST DUP3 MSTORE POP POP JUMP JUMPDEST PUSH0 PUSH1 0x20 DUP3 ADD SWAP1 POP PUSH2 0x317 PUSH0 DUP4 ADD DUP5 PUSH2 0x2F5 JUMP JUMPDEST SWAP3 SWAP2 POP POP JUMP JUMPDEST PUSH0 DUP2 SWAP1 POP SWAP2 SWAP1 POP JUMP JUMPDEST PUSH2 0x32F DUP2 PUSH2 0x31D JUMP JUMPDEST DUP2 EQ PUSH2 0x339 JUMPI PUSH0 PUSH0 REVERT JUMPDEST POP JUMP JUMPDEST PUSH0 DUP2 CALLDATALOAD SWAP1 POP PUSH2 0x34A DUP2 PUSH2 0x326 JUMP JUMPDEST SWAP3 SWAP2 POP POP JUMP JUMPDEST PUSH0 PUSH0 PUSH1 0x40 DUP4 DUP6 SUB SLT ISZERO PUSH2 0x366 JUMPI PUSH2 0x365 PUSH2 0x27E JUMP JUMPDEST JUMPDEST PUSH0 PUSH2 0x373 DUP6 DUP3 DUP7 ADD PUSH2 0x33C JUMP JUMPDEST SWAP3 POP POP PUSH1 0x20 PUSH2 0x384 DUP6 DUP3 DUP7 ADD PUSH2 0x33C JUMP JUMPDEST SWAP2 POP POP SWAP3 POP SWAP3 SWAP1 POP JUMP JUMPDEST PUSH2 0x397 DUP2 PUSH2 0x31D JUMP JUMPDEST DUP3 MSTORE POP POP JUMP JUMPDEST PUSH0 PUSH1 0x20 DUP3 ADD SWAP1 POP PUSH2 0x3B0 PUSH0 DUP4 ADD DUP5 PUSH2 0x38E JUMP JUMPDEST SWAP3 SWAP2 POP POP JUMP JUMPDEST PUSH0 DUP2 MLOAD SWAP1 POP SWAP2 SWAP1 POP JUMP JUMPDEST PUSH0 DUP3 DUP3 MSTORE PUSH1 0x20 DUP3 ADD SWAP1 POP SWAP3 SWAP2 POP POP JUMP JUMPDEST DUP3 DUP2 DUP4 MCOPY PUSH0 DUP4 DUP4 ADD MSTORE POP POP POP JUMP JUMPDEST PUSH0 PUSH1 0x1F NOT PUSH1 0x1F DUP4 ADD AND SWAP1 POP SWAP2 SWAP1 POP JUMP JUMPDEST PUSH0 PUSH2 0x3F8 DUP3 PUSH2 0x3B6 JUMP JUMPDEST PUSH2 0x402 DUP2 DUP6 PUSH2 0x3C0 JUMP JUMPDEST SWAP4 POP PUSH2 0x412 DUP2 DUP6 PUSH1 0x20 DUP7 ADD PUSH2 0x3D0 JUMP JUMPDEST PUSH2 0x41B DUP2 PUSH2 0x3DE JUMP JUMPDEST DUP5 ADD SWAP2 POP POP SWAP3 SWAP2 POP POP JUMP JUMPDEST PUSH0 PUSH1 0x20 DUP3 ADD SWAP1 POP DUP2 DUP2 SUB PUSH0 DUP4 ADD MSTORE PUSH2 0x43E DUP2 DUP5 PUSH2 0x3EE JUMP JUMPDEST SWAP1 POP SWAP3 SWAP2 POP POP JUMP JUMPDEST PUSH32 0x4E487B7100000000000000000000000000000000000000000000000000000000 PUSH0 MSTORE PUSH1 0x11 PUSH1 0x4 MSTORE PUSH1 0x24 PUSH0 REVERT JUMPDEST PUSH0 PUSH2 0x47D DUP3 PUSH2 0x31D JUMP JUMPDEST SWAP2 POP PUSH2 0x488 DUP4 PUSH2 0x31D JUMP JUMPDEST SWAP3 POP DUP3 DUP3 MUL PUSH2 0x496 DUP2 PUSH2 0x31D JUMP JUMPDEST SWAP2 POP DUP3 DUP3 DIV DUP5 EQ DUP4 ISZERO OR PUSH2 0x4AD JUMPI PUSH2 0x4AC PUSH2 0x446 JUMP JUMPDEST JUMPDEST POP SWAP3 SWAP2 POP POP JUMP JUMPDEST PUSH0 PUSH2 0x4BE DUP3 PUSH2 0x31D JUMP JUMPDEST SWAP2 POP PUSH2 0x4C9 DUP4 PUSH2 0x31D JUMP JUMPDEST SWAP3 POP DUP3 DUP3 ADD SWAP1 POP DUP1 DUP3 GT ISZERO PUSH2 0x4E1 JUMPI PUSH2 0x4E0 PUSH2 0x446 JUMP JUMPDEST JUMPDEST SWAP3 SWAP2 POP POP JUMP JUMPDEST PUSH32 0x4E487B7100000000000000000000000000000000000000000000000000000000 PUSH0 MSTORE PUSH1 0x12 PUSH1 0x4 MSTORE PUSH1 0x24 PUSH0 REVERT JUMPDEST PUSH0 PUSH2 0x51E DUP3 PUSH2 0x31D JUMP JUMPDEST SWAP2 POP PUSH2 0x529 DUP4 PUSH2 0x31D JUMP JUMPDEST SWAP3 POP DUP3 PUSH2 0x539 JUMPI PUSH2 0x538 PUSH2 0x4E7 JUMP JUMPDEST JUMPDEST DUP3 DUP3 DIV SWAP1 POP SWAP3 SWAP2 POP POP JUMP INVALID LOG2 PUSH5 0x6970667358 0x22 SLT KECCAK256 LOG4 0xEB RETURN GT SWAP6 PUSH28 0xF84437E571E490F57E6D31CBB932CC3334E15CCE88C463F218C36473 PUSH16 0x6C634300081E00330000000000000000 "
				},
				"gasEstimates": {
					"creation": {
						"codeDepositCost": "280400",
						"executionCost": "316",
						"totalCost": "280716"
					},
					"external": {
						"calculaMultiplicacao(uint256,uint256)": "infinite",
						"calcularMedia(uint256,uint256)": "infinite",
						"compararNumeros(uint256,uint256)": "infinite",
						"testarE(bool,bool)": "infinite",
						"testarOu(bool,bool)": "infinite"
					}
				},
				"methodIdentifiers": {
					"calculaMultiplicacao(uint256,uint256)": "2b4dc48d",
					"calcularMedia(uint256,uint256)": "c299157b",
					"compararNumeros(uint256,uint256)": "3b8a8b0b",
					"testarE(bool,bool)": "2729ca39",
					"testarOu(bool,bool)": "23d88c77"
				}
			},
			"storageLayout": {
				"storage": [
					{
						"astId": 3,
						"contract": "AulasNearX/Operadores.sol:Operadores",
						"label": "valor",
						"offset": 0,
						"slot": "0",
						"type": "t_uint256"
					}
				],
				"types": {
					"t_uint256": {
						"encoding": "inplace",
						"label": "uint256",
						"numberOfBytes": "32"
					}
				}
			},
			"userdoc": {
				"kind": "user",
				"methods": {},
				"version": 1
			}
		}
	}
}