{
	"Contracts Banking/cofre.sol": {
		"CofreInteligente": {
			"abi": [
				{
					"inputs": [],
					"name": "depositar",
					"outputs": [],
					"stateMutability": "payable",
					"type": "function"
				},
				{
					"inputs": [],
					"name": "sacarTudo",
					"outputs": [],
					"stateMutability": "nonpayable",
					"type": "function"
				},
				{
					"inputs": [],
					"name": "verSaldoDoCofre",
					"outputs": [
						{
							"internalType": "uint256",
							"name": "",
							"type": "uint256"
						}
					],
					"stateMutability": "view",
					"type": "function"
				}
			],
			"devdoc": {
				"kind": "dev",
				"methods": {},
				"version": 1
			},
			"evm": {
				"assembly": "    /* \"Contracts Banking/cofre.sol\":60:754  contract CofreInteligente {... */\n  mstore(0x40, 0x80)\n  callvalue\n  dup1\n  iszero\n  tag_1\n  jumpi\n  revert(0x00, 0x00)\ntag_1:\n  pop\n  dataSize(sub_0)\n  dup1\n  dataOffset(sub_0)\n  0x00\n  codecopy\n  0x00\n  return\nstop\n\nsub_0: assembly {\n        /* \"Contracts Banking/cofre.sol\":60:754  contract CofreInteligente {... */\n      mstore(0x40, 0x80)\n      jumpi(tag_1, lt(calldatasize, 0x04))\n      shr(0xe0, calldataload(0x00))\n      dup1\n      0x3d922f90\n      eq\n      tag_2\n      jumpi\n      dup1\n      0x55a53aaa\n      eq\n      tag_3\n      jumpi\n      dup1\n      0xbb20c3ec\n      eq\n      tag_4\n      jumpi\n    tag_1:\n      revert(0x00, 0x00)\n        /* \"Contracts Banking/cofre.sol\":175:221  function depositar() external payable {... */\n    tag_2:\n      tag_5\n      tag_6\n      jump\t// in\n    tag_5:\n      stop\n        /* \"Contracts Banking/cofre.sol\":490:751  function sacarTudo() external {... */\n    tag_3:\n      callvalue\n      dup1\n      iszero\n      tag_7\n      jumpi\n      revert(0x00, 0x00)\n    tag_7:\n      pop\n      tag_8\n      tag_9\n      jump\t// in\n    tag_8:\n      stop\n        /* \"Contracts Banking/cofre.sol\":265:371  function verSaldoDoCofre() external view returns (uint256) {... */\n    tag_4:\n      callvalue\n      dup1\n      iszero\n      tag_10\n      jumpi\n      revert(0x00, 0x00)\n    tag_10:\n      pop\n      tag_11\n      tag_12\n      jump\t// in\n    tag_11:\n      mload(0x40)\n      tag_13\n      swap2\n      swap1\n      tag_14\n      jump\t// in\n    tag_13:\n      mload(0x40)\n      dup1\n      swap2\n      sub\n      swap1\n      return\n        /* \"Contracts Banking/cofre.sol\":175:221  function depositar() external payable {... */\n    tag_6:\n      jump\t// out\n        /* \"Contracts Banking/cofre.sol\":490:751  function sacarTudo() external {... */\n    tag_9:\n        /* \"Contracts Banking/cofre.sol\":579:597  uint256 saldoAtual */\n      0x00\n        /* \"Contracts Banking/cofre.sol\":600:621  address(this).balance */\n      selfbalance\n        /* \"Contracts Banking/cofre.sol\":579:621  uint256 saldoAtual = address(this).balance */\n      swap1\n      pop\n        /* \"Contracts Banking/cofre.sol\":711:721  msg.sender */\n      caller\n        /* \"Contracts Banking/cofre.sol\":703:731  payable(msg.sender).transfer */\n      0xffffffffffffffffffffffffffffffffffffffff\n      and\n        /* \"Contracts Banking/cofre.sol\":703:743  payable(msg.sender).transfer(saldoAtual) */\n      0x08fc\n        /* \"Contracts Banking/cofre.sol\":732:742  saldoAtual */\n      dup3\n        /* \"Contracts Banking/cofre.sol\":703:743  payable(msg.sender).transfer(saldoAtual) */\n      swap1\n      dup2\n      iszero\n      mul\n      swap1\n      mload(0x40)\n      0x00\n      mload(0x40)\n      dup1\n      dup4\n      sub\n      dup2\n      dup6\n      dup9\n      dup9\n      call\n      swap4\n      pop\n      pop\n      pop\n      pop\n      iszero\n      dup1\n      iszero\n      tag_18\n      jumpi\n      returndatacopy(0x00, 0x00, returndatasize)\n      revert(0x00, returndatasize)\n    tag_18:\n      pop\n        /* \"Contracts Banking/cofre.sol\":520:751  {... */\n      pop\n        /* \"Contracts Banking/cofre.sol\":490:751  function sacarTudo() external {... */\n      jump\t// out\n        /* \"Contracts Banking/cofre.sol\":265:371  function verSaldoDoCofre() external view returns (uint256) {... */\n    tag_12:\n        /* \"Contracts Banking/cofre.sol\":315:322  uint256 */\n      0x00\n        /* \"Contracts Banking/cofre.sol\":342:363  address(this).balance */\n      selfbalance\n        /* \"Contracts Banking/cofre.sol\":335:363  return address(this).balance */\n      swap1\n      pop\n        /* \"Contracts Banking/cofre.sol\":265:371  function verSaldoDoCofre() external view returns (uint256) {... */\n      swap1\n      jump\t// out\n        /* \"#utility.yul\":7:84   */\n    tag_20:\n        /* \"#utility.yul\":44:51   */\n      0x00\n        /* \"#utility.yul\":73:78   */\n      dup2\n        /* \"#utility.yul\":62:78   */\n      swap1\n      pop\n        /* \"#utility.yul\":7:84   */\n      swap2\n      swap1\n      pop\n      jump\t// out\n        /* \"#utility.yul\":90:208   */\n    tag_21:\n        /* \"#utility.yul\":177:201   */\n      tag_25\n        /* \"#utility.yul\":195:200   */\n      dup2\n        /* \"#utility.yul\":177:201   */\n      tag_20\n      jump\t// in\n    tag_25:\n        /* \"#utility.yul\":172:175   */\n      dup3\n        /* \"#utility.yul\":165:202   */\n      mstore\n        /* \"#utility.yul\":90:208   */\n      pop\n      pop\n      jump\t// out\n        /* \"#utility.yul\":214:436   */\n    tag_14:\n        /* \"#utility.yul\":307:311   */\n      0x00\n        /* \"#utility.yul\":345:347   */\n      0x20\n        /* \"#utility.yul\":334:343   */\n      dup3\n        /* \"#utility.yul\":330:348   */\n      add\n        /* \"#utility.yul\":322:348   */\n      swap1\n      pop\n        /* \"#utility.yul\":358:429   */\n      tag_27\n        /* \"#utility.yul\":426:427   */\n      0x00\n        /* \"#utility.yul\":415:424   */\n      dup4\n        /* \"#utility.yul\":411:428   */\n      add\n        /* \"#utility.yul\":402:408   */\n      dup5\n        /* \"#utility.yul\":358:429   */\n      tag_21\n      jump\t// in\n    tag_27:\n        /* \"#utility.yul\":214:436   */\n      swap3\n      swap2\n      pop\n      pop\n      jump\t// out\n\n    auxdata: 0xa2646970667358221220f11d5ba3a485c568e07dbe4b21e24d10e2725667a1aeec4db601a64dbaac0ed464736f6c634300081e0033\n}\n",
				"bytecode": {
					"linkReferences": {},
					"object": "6080604052348015600e575f5ffd5b506101298061001c5f395ff3fe608060405260043610602f575f3560e01c80633d922f9014603357806355a53aaa14603b578063bb20c3ec14604e575b5f5ffd5b60396073565b005b3480156045575f5ffd5b50604c6075565b005b3480156058575f5ffd5b50605f60bf565b604051606a919060dc565b60405180910390f35b565b5f4790503373ffffffffffffffffffffffffffffffffffffffff166108fc8290811502906040515f60405180830381858888f1935050505015801560bb573d5f5f3e3d5ffd5b5050565b5f47905090565b5f819050919050565b60d68160c6565b82525050565b5f60208201905060ed5f83018460cf565b9291505056fea2646970667358221220f11d5ba3a485c568e07dbe4b21e24d10e2725667a1aeec4db601a64dbaac0ed464736f6c634300081e0033",
					"opcodes": "PUSH1 0x80 PUSH1 0x40 MSTORE CALLVALUE DUP1 ISZERO PUSH1 0xE JUMPI PUSH0 PUSH0 REVERT JUMPDEST POP PUSH2 0x129 DUP1 PUSH2 0x1C PUSH0 CODECOPY PUSH0 RETURN INVALID PUSH1 0x80 PUSH1 0x40 MSTORE PUSH1 0x4 CALLDATASIZE LT PUSH1 0x2F JUMPI PUSH0 CALLDATALOAD PUSH1 0xE0 SHR DUP1 PUSH4 0x3D922F90 EQ PUSH1 0x33 JUMPI DUP1 PUSH4 0x55A53AAA EQ PUSH1 0x3B JUMPI DUP1 PUSH4 0xBB20C3EC EQ PUSH1 0x4E JUMPI JUMPDEST PUSH0 PUSH0 REVERT JUMPDEST PUSH1 0x39 PUSH1 0x73 JUMP JUMPDEST STOP JUMPDEST CALLVALUE DUP1 ISZERO PUSH1 0x45 JUMPI PUSH0 PUSH0 REVERT JUMPDEST POP PUSH1 0x4C PUSH1 0x75 JUMP JUMPDEST STOP JUMPDEST CALLVALUE DUP1 ISZERO PUSH1 0x58 JUMPI PUSH0 PUSH0 REVERT JUMPDEST POP PUSH1 0x5F PUSH1 0xBF JUMP JUMPDEST PUSH1 0x40 MLOAD PUSH1 0x6A SWAP2 SWAP1 PUSH1 0xDC JUMP JUMPDEST PUSH1 0x40 MLOAD DUP1 SWAP2 SUB SWAP1 RETURN JUMPDEST JUMP JUMPDEST PUSH0 SELFBALANCE SWAP1 POP CALLER PUSH20 0xFFFFFFFFFFFFFFFFFFFFFFFFFFFFFFFFFFFFFFFF AND PUSH2 0x8FC DUP3 SWAP1 DUP2 ISZERO MUL SWAP1 PUSH1 0x40 MLOAD PUSH0 PUSH1 0x40 MLOAD DUP1 DUP4 SUB DUP2 DUP6 DUP9 DUP9 CALL SWAP4 POP POP POP POP ISZERO DUP1 ISZERO PUSH1 0xBB JUMPI RETURNDATASIZE PUSH0 PUSH0 RETURNDATACOPY RETURNDATASIZE PUSH0 REVERT JUMPDEST POP POP JUMP JUMPDEST PUSH0 SELFBALANCE SWAP1 POP SWAP1 JUMP JUMPDEST PUSH0 DUP2 SWAP1 POP SWAP2 SWAP1 POP JUMP JUMPDEST PUSH1 0xD6 DUP2 PUSH1 0xC6 JUMP JUMPDEST DUP3 MSTORE POP POP JUMP JUMPDEST PUSH0 PUSH1 0x20 DUP3 ADD SWAP1 POP PUSH1 0xED PUSH0 DUP4 ADD DUP5 PUSH1 0xCF JUMP JUMPDEST SWAP3 SWAP2 POP POP JUMP INVALID LOG2 PUSH5 0x6970667358 0x22 SLT KECCAK256 CALL SAR JUMPDEST LOG3 LOG4 DUP6 0xC5 PUSH9 0xE07DBE4B21E24D10E2 PUSH19 0x5667A1AEEC4DB601A64DBAAC0ED464736F6C63 NUMBER STOP ADDMOD 0x1E STOP CALLER "
				},
				"gasEstimates": {
					"creation": {
						"codeDepositCost": "59400",
						"executionCost": "109",
						"totalCost": "59509"
					},
					"external": {
						"depositar()": "97",
						"sacarTudo()": "infinite",
						"verSaldoDoCofre()": "356"
					}
				},
				"methodIdentifiers": {
					"depositar()": "3d922f90",
					"sacarTudo()": "55a53aaa",
					"verSaldoDoCofre()": "bb20c3ec"
				}
			},
			"storageLayout": {
				"storage": [],
				"types": null
			},
			"userdoc": {
				"kind": "user",
				"methods": {},
				"version": 1
			}
		}
	}
}