{
	"Calculadoras/calcukadora divisao.sol": {
		"CalculadoraCompleta": {
			"abi": [
				{
					"inputs": [
						{
							"internalType": "uint256",
							"name": "_a",
							"type": "uint256"
						},
						{
							"internalType": "uint256",
							"name": "_b",
							"type": "uint256"
						}
					],
					"name": "dividir",
					"outputs": [],
					"stateMutability": "nonpayable",
					"type": "function"
				},
				{
					"inputs": [
						{
							"internalType": "uint256",
							"name": "_a",
							"type": "uint256"
						},
						{
							"internalType": "uint256",
							"name": "_b",
							"type": "uint256"
						}
					],
					"name": "multiplicar",
					"outputs": [],
					"stateMutability": "nonpayable",
					"type": "function"
				},
				{
					"inputs": [],
					"name": "resultado",
					"outputs": [
						{
							"internalType": "uint256",
							"name": "",
							"type": "uint256"
						}
					],
					"stateMutability": "view",
					"type": "function"
				},
				{
					"inputs": [
						{
							"internalType": "uint256",
							"name": "_a",
							"type": "uint256"
						},
						{
							"internalType": "uint256",
							"name": "_b",
							"type": "uint256"
						}
					],
					"name": "somar",
					"outputs": [],
					"stateMutability": "nonpayable",
					"type": "function"
				},
				{
					"inputs": [
						{
							"internalType": "uint256",
							"name": "_a",
							"type": "uint256"
						},
						{
							"internalType": "uint256",
							"name": "_b",
							"type": "uint256"
						}
					],
					"name": "subtrair",
					"outputs": [],
					"stateMutability": "nonpayable",
					"type": "function"
				}
			],
			"devdoc": {
				"kind": "dev",
				"methods": {},
				"version": 1
			},
			"evm": {
				"assembly": "    /* \"Calculadoras/calcukadora divisao.sol\":60:846  contract CalculadoraCompleta {... */\n  mstore(0x40, 0x80)\n  callvalue\n  dup1\n  iszero\n  tag_1\n  jumpi\n  revert(0x00, 0x00)\ntag_1:\n  pop\n  dataSize(sub_0)\n  dup1\n  dataOffset(sub_0)\n  0x00\n  codecopy\n  0x00\n  return\nstop\n\nsub_0: assembly {\n        /* \"Calculadoras/calcukadora divisao.sol\":60:846  contract CalculadoraCompleta {... */\n      mstore(0x40, 0x80)\n      callvalue\n      dup1\n      iszero\n      tag_1\n      jumpi\n      revert(0x00, 0x00)\n    tag_1:\n      pop\n      jumpi(tag_2, lt(calldatasize, 0x04))\n      shr(0xe0, calldataload(0x00))\n      dup1\n      0x1bdbe55d\n      eq\n      tag_3\n      jumpi\n      dup1\n      0x5206f100\n      eq\n      tag_4\n      jumpi\n      dup1\n      0x72f214b8\n      eq\n      tag_5\n      jumpi\n      dup1\n      0xa112c5da\n      eq\n      tag_6\n      jumpi\n      dup1\n      0xfbf188a2\n      eq\n      tag_7\n      jumpi\n    tag_2:\n      revert(0x00, 0x00)\n        /* \"Calculadoras/calcukadora divisao.sol\":755:843  function dividir(uint256 _a, uint256 _b) external {... */\n    tag_3:\n      tag_8\n      0x04\n      dup1\n      calldatasize\n      sub\n      dup2\n      add\n      swap1\n      tag_9\n      swap2\n      swap1\n      tag_10\n      jump\t// in\n    tag_9:\n      tag_11\n      jump\t// in\n    tag_8:\n      stop\n        /* \"Calculadoras/calcukadora divisao.sol\":168:192  uint256 public resultado */\n    tag_4:\n      tag_12\n      tag_13\n      jump\t// in\n    tag_12:\n      mload(0x40)\n      tag_14\n      swap2\n      swap1\n      tag_15\n      jump\t// in\n    tag_14:\n      mload(0x40)\n      dup1\n      swap2\n      sub\n      swap1\n      return\n        /* \"Calculadoras/calcukadora divisao.sol\":406:495  function subtrair(uint256 _a, uint256 _b) external {... */\n    tag_5:\n      tag_16\n      0x04\n      dup1\n      calldatasize\n      sub\n      dup2\n      add\n      swap1\n      tag_17\n      swap2\n      swap1\n      tag_10\n      jump\t// in\n    tag_17:\n      tag_18\n      jump\t// in\n    tag_16:\n      stop\n        /* \"Calculadoras/calcukadora divisao.sol\":221:307  function somar(uint256 _a, uint256 _b) external {... */\n    tag_6:\n      tag_19\n      0x04\n      dup1\n      calldatasize\n      sub\n      dup2\n      add\n      swap1\n      tag_20\n      swap2\n      swap1\n      tag_10\n      jump\t// in\n    tag_20:\n      tag_21\n      jump\t// in\n    tag_19:\n      stop\n        /* \"Calculadoras/calcukadora divisao.sol\":568:660  function multiplicar(uint256 _a, uint256 _b) external {... */\n    tag_7:\n      tag_22\n      0x04\n      dup1\n      calldatasize\n      sub\n      dup2\n      add\n      swap1\n      tag_23\n      swap2\n      swap1\n      tag_10\n      jump\t// in\n    tag_23:\n      tag_24\n      jump\t// in\n    tag_22:\n      stop\n        /* \"Calculadoras/calcukadora divisao.sol\":755:843  function dividir(uint256 _a, uint256 _b) external {... */\n    tag_11:\n        /* \"Calculadoras/calcukadora divisao.sol\":833:835  _b */\n      dup1\n        /* \"Calculadoras/calcukadora divisao.sol\":828:830  _a */\n      dup3\n        /* \"Calculadoras/calcukadora divisao.sol\":828:835  _a / _b */\n      tag_26\n      swap2\n      swap1\n      tag_27\n      jump\t// in\n    tag_26:\n        /* \"Calculadoras/calcukadora divisao.sol\":816:825  resultado */\n      0x00\n        /* \"Calculadoras/calcukadora divisao.sol\":816:835  resultado = _a / _b */\n      dup2\n      swap1\n      sstore\n      pop\n        /* \"Calculadoras/calcukadora divisao.sol\":755:843  function dividir(uint256 _a, uint256 _b) external {... */\n      pop\n      pop\n      jump\t// out\n        /* \"Calculadoras/calcukadora divisao.sol\":168:192  uint256 public resultado */\n    tag_13:\n      sload(0x00)\n      dup2\n      jump\t// out\n        /* \"Calculadoras/calcukadora divisao.sol\":406:495  function subtrair(uint256 _a, uint256 _b) external {... */\n    tag_18:\n        /* \"Calculadoras/calcukadora divisao.sol\":485:487  _b */\n      dup1\n        /* \"Calculadoras/calcukadora divisao.sol\":480:482  _a */\n      dup3\n        /* \"Calculadoras/calcukadora divisao.sol\":480:487  _a - _b */\n      tag_29\n      swap2\n      swap1\n      tag_30\n      jump\t// in\n    tag_29:\n        /* \"Calculadoras/calcukadora divisao.sol\":468:477  resultado */\n      0x00\n        /* \"Calculadoras/calcukadora divisao.sol\":468:487  resultado = _a - _b */\n      dup2\n      swap1\n      sstore\n      pop\n        /* \"Calculadoras/calcukadora divisao.sol\":406:495  function subtrair(uint256 _a, uint256 _b) external {... */\n      pop\n      pop\n      jump\t// out\n        /* \"Calculadoras/calcukadora divisao.sol\":221:307  function somar(uint256 _a, uint256 _b) external {... */\n    tag_21:\n        /* \"Calculadoras/calcukadora divisao.sol\":297:299  _b */\n      dup1\n        /* \"Calculadoras/calcukadora divisao.sol\":292:294  _a */\n      dup3\n        /* \"Calculadoras/calcukadora divisao.sol\":292:299  _a + _b */\n      tag_32\n      swap2\n      swap1\n      tag_33\n      jump\t// in\n    tag_32:\n        /* \"Calculadoras/calcukadora divisao.sol\":280:289  resultado */\n      0x00\n        /* \"Calculadoras/calcukadora divisao.sol\":280:299  resultado = _a + _b */\n      dup2\n      swap1\n      sstore\n      pop\n        /* \"Calculadoras/calcukadora divisao.sol\":221:307  function somar(uint256 _a, uint256 _b) external {... */\n      pop\n      pop\n      jump\t// out\n        /* \"Calculadoras/calcukadora divisao.sol\":568:660  function multiplicar(uint256 _a, uint256 _b) external {... */\n    tag_24:\n        /* \"Calculadoras/calcukadora divisao.sol\":650:652  _b */\n      dup1\n        /* \"Calculadoras/calcukadora divisao.sol\":645:647  _a */\n      dup3\n        /* \"Calculadoras/calcukadora divisao.sol\":645:652  _a * _b */\n      tag_35\n      swap2\n      swap1\n      tag_36\n      jump\t// in\n    tag_35:\n        /* \"Calculadoras/calcukadora divisao.sol\":633:642  resultado */\n      0x00\n        /* \"Calculadoras/calcukadora divisao.sol\":633:652  resultado = _a * _b */\n      dup2\n      swap1\n      sstore\n      pop\n        /* \"Calculadoras/calcukadora divisao.sol\":568:660  function multiplicar(uint256 _a, uint256 _b) external {... */\n      pop\n      pop\n      jump\t// out\n        /* \"#utility.yul\":88:205   */\n    tag_38:\n        /* \"#utility.yul\":197:198   */\n      0x00\n        /* \"#utility.yul\":194:195   */\n      0x00\n        /* \"#utility.yul\":187:199   */\n      revert\n        /* \"#utility.yul\":334:411   */\n    tag_40:\n        /* \"#utility.yul\":371:378   */\n      0x00\n        /* \"#utility.yul\":400:405   */\n      dup2\n        /* \"#utility.yul\":389:405   */\n      swap1\n      pop\n        /* \"#utility.yul\":334:411   */\n      swap2\n      swap1\n      pop\n      jump\t// out\n        /* \"#utility.yul\":417:539   */\n    tag_41:\n        /* \"#utility.yul\":490:514   */\n      tag_52\n        /* \"#utility.yul\":508:513   */\n      dup2\n        /* \"#utility.yul\":490:514   */\n      tag_40\n      jump\t// in\n    tag_52:\n        /* \"#utility.yul\":483:488   */\n      dup2\n        /* \"#utility.yul\":480:515   */\n      eq\n        /* \"#utility.yul\":470:533   */\n      tag_53\n      jumpi\n        /* \"#utility.yul\":529:530   */\n      0x00\n        /* \"#utility.yul\":526:527   */\n      0x00\n        /* \"#utility.yul\":519:531   */\n      revert\n        /* \"#utility.yul\":470:533   */\n    tag_53:\n        /* \"#utility.yul\":417:539   */\n      pop\n      jump\t// out\n        /* \"#utility.yul\":545:684   */\n    tag_42:\n        /* \"#utility.yul\":591:596   */\n      0x00\n        /* \"#utility.yul\":629:635   */\n      dup2\n        /* \"#utility.yul\":616:636   */\n      calldataload\n        /* \"#utility.yul\":607:636   */\n      swap1\n      pop\n        /* \"#utility.yul\":645:678   */\n      tag_55\n        /* \"#utility.yul\":672:677   */\n      dup2\n        /* \"#utility.yul\":645:678   */\n      tag_41\n      jump\t// in\n    tag_55:\n        /* \"#utility.yul\":545:684   */\n      swap3\n      swap2\n      pop\n      pop\n      jump\t// out\n        /* \"#utility.yul\":690:1164   */\n    tag_10:\n        /* \"#utility.yul\":758:764   */\n      0x00\n        /* \"#utility.yul\":766:772   */\n      0x00\n        /* \"#utility.yul\":815:817   */\n      0x40\n        /* \"#utility.yul\":803:812   */\n      dup4\n        /* \"#utility.yul\":794:801   */\n      dup6\n        /* \"#utility.yul\":790:813   */\n      sub\n        /* \"#utility.yul\":786:818   */\n      slt\n        /* \"#utility.yul\":783:902   */\n      iszero\n      tag_57\n      jumpi\n        /* \"#utility.yul\":821:900   */\n      tag_58\n      tag_38\n      jump\t// in\n    tag_58:\n        /* \"#utility.yul\":783:902   */\n    tag_57:\n        /* \"#utility.yul\":941:942   */\n      0x00\n        /* \"#utility.yul\":966:1019   */\n      tag_59\n        /* \"#utility.yul\":1011:1018   */\n      dup6\n        /* \"#utility.yul\":1002:1008   */\n      dup3\n        /* \"#utility.yul\":991:1000   */\n      dup7\n        /* \"#utility.yul\":987:1009   */\n      add\n        /* \"#utility.yul\":966:1019   */\n      tag_42\n      jump\t// in\n    tag_59:\n        /* \"#utility.yul\":956:1019   */\n      swap3\n      pop\n        /* \"#utility.yul\":912:1029   */\n      pop\n        /* \"#utility.yul\":1068:1070   */\n      0x20\n        /* \"#utility.yul\":1094:1147   */\n      tag_60\n        /* \"#utility.yul\":1139:1146   */\n      dup6\n        /* \"#utility.yul\":1130:1136   */\n      dup3\n        /* \"#utility.yul\":1119:1128   */\n      dup7\n        /* \"#utility.yul\":1115:1137   */\n      add\n        /* \"#utility.yul\":1094:1147   */\n      tag_42\n      jump\t// in\n    tag_60:\n        /* \"#utility.yul\":1084:1147   */\n      swap2\n      pop\n        /* \"#utility.yul\":1039:1157   */\n      pop\n        /* \"#utility.yul\":690:1164   */\n      swap3\n      pop\n      swap3\n      swap1\n      pop\n      jump\t// out\n        /* \"#utility.yul\":1170:1288   */\n    tag_43:\n        /* \"#utility.yul\":1257:1281   */\n      tag_62\n        /* \"#utility.yul\":1275:1280   */\n      dup2\n        /* \"#utility.yul\":1257:1281   */\n      tag_40\n      jump\t// in\n    tag_62:\n        /* \"#utility.yul\":1252:1255   */\n      dup3\n        /* \"#utility.yul\":1245:1282   */\n      mstore\n        /* \"#utility.yul\":1170:1288   */\n      pop\n      pop\n      jump\t// out\n        /* \"#utility.yul\":1294:1516   */\n    tag_15:\n        /* \"#utility.yul\":1387:1391   */\n      0x00\n        /* \"#utility.yul\":1425:1427   */\n      0x20\n        /* \"#utility.yul\":1414:1423   */\n      dup3\n        /* \"#utility.yul\":1410:1428   */\n      add\n        /* \"#utility.yul\":1402:1428   */\n      swap1\n      pop\n        /* \"#utility.yul\":1438:1509   */\n      tag_64\n        /* \"#utility.yul\":1506:1507   */\n      0x00\n        /* \"#utility.yul\":1495:1504   */\n      dup4\n        /* \"#utility.yul\":1491:1508   */\n      add\n        /* \"#utility.yul\":1482:1488   */\n      dup5\n        /* \"#utility.yul\":1438:1509   */\n      tag_43\n      jump\t// in\n    tag_64:\n        /* \"#utility.yul\":1294:1516   */\n      swap3\n      swap2\n      pop\n      pop\n      jump\t// out\n        /* \"#utility.yul\":1522:1702   */\n    tag_44:\n        /* \"#utility.yul\":1570:1647   */\n      0x4e487b7100000000000000000000000000000000000000000000000000000000\n        /* \"#utility.yul\":1567:1568   */\n      0x00\n        /* \"#utility.yul\":1560:1648   */\n      mstore\n        /* \"#utility.yul\":1667:1671   */\n      0x12\n        /* \"#utility.yul\":1664:1665   */\n      0x04\n        /* \"#utility.yul\":1657:1672   */\n      mstore\n        /* \"#utility.yul\":1691:1695   */\n      0x24\n        /* \"#utility.yul\":1688:1689   */\n      0x00\n        /* \"#utility.yul\":1681:1696   */\n      revert\n        /* \"#utility.yul\":1708:1888   */\n    tag_45:\n        /* \"#utility.yul\":1756:1833   */\n      0x4e487b7100000000000000000000000000000000000000000000000000000000\n        /* \"#utility.yul\":1753:1754   */\n      0x00\n        /* \"#utility.yul\":1746:1834   */\n      mstore\n        /* \"#utility.yul\":1853:1857   */\n      0x11\n        /* \"#utility.yul\":1850:1851   */\n      0x04\n        /* \"#utility.yul\":1843:1858   */\n      mstore\n        /* \"#utility.yul\":1877:1881   */\n      0x24\n        /* \"#utility.yul\":1874:1875   */\n      0x00\n        /* \"#utility.yul\":1867:1882   */\n      revert\n        /* \"#utility.yul\":1894:2079   */\n    tag_27:\n        /* \"#utility.yul\":1934:1935   */\n      0x00\n        /* \"#utility.yul\":1951:1971   */\n      tag_68\n        /* \"#utility.yul\":1969:1970   */\n      dup3\n        /* \"#utility.yul\":1951:1971   */\n      tag_40\n      jump\t// in\n    tag_68:\n        /* \"#utility.yul\":1946:1971   */\n      swap2\n      pop\n        /* \"#utility.yul\":1985:2005   */\n      tag_69\n        /* \"#utility.yul\":2003:2004   */\n      dup4\n        /* \"#utility.yul\":1985:2005   */\n      tag_40\n      jump\t// in\n    tag_69:\n        /* \"#utility.yul\":1980:2005   */\n      swap3\n      pop\n        /* \"#utility.yul\":2024:2025   */\n      dup3\n        /* \"#utility.yul\":2014:2049   */\n      tag_70\n      jumpi\n        /* \"#utility.yul\":2029:2047   */\n      tag_71\n      tag_44\n      jump\t// in\n    tag_71:\n        /* \"#utility.yul\":2014:2049   */\n    tag_70:\n        /* \"#utility.yul\":2071:2072   */\n      dup3\n        /* \"#utility.yul\":2068:2069   */\n      dup3\n        /* \"#utility.yul\":2064:2073   */\n      div\n        /* \"#utility.yul\":2059:2073   */\n      swap1\n      pop\n        /* \"#utility.yul\":1894:2079   */\n      swap3\n      swap2\n      pop\n      pop\n      jump\t// out\n        /* \"#utility.yul\":2085:2279   */\n    tag_30:\n        /* \"#utility.yul\":2125:2129   */\n      0x00\n        /* \"#utility.yul\":2145:2165   */\n      tag_73\n        /* \"#utility.yul\":2163:2164   */\n      dup3\n        /* \"#utility.yul\":2145:2165   */\n      tag_40\n      jump\t// in\n    tag_73:\n        /* \"#utility.yul\":2140:2165   */\n      swap2\n      pop\n        /* \"#utility.yul\":2179:2199   */\n      tag_74\n        /* \"#utility.yul\":2197:2198   */\n      dup4\n        /* \"#utility.yul\":2179:2199   */\n      tag_40\n      jump\t// in\n    tag_74:\n        /* \"#utility.yul\":2174:2199   */\n      swap3\n      pop\n        /* \"#utility.yul\":2223:2224   */\n      dup3\n        /* \"#utility.yul\":2220:2221   */\n      dup3\n        /* \"#utility.yul\":2216:2225   */\n      sub\n        /* \"#utility.yul\":2208:2225   */\n      swap1\n      pop\n        /* \"#utility.yul\":2247:2248   */\n      dup2\n        /* \"#utility.yul\":2241:2245   */\n      dup2\n        /* \"#utility.yul\":2238:2249   */\n      gt\n        /* \"#utility.yul\":2235:2272   */\n      iszero\n      tag_75\n      jumpi\n        /* \"#utility.yul\":2252:2270   */\n      tag_76\n      tag_45\n      jump\t// in\n    tag_76:\n        /* \"#utility.yul\":2235:2272   */\n    tag_75:\n        /* \"#utility.yul\":2085:2279   */\n      swap3\n      swap2\n      pop\n      pop\n      jump\t// out\n        /* \"#utility.yul\":2285:2476   */\n    tag_33:\n        /* \"#utility.yul\":2325:2328   */\n      0x00\n        /* \"#utility.yul\":2344:2364   */\n      tag_78\n        /* \"#utility.yul\":2362:2363   */\n      dup3\n        /* \"#utility.yul\":2344:2364   */\n      tag_40\n      jump\t// in\n    tag_78:\n        /* \"#utility.yul\":2339:2364   */\n      swap2\n      pop\n        /* \"#utility.yul\":2378:2398   */\n      tag_79\n        /* \"#utility.yul\":2396:2397   */\n      dup4\n        /* \"#utility.yul\":2378:2398   */\n      tag_40\n      jump\t// in\n    tag_79:\n        /* \"#utility.yul\":2373:2398   */\n      swap3\n      pop\n        /* \"#utility.yul\":2421:2422   */\n      dup3\n        /* \"#utility.yul\":2418:2419   */\n      dup3\n        /* \"#utility.yul\":2414:2423   */\n      add\n        /* \"#utility.yul\":2407:2423   */\n      swap1\n      pop\n        /* \"#utility.yul\":2442:2445   */\n      dup1\n        /* \"#utility.yul\":2439:2440   */\n      dup3\n        /* \"#utility.yul\":2436:2446   */\n      gt\n        /* \"#utility.yul\":2433:2469   */\n      iszero\n      tag_80\n      jumpi\n        /* \"#utility.yul\":2449:2467   */\n      tag_81\n      tag_45\n      jump\t// in\n    tag_81:\n        /* \"#utility.yul\":2433:2469   */\n    tag_80:\n        /* \"#utility.yul\":2285:2476   */\n      swap3\n      swap2\n      pop\n      pop\n      jump\t// out\n        /* \"#utility.yul\":2482:2892   */\n    tag_36:\n        /* \"#utility.yul\":2522:2529   */\n      0x00\n        /* \"#utility.yul\":2545:2565   */\n      tag_83\n        /* \"#utility.yul\":2563:2564   */\n      dup3\n        /* \"#utility.yul\":2545:2565   */\n      tag_40\n      jump\t// in\n    tag_83:\n        /* \"#utility.yul\":2540:2565   */\n      swap2\n      pop\n        /* \"#utility.yul\":2579:2599   */\n      tag_84\n        /* \"#utility.yul\":2597:2598   */\n      dup4\n        /* \"#utility.yul\":2579:2599   */\n      tag_40\n      jump\t// in\n    tag_84:\n        /* \"#utility.yul\":2574:2599   */\n      swap3\n      pop\n        /* \"#utility.yul\":2634:2635   */\n      dup3\n        /* \"#utility.yul\":2631:2632   */\n      dup3\n        /* \"#utility.yul\":2627:2636   */\n      mul\n        /* \"#utility.yul\":2656:2686   */\n      tag_85\n        /* \"#utility.yul\":2674:2685   */\n      dup2\n        /* \"#utility.yul\":2656:2686   */\n      tag_40\n      jump\t// in\n    tag_85:\n        /* \"#utility.yul\":2645:2686   */\n      swap2\n      pop\n        /* \"#utility.yul\":2835:2836   */\n      dup3\n        /* \"#utility.yul\":2826:2833   */\n      dup3\n        /* \"#utility.yul\":2822:2837   */\n      div\n        /* \"#utility.yul\":2819:2820   */\n      dup5\n        /* \"#utility.yul\":2816:2838   */\n      eq\n        /* \"#utility.yul\":2796:2797   */\n      dup4\n        /* \"#utility.yul\":2789:2798   */\n      iszero\n        /* \"#utility.yul\":2769:2852   */\n      or\n        /* \"#utility.yul\":2746:2885   */\n      tag_86\n      jumpi\n        /* \"#utility.yul\":2865:2883   */\n      tag_87\n      tag_45\n      jump\t// in\n    tag_87:\n        /* \"#utility.yul\":2746:2885   */\n    tag_86:\n        /* \"#utility.yul\":2530:2892   */\n      pop\n        /* \"#utility.yul\":2482:2892   */\n      swap3\n      swap2\n      pop\n      pop\n      jump\t// out\n\n    auxdata: 0xa2646970667358221220698f8b6c37ec370e8ccaa4af94fa57ee93dbfa6c661f3b54d24df218986c0a4564736f6c634300081e0033\n}\n",
				"bytecode": {
					"linkReferences": {},
					"object": "6080604052348015600e575f5ffd5b506103448061001c5f395ff3fe608060405234801561000f575f5ffd5b5060043610610055575f3560e01c80631bdbe55d146100595780635206f1001461007557806372f214b814610093578063a112c5da146100af578063fbf188a2146100cb575b5f5ffd5b610073600480360381019061006e9190610177565b6100e7565b005b61007d6100fc565b60405161008a91906101c4565b60405180910390f35b6100ad60048036038101906100a89190610177565b610101565b005b6100c960048036038101906100c49190610177565b610116565b005b6100e560048036038101906100e09190610177565b61012b565b005b80826100f39190610237565b5f819055505050565b5f5481565b808261010d9190610267565b5f819055505050565b8082610122919061029a565b5f819055505050565b808261013791906102cd565b5f819055505050565b5f5ffd5b5f819050919050565b61015681610144565b8114610160575f5ffd5b50565b5f813590506101718161014d565b92915050565b5f5f6040838503121561018d5761018c610140565b5b5f61019a85828601610163565b92505060206101ab85828601610163565b9150509250929050565b6101be81610144565b82525050565b5f6020820190506101d75f8301846101b5565b92915050565b7f4e487b71000000000000000000000000000000000000000000000000000000005f52601260045260245ffd5b7f4e487b71000000000000000000000000000000000000000000000000000000005f52601160045260245ffd5b5f61024182610144565b915061024c83610144565b92508261025c5761025b6101dd565b5b828204905092915050565b5f61027182610144565b915061027c83610144565b92508282039050818111156102945761029361020a565b5b92915050565b5f6102a482610144565b91506102af83610144565b92508282019050808211156102c7576102c661020a565b5b92915050565b5f6102d782610144565b91506102e283610144565b92508282026102f081610144565b915082820484148315176103075761030661020a565b5b509291505056fea2646970667358221220698f8b6c37ec370e8ccaa4af94fa57ee93dbfa6c661f3b54d24df218986c0a4564736f6c634300081e0033",
					"opcodes": "PUSH1 0x80 PUSH1 0x40 MSTORE CALLVALUE DUP1 ISZERO PUSH1 0xE JUMPI PUSH0 PUSH0 REVERT JUMPDEST POP PUSH2 0x344 DUP1 PUSH2 0x1C PUSH0 CODECOPY PUSH0 RETURN INVALID PUSH1 0x80 PUSH1 0x40 MSTORE CALLVALUE DUP1 ISZERO PUSH2 0xF JUMPI PUSH0 PUSH0 REVERT JUMPDEST POP PUSH1 0x4 CALLDATASIZE LT PUSH2 0x55 JUMPI PUSH0 CALLDATALOAD PUSH1 0xE0 SHR DUP1 PUSH4 0x1BDBE55D EQ PUSH2 0x59 JUMPI DUP1 PUSH4 0x5206F100 EQ PUSH2 0x75 JUMPI DUP1 PUSH4 0x72F214B8 EQ PUSH2 0x93 JUMPI DUP1 PUSH4 0xA112C5DA EQ PUSH2 0xAF JUMPI DUP1 PUSH4 0xFBF188A2 EQ PUSH2 0xCB JUMPI JUMPDEST PUSH0 PUSH0 REVERT JUMPDEST PUSH2 0x73 PUSH1 0x4 DUP1 CALLDATASIZE SUB DUP2 ADD SWAP1 PUSH2 0x6E SWAP2 SWAP1 PUSH2 0x177 JUMP JUMPDEST PUSH2 0xE7 JUMP JUMPDEST STOP JUMPDEST PUSH2 0x7D PUSH2 0xFC JUMP JUMPDEST PUSH1 0x40 MLOAD PUSH2 0x8A SWAP2 SWAP1 PUSH2 0x1C4 JUMP JUMPDEST PUSH1 0x40 MLOAD DUP1 SWAP2 SUB SWAP1 RETURN JUMPDEST PUSH2 0xAD PUSH1 0x4 DUP1 CALLDATASIZE SUB DUP2 ADD SWAP1 PUSH2 0xA8 SWAP2 SWAP1 PUSH2 0x177 JUMP JUMPDEST PUSH2 0x101 JUMP JUMPDEST STOP JUMPDEST PUSH2 0xC9 PUSH1 0x4 DUP1 CALLDATASIZE SUB DUP2 ADD SWAP1 PUSH2 0xC4 SWAP2 SWAP1 PUSH2 0x177 JUMP JUMPDEST PUSH2 0x116 JUMP JUMPDEST STOP JUMPDEST PUSH2 0xE5 PUSH1 0x4 DUP1 CALLDATASIZE SUB DUP2 ADD SWAP1 PUSH2 0xE0 SWAP2 SWAP1 PUSH2 0x177 JUMP JUMPDEST PUSH2 0x12B JUMP JUMPDEST STOP JUMPDEST DUP1 DUP3 PUSH2 0xF3 SWAP2 SWAP1 PUSH2 0x237 JUMP JUMPDEST PUSH0 DUP2 SWAP1 SSTORE POP POP POP JUMP JUMPDEST PUSH0 SLOAD DUP2 JUMP JUMPDEST DUP1 DUP3 PUSH2 0x10D SWAP2 SWAP1 PUSH2 0x267 JUMP JUMPDEST PUSH0 DUP2 SWAP1 SSTORE POP POP POP JUMP JUMPDEST DUP1 DUP3 PUSH2 0x122 SWAP2 SWAP1 PUSH2 0x29A JUMP JUMPDEST PUSH0 DUP2 SWAP1 SSTORE POP POP POP JUMP JUMPDEST DUP1 DUP3 PUSH2 0x137 SWAP2 SWAP1 PUSH2 0x2CD JUMP JUMPDEST PUSH0 DUP2 SWAP1 SSTORE POP POP POP JUMP JUMPDEST PUSH0 PUSH0 REVERT JUMPDEST PUSH0 DUP2 SWAP1 POP SWAP2 SWAP1 POP JUMP JUMPDEST PUSH2 0x156 DUP2 PUSH2 0x144 JUMP JUMPDEST DUP2 EQ PUSH2 0x160 JUMPI PUSH0 PUSH0 REVERT JUMPDEST POP JUMP JUMPDEST PUSH0 DUP2 CALLDATALOAD SWAP1 POP PUSH2 0x171 DUP2 PUSH2 0x14D JUMP JUMPDEST SWAP3 SWAP2 POP POP JUMP JUMPDEST PUSH0 PUSH0 PUSH1 0x40 DUP4 DUP6 SUB SLT ISZERO PUSH2 0x18D JUMPI PUSH2 0x18C PUSH2 0x140 JUMP JUMPDEST JUMPDEST PUSH0 PUSH2 0x19A DUP6 DUP3 DUP7 ADD PUSH2 0x163 JUMP JUMPDEST SWAP3 POP POP PUSH1 0x20 PUSH2 0x1AB DUP6 DUP3 DUP7 ADD PUSH2 0x163 JUMP JUMPDEST SWAP2 POP POP SWAP3 POP SWAP3 SWAP1 POP JUMP JUMPDEST PUSH2 0x1BE DUP2 PUSH2 0x144 JUMP JUMPDEST DUP3 MSTORE POP POP JUMP JUMPDEST PUSH0 PUSH1 0x20 DUP3 ADD SWAP1 POP PUSH2 0x1D7 PUSH0 DUP4 ADD DUP5 PUSH2 0x1B5 JUMP JUMPDEST SWAP3 SWAP2 POP POP JUMP JUMPDEST PUSH32 0x4E487B7100000000000000000000000000000000000000000000000000000000 PUSH0 MSTORE PUSH1 0x12 PUSH1 0x4 MSTORE PUSH1 0x24 PUSH0 REVERT JUMPDEST PUSH32 0x4E487B7100000000000000000000000000000000000000000000000000000000 PUSH0 MSTORE PUSH1 0x11 PUSH1 0x4 MSTORE PUSH1 0x24 PUSH0 REVERT JUMPDEST PUSH0 PUSH2 0x241 DUP3 PUSH2 0x144 JUMP JUMPDEST SWAP2 POP PUSH2 0x24C DUP4 PUSH2 0x144 JUMP JUMPDEST SWAP3 POP DUP3 PUSH2 0x25C JUMPI PUSH2 0x25B PUSH2 0x1DD JUMP JUMPDEST JUMPDEST DUP3 DUP3 DIV SWAP1 POP SWAP3 SWAP2 POP POP JUMP JUMPDEST PUSH0 PUSH2 0x271 DUP3 PUSH2 0x144 JUMP JUMPDEST SWAP2 POP PUSH2 0x27C DUP4 PUSH2 0x144 JUMP JUMPDEST SWAP3 POP DUP3 DUP3 SUB SWAP1 POP DUP2 DUP2 GT ISZERO PUSH2 0x294 JUMPI PUSH2 0x293 PUSH2 0x20A JUMP JUMPDEST JUMPDEST SWAP3 SWAP2 POP POP JUMP JUMPDEST PUSH0 PUSH2 0x2A4 DUP3 PUSH2 0x144 JUMP JUMPDEST SWAP2 POP PUSH2 0x2AF DUP4 PUSH2 0x144 JUMP JUMPDEST SWAP3 POP DUP3 DUP3 ADD SWAP1 POP DUP1 DUP3 GT ISZERO PUSH2 0x2C7 JUMPI PUSH2 0x2C6 PUSH2 0x20A JUMP JUMPDEST JUMPDEST SWAP3 SWAP2 POP POP JUMP JUMPDEST PUSH0 PUSH2 0x2D7 DUP3 PUSH2 0x144 JUMP JUMPDEST SWAP2 POP PUSH2 0x2E2 DUP4 PUSH2 0x144 JUMP JUMPDEST SWAP3 POP DUP3 DUP3 MUL PUSH2 0x2F0 DUP2 PUSH2 0x144 JUMP JUMPDEST SWAP2 POP DUP3 DUP3 DIV DUP5 EQ DUP4 ISZERO OR PUSH2 0x307 JUMPI PUSH2 0x306 PUSH2 0x20A JUMP JUMPDEST JUMPDEST POP SWAP3 SWAP2 POP POP JUMP INVALID LOG2 PUSH5 0x6970667358 0x22 SLT KECCAK256 PUSH10 0x8F8B6C37EC370E8CCAA4 0xAF SWAP5 STATICCALL JUMPI RETURNCONTRACT 0x93 0xDB STATICCALL PUSH13 0x661F3B54D24DF218986C0A4564 PUSH20 0x6F6C634300081E00330000000000000000000000 "
				},
				"gasEstimates": {
					"creation": {
						"codeDepositCost": "167200",
						"executionCost": "212",
						"totalCost": "167412"
					},
					"external": {
						"dividir(uint256,uint256)": "infinite",
						"multiplicar(uint256,uint256)": "infinite",
						"resultado()": "2424",
						"somar(uint256,uint256)": "infinite",
						"subtrair(uint256,uint256)": "infinite"
					}
				},
				"methodIdentifiers": {
					"dividir(uint256,uint256)": "1bdbe55d",
					"multiplicar(uint256,uint256)": "fbf188a2",
					"resultado()": "5206f100",
					"somar(uint256,uint256)": "a112c5da",
					"subtrair(uint256,uint256)": "72f214b8"
				}
			},
			"storageLayout": {
				"storage": [
					{
						"astId": 3,
						"contract": "Calculadoras/calcukadora divisao.sol:CalculadoraCompleta",
						"label": "resultado",
						"offset": 0,
						"slot": "0",
						"type": "t_uint256"
					}
				],
				"types": {
					"t_uint256": {
						"encoding": "inplace",
						"label": "uint256",
						"numberOfBytes": "32"
					}
				}
			},
			"userdoc": {
				"kind": "user",
				"methods": {},
				"version": 1
			}
		}
	}
}