{
	"AulasNearX/Operadores1.sol": {
		"ExemploOperadores": {
			"abi": [
				{
					"inputs": [
						{
							"internalType": "uint256",
							"name": "a",
							"type": "uint256"
						},
						{
							"internalType": "uint256",
							"name": "b",
							"type": "uint256"
						}
					],
					"name": "calcularMedia",
					"outputs": [
						{
							"internalType": "uint256",
							"name": "",
							"type": "uint256"
						}
					],
					"stateMutability": "pure",
					"type": "function"
				},
				{
					"inputs": [
						{
							"internalType": "uint256",
							"name": "a",
							"type": "uint256"
						},
						{
							"internalType": "uint256",
							"name": "b",
							"type": "uint256"
						}
					],
					"name": "calcularMultiplicar",
					"outputs": [
						{
							"internalType": "uint256",
							"name": "",
							"type": "uint256"
						}
					],
					"stateMutability": "pure",
					"type": "function"
				},
				{
					"inputs": [],
					"name": "getValor",
					"outputs": [
						{
							"internalType": "uint256",
							"name": "",
							"type": "uint256"
						}
					],
					"stateMutability": "view",
					"type": "function"
				},
				{
					"inputs": [
						{
							"internalType": "uint256",
							"name": "novoValor",
							"type": "uint256"
						}
					],
					"name": "setValor",
					"outputs": [],
					"stateMutability": "nonpayable",
					"type": "function"
				},
				{
					"inputs": [
						{
							"internalType": "bool",
							"name": "a",
							"type": "bool"
						},
						{
							"internalType": "bool",
							"name": "b",
							"type": "bool"
						}
					],
					"name": "verificarCondicional",
					"outputs": [
						{
							"internalType": "bool",
							"name": "",
							"type": "bool"
						}
					],
					"stateMutability": "pure",
					"type": "function"
				},
				{
					"inputs": [
						{
							"internalType": "uint256",
							"name": "a",
							"type": "uint256"
						},
						{
							"internalType": "uint256",
							"name": "b",
							"type": "uint256"
						}
					],
					"name": "verificarMaior",
					"outputs": [
						{
							"internalType": "bool",
							"name": "",
							"type": "bool"
						}
					],
					"stateMutability": "pure",
					"type": "function"
				},
				{
					"inputs": [
						{
							"internalType": "uint256",
							"name": "a",
							"type": "uint256"
						},
						{
							"internalType": "uint256",
							"name": "b",
							"type": "uint256"
						}
					],
					"name": "verificarSeDiferente",
					"outputs": [
						{
							"internalType": "bool",
							"name": "",
							"type": "bool"
						}
					],
					"stateMutability": "pure",
					"type": "function"
				},
				{
					"inputs": [
						{
							"internalType": "uint256",
							"name": "a",
							"type": "uint256"
						},
						{
							"internalType": "uint256",
							"name": "b",
							"type": "uint256"
						}
					],
					"name": "verificarSeIgual",
					"outputs": [
						{
							"internalType": "bool",
							"name": "",
							"type": "bool"
						}
					],
					"stateMutability": "pure",
					"type": "function"
				},
				{
					"inputs": [
						{
							"internalType": "bool",
							"name": "a",
							"type": "bool"
						},
						{
							"internalType": "bool",
							"name": "b",
							"type": "bool"
						}
					],
					"name": "verificarVerdadeiro",
					"outputs": [
						{
							"internalType": "bool",
							"name": "",
							"type": "bool"
						}
					],
					"stateMutability": "pure",
					"type": "function"
				}
			],
			"devdoc": {
				"kind": "dev",
				"methods": {},
				"version": 1
			},
			"evm": {
				"assembly": "    /* \"AulasNearX/Operadores1.sol\":85:2023  contract ExemploOperadores {... */\n  mstore(0x40, 0x80)\n  callvalue\n  dup1\n  iszero\n  tag_1\n  jumpi\n  revert(0x00, 0x00)\ntag_1:\n  pop\n  dataSize(sub_0)\n  dup1\n  dataOffset(sub_0)\n  0x00\n  codecopy\n  0x00\n  return\nstop\n\nsub_0: assembly {\n        /* \"AulasNearX/Operadores1.sol\":85:2023  contract ExemploOperadores {... */\n      mstore(0x40, 0x80)\n      callvalue\n      dup1\n      iszero\n      tag_1\n      jumpi\n      revert(0x00, 0x00)\n    tag_1:\n      pop\n      jumpi(tag_2, lt(calldatasize, 0x04))\n      shr(0xe0, calldataload(0x00))\n      dup1\n      0x5f1b3dfd\n      gt\n      tag_12\n      jumpi\n      dup1\n      0x5f1b3dfd\n      eq\n      tag_7\n      jumpi\n      dup1\n      0x8d2aabce\n      eq\n      tag_8\n      jumpi\n      dup1\n      0xc299157b\n      eq\n      tag_9\n      jumpi\n      dup1\n      0xfdd122e9\n      eq\n      tag_10\n      jumpi\n      dup1\n      0xff374df4\n      eq\n      tag_11\n      jumpi\n      jump(tag_2)\n    tag_12:\n      dup1\n      0x0d7d9854\n      eq\n      tag_3\n      jumpi\n      dup1\n      0x3ef42c97\n      eq\n      tag_4\n      jumpi\n      dup1\n      0x428706be\n      eq\n      tag_5\n      jumpi\n      dup1\n      0x55a4b9d5\n      eq\n      tag_6\n      jumpi\n    tag_2:\n      revert(0x00, 0x00)\n        /* \"AulasNearX/Operadores1.sol\":1191:1378  function verificarSeIgual(uint256 a, uint256 b) public pure returns (bool) {... */\n    tag_3:\n      tag_13\n      0x04\n      dup1\n      calldatasize\n      sub\n      dup2\n      add\n      swap1\n      tag_14\n      swap2\n      swap1\n      tag_15\n      jump\t// in\n    tag_14:\n      tag_16\n      jump\t// in\n    tag_13:\n      mload(0x40)\n      tag_17\n      swap2\n      swap1\n      tag_18\n      jump\t// in\n    tag_17:\n      mload(0x40)\n      dup1\n      swap2\n      sub\n      swap1\n      return\n        /* \"AulasNearX/Operadores1.sol\":1927:2020  function getValor() public view returns (uint256) {... */\n    tag_4:\n      tag_19\n      tag_20\n      jump\t// in\n    tag_19:\n      mload(0x40)\n      tag_21\n      swap2\n      swap1\n      tag_22\n      jump\t// in\n    tag_21:\n      mload(0x40)\n      dup1\n      swap2\n      sub\n      swap1\n      return\n        /* \"AulasNearX/Operadores1.sol\":1590:1919  function setValor(uint256 novoValor) public {... */\n    tag_5:\n      tag_23\n      0x04\n      dup1\n      calldatasize\n      sub\n      dup2\n      add\n      swap1\n      tag_24\n      swap2\n      swap1\n      tag_25\n      jump\t// in\n    tag_24:\n      tag_26\n      jump\t// in\n    tag_23:\n      stop\n        /* \"AulasNearX/Operadores1.sol\":506:784  function verificarVerdadeiro(bool a, bool b) public pure returns (bool) {... */\n    tag_6:\n      tag_27\n      0x04\n      dup1\n      calldatasize\n      sub\n      dup2\n      add\n      swap1\n      tag_28\n      swap2\n      swap1\n      tag_29\n      jump\t// in\n    tag_28:\n      tag_30\n      jump\t// in\n    tag_27:\n      mload(0x40)\n      tag_31\n      swap2\n      swap1\n      tag_18\n      jump\t// in\n    tag_31:\n      mload(0x40)\n      dup1\n      swap2\n      sub\n      swap1\n      return\n        /* \"AulasNearX/Operadores1.sol\":1386:1582  function verificarSeDiferente(uint256 a, uint256 b) public pure returns (bool) {... */\n    tag_7:\n      tag_32\n      0x04\n      dup1\n      calldatasize\n      sub\n      dup2\n      add\n      swap1\n      tag_33\n      swap2\n      swap1\n      tag_15\n      jump\t// in\n    tag_33:\n      tag_34\n      jump\t// in\n    tag_32:\n      mload(0x40)\n      tag_35\n      swap2\n      swap1\n      tag_18\n      jump\t// in\n    tag_35:\n      mload(0x40)\n      dup1\n      swap2\n      sub\n      swap1\n      return\n        /* \"AulasNearX/Operadores1.sol\":304:498  function calcularMultiplicar(uint256 a, uint256 b) public pure returns (uint256) {... */\n    tag_8:\n      tag_36\n      0x04\n      dup1\n      calldatasize\n      sub\n      dup2\n      add\n      swap1\n      tag_37\n      swap2\n      swap1\n      tag_15\n      jump\t// in\n    tag_37:\n      tag_38\n      jump\t// in\n    tag_36:\n      mload(0x40)\n      tag_39\n      swap2\n      swap1\n      tag_22\n      jump\t// in\n    tag_39:\n      mload(0x40)\n      dup1\n      swap2\n      sub\n      swap1\n      return\n        /* \"AulasNearX/Operadores1.sol\":141:296  function calcularMedia(uint256 a, uint256 b) public pure returns (uint256) {... */\n    tag_9:\n      tag_40\n      0x04\n      dup1\n      calldatasize\n      sub\n      dup2\n      add\n      swap1\n      tag_41\n      swap2\n      swap1\n      tag_15\n      jump\t// in\n    tag_41:\n      tag_42\n      jump\t// in\n    tag_40:\n      mload(0x40)\n      tag_43\n      swap2\n      swap1\n      tag_22\n      jump\t// in\n    tag_43:\n      mload(0x40)\n      dup1\n      swap2\n      sub\n      swap1\n      return\n        /* \"AulasNearX/Operadores1.sol\":792:989  function verificarCondicional(bool a, bool b) public pure returns (bool) {... */\n    tag_10:\n      tag_44\n      0x04\n      dup1\n      calldatasize\n      sub\n      dup2\n      add\n      swap1\n      tag_45\n      swap2\n      swap1\n      tag_29\n      jump\t// in\n    tag_45:\n      tag_46\n      jump\t// in\n    tag_44:\n      mload(0x40)\n      tag_47\n      swap2\n      swap1\n      tag_18\n      jump\t// in\n    tag_47:\n      mload(0x40)\n      dup1\n      swap2\n      sub\n      swap1\n      return\n        /* \"AulasNearX/Operadores1.sol\":997:1183  function verificarMaior(uint256 a, uint256 b) public pure returns (bool) {... */\n    tag_11:\n      tag_48\n      0x04\n      dup1\n      calldatasize\n      sub\n      dup2\n      add\n      swap1\n      tag_49\n      swap2\n      swap1\n      tag_15\n      jump\t// in\n    tag_49:\n      tag_50\n      jump\t// in\n    tag_48:\n      mload(0x40)\n      tag_51\n      swap2\n      swap1\n      tag_18\n      jump\t// in\n    tag_51:\n      mload(0x40)\n      dup1\n      swap2\n      sub\n      swap1\n      return\n        /* \"AulasNearX/Operadores1.sol\":1191:1378  function verificarSeIgual(uint256 a, uint256 b) public pure returns (bool) {... */\n    tag_16:\n        /* \"AulasNearX/Operadores1.sol\":1260:1264  bool */\n      0x00\n        /* \"AulasNearX/Operadores1.sol\":1277:1291  bool resultado */\n      0x00\n        /* \"AulasNearX/Operadores1.sol\":1299:1300  b */\n      dup3\n        /* \"AulasNearX/Operadores1.sol\":1294:1295  a */\n      dup5\n        /* \"AulasNearX/Operadores1.sol\":1294:1300  a == b */\n      eq\n        /* \"AulasNearX/Operadores1.sol\":1277:1300  bool resultado = a == b */\n      swap1\n      pop\n        /* \"AulasNearX/Operadores1.sol\":1361:1370  resultado */\n      dup1\n        /* \"AulasNearX/Operadores1.sol\":1354:1370  return resultado */\n      swap2\n      pop\n      pop\n        /* \"AulasNearX/Operadores1.sol\":1191:1378  function verificarSeIgual(uint256 a, uint256 b) public pure returns (bool) {... */\n      swap3\n      swap2\n      pop\n      pop\n      jump\t// out\n        /* \"AulasNearX/Operadores1.sol\":1927:2020  function getValor() public view returns (uint256) {... */\n    tag_20:\n        /* \"AulasNearX/Operadores1.sol\":1968:1975  uint256 */\n      0x00\n        /* \"AulasNearX/Operadores1.sol\":1995:2000  valor */\n      sload(0x00)\n        /* \"AulasNearX/Operadores1.sol\":1988:2000  return valor */\n      swap1\n      pop\n        /* \"AulasNearX/Operadores1.sol\":1927:2020  function getValor() public view returns (uint256) {... */\n      swap1\n      jump\t// out\n        /* \"AulasNearX/Operadores1.sol\":1590:1919  function setValor(uint256 novoValor) public {... */\n    tag_26:\n        /* \"AulasNearX/Operadores1.sol\":1662:1664  10 */\n      0x0a\n        /* \"AulasNearX/Operadores1.sol\":1649:1658  novoValor */\n      dup2\n        /* \"AulasNearX/Operadores1.sol\":1649:1664  novoValor >= 10 */\n      lt\n        /* \"AulasNearX/Operadores1.sol\":1645:1912  if (novoValor >= 10) {... */\n      tag_55\n      jumpi\n        /* \"AulasNearX/Operadores1.sol\":1763:1772  novoValor */\n      dup1\n        /* \"AulasNearX/Operadores1.sol\":1755:1760  valor */\n      0x00\n        /* \"AulasNearX/Operadores1.sol\":1755:1772  valor = novoValor */\n      dup2\n      swap1\n      sstore\n      pop\n        /* \"AulasNearX/Operadores1.sol\":1645:1912  if (novoValor >= 10) {... */\n      jump(tag_56)\n    tag_55:\n        /* \"AulasNearX/Operadores1.sol\":1899:1900  0 */\n      0x00\n        /* \"AulasNearX/Operadores1.sol\":1891:1896  valor */\n      0x00\n        /* \"AulasNearX/Operadores1.sol\":1891:1900  valor = 0 */\n      dup2\n      swap1\n      sstore\n      pop\n        /* \"AulasNearX/Operadores1.sol\":1645:1912  if (novoValor >= 10) {... */\n    tag_56:\n        /* \"AulasNearX/Operadores1.sol\":1590:1919  function setValor(uint256 novoValor) public {... */\n      pop\n      jump\t// out\n        /* \"AulasNearX/Operadores1.sol\":506:784  function verificarVerdadeiro(bool a, bool b) public pure returns (bool) {... */\n    tag_30:\n        /* \"AulasNearX/Operadores1.sol\":572:576  bool */\n      0x00\n        /* \"AulasNearX/Operadores1.sol\":589:603  bool resultado */\n      0x00\n        /* \"AulasNearX/Operadores1.sol\":606:607  a */\n      dup4\n        /* \"AulasNearX/Operadores1.sol\":606:612  a && b */\n      dup1\n      iszero\n      tag_58\n      jumpi\n      pop\n        /* \"AulasNearX/Operadores1.sol\":611:612  b */\n      dup3\n        /* \"AulasNearX/Operadores1.sol\":606:612  a && b */\n    tag_58:\n        /* \"AulasNearX/Operadores1.sol\":589:612  bool resultado = a && b */\n      swap1\n      pop\n        /* \"AulasNearX/Operadores1.sol\":709:718  resultado */\n      dup1\n        /* \"AulasNearX/Operadores1.sol\":702:718  return resultado */\n      swap2\n      pop\n      pop\n        /* \"AulasNearX/Operadores1.sol\":506:784  function verificarVerdadeiro(bool a, bool b) public pure returns (bool) {... */\n      swap3\n      swap2\n      pop\n      pop\n      jump\t// out\n        /* \"AulasNearX/Operadores1.sol\":1386:1582  function verificarSeDiferente(uint256 a, uint256 b) public pure returns (bool) {... */\n    tag_34:\n        /* \"AulasNearX/Operadores1.sol\":1459:1463  bool */\n      0x00\n        /* \"AulasNearX/Operadores1.sol\":1476:1490  bool resultado */\n      0x00\n        /* \"AulasNearX/Operadores1.sol\":1498:1499  b */\n      dup3\n        /* \"AulasNearX/Operadores1.sol\":1493:1494  a */\n      dup5\n        /* \"AulasNearX/Operadores1.sol\":1493:1499  a != b */\n      eq\n      iszero\n        /* \"AulasNearX/Operadores1.sol\":1476:1499  bool resultado = a != b */\n      swap1\n      pop\n        /* \"AulasNearX/Operadores1.sol\":1565:1574  resultado */\n      dup1\n        /* \"AulasNearX/Operadores1.sol\":1558:1574  return resultado */\n      swap2\n      pop\n      pop\n        /* \"AulasNearX/Operadores1.sol\":1386:1582  function verificarSeDiferente(uint256 a, uint256 b) public pure returns (bool) {... */\n      swap3\n      swap2\n      pop\n      pop\n      jump\t// out\n        /* \"AulasNearX/Operadores1.sol\":304:498  function calcularMultiplicar(uint256 a, uint256 b) public pure returns (uint256) {... */\n    tag_38:\n        /* \"AulasNearX/Operadores1.sol\":376:383  uint256 */\n      0x00\n        /* \"AulasNearX/Operadores1.sol\":396:415  uint256 multiplicar */\n      0x00\n        /* \"AulasNearX/Operadores1.sol\":428:429  2 */\n      0x02\n        /* \"AulasNearX/Operadores1.sol\":423:424  b */\n      dup4\n        /* \"AulasNearX/Operadores1.sol\":419:420  a */\n      dup6\n        /* \"AulasNearX/Operadores1.sol\":419:424  a + b */\n      tag_61\n      swap2\n      swap1\n      tag_62\n      jump\t// in\n    tag_61:\n        /* \"AulasNearX/Operadores1.sol\":418:429  (a + b) * 2 */\n      tag_63\n      swap2\n      swap1\n      tag_64\n      jump\t// in\n    tag_63:\n        /* \"AulasNearX/Operadores1.sol\":396:429  uint256 multiplicar = (a + b) * 2 */\n      swap1\n      pop\n        /* \"AulasNearX/Operadores1.sol\":479:490  multiplicar */\n      dup1\n        /* \"AulasNearX/Operadores1.sol\":472:490  return multiplicar */\n      swap2\n      pop\n      pop\n        /* \"AulasNearX/Operadores1.sol\":304:498  function calcularMultiplicar(uint256 a, uint256 b) public pure returns (uint256) {... */\n      swap3\n      swap2\n      pop\n      pop\n      jump\t// out\n        /* \"AulasNearX/Operadores1.sol\":141:296  function calcularMedia(uint256 a, uint256 b) public pure returns (uint256) {... */\n    tag_42:\n        /* \"AulasNearX/Operadores1.sol\":207:214  uint256 */\n      0x00\n        /* \"AulasNearX/Operadores1.sol\":227:240  uint256 media */\n      0x00\n        /* \"AulasNearX/Operadores1.sol\":253:254  2 */\n      0x02\n        /* \"AulasNearX/Operadores1.sol\":248:249  b */\n      dup4\n        /* \"AulasNearX/Operadores1.sol\":244:245  a */\n      dup6\n        /* \"AulasNearX/Operadores1.sol\":244:249  a + b */\n      tag_66\n      swap2\n      swap1\n      tag_62\n      jump\t// in\n    tag_66:\n        /* \"AulasNearX/Operadores1.sol\":243:254  (a + b) / 2 */\n      tag_67\n      swap2\n      swap1\n      tag_68\n      jump\t// in\n    tag_67:\n        /* \"AulasNearX/Operadores1.sol\":227:254  uint256 media = (a + b) / 2 */\n      swap1\n      pop\n        /* \"AulasNearX/Operadores1.sol\":283:288  media */\n      dup1\n        /* \"AulasNearX/Operadores1.sol\":276:288  return media */\n      swap2\n      pop\n      pop\n        /* \"AulasNearX/Operadores1.sol\":141:296  function calcularMedia(uint256 a, uint256 b) public pure returns (uint256) {... */\n      swap3\n      swap2\n      pop\n      pop\n      jump\t// out\n        /* \"AulasNearX/Operadores1.sol\":792:989  function verificarCondicional(bool a, bool b) public pure returns (bool) {... */\n    tag_46:\n        /* \"AulasNearX/Operadores1.sol\":859:863  bool */\n      0x00\n        /* \"AulasNearX/Operadores1.sol\":876:890  bool resultado */\n      0x00\n        /* \"AulasNearX/Operadores1.sol\":893:894  a */\n      dup4\n        /* \"AulasNearX/Operadores1.sol\":893:899  a || b */\n      dup1\n      tag_70\n      jumpi\n      pop\n        /* \"AulasNearX/Operadores1.sol\":898:899  b */\n      dup3\n        /* \"AulasNearX/Operadores1.sol\":893:899  a || b */\n    tag_70:\n        /* \"AulasNearX/Operadores1.sol\":876:899  bool resultado = a || b */\n      swap1\n      pop\n        /* \"AulasNearX/Operadores1.sol\":972:981  resultado */\n      dup1\n        /* \"AulasNearX/Operadores1.sol\":965:981  return resultado */\n      swap2\n      pop\n      pop\n        /* \"AulasNearX/Operadores1.sol\":792:989  function verificarCondicional(bool a, bool b) public pure returns (bool) {... */\n      swap3\n      swap2\n      pop\n      pop\n      jump\t// out\n        /* \"AulasNearX/Operadores1.sol\":997:1183  function verificarMaior(uint256 a, uint256 b) public pure returns (bool) {... */\n    tag_50:\n        /* \"AulasNearX/Operadores1.sol\":1064:1068  bool */\n      0x00\n        /* \"AulasNearX/Operadores1.sol\":1081:1095  bool resultado */\n      0x00\n        /* \"AulasNearX/Operadores1.sol\":1102:1103  b */\n      dup3\n        /* \"AulasNearX/Operadores1.sol\":1098:1099  a */\n      dup5\n        /* \"AulasNearX/Operadores1.sol\":1098:1103  a > b */\n      gt\n        /* \"AulasNearX/Operadores1.sol\":1081:1103  bool resultado = a > b */\n      swap1\n      pop\n        /* \"AulasNearX/Operadores1.sol\":1166:1175  resultado */\n      dup1\n        /* \"AulasNearX/Operadores1.sol\":1159:1175  return resultado */\n      swap2\n      pop\n      pop\n        /* \"AulasNearX/Operadores1.sol\":997:1183  function verificarMaior(uint256 a, uint256 b) public pure returns (bool) {... */\n      swap3\n      swap2\n      pop\n      pop\n      jump\t// out\n        /* \"#utility.yul\":88:205   */\n    tag_73:\n        /* \"#utility.yul\":197:198   */\n      0x00\n        /* \"#utility.yul\":194:195   */\n      0x00\n        /* \"#utility.yul\":187:199   */\n      revert\n        /* \"#utility.yul\":334:411   */\n    tag_75:\n        /* \"#utility.yul\":371:378   */\n      0x00\n        /* \"#utility.yul\":400:405   */\n      dup2\n        /* \"#utility.yul\":389:405   */\n      swap1\n      pop\n        /* \"#utility.yul\":334:411   */\n      swap2\n      swap1\n      pop\n      jump\t// out\n        /* \"#utility.yul\":417:539   */\n    tag_76:\n        /* \"#utility.yul\":490:514   */\n      tag_91\n        /* \"#utility.yul\":508:513   */\n      dup2\n        /* \"#utility.yul\":490:514   */\n      tag_75\n      jump\t// in\n    tag_91:\n        /* \"#utility.yul\":483:488   */\n      dup2\n        /* \"#utility.yul\":480:515   */\n      eq\n        /* \"#utility.yul\":470:533   */\n      tag_92\n      jumpi\n        /* \"#utility.yul\":529:530   */\n      0x00\n        /* \"#utility.yul\":526:527   */\n      0x00\n        /* \"#utility.yul\":519:531   */\n      revert\n        /* \"#utility.yul\":470:533   */\n    tag_92:\n        /* \"#utility.yul\":417:539   */\n      pop\n      jump\t// out\n        /* \"#utility.yul\":545:684   */\n    tag_77:\n        /* \"#utility.yul\":591:596   */\n      0x00\n        /* \"#utility.yul\":629:635   */\n      dup2\n        /* \"#utility.yul\":616:636   */\n      calldataload\n        /* \"#utility.yul\":607:636   */\n      swap1\n      pop\n        /* \"#utility.yul\":645:678   */\n      tag_94\n        /* \"#utility.yul\":672:677   */\n      dup2\n        /* \"#utility.yul\":645:678   */\n      tag_76\n      jump\t// in\n    tag_94:\n        /* \"#utility.yul\":545:684   */\n      swap3\n      swap2\n      pop\n      pop\n      jump\t// out\n        /* \"#utility.yul\":690:1164   */\n    tag_15:\n        /* \"#utility.yul\":758:764   */\n      0x00\n        /* \"#utility.yul\":766:772   */\n      0x00\n        /* \"#utility.yul\":815:817   */\n      0x40\n        /* \"#utility.yul\":803:812   */\n      dup4\n        /* \"#utility.yul\":794:801   */\n      dup6\n        /* \"#utility.yul\":790:813   */\n      sub\n        /* \"#utility.yul\":786:818   */\n      slt\n        /* \"#utility.yul\":783:902   */\n      iszero\n      tag_96\n      jumpi\n        /* \"#utility.yul\":821:900   */\n      tag_97\n      tag_73\n      jump\t// in\n    tag_97:\n        /* \"#utility.yul\":783:902   */\n    tag_96:\n        /* \"#utility.yul\":941:942   */\n      0x00\n        /* \"#utility.yul\":966:1019   */\n      tag_98\n        /* \"#utility.yul\":1011:1018   */\n      dup6\n        /* \"#utility.yul\":1002:1008   */\n      dup3\n        /* \"#utility.yul\":991:1000   */\n      dup7\n        /* \"#utility.yul\":987:1009   */\n      add\n        /* \"#utility.yul\":966:1019   */\n      tag_77\n      jump\t// in\n    tag_98:\n        /* \"#utility.yul\":956:1019   */\n      swap3\n      pop\n        /* \"#utility.yul\":912:1029   */\n      pop\n        /* \"#utility.yul\":1068:1070   */\n      0x20\n        /* \"#utility.yul\":1094:1147   */\n      tag_99\n        /* \"#utility.yul\":1139:1146   */\n      dup6\n        /* \"#utility.yul\":1130:1136   */\n      dup3\n        /* \"#utility.yul\":1119:1128   */\n      dup7\n        /* \"#utility.yul\":1115:1137   */\n      add\n        /* \"#utility.yul\":1094:1147   */\n      tag_77\n      jump\t// in\n    tag_99:\n        /* \"#utility.yul\":1084:1147   */\n      swap2\n      pop\n        /* \"#utility.yul\":1039:1157   */\n      pop\n        /* \"#utility.yul\":690:1164   */\n      swap3\n      pop\n      swap3\n      swap1\n      pop\n      jump\t// out\n        /* \"#utility.yul\":1170:1260   */\n    tag_78:\n        /* \"#utility.yul\":1204:1211   */\n      0x00\n        /* \"#utility.yul\":1247:1252   */\n      dup2\n        /* \"#utility.yul\":1240:1253   */\n      iszero\n        /* \"#utility.yul\":1233:1254   */\n      iszero\n        /* \"#utility.yul\":1222:1254   */\n      swap1\n      pop\n        /* \"#utility.yul\":1170:1260   */\n      swap2\n      swap1\n      pop\n      jump\t// out\n        /* \"#utility.yul\":1266:1375   */\n    tag_79:\n        /* \"#utility.yul\":1347:1368   */\n      tag_102\n        /* \"#utility.yul\":1362:1367   */\n      dup2\n        /* \"#utility.yul\":1347:1368   */\n      tag_78\n      jump\t// in\n    tag_102:\n        /* \"#utility.yul\":1342:1345   */\n      dup3\n        /* \"#utility.yul\":1335:1369   */\n      mstore\n        /* \"#utility.yul\":1266:1375   */\n      pop\n      pop\n      jump\t// out\n        /* \"#utility.yul\":1381:1591   */\n    tag_18:\n        /* \"#utility.yul\":1468:1472   */\n      0x00\n        /* \"#utility.yul\":1506:1508   */\n      0x20\n        /* \"#utility.yul\":1495:1504   */\n      dup3\n        /* \"#utility.yul\":1491:1509   */\n      add\n        /* \"#utility.yul\":1483:1509   */\n      swap1\n      pop\n        /* \"#utility.yul\":1519:1584   */\n      tag_104\n        /* \"#utility.yul\":1581:1582   */\n      0x00\n        /* \"#utility.yul\":1570:1579   */\n      dup4\n        /* \"#utility.yul\":1566:1583   */\n      add\n        /* \"#utility.yul\":1557:1563   */\n      dup5\n        /* \"#utility.yul\":1519:1584   */\n      tag_79\n      jump\t// in\n    tag_104:\n        /* \"#utility.yul\":1381:1591   */\n      swap3\n      swap2\n      pop\n      pop\n      jump\t// out\n        /* \"#utility.yul\":1597:1715   */\n    tag_80:\n        /* \"#utility.yul\":1684:1708   */\n      tag_106\n        /* \"#utility.yul\":1702:1707   */\n      dup2\n        /* \"#utility.yul\":1684:1708   */\n      tag_75\n      jump\t// in\n    tag_106:\n        /* \"#utility.yul\":1679:1682   */\n      dup3\n        /* \"#utility.yul\":1672:1709   */\n      mstore\n        /* \"#utility.yul\":1597:1715   */\n      pop\n      pop\n      jump\t// out\n        /* \"#utility.yul\":1721:1943   */\n    tag_22:\n        /* \"#utility.yul\":1814:1818   */\n      0x00\n        /* \"#utility.yul\":1852:1854   */\n      0x20\n        /* \"#utility.yul\":1841:1850   */\n      dup3\n        /* \"#utility.yul\":1837:1855   */\n      add\n        /* \"#utility.yul\":1829:1855   */\n      swap1\n      pop\n        /* \"#utility.yul\":1865:1936   */\n      tag_108\n        /* \"#utility.yul\":1933:1934   */\n      0x00\n        /* \"#utility.yul\":1922:1931   */\n      dup4\n        /* \"#utility.yul\":1918:1935   */\n      add\n        /* \"#utility.yul\":1909:1915   */\n      dup5\n        /* \"#utility.yul\":1865:1936   */\n      tag_80\n      jump\t// in\n    tag_108:\n        /* \"#utility.yul\":1721:1943   */\n      swap3\n      swap2\n      pop\n      pop\n      jump\t// out\n        /* \"#utility.yul\":1949:2278   */\n    tag_25:\n        /* \"#utility.yul\":2008:2014   */\n      0x00\n        /* \"#utility.yul\":2057:2059   */\n      0x20\n        /* \"#utility.yul\":2045:2054   */\n      dup3\n        /* \"#utility.yul\":2036:2043   */\n      dup5\n        /* \"#utility.yul\":2032:2055   */\n      sub\n        /* \"#utility.yul\":2028:2060   */\n      slt\n        /* \"#utility.yul\":2025:2144   */\n      iszero\n      tag_110\n      jumpi\n        /* \"#utility.yul\":2063:2142   */\n      tag_111\n      tag_73\n      jump\t// in\n    tag_111:\n        /* \"#utility.yul\":2025:2144   */\n    tag_110:\n        /* \"#utility.yul\":2183:2184   */\n      0x00\n        /* \"#utility.yul\":2208:2261   */\n      tag_112\n        /* \"#utility.yul\":2253:2260   */\n      dup5\n        /* \"#utility.yul\":2244:2250   */\n      dup3\n        /* \"#utility.yul\":2233:2242   */\n      dup6\n        /* \"#utility.yul\":2229:2251   */\n      add\n        /* \"#utility.yul\":2208:2261   */\n      tag_77\n      jump\t// in\n    tag_112:\n        /* \"#utility.yul\":2198:2261   */\n      swap2\n      pop\n        /* \"#utility.yul\":2154:2271   */\n      pop\n        /* \"#utility.yul\":1949:2278   */\n      swap3\n      swap2\n      pop\n      pop\n      jump\t// out\n        /* \"#utility.yul\":2284:2400   */\n    tag_81:\n        /* \"#utility.yul\":2354:2375   */\n      tag_114\n        /* \"#utility.yul\":2369:2374   */\n      dup2\n        /* \"#utility.yul\":2354:2375   */\n      tag_78\n      jump\t// in\n    tag_114:\n        /* \"#utility.yul\":2347:2352   */\n      dup2\n        /* \"#utility.yul\":2344:2376   */\n      eq\n        /* \"#utility.yul\":2334:2394   */\n      tag_115\n      jumpi\n        /* \"#utility.yul\":2390:2391   */\n      0x00\n        /* \"#utility.yul\":2387:2388   */\n      0x00\n        /* \"#utility.yul\":2380:2392   */\n      revert\n        /* \"#utility.yul\":2334:2394   */\n    tag_115:\n        /* \"#utility.yul\":2284:2400   */\n      pop\n      jump\t// out\n        /* \"#utility.yul\":2406:2539   */\n    tag_82:\n        /* \"#utility.yul\":2449:2454   */\n      0x00\n        /* \"#utility.yul\":2487:2493   */\n      dup2\n        /* \"#utility.yul\":2474:2494   */\n      calldataload\n        /* \"#utility.yul\":2465:2494   */\n      swap1\n      pop\n        /* \"#utility.yul\":2503:2533   */\n      tag_117\n        /* \"#utility.yul\":2527:2532   */\n      dup2\n        /* \"#utility.yul\":2503:2533   */\n      tag_81\n      jump\t// in\n    tag_117:\n        /* \"#utility.yul\":2406:2539   */\n      swap3\n      swap2\n      pop\n      pop\n      jump\t// out\n        /* \"#utility.yul\":2545:3007   */\n    tag_29:\n        /* \"#utility.yul\":2607:2613   */\n      0x00\n        /* \"#utility.yul\":2615:2621   */\n      0x00\n        /* \"#utility.yul\":2664:2666   */\n      0x40\n        /* \"#utility.yul\":2652:2661   */\n      dup4\n        /* \"#utility.yul\":2643:2650   */\n      dup6\n        /* \"#utility.yul\":2639:2662   */\n      sub\n        /* \"#utility.yul\":2635:2667   */\n      slt\n        /* \"#utility.yul\":2632:2751   */\n      iszero\n      tag_119\n      jumpi\n        /* \"#utility.yul\":2670:2749   */\n      tag_120\n      tag_73\n      jump\t// in\n    tag_120:\n        /* \"#utility.yul\":2632:2751   */\n    tag_119:\n        /* \"#utility.yul\":2790:2791   */\n      0x00\n        /* \"#utility.yul\":2815:2865   */\n      tag_121\n        /* \"#utility.yul\":2857:2864   */\n      dup6\n        /* \"#utility.yul\":2848:2854   */\n      dup3\n        /* \"#utility.yul\":2837:2846   */\n      dup7\n        /* \"#utility.yul\":2833:2855   */\n      add\n        /* \"#utility.yul\":2815:2865   */\n      tag_82\n      jump\t// in\n    tag_121:\n        /* \"#utility.yul\":2805:2865   */\n      swap3\n      pop\n        /* \"#utility.yul\":2761:2875   */\n      pop\n        /* \"#utility.yul\":2914:2916   */\n      0x20\n        /* \"#utility.yul\":2940:2990   */\n      tag_122\n        /* \"#utility.yul\":2982:2989   */\n      dup6\n        /* \"#utility.yul\":2973:2979   */\n      dup3\n        /* \"#utility.yul\":2962:2971   */\n      dup7\n        /* \"#utility.yul\":2958:2980   */\n      add\n        /* \"#utility.yul\":2940:2990   */\n      tag_82\n      jump\t// in\n    tag_122:\n        /* \"#utility.yul\":2930:2990   */\n      swap2\n      pop\n        /* \"#utility.yul\":2885:3000   */\n      pop\n        /* \"#utility.yul\":2545:3007   */\n      swap3\n      pop\n      swap3\n      swap1\n      pop\n      jump\t// out\n        /* \"#utility.yul\":3013:3193   */\n    tag_83:\n        /* \"#utility.yul\":3061:3138   */\n      0x4e487b7100000000000000000000000000000000000000000000000000000000\n        /* \"#utility.yul\":3058:3059   */\n      0x00\n        /* \"#utility.yul\":3051:3139   */\n      mstore\n        /* \"#utility.yul\":3158:3162   */\n      0x11\n        /* \"#utility.yul\":3155:3156   */\n      0x04\n        /* \"#utility.yul\":3148:3163   */\n      mstore\n        /* \"#utility.yul\":3182:3186   */\n      0x24\n        /* \"#utility.yul\":3179:3180   */\n      0x00\n        /* \"#utility.yul\":3172:3187   */\n      revert\n        /* \"#utility.yul\":3199:3390   */\n    tag_62:\n        /* \"#utility.yul\":3239:3242   */\n      0x00\n        /* \"#utility.yul\":3258:3278   */\n      tag_125\n        /* \"#utility.yul\":3276:3277   */\n      dup3\n        /* \"#utility.yul\":3258:3278   */\n      tag_75\n      jump\t// in\n    tag_125:\n        /* \"#utility.yul\":3253:3278   */\n      swap2\n      pop\n        /* \"#utility.yul\":3292:3312   */\n      tag_126\n        /* \"#utility.yul\":3310:3311   */\n      dup4\n        /* \"#utility.yul\":3292:3312   */\n      tag_75\n      jump\t// in\n    tag_126:\n        /* \"#utility.yul\":3287:3312   */\n      swap3\n      pop\n        /* \"#utility.yul\":3335:3336   */\n      dup3\n        /* \"#utility.yul\":3332:3333   */\n      dup3\n        /* \"#utility.yul\":3328:3337   */\n      add\n        /* \"#utility.yul\":3321:3337   */\n      swap1\n      pop\n        /* \"#utility.yul\":3356:3359   */\n      dup1\n        /* \"#utility.yul\":3353:3354   */\n      dup3\n        /* \"#utility.yul\":3350:3360   */\n      gt\n        /* \"#utility.yul\":3347:3383   */\n      iszero\n      tag_127\n      jumpi\n        /* \"#utility.yul\":3363:3381   */\n      tag_128\n      tag_83\n      jump\t// in\n    tag_128:\n        /* \"#utility.yul\":3347:3383   */\n    tag_127:\n        /* \"#utility.yul\":3199:3390   */\n      swap3\n      swap2\n      pop\n      pop\n      jump\t// out\n        /* \"#utility.yul\":3396:3806   */\n    tag_64:\n        /* \"#utility.yul\":3436:3443   */\n      0x00\n        /* \"#utility.yul\":3459:3479   */\n      tag_130\n        /* \"#utility.yul\":3477:3478   */\n      dup3\n        /* \"#utility.yul\":3459:3479   */\n      tag_75\n      jump\t// in\n    tag_130:\n        /* \"#utility.yul\":3454:3479   */\n      swap2\n      pop\n        /* \"#utility.yul\":3493:3513   */\n      tag_131\n        /* \"#utility.yul\":3511:3512   */\n      dup4\n        /* \"#utility.yul\":3493:3513   */\n      tag_75\n      jump\t// in\n    tag_131:\n        /* \"#utility.yul\":3488:3513   */\n      swap3\n      pop\n        /* \"#utility.yul\":3548:3549   */\n      dup3\n        /* \"#utility.yul\":3545:3546   */\n      dup3\n        /* \"#utility.yul\":3541:3550   */\n      mul\n        /* \"#utility.yul\":3570:3600   */\n      tag_132\n        /* \"#utility.yul\":3588:3599   */\n      dup2\n        /* \"#utility.yul\":3570:3600   */\n      tag_75\n      jump\t// in\n    tag_132:\n        /* \"#utility.yul\":3559:3600   */\n      swap2\n      pop\n        /* \"#utility.yul\":3749:3750   */\n      dup3\n        /* \"#utility.yul\":3740:3747   */\n      dup3\n        /* \"#utility.yul\":3736:3751   */\n      div\n        /* \"#utility.yul\":3733:3734   */\n      dup5\n        /* \"#utility.yul\":3730:3752   */\n      eq\n        /* \"#utility.yul\":3710:3711   */\n      dup4\n        /* \"#utility.yul\":3703:3712   */\n      iszero\n        /* \"#utility.yul\":3683:3766   */\n      or\n        /* \"#utility.yul\":3660:3799   */\n      tag_133\n      jumpi\n        /* \"#utility.yul\":3779:3797   */\n      tag_134\n      tag_83\n      jump\t// in\n    tag_134:\n        /* \"#utility.yul\":3660:3799   */\n    tag_133:\n        /* \"#utility.yul\":3444:3806   */\n      pop\n        /* \"#utility.yul\":3396:3806   */\n      swap3\n      swap2\n      pop\n      pop\n      jump\t// out\n        /* \"#utility.yul\":3812:3992   */\n    tag_84:\n        /* \"#utility.yul\":3860:3937   */\n      0x4e487b7100000000000000000000000000000000000000000000000000000000\n        /* \"#utility.yul\":3857:3858   */\n      0x00\n        /* \"#utility.yul\":3850:3938   */\n      mstore\n        /* \"#utility.yul\":3957:3961   */\n      0x12\n        /* \"#utility.yul\":3954:3955   */\n      0x04\n        /* \"#utility.yul\":3947:3962   */\n      mstore\n        /* \"#utility.yul\":3981:3985   */\n      0x24\n        /* \"#utility.yul\":3978:3979   */\n      0x00\n        /* \"#utility.yul\":3971:3986   */\n      revert\n        /* \"#utility.yul\":3998:4183   */\n    tag_68:\n        /* \"#utility.yul\":4038:4039   */\n      0x00\n        /* \"#utility.yul\":4055:4075   */\n      tag_137\n        /* \"#utility.yul\":4073:4074   */\n      dup3\n        /* \"#utility.yul\":4055:4075   */\n      tag_75\n      jump\t// in\n    tag_137:\n        /* \"#utility.yul\":4050:4075   */\n      swap2\n      pop\n        /* \"#utility.yul\":4089:4109   */\n      tag_138\n        /* \"#utility.yul\":4107:4108   */\n      dup4\n        /* \"#utility.yul\":4089:4109   */\n      tag_75\n      jump\t// in\n    tag_138:\n        /* \"#utility.yul\":4084:4109   */\n      swap3\n      pop\n        /* \"#utility.yul\":4128:4129   */\n      dup3\n        /* \"#utility.yul\":4118:4153   */\n      tag_139\n      jumpi\n        /* \"#utility.yul\":4133:4151   */\n      tag_140\n      tag_84\n      jump\t// in\n    tag_140:\n        /* \"#utility.yul\":4118:4153   */\n    tag_139:\n        /* \"#utility.yul\":4175:4176   */\n      dup3\n        /* \"#utility.yul\":4172:4173   */\n      dup3\n        /* \"#utility.yul\":4168:4177   */\n      div\n        /* \"#utility.yul\":4163:4177   */\n      swap1\n      pop\n        /* \"#utility.yul\":3998:4183   */\n      swap3\n      swap2\n      pop\n      pop\n      jump\t// out\n\n    auxdata: 0xa2646970667358221220a1746763a150b096a1e8abc8a706046e8dd333300050f42fe9e41119db5508a864736f6c634300081e0033\n}\n",
				"bytecode": {
					"linkReferences": {},
					"object": "6080604052348015600e575f5ffd5b5061058a8061001c5f395ff3fe608060405234801561000f575f5ffd5b5060043610610091575f3560e01c80635f1b3dfd116100645780635f1b3dfd1461012f5780638d2aabce1461015f578063c299157b1461018f578063fdd122e9146101bf578063ff374df4146101ef57610091565b80630d7d9854146100955780633ef42c97146100c5578063428706be146100e357806355a4b9d5146100ff575b5f5ffd5b6100af60048036038101906100aa919061032a565b61021f565b6040516100bc9190610382565b60405180910390f35b6100cd610230565b6040516100da91906103aa565b60405180910390f35b6100fd60048036038101906100f891906103c3565b610238565b005b61011960048036038101906101149190610418565b610255565b6040516101269190610382565b60405180910390f35b6101496004803603810190610144919061032a565b61026d565b6040516101569190610382565b60405180910390f35b6101796004803603810190610174919061032a565b61027f565b60405161018691906103aa565b60405180910390f35b6101a960048036038101906101a4919061032a565b6102a5565b6040516101b691906103aa565b60405180910390f35b6101d960048036038101906101d49190610418565b6102cb565b6040516101e69190610382565b60405180910390f35b6102096004803603810190610204919061032a565b6102e2565b6040516102169190610382565b60405180910390f35b5f5f82841490508091505092915050565b5f5f54905090565b600a811061024b57805f81905550610252565b5f5f819055505b50565b5f5f8380156102615750825b90508091505092915050565b5f5f8284141590508091505092915050565b5f5f6002838561028f9190610483565b61029991906104b6565b90508091505092915050565b5f5f600283856102b59190610483565b6102bf9190610524565b90508091505092915050565b5f5f83806102d65750825b90508091505092915050565b5f5f82841190508091505092915050565b5f5ffd5b5f819050919050565b610309816102f7565b8114610313575f5ffd5b50565b5f8135905061032481610300565b92915050565b5f5f604083850312156103405761033f6102f3565b5b5f61034d85828601610316565b925050602061035e85828601610316565b9150509250929050565b5f8115159050919050565b61037c81610368565b82525050565b5f6020820190506103955f830184610373565b92915050565b6103a4816102f7565b82525050565b5f6020820190506103bd5f83018461039b565b92915050565b5f602082840312156103d8576103d76102f3565b5b5f6103e584828501610316565b91505092915050565b6103f781610368565b8114610401575f5ffd5b50565b5f81359050610412816103ee565b92915050565b5f5f6040838503121561042e5761042d6102f3565b5b5f61043b85828601610404565b925050602061044c85828601610404565b9150509250929050565b7f4e487b71000000000000000000000000000000000000000000000000000000005f52601160045260245ffd5b5f61048d826102f7565b9150610498836102f7565b92508282019050808211156104b0576104af610456565b5b92915050565b5f6104c0826102f7565b91506104cb836102f7565b92508282026104d9816102f7565b915082820484148315176104f0576104ef610456565b5b5092915050565b7f4e487b71000000000000000000000000000000000000000000000000000000005f52601260045260245ffd5b5f61052e826102f7565b9150610539836102f7565b925082610549576105486104f7565b5b82820490509291505056fea2646970667358221220a1746763a150b096a1e8abc8a706046e8dd333300050f42fe9e41119db5508a864736f6c634300081e0033",
					"opcodes": "PUSH1 0x80 PUSH1 0x40 MSTORE CALLVALUE DUP1 ISZERO PUSH1 0xE JUMPI PUSH0 PUSH0 REVERT JUMPDEST POP PUSH2 0x58A DUP1 PUSH2 0x1C PUSH0 CODECOPY PUSH0 RETURN INVALID PUSH1 0x80 PUSH1 0x40 MSTORE CALLVALUE DUP1 ISZERO PUSH2 0xF JUMPI PUSH0 PUSH0 REVERT JUMPDEST POP PUSH1 0x4 CALLDATASIZE LT PUSH2 0x91 JUMPI PUSH0 CALLDATALOAD PUSH1 0xE0 SHR DUP1 PUSH4 0x5F1B3DFD GT PUSH2 0x64 JUMPI DUP1 PUSH4 0x5F1B3DFD EQ PUSH2 0x12F JUMPI DUP1 PUSH4 0x8D2AABCE EQ PUSH2 0x15F JUMPI DUP1 PUSH4 0xC299157B EQ PUSH2 0x18F JUMPI DUP1 PUSH4 0xFDD122E9 EQ PUSH2 0x1BF JUMPI DUP1 PUSH4 0xFF374DF4 EQ PUSH2 0x1EF JUMPI PUSH2 0x91 JUMP JUMPDEST DUP1 PUSH4 0xD7D9854 EQ PUSH2 0x95 JUMPI DUP1 PUSH4 0x3EF42C97 EQ PUSH2 0xC5 JUMPI DUP1 PUSH4 0x428706BE EQ PUSH2 0xE3 JUMPI DUP1 PUSH4 0x55A4B9D5 EQ PUSH2 0xFF JUMPI JUMPDEST PUSH0 PUSH0 REVERT JUMPDEST PUSH2 0xAF PUSH1 0x4 DUP1 CALLDATASIZE SUB DUP2 ADD SWAP1 PUSH2 0xAA SWAP2 SWAP1 PUSH2 0x32A JUMP JUMPDEST PUSH2 0x21F JUMP JUMPDEST PUSH1 0x40 MLOAD PUSH2 0xBC SWAP2 SWAP1 PUSH2 0x382 JUMP JUMPDEST PUSH1 0x40 MLOAD DUP1 SWAP2 SUB SWAP1 RETURN JUMPDEST PUSH2 0xCD PUSH2 0x230 JUMP JUMPDEST PUSH1 0x40 MLOAD PUSH2 0xDA SWAP2 SWAP1 PUSH2 0x3AA JUMP JUMPDEST PUSH1 0x40 MLOAD DUP1 SWAP2 SUB SWAP1 RETURN JUMPDEST PUSH2 0xFD PUSH1 0x4 DUP1 CALLDATASIZE SUB DUP2 ADD SWAP1 PUSH2 0xF8 SWAP2 SWAP1 PUSH2 0x3C3 JUMP JUMPDEST PUSH2 0x238 JUMP JUMPDEST STOP JUMPDEST PUSH2 0x119 PUSH1 0x4 DUP1 CALLDATASIZE SUB DUP2 ADD SWAP1 PUSH2 0x114 SWAP2 SWAP1 PUSH2 0x418 JUMP JUMPDEST PUSH2 0x255 JUMP JUMPDEST PUSH1 0x40 MLOAD PUSH2 0x126 SWAP2 SWAP1 PUSH2 0x382 JUMP JUMPDEST PUSH1 0x40 MLOAD DUP1 SWAP2 SUB SWAP1 RETURN JUMPDEST PUSH2 0x149 PUSH1 0x4 DUP1 CALLDATASIZE SUB DUP2 ADD SWAP1 PUSH2 0x144 SWAP2 SWAP1 PUSH2 0x32A JUMP JUMPDEST PUSH2 0x26D JUMP JUMPDEST PUSH1 0x40 MLOAD PUSH2 0x156 SWAP2 SWAP1 PUSH2 0x382 JUMP JUMPDEST PUSH1 0x40 MLOAD DUP1 SWAP2 SUB SWAP1 RETURN JUMPDEST PUSH2 0x179 PUSH1 0x4 DUP1 CALLDATASIZE SUB DUP2 ADD SWAP1 PUSH2 0x174 SWAP2 SWAP1 PUSH2 0x32A JUMP JUMPDEST PUSH2 0x27F JUMP JUMPDEST PUSH1 0x40 MLOAD PUSH2 0x186 SWAP2 SWAP1 PUSH2 0x3AA JUMP JUMPDEST PUSH1 0x40 MLOAD DUP1 SWAP2 SUB SWAP1 RETURN JUMPDEST PUSH2 0x1A9 PUSH1 0x4 DUP1 CALLDATASIZE SUB DUP2 ADD SWAP1 PUSH2 0x1A4 SWAP2 SWAP1 PUSH2 0x32A JUMP JUMPDEST PUSH2 0x2A5 JUMP JUMPDEST PUSH1 0x40 MLOAD PUSH2 0x1B6 SWAP2 SWAP1 PUSH2 0x3AA JUMP JUMPDEST PUSH1 0x40 MLOAD DUP1 SWAP2 SUB SWAP1 RETURN JUMPDEST PUSH2 0x1D9 PUSH1 0x4 DUP1 CALLDATASIZE SUB DUP2 ADD SWAP1 PUSH2 0x1D4 SWAP2 SWAP1 PUSH2 0x418 JUMP JUMPDEST PUSH2 0x2CB JUMP JUMPDEST PUSH1 0x40 MLOAD PUSH2 0x1E6 SWAP2 SWAP1 PUSH2 0x382 JUMP JUMPDEST PUSH1 0x40 MLOAD DUP1 SWAP2 SUB SWAP1 RETURN JUMPDEST PUSH2 0x209 PUSH1 0x4 DUP1 CALLDATASIZE SUB DUP2 ADD SWAP1 PUSH2 0x204 SWAP2 SWAP1 PUSH2 0x32A JUMP JUMPDEST PUSH2 0x2E2 JUMP JUMPDEST PUSH1 0x40 MLOAD PUSH2 0x216 SWAP2 SWAP1 PUSH2 0x382 JUMP JUMPDEST PUSH1 0x40 MLOAD DUP1 SWAP2 SUB SWAP1 RETURN JUMPDEST PUSH0 PUSH0 DUP3 DUP5 EQ SWAP1 POP DUP1 SWAP2 POP POP SWAP3 SWAP2 POP POP JUMP JUMPDEST PUSH0 PUSH0 SLOAD SWAP1 POP SWAP1 JUMP JUMPDEST PUSH1 0xA DUP2 LT PUSH2 0x24B JUMPI DUP1 PUSH0 DUP2 SWAP1 SSTORE POP PUSH2 0x252 JUMP JUMPDEST PUSH0 PUSH0 DUP2 SWAP1 SSTORE POP JUMPDEST POP JUMP JUMPDEST PUSH0 PUSH0 DUP4 DUP1 ISZERO PUSH2 0x261 JUMPI POP DUP3 JUMPDEST SWAP1 POP DUP1 SWAP2 POP POP SWAP3 SWAP2 POP POP JUMP JUMPDEST PUSH0 PUSH0 DUP3 DUP5 EQ ISZERO SWAP1 POP DUP1 SWAP2 POP POP SWAP3 SWAP2 POP POP JUMP JUMPDEST PUSH0 PUSH0 PUSH1 0x2 DUP4 DUP6 PUSH2 0x28F SWAP2 SWAP1 PUSH2 0x483 JUMP JUMPDEST PUSH2 0x299 SWAP2 SWAP1 PUSH2 0x4B6 JUMP JUMPDEST SWAP1 POP DUP1 SWAP2 POP POP SWAP3 SWAP2 POP POP JUMP JUMPDEST PUSH0 PUSH0 PUSH1 0x2 DUP4 DUP6 PUSH2 0x2B5 SWAP2 SWAP1 PUSH2 0x483 JUMP JUMPDEST PUSH2 0x2BF SWAP2 SWAP1 PUSH2 0x524 JUMP JUMPDEST SWAP1 POP DUP1 SWAP2 POP POP SWAP3 SWAP2 POP POP JUMP JUMPDEST PUSH0 PUSH0 DUP4 DUP1 PUSH2 0x2D6 JUMPI POP DUP3 JUMPDEST SWAP1 POP DUP1 SWAP2 POP POP SWAP3 SWAP2 POP POP JUMP JUMPDEST PUSH0 PUSH0 DUP3 DUP5 GT SWAP1 POP DUP1 SWAP2 POP POP SWAP3 SWAP2 POP POP JUMP JUMPDEST PUSH0 PUSH0 REVERT JUMPDEST PUSH0 DUP2 SWAP1 POP SWAP2 SWAP1 POP JUMP JUMPDEST PUSH2 0x309 DUP2 PUSH2 0x2F7 JUMP JUMPDEST DUP2 EQ PUSH2 0x313 JUMPI PUSH0 PUSH0 REVERT JUMPDEST POP JUMP JUMPDEST PUSH0 DUP2 CALLDATALOAD SWAP1 POP PUSH2 0x324 DUP2 PUSH2 0x300 JUMP JUMPDEST SWAP3 SWAP2 POP POP JUMP JUMPDEST PUSH0 PUSH0 PUSH1 0x40 DUP4 DUP6 SUB SLT ISZERO PUSH2 0x340 JUMPI PUSH2 0x33F PUSH2 0x2F3 JUMP JUMPDEST JUMPDEST PUSH0 PUSH2 0x34D DUP6 DUP3 DUP7 ADD PUSH2 0x316 JUMP JUMPDEST SWAP3 POP POP PUSH1 0x20 PUSH2 0x35E DUP6 DUP3 DUP7 ADD PUSH2 0x316 JUMP JUMPDEST SWAP2 POP POP SWAP3 POP SWAP3 SWAP1 POP JUMP JUMPDEST PUSH0 DUP2 ISZERO ISZERO SWAP1 POP SWAP2 SWAP1 POP JUMP JUMPDEST PUSH2 0x37C DUP2 PUSH2 0x368 JUMP JUMPDEST DUP3 MSTORE POP POP JUMP JUMPDEST PUSH0 PUSH1 0x20 DUP3 ADD SWAP1 POP PUSH2 0x395 PUSH0 DUP4 ADD DUP5 PUSH2 0x373 JUMP JUMPDEST SWAP3 SWAP2 POP POP JUMP JUMPDEST PUSH2 0x3A4 DUP2 PUSH2 0x2F7 JUMP JUMPDEST DUP3 MSTORE POP POP JUMP JUMPDEST PUSH0 PUSH1 0x20 DUP3 ADD SWAP1 POP PUSH2 0x3BD PUSH0 DUP4 ADD DUP5 PUSH2 0x39B JUMP JUMPDEST SWAP3 SWAP2 POP POP JUMP JUMPDEST PUSH0 PUSH1 0x20 DUP3 DUP5 SUB SLT ISZERO PUSH2 0x3D8 JUMPI PUSH2 0x3D7 PUSH2 0x2F3 JUMP JUMPDEST JUMPDEST PUSH0 PUSH2 0x3E5 DUP5 DUP3 DUP6 ADD PUSH2 0x316 JUMP JUMPDEST SWAP2 POP POP SWAP3 SWAP2 POP POP JUMP JUMPDEST PUSH2 0x3F7 DUP2 PUSH2 0x368 JUMP JUMPDEST DUP2 EQ PUSH2 0x401 JUMPI PUSH0 PUSH0 REVERT JUMPDEST POP JUMP JUMPDEST PUSH0 DUP2 CALLDATALOAD SWAP1 POP PUSH2 0x412 DUP2 PUSH2 0x3EE JUMP JUMPDEST SWAP3 SWAP2 POP POP JUMP JUMPDEST PUSH0 PUSH0 PUSH1 0x40 DUP4 DUP6 SUB SLT ISZERO PUSH2 0x42E JUMPI PUSH2 0x42D PUSH2 0x2F3 JUMP JUMPDEST JUMPDEST PUSH0 PUSH2 0x43B DUP6 DUP3 DUP7 ADD PUSH2 0x404 JUMP JUMPDEST SWAP3 POP POP PUSH1 0x20 PUSH2 0x44C DUP6 DUP3 DUP7 ADD PUSH2 0x404 JUMP JUMPDEST SWAP2 POP POP SWAP3 POP SWAP3 SWAP1 POP JUMP JUMPDEST PUSH32 0x4E487B7100000000000000000000000000000000000000000000000000000000 PUSH0 MSTORE PUSH1 0x11 PUSH1 0x4 MSTORE PUSH1 0x24 PUSH0 REVERT JUMPDEST PUSH0 PUSH2 0x48D DUP3 PUSH2 0x2F7 JUMP JUMPDEST SWAP2 POP PUSH2 0x498 DUP4 PUSH2 0x2F7 JUMP JUMPDEST SWAP3 POP DUP3 DUP3 ADD SWAP1 POP DUP1 DUP3 GT ISZERO PUSH2 0x4B0 JUMPI PUSH2 0x4AF PUSH2 0x456 JUMP JUMPDEST JUMPDEST SWAP3 SWAP2 POP POP JUMP JUMPDEST PUSH0 PUSH2 0x4C0 DUP3 PUSH2 0x2F7 JUMP JUMPDEST SWAP2 POP PUSH2 0x4CB DUP4 PUSH2 0x2F7 JUMP JUMPDEST SWAP3 POP DUP3 DUP3 MUL PUSH2 0x4D9 DUP2 PUSH2 0x2F7 JUMP JUMPDEST SWAP2 POP DUP3 DUP3 DIV DUP5 EQ DUP4 ISZERO OR PUSH2 0x4F0 JUMPI PUSH2 0x4EF PUSH2 0x456 JUMP JUMPDEST JUMPDEST POP SWAP3 SWAP2 POP POP JUMP JUMPDEST PUSH32 0x4E487B7100000000000000000000000000000000000000000000000000000000 PUSH0 MSTORE PUSH1 0x12 PUSH1 0x4 MSTORE PUSH1 0x24 PUSH0 REVERT JUMPDEST PUSH0 PUSH2 0x52E DUP3 PUSH2 0x2F7 JUMP JUMPDEST SWAP2 POP PUSH2 0x539 DUP4 PUSH2 0x2F7 JUMP JUMPDEST SWAP3 POP DUP3 PUSH2 0x549 JUMPI PUSH2 0x548 PUSH2 0x4F7 JUMP JUMPDEST JUMPDEST DUP3 DUP3 DIV SWAP1 POP SWAP3 SWAP2 POP POP JUMP INVALID LOG2 PUSH5 0x6970667358 0x22 SLT KECCAK256 LOG1 PUSH21 0x6763A150B096A1E8ABC8A706046E8DD333300050F4 0x2F 0xE9 RETF GT NOT 0xDB SSTORE ADDMOD 0xA8 PUSH5 0x736F6C6343 STOP ADDMOD 0x1E STOP CALLER "
				},
				"gasEstimates": {
					"creation": {
						"codeDepositCost": "283600",
						"executionCost": "322",
						"totalCost": "283922"
					},
					"external": {
						"calcularMedia(uint256,uint256)": "infinite",
						"calcularMultiplicar(uint256,uint256)": "infinite",
						"getValor()": "2454",
						"setValor(uint256)": "22593",
						"verificarCondicional(bool,bool)": "infinite",
						"verificarMaior(uint256,uint256)": "infinite",
						"verificarSeDiferente(uint256,uint256)": "infinite",
						"verificarSeIgual(uint256,uint256)": "infinite",
						"verificarVerdadeiro(bool,bool)": "infinite"
					}
				},
				"methodIdentifiers": {
					"calcularMedia(uint256,uint256)": "c299157b",
					"calcularMultiplicar(uint256,uint256)": "8d2aabce",
					"getValor()": "3ef42c97",
					"setValor(uint256)": "428706be",
					"verificarCondicional(bool,bool)": "fdd122e9",
					"verificarMaior(uint256,uint256)": "ff374df4",
					"verificarSeDiferente(uint256,uint256)": "5f1b3dfd",
					"verificarSeIgual(uint256,uint256)": "0d7d9854",
					"verificarVerdadeiro(bool,bool)": "55a4b9d5"
				}
			},
			"storageLayout": {
				"storage": [
					{
						"astId": 3,
						"contract": "AulasNearX/Operadores1.sol:ExemploOperadores",
						"label": "valor",
						"offset": 0,
						"slot": "0",
						"type": "t_uint256"
					}
				],
				"types": {
					"t_uint256": {
						"encoding": "inplace",
						"label": "uint256",
						"numberOfBytes": "32"
					}
				}
			},
			"userdoc": {
				"kind": "user",
				"methods": {},
				"version": 1
			}
		}
	}
}