{
	"AulasNearX/Functions.sol": {
		"funcoesExemplo": {
			"abi": [
				{
					"inputs": [],
					"name": "getValor",
					"outputs": [
						{
							"internalType": "uint256",
							"name": "",
							"type": "uint256"
						}
					],
					"stateMutability": "view",
					"type": "function"
				},
				{
					"inputs": [],
					"name": "mensagem",
					"outputs": [
						{
							"internalType": "string",
							"name": "",
							"type": "string"
						}
					],
					"stateMutability": "view",
					"type": "function"
				},
				{
					"inputs": [
						{
							"internalType": "uint256",
							"name": "x",
							"type": "uint256"
						},
						{
							"internalType": "uint256",
							"name": "y",
							"type": "uint256"
						}
					],
					"name": "multiplicar",
					"outputs": [
						{
							"internalType": "uint256",
							"name": "",
							"type": "uint256"
						}
					],
					"stateMutability": "pure",
					"type": "function"
				},
				{
					"inputs": [],
					"name": "nome",
					"outputs": [
						{
							"internalType": "string",
							"name": "",
							"type": "string"
						}
					],
					"stateMutability": "view",
					"type": "function"
				},
				{
					"inputs": [],
					"name": "numero",
					"outputs": [
						{
							"internalType": "uint256",
							"name": "",
							"type": "uint256"
						}
					],
					"stateMutability": "view",
					"type": "function"
				},
				{
					"inputs": [],
					"name": "payEther",
					"outputs": [],
					"stateMutability": "payable",
					"type": "function"
				},
				{
					"inputs": [
						{
							"internalType": "string",
							"name": "_msg",
							"type": "string"
						}
					],
					"name": "setMsg",
					"outputs": [],
					"stateMutability": "nonpayable",
					"type": "function"
				},
				{
					"inputs": [
						{
							"internalType": "string",
							"name": "_meunome",
							"type": "string"
						},
						{
							"internalType": "uint256",
							"name": "_numero",
							"type": "uint256"
						}
					],
					"name": "setNomeNum",
					"outputs": [],
					"stateMutability": "nonpayable",
					"type": "function"
				},
				{
					"inputs": [
						{
							"internalType": "uint256",
							"name": "_valor",
							"type": "uint256"
						}
					],
					"name": "setValor",
					"outputs": [],
					"stateMutability": "nonpayable",
					"type": "function"
				}
			],
			"devdoc": {
				"kind": "dev",
				"methods": {},
				"version": 1
			},
			"evm": {
				"assembly": "    /* \"AulasNearX/Functions.sol\":61:1727  contract funcoesExemplo {... */\n  mstore(0x40, 0x80)\n  callvalue\n  dup1\n  iszero\n  tag_1\n  jumpi\n  revert(0x00, 0x00)\ntag_1:\n  pop\n  dataSize(sub_0)\n  dup1\n  dataOffset(sub_0)\n  0x00\n  codecopy\n  0x00\n  return\nstop\n\nsub_0: assembly {\n        /* \"AulasNearX/Functions.sol\":61:1727  contract funcoesExemplo {... */\n      mstore(0x40, 0x80)\n      jumpi(tag_1, lt(calldatasize, 0x04))\n      shr(0xe0, calldataload(0x00))\n      dup1\n      0x91f5de38\n      gt\n      tag_11\n      jumpi\n      dup1\n      0x91f5de38\n      eq\n      tag_6\n      jumpi\n      dup1\n      0xbfe7cdda\n      eq\n      tag_7\n      jumpi\n      dup1\n      0xc4784fd4\n      eq\n      tag_8\n      jumpi\n      dup1\n      0xf7474d00\n      eq\n      tag_9\n      jumpi\n      dup1\n      0xfbf188a2\n      eq\n      tag_10\n      jumpi\n      jump(tag_1)\n    tag_11:\n      dup1\n      0x160c5063\n      eq\n      tag_2\n      jumpi\n      dup1\n      0x2deb124b\n      eq\n      tag_3\n      jumpi\n      dup1\n      0x3ef42c97\n      eq\n      tag_4\n      jumpi\n      dup1\n      0x428706be\n      eq\n      tag_5\n      jumpi\n    tag_1:\n      revert(0x00, 0x00)\n        /* \"AulasNearX/Functions.sol\":220:242  string public mensagem */\n    tag_2:\n      callvalue\n      dup1\n      iszero\n      tag_12\n      jumpi\n      revert(0x00, 0x00)\n    tag_12:\n      pop\n      tag_13\n      tag_14\n      jump\t// in\n    tag_13:\n      mload(0x40)\n      tag_15\n      swap2\n      swap1\n      tag_16\n      jump\t// in\n    tag_15:\n      mload(0x40)\n      dup1\n      swap2\n      sub\n      swap1\n      return\n        /* \"AulasNearX/Functions.sol\":195:213  string public nome */\n    tag_3:\n      callvalue\n      dup1\n      iszero\n      tag_17\n      jumpi\n      revert(0x00, 0x00)\n    tag_17:\n      pop\n      tag_18\n      tag_19\n      jump\t// in\n    tag_18:\n      mload(0x40)\n      tag_20\n      swap2\n      swap1\n      tag_16\n      jump\t// in\n    tag_20:\n      mload(0x40)\n      dup1\n      swap2\n      sub\n      swap1\n      return\n        /* \"AulasNearX/Functions.sol\":1298:1381  function getValor() external view returns (uint256) {... */\n    tag_4:\n      callvalue\n      dup1\n      iszero\n      tag_21\n      jumpi\n      revert(0x00, 0x00)\n    tag_21:\n      pop\n      tag_22\n      tag_23\n      jump\t// in\n    tag_22:\n      mload(0x40)\n      tag_24\n      swap2\n      swap1\n      tag_25\n      jump\t// in\n    tag_24:\n      mload(0x40)\n      dup1\n      swap2\n      sub\n      swap1\n      return\n        /* \"AulasNearX/Functions.sol\":1069:1145  function setValor(uint256 _valor) external {... */\n    tag_5:\n      callvalue\n      dup1\n      iszero\n      tag_26\n      jumpi\n      revert(0x00, 0x00)\n    tag_26:\n      pop\n      tag_27\n      0x04\n      dup1\n      calldatasize\n      sub\n      dup2\n      add\n      swap1\n      tag_28\n      swap2\n      swap1\n      tag_29\n      jump\t// in\n    tag_28:\n      tag_30\n      jump\t// in\n    tag_27:\n      stop\n        /* \"AulasNearX/Functions.sol\":126:147  uint256 public numero */\n    tag_6:\n      callvalue\n      dup1\n      iszero\n      tag_31\n      jumpi\n      revert(0x00, 0x00)\n    tag_31:\n      pop\n      tag_32\n      tag_33\n      jump\t// in\n    tag_32:\n      mload(0x40)\n      tag_34\n      swap2\n      swap1\n      tag_25\n      jump\t// in\n    tag_34:\n      mload(0x40)\n      dup1\n      swap2\n      sub\n      swap1\n      return\n        /* \"AulasNearX/Functions.sol\":473:644  function setNomeNum(string memory _meunome, uint256 _numero) external {... */\n    tag_7:\n      callvalue\n      dup1\n      iszero\n      tag_35\n      jumpi\n      revert(0x00, 0x00)\n    tag_35:\n      pop\n      tag_36\n      0x04\n      dup1\n      calldatasize\n      sub\n      dup2\n      add\n      swap1\n      tag_37\n      swap2\n      swap1\n      tag_38\n      jump\t// in\n    tag_37:\n      tag_39\n      jump\t// in\n    tag_36:\n      stop\n        /* \"AulasNearX/Functions.sol\":910:987  function setMsg(string memory _msg) public {... */\n    tag_8:\n      callvalue\n      dup1\n      iszero\n      tag_40\n      jumpi\n      revert(0x00, 0x00)\n    tag_40:\n      pop\n      tag_41\n      0x04\n      dup1\n      calldatasize\n      sub\n      dup2\n      add\n      swap1\n      tag_42\n      swap2\n      swap1\n      tag_43\n      jump\t// in\n    tag_42:\n      tag_44\n      jump\t// in\n    tag_41:\n      stop\n        /* \"AulasNearX/Functions.sol\":1684:1724  function payEther() external payable { } */\n    tag_9:\n      tag_45\n      tag_46\n      jump\t// in\n    tag_45:\n      stop\n        /* \"AulasNearX/Functions.sol\":1450:1614  function multiplicar(uint256 x, uint256 y) external pure returns (uint256) {... */\n    tag_10:\n      callvalue\n      dup1\n      iszero\n      tag_47\n      jumpi\n      revert(0x00, 0x00)\n    tag_47:\n      pop\n      tag_48\n      0x04\n      dup1\n      calldatasize\n      sub\n      dup2\n      add\n      swap1\n      tag_49\n      swap2\n      swap1\n      tag_50\n      jump\t// in\n    tag_49:\n      tag_51\n      jump\t// in\n    tag_48:\n      mload(0x40)\n      tag_52\n      swap2\n      swap1\n      tag_25\n      jump\t// in\n    tag_52:\n      mload(0x40)\n      dup1\n      swap2\n      sub\n      swap1\n      return\n        /* \"AulasNearX/Functions.sol\":220:242  string public mensagem */\n    tag_14:\n      0x02\n      dup1\n      sload\n      tag_53\n      swap1\n      tag_54\n      jump\t// in\n    tag_53:\n      dup1\n      0x1f\n      add\n      0x20\n      dup1\n      swap2\n      div\n      mul\n      0x20\n      add\n      mload(0x40)\n      swap1\n      dup2\n      add\n      0x40\n      mstore\n      dup1\n      swap3\n      swap2\n      swap1\n      dup2\n      dup2\n      mstore\n      0x20\n      add\n      dup3\n      dup1\n      sload\n      tag_55\n      swap1\n      tag_54\n      jump\t// in\n    tag_55:\n      dup1\n      iszero\n      tag_56\n      jumpi\n      dup1\n      0x1f\n      lt\n      tag_57\n      jumpi\n      0x0100\n      dup1\n      dup4\n      sload\n      div\n      mul\n      dup4\n      mstore\n      swap2\n      0x20\n      add\n      swap2\n      jump(tag_56)\n    tag_57:\n      dup3\n      add\n      swap2\n      swap1\n      0x00\n      mstore\n      keccak256(0x00, 0x20)\n      swap1\n    tag_58:\n      dup2\n      sload\n      dup2\n      mstore\n      swap1\n      0x01\n      add\n      swap1\n      0x20\n      add\n      dup1\n      dup4\n      gt\n      tag_58\n      jumpi\n      dup3\n      swap1\n      sub\n      0x1f\n      and\n      dup3\n      add\n      swap2\n    tag_56:\n      pop\n      pop\n      pop\n      pop\n      pop\n      dup2\n      jump\t// out\n        /* \"AulasNearX/Functions.sol\":195:213  string public nome */\n    tag_19:\n      0x01\n      dup1\n      sload\n      tag_59\n      swap1\n      tag_54\n      jump\t// in\n    tag_59:\n      dup1\n      0x1f\n      add\n      0x20\n      dup1\n      swap2\n      div\n      mul\n      0x20\n      add\n      mload(0x40)\n      swap1\n      dup2\n      add\n      0x40\n      mstore\n      dup1\n      swap3\n      swap2\n      swap1\n      dup2\n      dup2\n      mstore\n      0x20\n      add\n      dup3\n      dup1\n      sload\n      tag_60\n      swap1\n      tag_54\n      jump\t// in\n    tag_60:\n      dup1\n      iszero\n      tag_61\n      jumpi\n      dup1\n      0x1f\n      lt\n      tag_62\n      jumpi\n      0x0100\n      dup1\n      dup4\n      sload\n      div\n      mul\n      dup4\n      mstore\n      swap2\n      0x20\n      add\n      swap2\n      jump(tag_61)\n    tag_62:\n      dup3\n      add\n      swap2\n      swap1\n      0x00\n      mstore\n      keccak256(0x00, 0x20)\n      swap1\n    tag_63:\n      dup2\n      sload\n      dup2\n      mstore\n      swap1\n      0x01\n      add\n      swap1\n      0x20\n      add\n      dup1\n      dup4\n      gt\n      tag_63\n      jumpi\n      dup3\n      swap1\n      sub\n      0x1f\n      and\n      dup3\n      add\n      swap2\n    tag_61:\n      pop\n      pop\n      pop\n      pop\n      pop\n      dup2\n      jump\t// out\n        /* \"AulasNearX/Functions.sol\":1298:1381  function getValor() external view returns (uint256) {... */\n    tag_23:\n        /* \"AulasNearX/Functions.sol\":1341:1348  uint256 */\n      0x00\n        /* \"AulasNearX/Functions.sol\":1368:1373  valor */\n      sload(0x03)\n        /* \"AulasNearX/Functions.sol\":1361:1373  return valor */\n      swap1\n      pop\n        /* \"AulasNearX/Functions.sol\":1298:1381  function getValor() external view returns (uint256) {... */\n      swap1\n      jump\t// out\n        /* \"AulasNearX/Functions.sol\":1069:1145  function setValor(uint256 _valor) external {... */\n    tag_30:\n        /* \"AulasNearX/Functions.sol\":1131:1137  _valor */\n      dup1\n        /* \"AulasNearX/Functions.sol\":1123:1128  valor */\n      0x03\n        /* \"AulasNearX/Functions.sol\":1123:1137  valor = _valor */\n      dup2\n      swap1\n      sstore\n      pop\n        /* \"AulasNearX/Functions.sol\":1069:1145  function setValor(uint256 _valor) external {... */\n      pop\n      jump\t// out\n        /* \"AulasNearX/Functions.sol\":126:147  uint256 public numero */\n    tag_33:\n      sload(0x00)\n      dup2\n      jump\t// out\n        /* \"AulasNearX/Functions.sol\":473:644  function setNomeNum(string memory _meunome, uint256 _numero) external {... */\n    tag_39:\n        /* \"AulasNearX/Functions.sol\":561:569  _meunome */\n      dup2\n        /* \"AulasNearX/Functions.sol\":554:558  nome */\n      0x01\n        /* \"AulasNearX/Functions.sol\":554:569  nome = _meunome */\n      swap1\n      dup2\n      tag_67\n      swap2\n      swap1\n      tag_68\n      jump\t// in\n    tag_67:\n      pop\n        /* \"AulasNearX/Functions.sol\":580:595  subNum(_numero) */\n      tag_69\n        /* \"AulasNearX/Functions.sol\":587:594  _numero */\n      dup2\n        /* \"AulasNearX/Functions.sol\":580:586  subNum */\n      tag_70\n        /* \"AulasNearX/Functions.sol\":580:595  subNum(_numero) */\n      jump\t// in\n    tag_69:\n        /* \"AulasNearX/Functions.sol\":606:636  setMsg(\"chamou pelo contrato\") */\n      tag_71\n      mload(0x40)\n      dup1\n      0x40\n      add\n      0x40\n      mstore\n      dup1\n      0x14\n      dup2\n      mstore\n      0x20\n      add\n      0x6368616d6f752070656c6f20636f6e747261746f000000000000000000000000\n      dup2\n      mstore\n      pop\n        /* \"AulasNearX/Functions.sol\":606:612  setMsg */\n      tag_44\n        /* \"AulasNearX/Functions.sol\":606:636  setMsg(\"chamou pelo contrato\") */\n      jump\t// in\n    tag_71:\n        /* \"AulasNearX/Functions.sol\":473:644  function setNomeNum(string memory _meunome, uint256 _numero) external {... */\n      pop\n      pop\n      jump\t// out\n        /* \"AulasNearX/Functions.sol\":910:987  function setMsg(string memory _msg) public {... */\n    tag_44:\n        /* \"AulasNearX/Functions.sol\":975:979  _msg */\n      dup1\n        /* \"AulasNearX/Functions.sol\":964:972  mensagem */\n      0x02\n        /* \"AulasNearX/Functions.sol\":964:979  mensagem = _msg */\n      swap1\n      dup2\n      tag_73\n      swap2\n      swap1\n      tag_68\n      jump\t// in\n    tag_73:\n      pop\n        /* \"AulasNearX/Functions.sol\":910:987  function setMsg(string memory _msg) public {... */\n      pop\n      jump\t// out\n        /* \"AulasNearX/Functions.sol\":1684:1724  function payEther() external payable { } */\n    tag_46:\n      jump\t// out\n        /* \"AulasNearX/Functions.sol\":1450:1614  function multiplicar(uint256 x, uint256 y) external pure returns (uint256) {... */\n    tag_51:\n        /* \"AulasNearX/Functions.sol\":1516:1523  uint256 */\n      0x00\n        /* \"AulasNearX/Functions.sol\":1536:1562  uint256 valorMultiplicacao */\n      0x00\n        /* \"AulasNearX/Functions.sol\":1569:1570  y */\n      dup3\n        /* \"AulasNearX/Functions.sol\":1565:1566  x */\n      dup5\n        /* \"AulasNearX/Functions.sol\":1565:1570  x * y */\n      tag_76\n      swap2\n      swap1\n      tag_77\n      jump\t// in\n    tag_76:\n        /* \"AulasNearX/Functions.sol\":1536:1570  uint256 valorMultiplicacao = x * y */\n      swap1\n      pop\n        /* \"AulasNearX/Functions.sol\":1588:1606  valorMultiplicacao */\n      dup1\n        /* \"AulasNearX/Functions.sol\":1581:1606  return valorMultiplicacao */\n      swap2\n      pop\n      pop\n        /* \"AulasNearX/Functions.sol\":1450:1614  function multiplicar(uint256 x, uint256 y) external pure returns (uint256) {... */\n      swap3\n      swap2\n      pop\n      pop\n      jump\t// out\n        /* \"AulasNearX/Functions.sol\":709:836  function subNum(uint256 _numeroSub) internal {... */\n    tag_70:\n        /* \"AulasNearX/Functions.sol\":765:782  uint256 subNumero */\n      0x00\n        /* \"AulasNearX/Functions.sol\":798:799  2 */\n      0x02\n        /* \"AulasNearX/Functions.sol\":785:795  _numeroSub */\n      dup3\n        /* \"AulasNearX/Functions.sol\":785:799  _numeroSub / 2 */\n      tag_79\n      swap2\n      swap1\n      tag_80\n      jump\t// in\n    tag_79:\n        /* \"AulasNearX/Functions.sol\":765:799  uint256 subNumero = _numeroSub / 2 */\n      swap1\n      pop\n        /* \"AulasNearX/Functions.sol\":819:828  subNumero */\n      dup1\n        /* \"AulasNearX/Functions.sol\":810:816  numero */\n      0x00\n        /* \"AulasNearX/Functions.sol\":810:828  numero = subNumero */\n      dup2\n      swap1\n      sstore\n      pop\n        /* \"AulasNearX/Functions.sol\":754:836  {... */\n      pop\n        /* \"AulasNearX/Functions.sol\":709:836  function subNum(uint256 _numeroSub) internal {... */\n      pop\n      jump\t// out\n        /* \"#utility.yul\":7:106   */\n    tag_81:\n        /* \"#utility.yul\":59:65   */\n      0x00\n        /* \"#utility.yul\":93:98   */\n      dup2\n        /* \"#utility.yul\":87:99   */\n      mload\n        /* \"#utility.yul\":77:99   */\n      swap1\n      pop\n        /* \"#utility.yul\":7:106   */\n      swap2\n      swap1\n      pop\n      jump\t// out\n        /* \"#utility.yul\":112:281   */\n    tag_82:\n        /* \"#utility.yul\":196:207   */\n      0x00\n        /* \"#utility.yul\":230:236   */\n      dup3\n        /* \"#utility.yul\":225:228   */\n      dup3\n        /* \"#utility.yul\":218:237   */\n      mstore\n        /* \"#utility.yul\":270:274   */\n      0x20\n        /* \"#utility.yul\":265:268   */\n      dup3\n        /* \"#utility.yul\":261:275   */\n      add\n        /* \"#utility.yul\":246:275   */\n      swap1\n      pop\n        /* \"#utility.yul\":112:281   */\n      swap3\n      swap2\n      pop\n      pop\n      jump\t// out\n        /* \"#utility.yul\":287:426   */\n    tag_83:\n        /* \"#utility.yul\":376:382   */\n      dup3\n        /* \"#utility.yul\":371:374   */\n      dup2\n        /* \"#utility.yul\":366:369   */\n      dup4\n        /* \"#utility.yul\":360:383   */\n      mcopy\n        /* \"#utility.yul\":417:418   */\n      0x00\n        /* \"#utility.yul\":408:414   */\n      dup4\n        /* \"#utility.yul\":403:406   */\n      dup4\n        /* \"#utility.yul\":399:415   */\n      add\n        /* \"#utility.yul\":392:419   */\n      mstore\n        /* \"#utility.yul\":287:426   */\n      pop\n      pop\n      pop\n      jump\t// out\n        /* \"#utility.yul\":432:534   */\n    tag_84:\n        /* \"#utility.yul\":473:479   */\n      0x00\n        /* \"#utility.yul\":524:526   */\n      0x1f\n        /* \"#utility.yul\":520:527   */\n      not\n        /* \"#utility.yul\":515:517   */\n      0x1f\n        /* \"#utility.yul\":508:513   */\n      dup4\n        /* \"#utility.yul\":504:518   */\n      add\n        /* \"#utility.yul\":500:528   */\n      and\n        /* \"#utility.yul\":490:528   */\n      swap1\n      pop\n        /* \"#utility.yul\":432:534   */\n      swap2\n      swap1\n      pop\n      jump\t// out\n        /* \"#utility.yul\":540:917   */\n    tag_85:\n        /* \"#utility.yul\":628:631   */\n      0x00\n        /* \"#utility.yul\":656:695   */\n      tag_126\n        /* \"#utility.yul\":689:694   */\n      dup3\n        /* \"#utility.yul\":656:695   */\n      tag_81\n      jump\t// in\n    tag_126:\n        /* \"#utility.yul\":711:782   */\n      tag_127\n        /* \"#utility.yul\":775:781   */\n      dup2\n        /* \"#utility.yul\":770:773   */\n      dup6\n        /* \"#utility.yul\":711:782   */\n      tag_82\n      jump\t// in\n    tag_127:\n        /* \"#utility.yul\":704:782   */\n      swap4\n      pop\n        /* \"#utility.yul\":791:856   */\n      tag_128\n        /* \"#utility.yul\":849:855   */\n      dup2\n        /* \"#utility.yul\":844:847   */\n      dup6\n        /* \"#utility.yul\":837:841   */\n      0x20\n        /* \"#utility.yul\":830:835   */\n      dup7\n        /* \"#utility.yul\":826:842   */\n      add\n        /* \"#utility.yul\":791:856   */\n      tag_83\n      jump\t// in\n    tag_128:\n        /* \"#utility.yul\":881:910   */\n      tag_129\n        /* \"#utility.yul\":903:909   */\n      dup2\n        /* \"#utility.yul\":881:910   */\n      tag_84\n      jump\t// in\n    tag_129:\n        /* \"#utility.yul\":876:879   */\n      dup5\n        /* \"#utility.yul\":872:911   */\n      add\n        /* \"#utility.yul\":865:911   */\n      swap2\n      pop\n        /* \"#utility.yul\":632:917   */\n      pop\n        /* \"#utility.yul\":540:917   */\n      swap3\n      swap2\n      pop\n      pop\n      jump\t// out\n        /* \"#utility.yul\":923:1236   */\n    tag_16:\n        /* \"#utility.yul\":1036:1040   */\n      0x00\n        /* \"#utility.yul\":1074:1076   */\n      0x20\n        /* \"#utility.yul\":1063:1072   */\n      dup3\n        /* \"#utility.yul\":1059:1077   */\n      add\n        /* \"#utility.yul\":1051:1077   */\n      swap1\n      pop\n        /* \"#utility.yul\":1123:1132   */\n      dup2\n        /* \"#utility.yul\":1117:1121   */\n      dup2\n        /* \"#utility.yul\":1113:1133   */\n      sub\n        /* \"#utility.yul\":1109:1110   */\n      0x00\n        /* \"#utility.yul\":1098:1107   */\n      dup4\n        /* \"#utility.yul\":1094:1111   */\n      add\n        /* \"#utility.yul\":1087:1134   */\n      mstore\n        /* \"#utility.yul\":1151:1229   */\n      tag_131\n        /* \"#utility.yul\":1224:1228   */\n      dup2\n        /* \"#utility.yul\":1215:1221   */\n      dup5\n        /* \"#utility.yul\":1151:1229   */\n      tag_85\n      jump\t// in\n    tag_131:\n        /* \"#utility.yul\":1143:1229   */\n      swap1\n      pop\n        /* \"#utility.yul\":923:1236   */\n      swap3\n      swap2\n      pop\n      pop\n      jump\t// out\n        /* \"#utility.yul\":1242:1319   */\n    tag_86:\n        /* \"#utility.yul\":1279:1286   */\n      0x00\n        /* \"#utility.yul\":1308:1313   */\n      dup2\n        /* \"#utility.yul\":1297:1313   */\n      swap1\n      pop\n        /* \"#utility.yul\":1242:1319   */\n      swap2\n      swap1\n      pop\n      jump\t// out\n        /* \"#utility.yul\":1325:1443   */\n    tag_87:\n        /* \"#utility.yul\":1412:1436   */\n      tag_134\n        /* \"#utility.yul\":1430:1435   */\n      dup2\n        /* \"#utility.yul\":1412:1436   */\n      tag_86\n      jump\t// in\n    tag_134:\n        /* \"#utility.yul\":1407:1410   */\n      dup3\n        /* \"#utility.yul\":1400:1437   */\n      mstore\n        /* \"#utility.yul\":1325:1443   */\n      pop\n      pop\n      jump\t// out\n        /* \"#utility.yul\":1449:1671   */\n    tag_25:\n        /* \"#utility.yul\":1542:1546   */\n      0x00\n        /* \"#utility.yul\":1580:1582   */\n      0x20\n        /* \"#utility.yul\":1569:1578   */\n      dup3\n        /* \"#utility.yul\":1565:1583   */\n      add\n        /* \"#utility.yul\":1557:1583   */\n      swap1\n      pop\n        /* \"#utility.yul\":1593:1664   */\n      tag_136\n        /* \"#utility.yul\":1661:1662   */\n      0x00\n        /* \"#utility.yul\":1650:1659   */\n      dup4\n        /* \"#utility.yul\":1646:1663   */\n      add\n        /* \"#utility.yul\":1637:1643   */\n      dup5\n        /* \"#utility.yul\":1593:1664   */\n      tag_87\n      jump\t// in\n    tag_136:\n        /* \"#utility.yul\":1449:1671   */\n      swap3\n      swap2\n      pop\n      pop\n      jump\t// out\n        /* \"#utility.yul\":1677:1752   */\n    tag_88:\n        /* \"#utility.yul\":1710:1716   */\n      0x00\n        /* \"#utility.yul\":1743:1745   */\n      0x40\n        /* \"#utility.yul\":1737:1746   */\n      mload\n        /* \"#utility.yul\":1727:1746   */\n      swap1\n      pop\n        /* \"#utility.yul\":1677:1752   */\n      swap1\n      jump\t// out\n        /* \"#utility.yul\":1758:1875   */\n    tag_89:\n        /* \"#utility.yul\":1867:1868   */\n      0x00\n        /* \"#utility.yul\":1864:1865   */\n      0x00\n        /* \"#utility.yul\":1857:1869   */\n      revert\n        /* \"#utility.yul\":1881:1998   */\n    tag_90:\n        /* \"#utility.yul\":1990:1991   */\n      0x00\n        /* \"#utility.yul\":1987:1988   */\n      0x00\n        /* \"#utility.yul\":1980:1992   */\n      revert\n        /* \"#utility.yul\":2004:2126   */\n    tag_91:\n        /* \"#utility.yul\":2077:2101   */\n      tag_141\n        /* \"#utility.yul\":2095:2100   */\n      dup2\n        /* \"#utility.yul\":2077:2101   */\n      tag_86\n      jump\t// in\n    tag_141:\n        /* \"#utility.yul\":2070:2075   */\n      dup2\n        /* \"#utility.yul\":2067:2102   */\n      eq\n        /* \"#utility.yul\":2057:2120   */\n      tag_142\n      jumpi\n        /* \"#utility.yul\":2116:2117   */\n      0x00\n        /* \"#utility.yul\":2113:2114   */\n      0x00\n        /* \"#utility.yul\":2106:2118   */\n      revert\n        /* \"#utility.yul\":2057:2120   */\n    tag_142:\n        /* \"#utility.yul\":2004:2126   */\n      pop\n      jump\t// out\n        /* \"#utility.yul\":2132:2271   */\n    tag_92:\n        /* \"#utility.yul\":2178:2183   */\n      0x00\n        /* \"#utility.yul\":2216:2222   */\n      dup2\n        /* \"#utility.yul\":2203:2223   */\n      calldataload\n        /* \"#utility.yul\":2194:2223   */\n      swap1\n      pop\n        /* \"#utility.yul\":2232:2265   */\n      tag_144\n        /* \"#utility.yul\":2259:2264   */\n      dup2\n        /* \"#utility.yul\":2232:2265   */\n      tag_91\n      jump\t// in\n    tag_144:\n        /* \"#utility.yul\":2132:2271   */\n      swap3\n      swap2\n      pop\n      pop\n      jump\t// out\n        /* \"#utility.yul\":2277:2606   */\n    tag_29:\n        /* \"#utility.yul\":2336:2342   */\n      0x00\n        /* \"#utility.yul\":2385:2387   */\n      0x20\n        /* \"#utility.yul\":2373:2382   */\n      dup3\n        /* \"#utility.yul\":2364:2371   */\n      dup5\n        /* \"#utility.yul\":2360:2383   */\n      sub\n        /* \"#utility.yul\":2356:2388   */\n      slt\n        /* \"#utility.yul\":2353:2472   */\n      iszero\n      tag_146\n      jumpi\n        /* \"#utility.yul\":2391:2470   */\n      tag_147\n      tag_89\n      jump\t// in\n    tag_147:\n        /* \"#utility.yul\":2353:2472   */\n    tag_146:\n        /* \"#utility.yul\":2511:2512   */\n      0x00\n        /* \"#utility.yul\":2536:2589   */\n      tag_148\n        /* \"#utility.yul\":2581:2588   */\n      dup5\n        /* \"#utility.yul\":2572:2578   */\n      dup3\n        /* \"#utility.yul\":2561:2570   */\n      dup6\n        /* \"#utility.yul\":2557:2579   */\n      add\n        /* \"#utility.yul\":2536:2589   */\n      tag_92\n      jump\t// in\n    tag_148:\n        /* \"#utility.yul\":2526:2589   */\n      swap2\n      pop\n        /* \"#utility.yul\":2482:2599   */\n      pop\n        /* \"#utility.yul\":2277:2606   */\n      swap3\n      swap2\n      pop\n      pop\n      jump\t// out\n        /* \"#utility.yul\":2612:2729   */\n    tag_93:\n        /* \"#utility.yul\":2721:2722   */\n      0x00\n        /* \"#utility.yul\":2718:2719   */\n      0x00\n        /* \"#utility.yul\":2711:2723   */\n      revert\n        /* \"#utility.yul\":2735:2852   */\n    tag_94:\n        /* \"#utility.yul\":2844:2845   */\n      0x00\n        /* \"#utility.yul\":2841:2842   */\n      0x00\n        /* \"#utility.yul\":2834:2846   */\n      revert\n        /* \"#utility.yul\":2858:3038   */\n    tag_95:\n        /* \"#utility.yul\":2906:2983   */\n      0x4e487b7100000000000000000000000000000000000000000000000000000000\n        /* \"#utility.yul\":2903:2904   */\n      0x00\n        /* \"#utility.yul\":2896:2984   */\n      mstore\n        /* \"#utility.yul\":3003:3007   */\n      0x41\n        /* \"#utility.yul\":3000:3001   */\n      0x04\n        /* \"#utility.yul\":2993:3008   */\n      mstore\n        /* \"#utility.yul\":3027:3031   */\n      0x24\n        /* \"#utility.yul\":3024:3025   */\n      0x00\n        /* \"#utility.yul\":3017:3032   */\n      revert\n        /* \"#utility.yul\":3044:3325   */\n    tag_96:\n        /* \"#utility.yul\":3127:3154   */\n      tag_153\n        /* \"#utility.yul\":3149:3153   */\n      dup3\n        /* \"#utility.yul\":3127:3154   */\n      tag_84\n      jump\t// in\n    tag_153:\n        /* \"#utility.yul\":3119:3125   */\n      dup2\n        /* \"#utility.yul\":3115:3155   */\n      add\n        /* \"#utility.yul\":3257:3263   */\n      dup2\n        /* \"#utility.yul\":3245:3255   */\n      dup2\n        /* \"#utility.yul\":3242:3264   */\n      lt\n        /* \"#utility.yul\":3221:3239   */\n      0xffffffffffffffff\n        /* \"#utility.yul\":3209:3219   */\n      dup3\n        /* \"#utility.yul\":3206:3240   */\n      gt\n        /* \"#utility.yul\":3203:3265   */\n      or\n        /* \"#utility.yul\":3200:3288   */\n      iszero\n      tag_154\n      jumpi\n        /* \"#utility.yul\":3268:3286   */\n      tag_155\n      tag_95\n      jump\t// in\n    tag_155:\n        /* \"#utility.yul\":3200:3288   */\n    tag_154:\n        /* \"#utility.yul\":3308:3318   */\n      dup1\n        /* \"#utility.yul\":3304:3306   */\n      0x40\n        /* \"#utility.yul\":3297:3319   */\n      mstore\n        /* \"#utility.yul\":3087:3325   */\n      pop\n        /* \"#utility.yul\":3044:3325   */\n      pop\n      pop\n      jump\t// out\n        /* \"#utility.yul\":3331:3460   */\n    tag_97:\n        /* \"#utility.yul\":3365:3371   */\n      0x00\n        /* \"#utility.yul\":3392:3412   */\n      tag_157\n      tag_88\n      jump\t// in\n    tag_157:\n        /* \"#utility.yul\":3382:3412   */\n      swap1\n      pop\n        /* \"#utility.yul\":3421:3454   */\n      tag_158\n        /* \"#utility.yul\":3449:3453   */\n      dup3\n        /* \"#utility.yul\":3441:3447   */\n      dup3\n        /* \"#utility.yul\":3421:3454   */\n      tag_96\n      jump\t// in\n    tag_158:\n        /* \"#utility.yul\":3331:3460   */\n      swap2\n      swap1\n      pop\n      jump\t// out\n        /* \"#utility.yul\":3466:3774   */\n    tag_98:\n        /* \"#utility.yul\":3528:3532   */\n      0x00\n        /* \"#utility.yul\":3618:3636   */\n      0xffffffffffffffff\n        /* \"#utility.yul\":3610:3616   */\n      dup3\n        /* \"#utility.yul\":3607:3637   */\n      gt\n        /* \"#utility.yul\":3604:3660   */\n      iszero\n      tag_160\n      jumpi\n        /* \"#utility.yul\":3640:3658   */\n      tag_161\n      tag_95\n      jump\t// in\n    tag_161:\n        /* \"#utility.yul\":3604:3660   */\n    tag_160:\n        /* \"#utility.yul\":3678:3707   */\n      tag_162\n        /* \"#utility.yul\":3700:3706   */\n      dup3\n        /* \"#utility.yul\":3678:3707   */\n      tag_84\n      jump\t// in\n    tag_162:\n        /* \"#utility.yul\":3670:3707   */\n      swap1\n      pop\n        /* \"#utility.yul\":3762:3766   */\n      0x20\n        /* \"#utility.yul\":3756:3760   */\n      dup2\n        /* \"#utility.yul\":3752:3767   */\n      add\n        /* \"#utility.yul\":3744:3767   */\n      swap1\n      pop\n        /* \"#utility.yul\":3466:3774   */\n      swap2\n      swap1\n      pop\n      jump\t// out\n        /* \"#utility.yul\":3780:3928   */\n    tag_99:\n        /* \"#utility.yul\":3878:3884   */\n      dup3\n        /* \"#utility.yul\":3873:3876   */\n      dup2\n        /* \"#utility.yul\":3868:3871   */\n      dup4\n        /* \"#utility.yul\":3855:3885   */\n      calldatacopy\n        /* \"#utility.yul\":3919:3920   */\n      0x00\n        /* \"#utility.yul\":3910:3916   */\n      dup4\n        /* \"#utility.yul\":3905:3908   */\n      dup4\n        /* \"#utility.yul\":3901:3917   */\n      add\n        /* \"#utility.yul\":3894:3921   */\n      mstore\n        /* \"#utility.yul\":3780:3928   */\n      pop\n      pop\n      pop\n      jump\t// out\n        /* \"#utility.yul\":3934:4359   */\n    tag_100:\n        /* \"#utility.yul\":4012:4017   */\n      0x00\n        /* \"#utility.yul\":4037:4103   */\n      tag_165\n        /* \"#utility.yul\":4053:4102   */\n      tag_166\n        /* \"#utility.yul\":4095:4101   */\n      dup5\n        /* \"#utility.yul\":4053:4102   */\n      tag_98\n      jump\t// in\n    tag_166:\n        /* \"#utility.yul\":4037:4103   */\n      tag_97\n      jump\t// in\n    tag_165:\n        /* \"#utility.yul\":4028:4103   */\n      swap1\n      pop\n        /* \"#utility.yul\":4126:4132   */\n      dup3\n        /* \"#utility.yul\":4119:4124   */\n      dup2\n        /* \"#utility.yul\":4112:4133   */\n      mstore\n        /* \"#utility.yul\":4164:4168   */\n      0x20\n        /* \"#utility.yul\":4157:4162   */\n      dup2\n        /* \"#utility.yul\":4153:4169   */\n      add\n        /* \"#utility.yul\":4202:4205   */\n      dup5\n        /* \"#utility.yul\":4193:4199   */\n      dup5\n        /* \"#utility.yul\":4188:4191   */\n      dup5\n        /* \"#utility.yul\":4184:4200   */\n      add\n        /* \"#utility.yul\":4181:4206   */\n      gt\n        /* \"#utility.yul\":4178:4290   */\n      iszero\n      tag_167\n      jumpi\n        /* \"#utility.yul\":4209:4288   */\n      tag_168\n      tag_94\n      jump\t// in\n    tag_168:\n        /* \"#utility.yul\":4178:4290   */\n    tag_167:\n        /* \"#utility.yul\":4299:4353   */\n      tag_169\n        /* \"#utility.yul\":4346:4352   */\n      dup5\n        /* \"#utility.yul\":4341:4344   */\n      dup3\n        /* \"#utility.yul\":4336:4339   */\n      dup6\n        /* \"#utility.yul\":4299:4353   */\n      tag_99\n      jump\t// in\n    tag_169:\n        /* \"#utility.yul\":4018:4359   */\n      pop\n        /* \"#utility.yul\":3934:4359   */\n      swap4\n      swap3\n      pop\n      pop\n      pop\n      jump\t// out\n        /* \"#utility.yul\":4379:4719   */\n    tag_101:\n        /* \"#utility.yul\":4435:4440   */\n      0x00\n        /* \"#utility.yul\":4484:4487   */\n      dup3\n        /* \"#utility.yul\":4477:4481   */\n      0x1f\n        /* \"#utility.yul\":4469:4475   */\n      dup4\n        /* \"#utility.yul\":4465:4482   */\n      add\n        /* \"#utility.yul\":4461:4488   */\n      slt\n        /* \"#utility.yul\":4451:4573   */\n      tag_171\n      jumpi\n        /* \"#utility.yul\":4492:4571   */\n      tag_172\n      tag_93\n      jump\t// in\n    tag_172:\n        /* \"#utility.yul\":4451:4573   */\n    tag_171:\n        /* \"#utility.yul\":4609:4615   */\n      dup2\n        /* \"#utility.yul\":4596:4616   */\n      calldataload\n        /* \"#utility.yul\":4634:4713   */\n      tag_173\n        /* \"#utility.yul\":4709:4712   */\n      dup5\n        /* \"#utility.yul\":4701:4707   */\n      dup3\n        /* \"#utility.yul\":4694:4698   */\n      0x20\n        /* \"#utility.yul\":4686:4692   */\n      dup7\n        /* \"#utility.yul\":4682:4699   */\n      add\n        /* \"#utility.yul\":4634:4713   */\n      tag_100\n      jump\t// in\n    tag_173:\n        /* \"#utility.yul\":4625:4713   */\n      swap2\n      pop\n        /* \"#utility.yul\":4441:4719   */\n      pop\n        /* \"#utility.yul\":4379:4719   */\n      swap3\n      swap2\n      pop\n      pop\n      jump\t// out\n        /* \"#utility.yul\":4725:5379   */\n    tag_38:\n        /* \"#utility.yul\":4803:4809   */\n      0x00\n        /* \"#utility.yul\":4811:4817   */\n      0x00\n        /* \"#utility.yul\":4860:4862   */\n      0x40\n        /* \"#utility.yul\":4848:4857   */\n      dup4\n        /* \"#utility.yul\":4839:4846   */\n      dup6\n        /* \"#utility.yul\":4835:4858   */\n      sub\n        /* \"#utility.yul\":4831:4863   */\n      slt\n        /* \"#utility.yul\":4828:4947   */\n      iszero\n      tag_175\n      jumpi\n        /* \"#utility.yul\":4866:4945   */\n      tag_176\n      tag_89\n      jump\t// in\n    tag_176:\n        /* \"#utility.yul\":4828:4947   */\n    tag_175:\n        /* \"#utility.yul\":5014:5015   */\n      0x00\n        /* \"#utility.yul\":5003:5012   */\n      dup4\n        /* \"#utility.yul\":4999:5016   */\n      add\n        /* \"#utility.yul\":4986:5017   */\n      calldataload\n        /* \"#utility.yul\":5044:5062   */\n      0xffffffffffffffff\n        /* \"#utility.yul\":5036:5042   */\n      dup2\n        /* \"#utility.yul\":5033:5063   */\n      gt\n        /* \"#utility.yul\":5030:5147   */\n      iszero\n      tag_177\n      jumpi\n        /* \"#utility.yul\":5066:5145   */\n      tag_178\n      tag_90\n      jump\t// in\n    tag_178:\n        /* \"#utility.yul\":5030:5147   */\n    tag_177:\n        /* \"#utility.yul\":5171:5234   */\n      tag_179\n        /* \"#utility.yul\":5226:5233   */\n      dup6\n        /* \"#utility.yul\":5217:5223   */\n      dup3\n        /* \"#utility.yul\":5206:5215   */\n      dup7\n        /* \"#utility.yul\":5202:5224   */\n      add\n        /* \"#utility.yul\":5171:5234   */\n      tag_101\n      jump\t// in\n    tag_179:\n        /* \"#utility.yul\":5161:5234   */\n      swap3\n      pop\n        /* \"#utility.yul\":4957:5244   */\n      pop\n        /* \"#utility.yul\":5283:5285   */\n      0x20\n        /* \"#utility.yul\":5309:5362   */\n      tag_180\n        /* \"#utility.yul\":5354:5361   */\n      dup6\n        /* \"#utility.yul\":5345:5351   */\n      dup3\n        /* \"#utility.yul\":5334:5343   */\n      dup7\n        /* \"#utility.yul\":5330:5352   */\n      add\n        /* \"#utility.yul\":5309:5362   */\n      tag_92\n      jump\t// in\n    tag_180:\n        /* \"#utility.yul\":5299:5362   */\n      swap2\n      pop\n        /* \"#utility.yul\":5254:5372   */\n      pop\n        /* \"#utility.yul\":4725:5379   */\n      swap3\n      pop\n      swap3\n      swap1\n      pop\n      jump\t// out\n        /* \"#utility.yul\":5385:5894   */\n    tag_43:\n        /* \"#utility.yul\":5454:5460   */\n      0x00\n        /* \"#utility.yul\":5503:5505   */\n      0x20\n        /* \"#utility.yul\":5491:5500   */\n      dup3\n        /* \"#utility.yul\":5482:5489   */\n      dup5\n        /* \"#utility.yul\":5478:5501   */\n      sub\n        /* \"#utility.yul\":5474:5506   */\n      slt\n        /* \"#utility.yul\":5471:5590   */\n      iszero\n      tag_182\n      jumpi\n        /* \"#utility.yul\":5509:5588   */\n      tag_183\n      tag_89\n      jump\t// in\n    tag_183:\n        /* \"#utility.yul\":5471:5590   */\n    tag_182:\n        /* \"#utility.yul\":5657:5658   */\n      0x00\n        /* \"#utility.yul\":5646:5655   */\n      dup3\n        /* \"#utility.yul\":5642:5659   */\n      add\n        /* \"#utility.yul\":5629:5660   */\n      calldataload\n        /* \"#utility.yul\":5687:5705   */\n      0xffffffffffffffff\n        /* \"#utility.yul\":5679:5685   */\n      dup2\n        /* \"#utility.yul\":5676:5706   */\n      gt\n        /* \"#utility.yul\":5673:5790   */\n      iszero\n      tag_184\n      jumpi\n        /* \"#utility.yul\":5709:5788   */\n      tag_185\n      tag_90\n      jump\t// in\n    tag_185:\n        /* \"#utility.yul\":5673:5790   */\n    tag_184:\n        /* \"#utility.yul\":5814:5877   */\n      tag_186\n        /* \"#utility.yul\":5869:5876   */\n      dup5\n        /* \"#utility.yul\":5860:5866   */\n      dup3\n        /* \"#utility.yul\":5849:5858   */\n      dup6\n        /* \"#utility.yul\":5845:5867   */\n      add\n        /* \"#utility.yul\":5814:5877   */\n      tag_101\n      jump\t// in\n    tag_186:\n        /* \"#utility.yul\":5804:5877   */\n      swap2\n      pop\n        /* \"#utility.yul\":5600:5887   */\n      pop\n        /* \"#utility.yul\":5385:5894   */\n      swap3\n      swap2\n      pop\n      pop\n      jump\t// out\n        /* \"#utility.yul\":5900:6374   */\n    tag_50:\n        /* \"#utility.yul\":5968:5974   */\n      0x00\n        /* \"#utility.yul\":5976:5982   */\n      0x00\n        /* \"#utility.yul\":6025:6027   */\n      0x40\n        /* \"#utility.yul\":6013:6022   */\n      dup4\n        /* \"#utility.yul\":6004:6011   */\n      dup6\n        /* \"#utility.yul\":6000:6023   */\n      sub\n        /* \"#utility.yul\":5996:6028   */\n      slt\n        /* \"#utility.yul\":5993:6112   */\n      iszero\n      tag_188\n      jumpi\n        /* \"#utility.yul\":6031:6110   */\n      tag_189\n      tag_89\n      jump\t// in\n    tag_189:\n        /* \"#utility.yul\":5993:6112   */\n    tag_188:\n        /* \"#utility.yul\":6151:6152   */\n      0x00\n        /* \"#utility.yul\":6176:6229   */\n      tag_190\n        /* \"#utility.yul\":6221:6228   */\n      dup6\n        /* \"#utility.yul\":6212:6218   */\n      dup3\n        /* \"#utility.yul\":6201:6210   */\n      dup7\n        /* \"#utility.yul\":6197:6219   */\n      add\n        /* \"#utility.yul\":6176:6229   */\n      tag_92\n      jump\t// in\n    tag_190:\n        /* \"#utility.yul\":6166:6229   */\n      swap3\n      pop\n        /* \"#utility.yul\":6122:6239   */\n      pop\n        /* \"#utility.yul\":6278:6280   */\n      0x20\n        /* \"#utility.yul\":6304:6357   */\n      tag_191\n        /* \"#utility.yul\":6349:6356   */\n      dup6\n        /* \"#utility.yul\":6340:6346   */\n      dup3\n        /* \"#utility.yul\":6329:6338   */\n      dup7\n        /* \"#utility.yul\":6325:6347   */\n      add\n        /* \"#utility.yul\":6304:6357   */\n      tag_92\n      jump\t// in\n    tag_191:\n        /* \"#utility.yul\":6294:6357   */\n      swap2\n      pop\n        /* \"#utility.yul\":6249:6367   */\n      pop\n        /* \"#utility.yul\":5900:6374   */\n      swap3\n      pop\n      swap3\n      swap1\n      pop\n      jump\t// out\n        /* \"#utility.yul\":6380:6560   */\n    tag_102:\n        /* \"#utility.yul\":6428:6505   */\n      0x4e487b7100000000000000000000000000000000000000000000000000000000\n        /* \"#utility.yul\":6425:6426   */\n      0x00\n        /* \"#utility.yul\":6418:6506   */\n      mstore\n        /* \"#utility.yul\":6525:6529   */\n      0x22\n        /* \"#utility.yul\":6522:6523   */\n      0x04\n        /* \"#utility.yul\":6515:6530   */\n      mstore\n        /* \"#utility.yul\":6549:6553   */\n      0x24\n        /* \"#utility.yul\":6546:6547   */\n      0x00\n        /* \"#utility.yul\":6539:6554   */\n      revert\n        /* \"#utility.yul\":6566:6886   */\n    tag_54:\n        /* \"#utility.yul\":6610:6616   */\n      0x00\n        /* \"#utility.yul\":6647:6648   */\n      0x02\n        /* \"#utility.yul\":6641:6645   */\n      dup3\n        /* \"#utility.yul\":6637:6649   */\n      div\n        /* \"#utility.yul\":6627:6649   */\n      swap1\n      pop\n        /* \"#utility.yul\":6694:6695   */\n      0x01\n        /* \"#utility.yul\":6688:6692   */\n      dup3\n        /* \"#utility.yul\":6684:6696   */\n      and\n        /* \"#utility.yul\":6715:6733   */\n      dup1\n        /* \"#utility.yul\":6705:6786   */\n      tag_194\n      jumpi\n        /* \"#utility.yul\":6771:6775   */\n      0x7f\n        /* \"#utility.yul\":6763:6769   */\n      dup3\n        /* \"#utility.yul\":6759:6776   */\n      and\n        /* \"#utility.yul\":6749:6776   */\n      swap2\n      pop\n        /* \"#utility.yul\":6705:6786   */\n    tag_194:\n        /* \"#utility.yul\":6833:6835   */\n      0x20\n        /* \"#utility.yul\":6825:6831   */\n      dup3\n        /* \"#utility.yul\":6822:6836   */\n      lt\n        /* \"#utility.yul\":6802:6820   */\n      dup2\n        /* \"#utility.yul\":6799:6837   */\n      sub\n        /* \"#utility.yul\":6796:6880   */\n      tag_195\n      jumpi\n        /* \"#utility.yul\":6852:6870   */\n      tag_196\n      tag_102\n      jump\t// in\n    tag_196:\n        /* \"#utility.yul\":6796:6880   */\n    tag_195:\n        /* \"#utility.yul\":6617:6886   */\n      pop\n        /* \"#utility.yul\":6566:6886   */\n      swap2\n      swap1\n      pop\n      jump\t// out\n        /* \"#utility.yul\":6892:7033   */\n    tag_103:\n        /* \"#utility.yul\":6941:6945   */\n      0x00\n        /* \"#utility.yul\":6964:6967   */\n      dup2\n        /* \"#utility.yul\":6956:6967   */\n      swap1\n      pop\n        /* \"#utility.yul\":6987:6990   */\n      dup2\n        /* \"#utility.yul\":6984:6985   */\n      0x00\n        /* \"#utility.yul\":6977:6991   */\n      mstore\n        /* \"#utility.yul\":7021:7025   */\n      0x20\n        /* \"#utility.yul\":7018:7019   */\n      0x00\n        /* \"#utility.yul\":7008:7026   */\n      keccak256\n        /* \"#utility.yul\":7000:7026   */\n      swap1\n      pop\n        /* \"#utility.yul\":6892:7033   */\n      swap2\n      swap1\n      pop\n      jump\t// out\n        /* \"#utility.yul\":7039:7132   */\n    tag_104:\n        /* \"#utility.yul\":7076:7082   */\n      0x00\n        /* \"#utility.yul\":7123:7125   */\n      0x20\n        /* \"#utility.yul\":7118:7120   */\n      0x1f\n        /* \"#utility.yul\":7111:7116   */\n      dup4\n        /* \"#utility.yul\":7107:7121   */\n      add\n        /* \"#utility.yul\":7103:7126   */\n      div\n        /* \"#utility.yul\":7093:7126   */\n      swap1\n      pop\n        /* \"#utility.yul\":7039:7132   */\n      swap2\n      swap1\n      pop\n      jump\t// out\n        /* \"#utility.yul\":7138:7245   */\n    tag_105:\n        /* \"#utility.yul\":7182:7190   */\n      0x00\n        /* \"#utility.yul\":7232:7237   */\n      dup3\n        /* \"#utility.yul\":7226:7230   */\n      dup3\n        /* \"#utility.yul\":7222:7238   */\n      shl\n        /* \"#utility.yul\":7201:7238   */\n      swap1\n      pop\n        /* \"#utility.yul\":7138:7245   */\n      swap3\n      swap2\n      pop\n      pop\n      jump\t// out\n        /* \"#utility.yul\":7251:7644   */\n    tag_106:\n        /* \"#utility.yul\":7320:7326   */\n      0x00\n        /* \"#utility.yul\":7370:7371   */\n      0x08\n        /* \"#utility.yul\":7358:7368   */\n      dup4\n        /* \"#utility.yul\":7354:7372   */\n      mul\n        /* \"#utility.yul\":7393:7490   */\n      tag_201\n        /* \"#utility.yul\":7423:7489   */\n      0xffffffffffffffffffffffffffffffffffffffffffffffffffffffffffffffff\n        /* \"#utility.yul\":7412:7421   */\n      dup3\n        /* \"#utility.yul\":7393:7490   */\n      tag_105\n      jump\t// in\n    tag_201:\n        /* \"#utility.yul\":7511:7550   */\n      tag_202\n        /* \"#utility.yul\":7541:7549   */\n      dup7\n        /* \"#utility.yul\":7530:7539   */\n      dup4\n        /* \"#utility.yul\":7511:7550   */\n      tag_105\n      jump\t// in\n    tag_202:\n        /* \"#utility.yul\":7499:7550   */\n      swap6\n      pop\n        /* \"#utility.yul\":7583:7587   */\n      dup1\n        /* \"#utility.yul\":7579:7588   */\n      not\n        /* \"#utility.yul\":7572:7577   */\n      dup5\n        /* \"#utility.yul\":7568:7589   */\n      and\n        /* \"#utility.yul\":7559:7589   */\n      swap4\n      pop\n        /* \"#utility.yul\":7632:7636   */\n      dup1\n        /* \"#utility.yul\":7622:7630   */\n      dup7\n        /* \"#utility.yul\":7618:7637   */\n      and\n        /* \"#utility.yul\":7611:7616   */\n      dup5\n        /* \"#utility.yul\":7608:7638   */\n      or\n        /* \"#utility.yul\":7598:7638   */\n      swap3\n      pop\n        /* \"#utility.yul\":7327:7644   */\n      pop\n      pop\n        /* \"#utility.yul\":7251:7644   */\n      swap4\n      swap3\n      pop\n      pop\n      pop\n      jump\t// out\n        /* \"#utility.yul\":7650:7710   */\n    tag_107:\n        /* \"#utility.yul\":7678:7681   */\n      0x00\n        /* \"#utility.yul\":7699:7704   */\n      dup2\n        /* \"#utility.yul\":7692:7704   */\n      swap1\n      pop\n        /* \"#utility.yul\":7650:7710   */\n      swap2\n      swap1\n      pop\n      jump\t// out\n        /* \"#utility.yul\":7716:7858   */\n    tag_108:\n        /* \"#utility.yul\":7766:7775   */\n      0x00\n        /* \"#utility.yul\":7799:7852   */\n      tag_205\n        /* \"#utility.yul\":7817:7851   */\n      tag_206\n        /* \"#utility.yul\":7826:7850   */\n      tag_207\n        /* \"#utility.yul\":7844:7849   */\n      dup5\n        /* \"#utility.yul\":7826:7850   */\n      tag_86\n      jump\t// in\n    tag_207:\n        /* \"#utility.yul\":7817:7851   */\n      tag_107\n      jump\t// in\n    tag_206:\n        /* \"#utility.yul\":7799:7852   */\n      tag_86\n      jump\t// in\n    tag_205:\n        /* \"#utility.yul\":7786:7852   */\n      swap1\n      pop\n        /* \"#utility.yul\":7716:7858   */\n      swap2\n      swap1\n      pop\n      jump\t// out\n        /* \"#utility.yul\":7864:7939   */\n    tag_109:\n        /* \"#utility.yul\":7907:7910   */\n      0x00\n        /* \"#utility.yul\":7928:7933   */\n      dup2\n        /* \"#utility.yul\":7921:7933   */\n      swap1\n      pop\n        /* \"#utility.yul\":7864:7939   */\n      swap2\n      swap1\n      pop\n      jump\t// out\n        /* \"#utility.yul\":7945:8214   */\n    tag_110:\n        /* \"#utility.yul\":8055:8094   */\n      tag_210\n        /* \"#utility.yul\":8086:8093   */\n      dup4\n        /* \"#utility.yul\":8055:8094   */\n      tag_108\n      jump\t// in\n    tag_210:\n        /* \"#utility.yul\":8116:8207   */\n      tag_211\n        /* \"#utility.yul\":8165:8206   */\n      tag_212\n        /* \"#utility.yul\":8189:8205   */\n      dup3\n        /* \"#utility.yul\":8165:8206   */\n      tag_109\n      jump\t// in\n    tag_212:\n        /* \"#utility.yul\":8157:8163   */\n      dup5\n        /* \"#utility.yul\":8150:8154   */\n      dup5\n        /* \"#utility.yul\":8144:8155   */\n      sload\n        /* \"#utility.yul\":8116:8207   */\n      tag_106\n      jump\t// in\n    tag_211:\n        /* \"#utility.yul\":8110:8114   */\n      dup3\n        /* \"#utility.yul\":8103:8208   */\n      sstore\n        /* \"#utility.yul\":8021:8214   */\n      pop\n        /* \"#utility.yul\":7945:8214   */\n      pop\n      pop\n      pop\n      jump\t// out\n        /* \"#utility.yul\":8220:8293   */\n    tag_111:\n        /* \"#utility.yul\":8265:8268   */\n      0x00\n        /* \"#utility.yul\":8286:8287   */\n      0x00\n        /* \"#utility.yul\":8279:8287   */\n      swap1\n      pop\n        /* \"#utility.yul\":8220:8293   */\n      swap1\n      jump\t// out\n        /* \"#utility.yul\":8299:8488   */\n    tag_112:\n        /* \"#utility.yul\":8376:8408   */\n      tag_215\n      tag_111\n      jump\t// in\n    tag_215:\n        /* \"#utility.yul\":8417:8482   */\n      tag_216\n        /* \"#utility.yul\":8475:8481   */\n      dup2\n        /* \"#utility.yul\":8467:8473   */\n      dup5\n        /* \"#utility.yul\":8461:8465   */\n      dup5\n        /* \"#utility.yul\":8417:8482   */\n      tag_110\n      jump\t// in\n    tag_216:\n        /* \"#utility.yul\":8352:8488   */\n      pop\n        /* \"#utility.yul\":8299:8488   */\n      pop\n      pop\n      jump\t// out\n        /* \"#utility.yul\":8494:8680   */\n    tag_113:\n        /* \"#utility.yul\":8554:8674   */\n    tag_218:\n        /* \"#utility.yul\":8571:8574   */\n      dup2\n        /* \"#utility.yul\":8564:8569   */\n      dup2\n        /* \"#utility.yul\":8561:8575   */\n      lt\n        /* \"#utility.yul\":8554:8674   */\n      iszero\n      tag_220\n      jumpi\n        /* \"#utility.yul\":8625:8664   */\n      tag_221\n        /* \"#utility.yul\":8662:8663   */\n      0x00\n        /* \"#utility.yul\":8655:8660   */\n      dup3\n        /* \"#utility.yul\":8625:8664   */\n      tag_112\n      jump\t// in\n    tag_221:\n        /* \"#utility.yul\":8598:8599   */\n      0x01\n        /* \"#utility.yul\":8591:8596   */\n      dup2\n        /* \"#utility.yul\":8587:8600   */\n      add\n        /* \"#utility.yul\":8578:8600   */\n      swap1\n      pop\n        /* \"#utility.yul\":8554:8674   */\n      jump(tag_218)\n    tag_220:\n        /* \"#utility.yul\":8494:8680   */\n      pop\n      pop\n      jump\t// out\n        /* \"#utility.yul\":8686:9229   */\n    tag_114:\n        /* \"#utility.yul\":8787:8789   */\n      0x1f\n        /* \"#utility.yul\":8782:8785   */\n      dup3\n        /* \"#utility.yul\":8779:8790   */\n      gt\n        /* \"#utility.yul\":8776:9222   */\n      iszero\n      tag_223\n      jumpi\n        /* \"#utility.yul\":8821:8859   */\n      tag_224\n        /* \"#utility.yul\":8853:8858   */\n      dup2\n        /* \"#utility.yul\":8821:8859   */\n      tag_103\n      jump\t// in\n    tag_224:\n        /* \"#utility.yul\":8905:8934   */\n      tag_225\n        /* \"#utility.yul\":8923:8933   */\n      dup5\n        /* \"#utility.yul\":8905:8934   */\n      tag_104\n      jump\t// in\n    tag_225:\n        /* \"#utility.yul\":8895:8903   */\n      dup2\n        /* \"#utility.yul\":8891:8935   */\n      add\n        /* \"#utility.yul\":9088:9090   */\n      0x20\n        /* \"#utility.yul\":9076:9086   */\n      dup6\n        /* \"#utility.yul\":9073:9091   */\n      lt\n        /* \"#utility.yul\":9070:9119   */\n      iszero\n      tag_226\n      jumpi\n        /* \"#utility.yul\":9109:9117   */\n      dup2\n        /* \"#utility.yul\":9094:9117   */\n      swap1\n      pop\n        /* \"#utility.yul\":9070:9119   */\n    tag_226:\n        /* \"#utility.yul\":9132:9212   */\n      tag_227\n        /* \"#utility.yul\":9188:9210   */\n      tag_228\n        /* \"#utility.yul\":9206:9209   */\n      dup6\n        /* \"#utility.yul\":9188:9210   */\n      tag_104\n      jump\t// in\n    tag_228:\n        /* \"#utility.yul\":9178:9186   */\n      dup4\n        /* \"#utility.yul\":9174:9211   */\n      add\n        /* \"#utility.yul\":9161:9172   */\n      dup3\n        /* \"#utility.yul\":9132:9212   */\n      tag_113\n      jump\t// in\n    tag_227:\n        /* \"#utility.yul\":8791:9222   */\n      pop\n      pop\n        /* \"#utility.yul\":8776:9222   */\n    tag_223:\n        /* \"#utility.yul\":8686:9229   */\n      pop\n      pop\n      pop\n      jump\t// out\n        /* \"#utility.yul\":9235:9352   */\n    tag_115:\n        /* \"#utility.yul\":9289:9297   */\n      0x00\n        /* \"#utility.yul\":9339:9344   */\n      dup3\n        /* \"#utility.yul\":9333:9337   */\n      dup3\n        /* \"#utility.yul\":9329:9345   */\n      shr\n        /* \"#utility.yul\":9308:9345   */\n      swap1\n      pop\n        /* \"#utility.yul\":9235:9352   */\n      swap3\n      swap2\n      pop\n      pop\n      jump\t// out\n        /* \"#utility.yul\":9358:9527   */\n    tag_116:\n        /* \"#utility.yul\":9402:9408   */\n      0x00\n        /* \"#utility.yul\":9435:9486   */\n      tag_231\n        /* \"#utility.yul\":9483:9484   */\n      0x00\n        /* \"#utility.yul\":9479:9485   */\n      not\n        /* \"#utility.yul\":9471:9476   */\n      dup5\n        /* \"#utility.yul\":9468:9469   */\n      0x08\n        /* \"#utility.yul\":9464:9477   */\n      mul\n        /* \"#utility.yul\":9435:9486   */\n      tag_115\n      jump\t// in\n    tag_231:\n        /* \"#utility.yul\":9431:9487   */\n      not\n        /* \"#utility.yul\":9516:9520   */\n      dup1\n        /* \"#utility.yul\":9510:9514   */\n      dup4\n        /* \"#utility.yul\":9506:9521   */\n      and\n        /* \"#utility.yul\":9496:9521   */\n      swap2\n      pop\n        /* \"#utility.yul\":9409:9527   */\n      pop\n        /* \"#utility.yul\":9358:9527   */\n      swap3\n      swap2\n      pop\n      pop\n      jump\t// out\n        /* \"#utility.yul\":9532:9827   */\n    tag_117:\n        /* \"#utility.yul\":9608:9612   */\n      0x00\n        /* \"#utility.yul\":9754:9783   */\n      tag_233\n        /* \"#utility.yul\":9779:9782   */\n      dup4\n        /* \"#utility.yul\":9773:9777   */\n      dup4\n        /* \"#utility.yul\":9754:9783   */\n      tag_116\n      jump\t// in\n    tag_233:\n        /* \"#utility.yul\":9746:9783   */\n      swap2\n      pop\n        /* \"#utility.yul\":9816:9819   */\n      dup3\n        /* \"#utility.yul\":9813:9814   */\n      0x02\n        /* \"#utility.yul\":9809:9820   */\n      mul\n        /* \"#utility.yul\":9803:9807   */\n      dup3\n        /* \"#utility.yul\":9800:9821   */\n      or\n        /* \"#utility.yul\":9792:9821   */\n      swap1\n      pop\n        /* \"#utility.yul\":9532:9827   */\n      swap3\n      swap2\n      pop\n      pop\n      jump\t// out\n        /* \"#utility.yul\":9832:11227   */\n    tag_68:\n        /* \"#utility.yul\":9949:9986   */\n      tag_235\n        /* \"#utility.yul\":9982:9985   */\n      dup3\n        /* \"#utility.yul\":9949:9986   */\n      tag_81\n      jump\t// in\n    tag_235:\n        /* \"#utility.yul\":10051:10069   */\n      0xffffffffffffffff\n        /* \"#utility.yul\":10043:10049   */\n      dup2\n        /* \"#utility.yul\":10040:10070   */\n      gt\n        /* \"#utility.yul\":10037:10093   */\n      iszero\n      tag_236\n      jumpi\n        /* \"#utility.yul\":10073:10091   */\n      tag_237\n      tag_95\n      jump\t// in\n    tag_237:\n        /* \"#utility.yul\":10037:10093   */\n    tag_236:\n        /* \"#utility.yul\":10117:10155   */\n      tag_238\n        /* \"#utility.yul\":10149:10153   */\n      dup3\n        /* \"#utility.yul\":10143:10154   */\n      sload\n        /* \"#utility.yul\":10117:10155   */\n      tag_54\n      jump\t// in\n    tag_238:\n        /* \"#utility.yul\":10202:10269   */\n      tag_239\n        /* \"#utility.yul\":10262:10268   */\n      dup3\n        /* \"#utility.yul\":10254:10260   */\n      dup3\n        /* \"#utility.yul\":10248:10252   */\n      dup6\n        /* \"#utility.yul\":10202:10269   */\n      tag_114\n      jump\t// in\n    tag_239:\n        /* \"#utility.yul\":10296:10297   */\n      0x00\n        /* \"#utility.yul\":10320:10324   */\n      0x20\n        /* \"#utility.yul\":10307:10324   */\n      swap1\n      pop\n        /* \"#utility.yul\":10352:10354   */\n      0x1f\n        /* \"#utility.yul\":10344:10350   */\n      dup4\n        /* \"#utility.yul\":10341:10355   */\n      gt\n        /* \"#utility.yul\":10369:10370   */\n      0x01\n        /* \"#utility.yul\":10364:10982   */\n      dup2\n      eq\n      tag_241\n      jumpi\n        /* \"#utility.yul\":11026:11027   */\n      0x00\n        /* \"#utility.yul\":11043:11049   */\n      dup5\n        /* \"#utility.yul\":11040:11117   */\n      iszero\n      tag_242\n      jumpi\n        /* \"#utility.yul\":11092:11101   */\n      dup3\n        /* \"#utility.yul\":11087:11090   */\n      dup8\n        /* \"#utility.yul\":11083:11102   */\n      add\n        /* \"#utility.yul\":11077:11103   */\n      mload\n        /* \"#utility.yul\":11068:11103   */\n      swap1\n      pop\n        /* \"#utility.yul\":11040:11117   */\n    tag_242:\n        /* \"#utility.yul\":11143:11210   */\n      tag_243\n        /* \"#utility.yul\":11203:11209   */\n      dup6\n        /* \"#utility.yul\":11196:11201   */\n      dup3\n        /* \"#utility.yul\":11143:11210   */\n      tag_117\n      jump\t// in\n    tag_243:\n        /* \"#utility.yul\":11137:11141   */\n      dup7\n        /* \"#utility.yul\":11130:11211   */\n      sstore\n        /* \"#utility.yul\":10999:11221   */\n      pop\n        /* \"#utility.yul\":10334:11221   */\n      jump(tag_240)\n        /* \"#utility.yul\":10364:10982   */\n    tag_241:\n        /* \"#utility.yul\":10416:10420   */\n      0x1f\n        /* \"#utility.yul\":10412:10421   */\n      not\n        /* \"#utility.yul\":10404:10410   */\n      dup5\n        /* \"#utility.yul\":10400:10422   */\n      and\n        /* \"#utility.yul\":10450:10487   */\n      tag_244\n        /* \"#utility.yul\":10482:10486   */\n      dup7\n        /* \"#utility.yul\":10450:10487   */\n      tag_103\n      jump\t// in\n    tag_244:\n        /* \"#utility.yul\":10509:10510   */\n      0x00\n        /* \"#utility.yul\":10523:10731   */\n    tag_245:\n        /* \"#utility.yul\":10537:10544   */\n      dup3\n        /* \"#utility.yul\":10534:10535   */\n      dup2\n        /* \"#utility.yul\":10531:10545   */\n      lt\n        /* \"#utility.yul\":10523:10731   */\n      iszero\n      tag_247\n      jumpi\n        /* \"#utility.yul\":10616:10625   */\n      dup5\n        /* \"#utility.yul\":10611:10614   */\n      dup10\n        /* \"#utility.yul\":10607:10626   */\n      add\n        /* \"#utility.yul\":10601:10627   */\n      mload\n        /* \"#utility.yul\":10593:10599   */\n      dup3\n        /* \"#utility.yul\":10586:10628   */\n      sstore\n        /* \"#utility.yul\":10667:10668   */\n      0x01\n        /* \"#utility.yul\":10659:10665   */\n      dup3\n        /* \"#utility.yul\":10655:10669   */\n      add\n        /* \"#utility.yul\":10645:10669   */\n      swap2\n      pop\n        /* \"#utility.yul\":10714:10716   */\n      0x20\n        /* \"#utility.yul\":10703:10712   */\n      dup6\n        /* \"#utility.yul\":10699:10717   */\n      add\n        /* \"#utility.yul\":10686:10717   */\n      swap5\n      pop\n        /* \"#utility.yul\":10560:10564   */\n      0x20\n        /* \"#utility.yul\":10557:10558   */\n      dup2\n        /* \"#utility.yul\":10553:10565   */\n      add\n        /* \"#utility.yul\":10548:10565   */\n      swap1\n      pop\n        /* \"#utility.yul\":10523:10731   */\n      jump(tag_245)\n    tag_247:\n        /* \"#utility.yul\":10759:10765   */\n      dup7\n        /* \"#utility.yul\":10750:10757   */\n      dup4\n        /* \"#utility.yul\":10747:10766   */\n      lt\n        /* \"#utility.yul\":10744:10923   */\n      iszero\n      tag_248\n      jumpi\n        /* \"#utility.yul\":10817:10826   */\n      dup5\n        /* \"#utility.yul\":10812:10815   */\n      dup10\n        /* \"#utility.yul\":10808:10827   */\n      add\n        /* \"#utility.yul\":10802:10828   */\n      mload\n        /* \"#utility.yul\":10860:10908   */\n      tag_249\n        /* \"#utility.yul\":10902:10906   */\n      0x1f\n        /* \"#utility.yul\":10894:10900   */\n      dup10\n        /* \"#utility.yul\":10890:10907   */\n      and\n        /* \"#utility.yul\":10879:10888   */\n      dup3\n        /* \"#utility.yul\":10860:10908   */\n      tag_116\n      jump\t// in\n    tag_249:\n        /* \"#utility.yul\":10852:10858   */\n      dup4\n        /* \"#utility.yul\":10845:10909   */\n      sstore\n        /* \"#utility.yul\":10767:10923   */\n      pop\n        /* \"#utility.yul\":10744:10923   */\n    tag_248:\n        /* \"#utility.yul\":10969:10970   */\n      0x01\n        /* \"#utility.yul\":10965:10966   */\n      0x02\n        /* \"#utility.yul\":10957:10963   */\n      dup9\n        /* \"#utility.yul\":10953:10967   */\n      mul\n        /* \"#utility.yul\":10949:10971   */\n      add\n        /* \"#utility.yul\":10943:10947   */\n      dup9\n        /* \"#utility.yul\":10936:10972   */\n      sstore\n        /* \"#utility.yul\":10371:10982   */\n      pop\n      pop\n      pop\n        /* \"#utility.yul\":10334:11221   */\n    tag_240:\n      pop\n        /* \"#utility.yul\":9924:11227   */\n      pop\n      pop\n      pop\n        /* \"#utility.yul\":9832:11227   */\n      pop\n      pop\n      jump\t// out\n        /* \"#utility.yul\":11233:11413   */\n    tag_118:\n        /* \"#utility.yul\":11281:11358   */\n      0x4e487b7100000000000000000000000000000000000000000000000000000000\n        /* \"#utility.yul\":11278:11279   */\n      0x00\n        /* \"#utility.yul\":11271:11359   */\n      mstore\n        /* \"#utility.yul\":11378:11382   */\n      0x11\n        /* \"#utility.yul\":11375:11376   */\n      0x04\n        /* \"#utility.yul\":11368:11383   */\n      mstore\n        /* \"#utility.yul\":11402:11406   */\n      0x24\n        /* \"#utility.yul\":11399:11400   */\n      0x00\n        /* \"#utility.yul\":11392:11407   */\n      revert\n        /* \"#utility.yul\":11419:11829   */\n    tag_77:\n        /* \"#utility.yul\":11459:11466   */\n      0x00\n        /* \"#utility.yul\":11482:11502   */\n      tag_252\n        /* \"#utility.yul\":11500:11501   */\n      dup3\n        /* \"#utility.yul\":11482:11502   */\n      tag_86\n      jump\t// in\n    tag_252:\n        /* \"#utility.yul\":11477:11502   */\n      swap2\n      pop\n        /* \"#utility.yul\":11516:11536   */\n      tag_253\n        /* \"#utility.yul\":11534:11535   */\n      dup4\n        /* \"#utility.yul\":11516:11536   */\n      tag_86\n      jump\t// in\n    tag_253:\n        /* \"#utility.yul\":11511:11536   */\n      swap3\n      pop\n        /* \"#utility.yul\":11571:11572   */\n      dup3\n        /* \"#utility.yul\":11568:11569   */\n      dup3\n        /* \"#utility.yul\":11564:11573   */\n      mul\n        /* \"#utility.yul\":11593:11623   */\n      tag_254\n        /* \"#utility.yul\":11611:11622   */\n      dup2\n        /* \"#utility.yul\":11593:11623   */\n      tag_86\n      jump\t// in\n    tag_254:\n        /* \"#utility.yul\":11582:11623   */\n      swap2\n      pop\n        /* \"#utility.yul\":11772:11773   */\n      dup3\n        /* \"#utility.yul\":11763:11770   */\n      dup3\n        /* \"#utility.yul\":11759:11774   */\n      div\n        /* \"#utility.yul\":11756:11757   */\n      dup5\n        /* \"#utility.yul\":11753:11775   */\n      eq\n        /* \"#utility.yul\":11733:11734   */\n      dup4\n        /* \"#utility.yul\":11726:11735   */\n      iszero\n        /* \"#utility.yul\":11706:11789   */\n      or\n        /* \"#utility.yul\":11683:11822   */\n      tag_255\n      jumpi\n        /* \"#utility.yul\":11802:11820   */\n      tag_256\n      tag_118\n      jump\t// in\n    tag_256:\n        /* \"#utility.yul\":11683:11822   */\n    tag_255:\n        /* \"#utility.yul\":11467:11829   */\n      pop\n        /* \"#utility.yul\":11419:11829   */\n      swap3\n      swap2\n      pop\n      pop\n      jump\t// out\n        /* \"#utility.yul\":11835:12015   */\n    tag_119:\n        /* \"#utility.yul\":11883:11960   */\n      0x4e487b7100000000000000000000000000000000000000000000000000000000\n        /* \"#utility.yul\":11880:11881   */\n      0x00\n        /* \"#utility.yul\":11873:11961   */\n      mstore\n        /* \"#utility.yul\":11980:11984   */\n      0x12\n        /* \"#utility.yul\":11977:11978   */\n      0x04\n        /* \"#utility.yul\":11970:11985   */\n      mstore\n        /* \"#utility.yul\":12004:12008   */\n      0x24\n        /* \"#utility.yul\":12001:12002   */\n      0x00\n        /* \"#utility.yul\":11994:12009   */\n      revert\n        /* \"#utility.yul\":12021:12206   */\n    tag_80:\n        /* \"#utility.yul\":12061:12062   */\n      0x00\n        /* \"#utility.yul\":12078:12098   */\n      tag_259\n        /* \"#utility.yul\":12096:12097   */\n      dup3\n        /* \"#utility.yul\":12078:12098   */\n      tag_86\n      jump\t// in\n    tag_259:\n        /* \"#utility.yul\":12073:12098   */\n      swap2\n      pop\n        /* \"#utility.yul\":12112:12132   */\n      tag_260\n        /* \"#utility.yul\":12130:12131   */\n      dup4\n        /* \"#utility.yul\":12112:12132   */\n      tag_86\n      jump\t// in\n    tag_260:\n        /* \"#utility.yul\":12107:12132   */\n      swap3\n      pop\n        /* \"#utility.yul\":12151:12152   */\n      dup3\n        /* \"#utility.yul\":12141:12176   */\n      tag_261\n      jumpi\n        /* \"#utility.yul\":12156:12174   */\n      tag_262\n      tag_119\n      jump\t// in\n    tag_262:\n        /* \"#utility.yul\":12141:12176   */\n    tag_261:\n        /* \"#utility.yul\":12198:12199   */\n      dup3\n        /* \"#utility.yul\":12195:12196   */\n      dup3\n        /* \"#utility.yul\":12191:12200   */\n      div\n        /* \"#utility.yul\":12186:12200   */\n      swap1\n      pop\n        /* \"#utility.yul\":12021:12206   */\n      swap3\n      swap2\n      pop\n      pop\n      jump\t// out\n\n    auxdata: 0xa264697066735822122017564d59a559d4ddb5d254905609d4ef8a5563c5fdcb2efb61e77b71d3eb2fe064736f6c634300081e0033\n}\n",
				"bytecode": {
					"linkReferences": {},
					"object": "6080604052348015600e575f5ffd5b50610ac28061001c5f395ff3fe608060405260043610610085575f3560e01c806391f5de381161005857806391f5de381461012f578063bfe7cdda14610159578063c4784fd414610181578063f7474d00146101a9578063fbf188a2146101b357610085565b8063160c5063146100895780632deb124b146100b35780633ef42c97146100dd578063428706be14610107575b5f5ffd5b348015610094575f5ffd5b5061009d6101ef565b6040516100aa9190610433565b60405180910390f35b3480156100be575f5ffd5b506100c761027b565b6040516100d49190610433565b60405180910390f35b3480156100e8575f5ffd5b506100f1610307565b6040516100fe919061046b565b60405180910390f35b348015610112575f5ffd5b5061012d600480360381019061012891906104bf565b610310565b005b34801561013a575f5ffd5b5061014361031a565b604051610150919061046b565b60405180910390f35b348015610164575f5ffd5b5061017f600480360381019061017a9190610616565b61031f565b005b34801561018c575f5ffd5b506101a760048036038101906101a29190610670565b61037a565b005b6101b161038d565b005b3480156101be575f5ffd5b506101d960048036038101906101d491906106b7565b61038f565b6040516101e6919061046b565b60405180910390f35b600280546101fc90610722565b80601f016020809104026020016040519081016040528092919081815260200182805461022890610722565b80156102735780601f1061024a57610100808354040283529160200191610273565b820191905f5260205f20905b81548152906001019060200180831161025657829003601f168201915b505050505081565b6001805461028890610722565b80601f01602080910402602001604051908101604052809291908181526020018280546102b490610722565b80156102ff5780601f106102d6576101008083540402835291602001916102ff565b820191905f5260205f20905b8154815290600101906020018083116102e257829003601f168201915b505050505081565b5f600354905090565b8060038190555050565b5f5481565b816001908161032e91906108f2565b50610338816103a9565b6103766040518060400160405280601481526020017f6368616d6f752070656c6f20636f6e747261746f00000000000000000000000081525061037a565b5050565b806002908161038991906108f2565b5050565b565b5f5f828461039d91906109ee565b90508091505092915050565b5f6002826103b79190610a5c565b9050805f819055505050565b5f81519050919050565b5f82825260208201905092915050565b8281835e5f83830152505050565b5f601f19601f8301169050919050565b5f610405826103c3565b61040f81856103cd565b935061041f8185602086016103dd565b610428816103eb565b840191505092915050565b5f6020820190508181035f83015261044b81846103fb565b905092915050565b5f819050919050565b61046581610453565b82525050565b5f60208201905061047e5f83018461045c565b92915050565b5f604051905090565b5f5ffd5b5f5ffd5b61049e81610453565b81146104a8575f5ffd5b50565b5f813590506104b981610495565b92915050565b5f602082840312156104d4576104d361048d565b5b5f6104e1848285016104ab565b91505092915050565b5f5ffd5b5f5ffd5b7f4e487b71000000000000000000000000000000000000000000000000000000005f52604160045260245ffd5b610528826103eb565b810181811067ffffffffffffffff82111715610547576105466104f2565b5b80604052505050565b5f610559610484565b9050610565828261051f565b919050565b5f67ffffffffffffffff821115610584576105836104f2565b5b61058d826103eb565b9050602081019050919050565b828183375f83830152505050565b5f6105ba6105b58461056a565b610550565b9050828152602081018484840111156105d6576105d56104ee565b5b6105e184828561059a565b509392505050565b5f82601f8301126105fd576105fc6104ea565b5b813561060d8482602086016105a8565b91505092915050565b5f5f6040838503121561062c5761062b61048d565b5b5f83013567ffffffffffffffff81111561064957610648610491565b5b610655858286016105e9565b9250506020610666858286016104ab565b9150509250929050565b5f602082840312156106855761068461048d565b5b5f82013567ffffffffffffffff8111156106a2576106a1610491565b5b6106ae848285016105e9565b91505092915050565b5f5f604083850312156106cd576106cc61048d565b5b5f6106da858286016104ab565b92505060206106eb858286016104ab565b9150509250929050565b7f4e487b71000000000000000000000000000000000000000000000000000000005f52602260045260245ffd5b5f600282049050600182168061073957607f821691505b60208210810361074c5761074b6106f5565b5b50919050565b5f819050815f5260205f209050919050565b5f6020601f8301049050919050565b5f82821b905092915050565b5f600883026107ae7fffffffffffffffffffffffffffffffffffffffffffffffffffffffffffffffff82610773565b6107b88683610773565b95508019841693508086168417925050509392505050565b5f819050919050565b5f6107f36107ee6107e984610453565b6107d0565b610453565b9050919050565b5f819050919050565b61080c836107d9565b610820610818826107fa565b84845461077f565b825550505050565b5f5f905090565b610837610828565b610842818484610803565b505050565b5b818110156108655761085a5f8261082f565b600181019050610848565b5050565b601f8211156108aa5761087b81610752565b61088484610764565b81016020851015610893578190505b6108a761089f85610764565b830182610847565b50505b505050565b5f82821c905092915050565b5f6108ca5f19846008026108af565b1980831691505092915050565b5f6108e283836108bb565b9150826002028217905092915050565b6108fb826103c3565b67ffffffffffffffff811115610914576109136104f2565b5b61091e8254610722565b610929828285610869565b5f60209050601f83116001811461095a575f8415610948578287015190505b61095285826108d7565b8655506109b9565b601f19841661096886610752565b5f5b8281101561098f5784890151825560018201915060208501945060208101905061096a565b868310156109ac57848901516109a8601f8916826108bb565b8355505b6001600288020188555050505b505050505050565b7f4e487b71000000000000000000000000000000000000000000000000000000005f52601160045260245ffd5b5f6109f882610453565b9150610a0383610453565b9250828202610a1181610453565b91508282048414831517610a2857610a276109c1565b5b5092915050565b7f4e487b71000000000000000000000000000000000000000000000000000000005f52601260045260245ffd5b5f610a6682610453565b9150610a7183610453565b925082610a8157610a80610a2f565b5b82820490509291505056fea264697066735822122017564d59a559d4ddb5d254905609d4ef8a5563c5fdcb2efb61e77b71d3eb2fe064736f6c634300081e0033",
					"opcodes": "PUSH1 0x80 PUSH1 0x40 MSTORE CALLVALUE DUP1 ISZERO PUSH1 0xE JUMPI PUSH0 PUSH0 REVERT JUMPDEST POP PUSH2 0xAC2 DUP1 PUSH2 0x1C PUSH0 CODECOPY PUSH0 RETURN INVALID PUSH1 0x80 PUSH1 0x40 MSTORE PUSH1 0x4 CALLDATASIZE LT PUSH2 0x85 JUMPI PUSH0 CALLDATALOAD PUSH1 0xE0 SHR DUP1 PUSH4 0x91F5DE38 GT PUSH2 0x58 JUMPI DUP1 PUSH4 0x91F5DE38 EQ PUSH2 0x12F JUMPI DUP1 PUSH4 0xBFE7CDDA EQ PUSH2 0x159 JUMPI DUP1 PUSH4 0xC4784FD4 EQ PUSH2 0x181 JUMPI DUP1 PUSH4 0xF7474D00 EQ PUSH2 0x1A9 JUMPI DUP1 PUSH4 0xFBF188A2 EQ PUSH2 0x1B3 JUMPI PUSH2 0x85 JUMP JUMPDEST DUP1 PUSH4 0x160C5063 EQ PUSH2 0x89 JUMPI DUP1 PUSH4 0x2DEB124B EQ PUSH2 0xB3 JUMPI DUP1 PUSH4 0x3EF42C97 EQ PUSH2 0xDD JUMPI DUP1 PUSH4 0x428706BE EQ PUSH2 0x107 JUMPI JUMPDEST PUSH0 PUSH0 REVERT JUMPDEST CALLVALUE DUP1 ISZERO PUSH2 0x94 JUMPI PUSH0 PUSH0 REVERT JUMPDEST POP PUSH2 0x9D PUSH2 0x1EF JUMP JUMPDEST PUSH1 0x40 MLOAD PUSH2 0xAA SWAP2 SWAP1 PUSH2 0x433 JUMP JUMPDEST PUSH1 0x40 MLOAD DUP1 SWAP2 SUB SWAP1 RETURN JUMPDEST CALLVALUE DUP1 ISZERO PUSH2 0xBE JUMPI PUSH0 PUSH0 REVERT JUMPDEST POP PUSH2 0xC7 PUSH2 0x27B JUMP JUMPDEST PUSH1 0x40 MLOAD PUSH2 0xD4 SWAP2 SWAP1 PUSH2 0x433 JUMP JUMPDEST PUSH1 0x40 MLOAD DUP1 SWAP2 SUB SWAP1 RETURN JUMPDEST CALLVALUE DUP1 ISZERO PUSH2 0xE8 JUMPI PUSH0 PUSH0 REVERT JUMPDEST POP PUSH2 0xF1 PUSH2 0x307 JUMP JUMPDEST PUSH1 0x40 MLOAD PUSH2 0xFE SWAP2 SWAP1 PUSH2 0x46B JUMP JUMPDEST PUSH1 0x40 MLOAD DUP1 SWAP2 SUB SWAP1 RETURN JUMPDEST CALLVALUE DUP1 ISZERO PUSH2 0x112 JUMPI PUSH0 PUSH0 REVERT JUMPDEST POP PUSH2 0x12D PUSH1 0x4 DUP1 CALLDATASIZE SUB DUP2 ADD SWAP1 PUSH2 0x128 SWAP2 SWAP1 PUSH2 0x4BF JUMP JUMPDEST PUSH2 0x310 JUMP JUMPDEST STOP JUMPDEST CALLVALUE DUP1 ISZERO PUSH2 0x13A JUMPI PUSH0 PUSH0 REVERT JUMPDEST POP PUSH2 0x143 PUSH2 0x31A JUMP JUMPDEST PUSH1 0x40 MLOAD PUSH2 0x150 SWAP2 SWAP1 PUSH2 0x46B JUMP JUMPDEST PUSH1 0x40 MLOAD DUP1 SWAP2 SUB SWAP1 RETURN JUMPDEST CALLVALUE DUP1 ISZERO PUSH2 0x164 JUMPI PUSH0 PUSH0 REVERT JUMPDEST POP PUSH2 0x17F PUSH1 0x4 DUP1 CALLDATASIZE SUB DUP2 ADD SWAP1 PUSH2 0x17A SWAP2 SWAP1 PUSH2 0x616 JUMP JUMPDEST PUSH2 0x31F JUMP JUMPDEST STOP JUMPDEST CALLVALUE DUP1 ISZERO PUSH2 0x18C JUMPI PUSH0 PUSH0 REVERT JUMPDEST POP PUSH2 0x1A7 PUSH1 0x4 DUP1 CALLDATASIZE SUB DUP2 ADD SWAP1 PUSH2 0x1A2 SWAP2 SWAP1 PUSH2 0x670 JUMP JUMPDEST PUSH2 0x37A JUMP JUMPDEST STOP JUMPDEST PUSH2 0x1B1 PUSH2 0x38D JUMP JUMPDEST STOP JUMPDEST CALLVALUE DUP1 ISZERO PUSH2 0x1BE JUMPI PUSH0 PUSH0 REVERT JUMPDEST POP PUSH2 0x1D9 PUSH1 0x4 DUP1 CALLDATASIZE SUB DUP2 ADD SWAP1 PUSH2 0x1D4 SWAP2 SWAP1 PUSH2 0x6B7 JUMP JUMPDEST PUSH2 0x38F JUMP JUMPDEST PUSH1 0x40 MLOAD PUSH2 0x1E6 SWAP2 SWAP1 PUSH2 0x46B JUMP JUMPDEST PUSH1 0x40 MLOAD DUP1 SWAP2 SUB SWAP1 RETURN JUMPDEST PUSH1 0x2 DUP1 SLOAD PUSH2 0x1FC SWAP1 PUSH2 0x722 JUMP JUMPDEST DUP1 PUSH1 0x1F ADD PUSH1 0x20 DUP1 SWAP2 DIV MUL PUSH1 0x20 ADD PUSH1 0x40 MLOAD SWAP1 DUP2 ADD PUSH1 0x40 MSTORE DUP1 SWAP3 SWAP2 SWAP1 DUP2 DUP2 MSTORE PUSH1 0x20 ADD DUP3 DUP1 SLOAD PUSH2 0x228 SWAP1 PUSH2 0x722 JUMP JUMPDEST DUP1 ISZERO PUSH2 0x273 JUMPI DUP1 PUSH1 0x1F LT PUSH2 0x24A JUMPI PUSH2 0x100 DUP1 DUP4 SLOAD DIV MUL DUP4 MSTORE SWAP2 PUSH1 0x20 ADD SWAP2 PUSH2 0x273 JUMP JUMPDEST DUP3 ADD SWAP2 SWAP1 PUSH0 MSTORE PUSH1 0x20 PUSH0 KECCAK256 SWAP1 JUMPDEST DUP2 SLOAD DUP2 MSTORE SWAP1 PUSH1 0x1 ADD SWAP1 PUSH1 0x20 ADD DUP1 DUP4 GT PUSH2 0x256 JUMPI DUP3 SWAP1 SUB PUSH1 0x1F AND DUP3 ADD SWAP2 JUMPDEST POP POP POP POP POP DUP2 JUMP JUMPDEST PUSH1 0x1 DUP1 SLOAD PUSH2 0x288 SWAP1 PUSH2 0x722 JUMP JUMPDEST DUP1 PUSH1 0x1F ADD PUSH1 0x20 DUP1 SWAP2 DIV MUL PUSH1 0x20 ADD PUSH1 0x40 MLOAD SWAP1 DUP2 ADD PUSH1 0x40 MSTORE DUP1 SWAP3 SWAP2 SWAP1 DUP2 DUP2 MSTORE PUSH1 0x20 ADD DUP3 DUP1 SLOAD PUSH2 0x2B4 SWAP1 PUSH2 0x722 JUMP JUMPDEST DUP1 ISZERO PUSH2 0x2FF JUMPI DUP1 PUSH1 0x1F LT PUSH2 0x2D6 JUMPI PUSH2 0x100 DUP1 DUP4 SLOAD DIV MUL DUP4 MSTORE SWAP2 PUSH1 0x20 ADD SWAP2 PUSH2 0x2FF JUMP JUMPDEST DUP3 ADD SWAP2 SWAP1 PUSH0 MSTORE PUSH1 0x20 PUSH0 KECCAK256 SWAP1 JUMPDEST DUP2 SLOAD DUP2 MSTORE SWAP1 PUSH1 0x1 ADD SWAP1 PUSH1 0x20 ADD DUP1 DUP4 GT PUSH2 0x2E2 JUMPI DUP3 SWAP1 SUB PUSH1 0x1F AND DUP3 ADD SWAP2 JUMPDEST POP POP POP POP POP DUP2 JUMP JUMPDEST PUSH0 PUSH1 0x3 SLOAD SWAP1 POP SWAP1 JUMP JUMPDEST DUP1 PUSH1 0x3 DUP2 SWAP1 SSTORE POP POP JUMP JUMPDEST PUSH0 SLOAD DUP2 JUMP JUMPDEST DUP2 PUSH1 0x1 SWAP1 DUP2 PUSH2 0x32E SWAP2 SWAP1 PUSH2 0x8F2 JUMP JUMPDEST POP PUSH2 0x338 DUP2 PUSH2 0x3A9 JUMP JUMPDEST PUSH2 0x376 PUSH1 0x40 MLOAD DUP1 PUSH1 0x40 ADD PUSH1 0x40 MSTORE DUP1 PUSH1 0x14 DUP2 MSTORE PUSH1 0x20 ADD PUSH32 0x6368616D6F752070656C6F20636F6E747261746F000000000000000000000000 DUP2 MSTORE POP PUSH2 0x37A JUMP JUMPDEST POP POP JUMP JUMPDEST DUP1 PUSH1 0x2 SWAP1 DUP2 PUSH2 0x389 SWAP2 SWAP1 PUSH2 0x8F2 JUMP JUMPDEST POP POP JUMP JUMPDEST JUMP JUMPDEST PUSH0 PUSH0 DUP3 DUP5 PUSH2 0x39D SWAP2 SWAP1 PUSH2 0x9EE JUMP JUMPDEST SWAP1 POP DUP1 SWAP2 POP POP SWAP3 SWAP2 POP POP JUMP JUMPDEST PUSH0 PUSH1 0x2 DUP3 PUSH2 0x3B7 SWAP2 SWAP1 PUSH2 0xA5C JUMP JUMPDEST SWAP1 POP DUP1 PUSH0 DUP2 SWAP1 SSTORE POP POP POP JUMP JUMPDEST PUSH0 DUP2 MLOAD SWAP1 POP SWAP2 SWAP1 POP JUMP JUMPDEST PUSH0 DUP3 DUP3 MSTORE PUSH1 0x20 DUP3 ADD SWAP1 POP SWAP3 SWAP2 POP POP JUMP JUMPDEST DUP3 DUP2 DUP4 MCOPY PUSH0 DUP4 DUP4 ADD MSTORE POP POP POP JUMP JUMPDEST PUSH0 PUSH1 0x1F NOT PUSH1 0x1F DUP4 ADD AND SWAP1 POP SWAP2 SWAP1 POP JUMP JUMPDEST PUSH0 PUSH2 0x405 DUP3 PUSH2 0x3C3 JUMP JUMPDEST PUSH2 0x40F DUP2 DUP6 PUSH2 0x3CD JUMP JUMPDEST SWAP4 POP PUSH2 0x41F DUP2 DUP6 PUSH1 0x20 DUP7 ADD PUSH2 0x3DD JUMP JUMPDEST PUSH2 0x428 DUP2 PUSH2 0x3EB JUMP JUMPDEST DUP5 ADD SWAP2 POP POP SWAP3 SWAP2 POP POP JUMP JUMPDEST PUSH0 PUSH1 0x20 DUP3 ADD SWAP1 POP DUP2 DUP2 SUB PUSH0 DUP4 ADD MSTORE PUSH2 0x44B DUP2 DUP5 PUSH2 0x3FB JUMP JUMPDEST SWAP1 POP SWAP3 SWAP2 POP POP JUMP JUMPDEST PUSH0 DUP2 SWAP1 POP SWAP2 SWAP1 POP JUMP JUMPDEST PUSH2 0x465 DUP2 PUSH2 0x453 JUMP JUMPDEST DUP3 MSTORE POP POP JUMP JUMPDEST PUSH0 PUSH1 0x20 DUP3 ADD SWAP1 POP PUSH2 0x47E PUSH0 DUP4 ADD DUP5 PUSH2 0x45C JUMP JUMPDEST SWAP3 SWAP2 POP POP JUMP JUMPDEST PUSH0 PUSH1 0x40 MLOAD SWAP1 POP SWAP1 JUMP JUMPDEST PUSH0 PUSH0 REVERT JUMPDEST PUSH0 PUSH0 REVERT JUMPDEST PUSH2 0x49E DUP2 PUSH2 0x453 JUMP JUMPDEST DUP2 EQ PUSH2 0x4A8 JUMPI PUSH0 PUSH0 REVERT JUMPDEST POP JUMP JUMPDEST PUSH0 DUP2 CALLDATALOAD SWAP1 POP PUSH2 0x4B9 DUP2 PUSH2 0x495 JUMP JUMPDEST SWAP3 SWAP2 POP POP JUMP JUMPDEST PUSH0 PUSH1 0x20 DUP3 DUP5 SUB SLT ISZERO PUSH2 0x4D4 JUMPI PUSH2 0x4D3 PUSH2 0x48D JUMP JUMPDEST JUMPDEST PUSH0 PUSH2 0x4E1 DUP5 DUP3 DUP6 ADD PUSH2 0x4AB JUMP JUMPDEST SWAP2 POP POP SWAP3 SWAP2 POP POP JUMP JUMPDEST PUSH0 PUSH0 REVERT JUMPDEST PUSH0 PUSH0 REVERT JUMPDEST PUSH32 0x4E487B7100000000000000000000000000000000000000000000000000000000 PUSH0 MSTORE PUSH1 0x41 PUSH1 0x4 MSTORE PUSH1 0x24 PUSH0 REVERT JUMPDEST PUSH2 0x528 DUP3 PUSH2 0x3EB JUMP JUMPDEST DUP2 ADD DUP2 DUP2 LT PUSH8 0xFFFFFFFFFFFFFFFF DUP3 GT OR ISZERO PUSH2 0x547 JUMPI PUSH2 0x546 PUSH2 0x4F2 JUMP JUMPDEST JUMPDEST DUP1 PUSH1 0x40 MSTORE POP POP POP JUMP JUMPDEST PUSH0 PUSH2 0x559 PUSH2 0x484 JUMP JUMPDEST SWAP1 POP PUSH2 0x565 DUP3 DUP3 PUSH2 0x51F JUMP JUMPDEST SWAP2 SWAP1 POP JUMP JUMPDEST PUSH0 PUSH8 0xFFFFFFFFFFFFFFFF DUP3 GT ISZERO PUSH2 0x584 JUMPI PUSH2 0x583 PUSH2 0x4F2 JUMP JUMPDEST JUMPDEST PUSH2 0x58D DUP3 PUSH2 0x3EB JUMP JUMPDEST SWAP1 POP PUSH1 0x20 DUP2 ADD SWAP1 POP SWAP2 SWAP1 POP JUMP JUMPDEST DUP3 DUP2 DUP4 CALLDATACOPY PUSH0 DUP4 DUP4 ADD MSTORE POP POP POP JUMP JUMPDEST PUSH0 PUSH2 0x5BA PUSH2 0x5B5 DUP5 PUSH2 0x56A JUMP JUMPDEST PUSH2 0x550 JUMP JUMPDEST SWAP1 POP DUP3 DUP2 MSTORE PUSH1 0x20 DUP2 ADD DUP5 DUP5 DUP5 ADD GT ISZERO PUSH2 0x5D6 JUMPI PUSH2 0x5D5 PUSH2 0x4EE JUMP JUMPDEST JUMPDEST PUSH2 0x5E1 DUP5 DUP3 DUP6 PUSH2 0x59A JUMP JUMPDEST POP SWAP4 SWAP3 POP POP POP JUMP JUMPDEST PUSH0 DUP3 PUSH1 0x1F DUP4 ADD SLT PUSH2 0x5FD JUMPI PUSH2 0x5FC PUSH2 0x4EA JUMP JUMPDEST JUMPDEST DUP2 CALLDATALOAD PUSH2 0x60D DUP5 DUP3 PUSH1 0x20 DUP7 ADD PUSH2 0x5A8 JUMP JUMPDEST SWAP2 POP POP SWAP3 SWAP2 POP POP JUMP JUMPDEST PUSH0 PUSH0 PUSH1 0x40 DUP4 DUP6 SUB SLT ISZERO PUSH2 0x62C JUMPI PUSH2 0x62B PUSH2 0x48D JUMP JUMPDEST JUMPDEST PUSH0 DUP4 ADD CALLDATALOAD PUSH8 0xFFFFFFFFFFFFFFFF DUP2 GT ISZERO PUSH2 0x649 JUMPI PUSH2 0x648 PUSH2 0x491 JUMP JUMPDEST JUMPDEST PUSH2 0x655 DUP6 DUP3 DUP7 ADD PUSH2 0x5E9 JUMP JUMPDEST SWAP3 POP POP PUSH1 0x20 PUSH2 0x666 DUP6 DUP3 DUP7 ADD PUSH2 0x4AB JUMP JUMPDEST SWAP2 POP POP SWAP3 POP SWAP3 SWAP1 POP JUMP JUMPDEST PUSH0 PUSH1 0x20 DUP3 DUP5 SUB SLT ISZERO PUSH2 0x685 JUMPI PUSH2 0x684 PUSH2 0x48D JUMP JUMPDEST JUMPDEST PUSH0 DUP3 ADD CALLDATALOAD PUSH8 0xFFFFFFFFFFFFFFFF DUP2 GT ISZERO PUSH2 0x6A2 JUMPI PUSH2 0x6A1 PUSH2 0x491 JUMP JUMPDEST JUMPDEST PUSH2 0x6AE DUP5 DUP3 DUP6 ADD PUSH2 0x5E9 JUMP JUMPDEST SWAP2 POP POP SWAP3 SWAP2 POP POP JUMP JUMPDEST PUSH0 PUSH0 PUSH1 0x40 DUP4 DUP6 SUB SLT ISZERO PUSH2 0x6CD JUMPI PUSH2 0x6CC PUSH2 0x48D JUMP JUMPDEST JUMPDEST PUSH0 PUSH2 0x6DA DUP6 DUP3 DUP7 ADD PUSH2 0x4AB JUMP JUMPDEST SWAP3 POP POP PUSH1 0x20 PUSH2 0x6EB DUP6 DUP3 DUP7 ADD PUSH2 0x4AB JUMP JUMPDEST SWAP2 POP POP SWAP3 POP SWAP3 SWAP1 POP JUMP JUMPDEST PUSH32 0x4E487B7100000000000000000000000000000000000000000000000000000000 PUSH0 MSTORE PUSH1 0x22 PUSH1 0x4 MSTORE PUSH1 0x24 PUSH0 REVERT JUMPDEST PUSH0 PUSH1 0x2 DUP3 DIV SWAP1 POP PUSH1 0x1 DUP3 AND DUP1 PUSH2 0x739 JUMPI PUSH1 0x7F DUP3 AND SWAP2 POP JUMPDEST PUSH1 0x20 DUP3 LT DUP2 SUB PUSH2 0x74C JUMPI PUSH2 0x74B PUSH2 0x6F5 JUMP JUMPDEST JUMPDEST POP SWAP2 SWAP1 POP JUMP JUMPDEST PUSH0 DUP2 SWAP1 POP DUP2 PUSH0 MSTORE PUSH1 0x20 PUSH0 KECCAK256 SWAP1 POP SWAP2 SWAP1 POP JUMP JUMPDEST PUSH0 PUSH1 0x20 PUSH1 0x1F DUP4 ADD DIV SWAP1 POP SWAP2 SWAP1 POP JUMP JUMPDEST PUSH0 DUP3 DUP3 SHL SWAP1 POP SWAP3 SWAP2 POP POP JUMP JUMPDEST PUSH0 PUSH1 0x8 DUP4 MUL PUSH2 0x7AE PUSH32 0xFFFFFFFFFFFFFFFFFFFFFFFFFFFFFFFFFFFFFFFFFFFFFFFFFFFFFFFFFFFFFFFF DUP3 PUSH2 0x773 JUMP JUMPDEST PUSH2 0x7B8 DUP7 DUP4 PUSH2 0x773 JUMP JUMPDEST SWAP6 POP DUP1 NOT DUP5 AND SWAP4 POP DUP1 DUP7 AND DUP5 OR SWAP3 POP POP POP SWAP4 SWAP3 POP POP POP JUMP JUMPDEST PUSH0 DUP2 SWAP1 POP SWAP2 SWAP1 POP JUMP JUMPDEST PUSH0 PUSH2 0x7F3 PUSH2 0x7EE PUSH2 0x7E9 DUP5 PUSH2 0x453 JUMP JUMPDEST PUSH2 0x7D0 JUMP JUMPDEST PUSH2 0x453 JUMP JUMPDEST SWAP1 POP SWAP2 SWAP1 POP JUMP JUMPDEST PUSH0 DUP2 SWAP1 POP SWAP2 SWAP1 POP JUMP JUMPDEST PUSH2 0x80C DUP4 PUSH2 0x7D9 JUMP JUMPDEST PUSH2 0x820 PUSH2 0x818 DUP3 PUSH2 0x7FA JUMP JUMPDEST DUP5 DUP5 SLOAD PUSH2 0x77F JUMP JUMPDEST DUP3 SSTORE POP POP POP POP JUMP JUMPDEST PUSH0 PUSH0 SWAP1 POP SWAP1 JUMP JUMPDEST PUSH2 0x837 PUSH2 0x828 JUMP JUMPDEST PUSH2 0x842 DUP2 DUP5 DUP5 PUSH2 0x803 JUMP JUMPDEST POP POP POP JUMP JUMPDEST JUMPDEST DUP2 DUP2 LT ISZERO PUSH2 0x865 JUMPI PUSH2 0x85A PUSH0 DUP3 PUSH2 0x82F JUMP JUMPDEST PUSH1 0x1 DUP2 ADD SWAP1 POP PUSH2 0x848 JUMP JUMPDEST POP POP JUMP JUMPDEST PUSH1 0x1F DUP3 GT ISZERO PUSH2 0x8AA JUMPI PUSH2 0x87B DUP2 PUSH2 0x752 JUMP JUMPDEST PUSH2 0x884 DUP5 PUSH2 0x764 JUMP JUMPDEST DUP2 ADD PUSH1 0x20 DUP6 LT ISZERO PUSH2 0x893 JUMPI DUP2 SWAP1 POP JUMPDEST PUSH2 0x8A7 PUSH2 0x89F DUP6 PUSH2 0x764 JUMP JUMPDEST DUP4 ADD DUP3 PUSH2 0x847 JUMP JUMPDEST POP POP JUMPDEST POP POP POP JUMP JUMPDEST PUSH0 DUP3 DUP3 SHR SWAP1 POP SWAP3 SWAP2 POP POP JUMP JUMPDEST PUSH0 PUSH2 0x8CA PUSH0 NOT DUP5 PUSH1 0x8 MUL PUSH2 0x8AF JUMP JUMPDEST NOT DUP1 DUP4 AND SWAP2 POP POP SWAP3 SWAP2 POP POP JUMP JUMPDEST PUSH0 PUSH2 0x8E2 DUP4 DUP4 PUSH2 0x8BB JUMP JUMPDEST SWAP2 POP DUP3 PUSH1 0x2 MUL DUP3 OR SWAP1 POP SWAP3 SWAP2 POP POP JUMP JUMPDEST PUSH2 0x8FB DUP3 PUSH2 0x3C3 JUMP JUMPDEST PUSH8 0xFFFFFFFFFFFFFFFF DUP2 GT ISZERO PUSH2 0x914 JUMPI PUSH2 0x913 PUSH2 0x4F2 JUMP JUMPDEST JUMPDEST PUSH2 0x91E DUP3 SLOAD PUSH2 0x722 JUMP JUMPDEST PUSH2 0x929 DUP3 DUP3 DUP6 PUSH2 0x869 JUMP JUMPDEST PUSH0 PUSH1 0x20 SWAP1 POP PUSH1 0x1F DUP4 GT PUSH1 0x1 DUP2 EQ PUSH2 0x95A JUMPI PUSH0 DUP5 ISZERO PUSH2 0x948 JUMPI DUP3 DUP8 ADD MLOAD SWAP1 POP JUMPDEST PUSH2 0x952 DUP6 DUP3 PUSH2 0x8D7 JUMP JUMPDEST DUP7 SSTORE POP PUSH2 0x9B9 JUMP JUMPDEST PUSH1 0x1F NOT DUP5 AND PUSH2 0x968 DUP7 PUSH2 0x752 JUMP JUMPDEST PUSH0 JUMPDEST DUP3 DUP2 LT ISZERO PUSH2 0x98F JUMPI DUP5 DUP10 ADD MLOAD DUP3 SSTORE PUSH1 0x1 DUP3 ADD SWAP2 POP PUSH1 0x20 DUP6 ADD SWAP5 POP PUSH1 0x20 DUP2 ADD SWAP1 POP PUSH2 0x96A JUMP JUMPDEST DUP7 DUP4 LT ISZERO PUSH2 0x9AC JUMPI DUP5 DUP10 ADD MLOAD PUSH2 0x9A8 PUSH1 0x1F DUP10 AND DUP3 PUSH2 0x8BB JUMP JUMPDEST DUP4 SSTORE POP JUMPDEST PUSH1 0x1 PUSH1 0x2 DUP9 MUL ADD DUP9 SSTORE POP POP POP JUMPDEST POP POP POP POP POP POP JUMP JUMPDEST PUSH32 0x4E487B7100000000000000000000000000000000000000000000000000000000 PUSH0 MSTORE PUSH1 0x11 PUSH1 0x4 MSTORE PUSH1 0x24 PUSH0 REVERT JUMPDEST PUSH0 PUSH2 0x9F8 DUP3 PUSH2 0x453 JUMP JUMPDEST SWAP2 POP PUSH2 0xA03 DUP4 PUSH2 0x453 JUMP JUMPDEST SWAP3 POP DUP3 DUP3 MUL PUSH2 0xA11 DUP2 PUSH2 0x453 JUMP JUMPDEST SWAP2 POP DUP3 DUP3 DIV DUP5 EQ DUP4 ISZERO OR PUSH2 0xA28 JUMPI PUSH2 0xA27 PUSH2 0x9C1 JUMP JUMPDEST JUMPDEST POP SWAP3 SWAP2 POP POP JUMP JUMPDEST PUSH32 0x4E487B7100000000000000000000000000000000000000000000000000000000 PUSH0 MSTORE PUSH1 0x12 PUSH1 0x4 MSTORE PUSH1 0x24 PUSH0 REVERT JUMPDEST PUSH0 PUSH2 0xA66 DUP3 PUSH2 0x453 JUMP JUMPDEST SWAP2 POP PUSH2 0xA71 DUP4 PUSH2 0x453 JUMP JUMPDEST SWAP3 POP DUP3 PUSH2 0xA81 JUMPI PUSH2 0xA80 PUSH2 0xA2F JUMP JUMPDEST JUMPDEST DUP3 DUP3 DIV SWAP1 POP SWAP3 SWAP2 POP POP JUMP INVALID LOG2 PUSH5 0x6970667358 0x22 SLT KECCAK256 OR JUMP 0x4D MSIZE 0xA5 MSIZE 0xD4 0xDD 0xB5 0xD2 SLOAD SWAP1 JUMP MULMOD 0xD4 0xEF DUP11 SSTORE PUSH4 0xC5FDCB2E EXTSTATICCALL PUSH2 0xE77B PUSH18 0xD3EB2FE064736F6C634300081E0033000000 "
				},
				"gasEstimates": {
					"creation": {
						"codeDepositCost": "550800",
						"executionCost": "585",
						"totalCost": "551385"
					},
					"external": {
						"getValor()": "2477",
						"mensagem()": "infinite",
						"multiplicar(uint256,uint256)": "infinite",
						"nome()": "infinite",
						"numero()": "2424",
						"payEther()": "185",
						"setMsg(string)": "infinite",
						"setNomeNum(string,uint256)": "infinite",
						"setValor(uint256)": "22582"
					},
					"internal": {
						"subNum(uint256)": "infinite"
					}
				},
				"methodIdentifiers": {
					"getValor()": "3ef42c97",
					"mensagem()": "160c5063",
					"multiplicar(uint256,uint256)": "fbf188a2",
					"nome()": "2deb124b",
					"numero()": "91f5de38",
					"payEther()": "f7474d00",
					"setMsg(string)": "c4784fd4",
					"setNomeNum(string,uint256)": "bfe7cdda",
					"setValor(uint256)": "428706be"
				}
			},
			"storageLayout": {
				"storage": [
					{
						"astId": 3,
						"contract": "AulasNearX/Functions.sol:funcoesExemplo",
						"label": "numero",
						"offset": 0,
						"slot": "0",
						"type": "t_uint256"
					},
					{
						"astId": 5,
						"contract": "AulasNearX/Functions.sol:funcoesExemplo",
						"label": "nome",
						"offset": 0,
						"slot": "1",
						"type": "t_string_storage"
					},
					{
						"astId": 7,
						"contract": "AulasNearX/Functions.sol:funcoesExemplo",
						"label": "mensagem",
						"offset": 0,
						"slot": "2",
						"type": "t_string_storage"
					},
					{
						"astId": 9,
						"contract": "AulasNearX/Functions.sol:funcoesExemplo",
						"label": "valor",
						"offset": 0,
						"slot": "3",
						"type": "t_uint256"
					}
				],
				"types": {
					"t_string_storage": {
						"encoding": "bytes",
						"label": "string",
						"numberOfBytes": "32"
					},
					"t_uint256": {
						"encoding": "inplace",
						"label": "uint256",
						"numberOfBytes": "32"
					}
				}
			},
			"userdoc": {
				"kind": "user",
				"methods": {},
				"version": 1
			}
		}
	}
}