{
	"data": {
		"bytecode": {
			"linkReferences": {},
			"object": "608060405260125f553480156012575f5ffd5b50610997806100205f395ff3fe608060405234801561000f575f5ffd5b506004361061003f575f3560e01c8063063a646214610043578063685a36e414610073578063b1b1318e14610091575b5f5ffd5b61005d60048036038101906100589190610258565b6100c1565b60405161006a91906102f3565b60405180910390f35b61007b610144565b6040516100889190610322565b60405180910390f35b6100ab60048036038101906100a69190610467565b610183565b6040516100b891906104db565b60405180910390f35b60608160045414610107576040517f08c379a00000000000000000000000000000000000000000000000000000000081526004016100fe9061053e565b60405180910390fd5b6040518060400160405280601081526020017f7375636573736f206e6f206c6f67696e000000000000000000000000000000008152509050919050565b5f5f33444260405160200161015b939291906105f1565b604051602081830303815290604052805190602001205f1c9050806004819055508091505090565b5f61018d826101cd565b826002908161019c919061082a565b506001805f6101000a81548160ff02191690831515021790555060015f9054906101000a900460ff16905092915050565b5f54811015610211576040517f08c379a000000000000000000000000000000000000000000000000000000000815260040161020890610943565b60405180910390fd5b50565b5f604051905090565b5f5ffd5b5f5ffd5b5f819050919050565b61023781610225565b8114610241575f5ffd5b50565b5f813590506102528161022e565b92915050565b5f6020828403121561026d5761026c61021d565b5b5f61027a84828501610244565b91505092915050565b5f81519050919050565b5f82825260208201905092915050565b8281835e5f83830152505050565b5f601f19601f8301169050919050565b5f6102c582610283565b6102cf818561028d565b93506102df81856020860161029d565b6102e8816102ab565b840191505092915050565b5f6020820190508181035f83015261030b81846102bb565b905092915050565b61031c81610225565b82525050565b5f6020820190506103355f830184610313565b92915050565b5f5ffd5b5f5ffd5b7f4e487b71000000000000000000000000000000000000000000000000000000005f52604160045260245ffd5b610379826102ab565b810181811067ffffffffffffffff8211171561039857610397610343565b5b80604052505050565b5f6103aa610214565b90506103b68282610370565b919050565b5f67ffffffffffffffff8211156103d5576103d4610343565b5b6103de826102ab565b9050602081019050919050565b828183375f83830152505050565b5f61040b610406846103bb565b6103a1565b9050828152602081018484840111156104275761042661033f565b5b6104328482856103eb565b509392505050565b5f82601f83011261044e5761044d61033b565b5b813561045e8482602086016103f9565b91505092915050565b5f5f6040838503121561047d5761047c61021d565b5b5f83013567ffffffffffffffff81111561049a57610499610221565b5b6104a68582860161043a565b92505060206104b785828601610244565b9150509250929050565b5f8115159050919050565b6104d5816104c1565b82525050565b5f6020820190506104ee5f8301846104cc565b92915050565b7f7375612073656e6861206573746120696e636f727265746100000000000000005f82015250565b5f61052860188361028d565b9150610533826104f4565b602082019050919050565b5f6020820190508181035f8301526105558161051c565b9050919050565b5f73ffffffffffffffffffffffffffffffffffffffff82169050919050565b5f6105858261055c565b9050919050565b5f8160601b9050919050565b5f6105a28261058c565b9050919050565b5f6105b382610598565b9050919050565b6105cb6105c68261057b565b6105a9565b82525050565b5f819050919050565b6105eb6105e682610225565b6105d1565b82525050565b5f6105fc82866105ba565b60148201915061060c82856105da565b60208201915061061c82846105da565b602082019150819050949350505050565b7f4e487b71000000000000000000000000000000000000000000000000000000005f52602260045260245ffd5b5f600282049050600182168061067157607f821691505b6020821081036106845761068361062d565b5b50919050565b5f819050815f5260205f209050919050565b5f6020601f8301049050919050565b5f82821b905092915050565b5f600883026106e67fffffffffffffffffffffffffffffffffffffffffffffffffffffffffffffffff826106ab565b6106f086836106ab565b95508019841693508086168417925050509392505050565b5f819050919050565b5f61072b61072661072184610225565b610708565b610225565b9050919050565b5f819050919050565b61074483610711565b61075861075082610732565b8484546106b7565b825550505050565b5f5f905090565b61076f610760565b61077a81848461073b565b505050565b5b8181101561079d576107925f82610767565b600181019050610780565b5050565b601f8211156107e2576107b38161068a565b6107bc8461069c565b810160208510156107cb578190505b6107df6107d78561069c565b83018261077f565b50505b505050565b5f82821c905092915050565b5f6108025f19846008026107e7565b1980831691505092915050565b5f61081a83836107f3565b9150826002028217905092915050565b61083382610283565b67ffffffffffffffff81111561084c5761084b610343565b5b610856825461065a565b6108618282856107a1565b5f60209050601f831160018114610892575f8415610880578287015190505b61088a858261080f565b8655506108f1565b601f1984166108a08661068a565b5f5b828110156108c7578489015182556001820191506020850194506020810190506108a2565b868310156108e457848901516108e0601f8916826107f3565b8355505b6001600288020188555050505b505050505050565b7f6e616f2065207065726d697469646f00000000000000000000000000000000005f82015250565b5f61092d600f8361028d565b9150610938826108f9565b602082019050919050565b5f6020820190508181035f83015261095a81610921565b905091905056fea2646970667358221220f498a3cee3d1695ff736958454fdf82acbeb272a1c14125562c7c5b4d03300b964736f6c634300081e0033",
			"opcodes": "PUSH1 0x80 PUSH1 0x40 MSTORE PUSH1 0x12 PUSH0 SSTORE CALLVALUE DUP1 ISZERO PUSH1 0x12 JUMPI PUSH0 PUSH0 REVERT JUMPDEST POP PUSH2 0x997 DUP1 PUSH2 0x20 PUSH0 CODECOPY PUSH0 RETURN INVALID PUSH1 0x80 PUSH1 0x40 MSTORE CALLVALUE DUP1 ISZERO PUSH2 0xF JUMPI PUSH0 PUSH0 REVERT JUMPDEST POP PUSH1 0x4 CALLDATASIZE LT PUSH2 0x3F JUMPI PUSH0 CALLDATALOAD PUSH1 0xE0 SHR DUP1 PUSH4 0x63A6462 EQ PUSH2 0x43 JUMPI DUP1 PUSH4 0x685A36E4 EQ PUSH2 0x73 JUMPI DUP1 PUSH4 0xB1B1318E EQ PUSH2 0x91 JUMPI JUMPDEST PUSH0 PUSH0 REVERT JUMPDEST PUSH2 0x5D PUSH1 0x4 DUP1 CALLDATASIZE SUB DUP2 ADD SWAP1 PUSH2 0x58 SWAP2 SWAP1 PUSH2 0x258 JUMP JUMPDEST PUSH2 0xC1 JUMP JUMPDEST PUSH1 0x40 MLOAD PUSH2 0x6A SWAP2 SWAP1 PUSH2 0x2F3 JUMP JUMPDEST PUSH1 0x40 MLOAD DUP1 SWAP2 SUB SWAP1 RETURN JUMPDEST PUSH2 0x7B PUSH2 0x144 JUMP JUMPDEST PUSH1 0x40 MLOAD PUSH2 0x88 SWAP2 SWAP1 PUSH2 0x322 JUMP JUMPDEST PUSH1 0x40 MLOAD DUP1 SWAP2 SUB SWAP1 RETURN JUMPDEST PUSH2 0xAB PUSH1 0x4 DUP1 CALLDATASIZE SUB DUP2 ADD SWAP1 PUSH2 0xA6 SWAP2 SWAP1 PUSH2 0x467 JUMP JUMPDEST PUSH2 0x183 JUMP JUMPDEST PUSH1 0x40 MLOAD PUSH2 0xB8 SWAP2 SWAP1 PUSH2 0x4DB JUMP JUMPDEST PUSH1 0x40 MLOAD DUP1 SWAP2 SUB SWAP1 RETURN JUMPDEST PUSH1 0x60 DUP2 PUSH1 0x4 SLOAD EQ PUSH2 0x107 JUMPI PUSH1 0x40 MLOAD PUSH32 0x8C379A000000000000000000000000000000000000000000000000000000000 DUP2 MSTORE PUSH1 0x4 ADD PUSH2 0xFE SWAP1 PUSH2 0x53E JUMP JUMPDEST PUSH1 0x40 MLOAD DUP1 SWAP2 SUB SWAP1 REVERT JUMPDEST PUSH1 0x40 MLOAD DUP1 PUSH1 0x40 ADD PUSH1 0x40 MSTORE DUP1 PUSH1 0x10 DUP2 MSTORE PUSH1 0x20 ADD PUSH32 0x7375636573736F206E6F206C6F67696E00000000000000000000000000000000 DUP2 MSTORE POP SWAP1 POP SWAP2 SWAP1 POP JUMP JUMPDEST PUSH0 PUSH0 CALLER PREVRANDAO TIMESTAMP PUSH1 0x40 MLOAD PUSH1 0x20 ADD PUSH2 0x15B SWAP4 SWAP3 SWAP2 SWAP1 PUSH2 0x5F1 JUMP JUMPDEST PUSH1 0x40 MLOAD PUSH1 0x20 DUP2 DUP4 SUB SUB DUP2 MSTORE SWAP1 PUSH1 0x40 MSTORE DUP1 MLOAD SWAP1 PUSH1 0x20 ADD KECCAK256 PUSH0 SHR SWAP1 POP DUP1 PUSH1 0x4 DUP2 SWAP1 SSTORE POP DUP1 SWAP2 POP POP SWAP1 JUMP JUMPDEST PUSH0 PUSH2 0x18D DUP3 PUSH2 0x1CD JUMP JUMPDEST DUP3 PUSH1 0x2 SWAP1 DUP2 PUSH2 0x19C SWAP2 SWAP1 PUSH2 0x82A JUMP JUMPDEST POP PUSH1 0x1 DUP1 PUSH0 PUSH2 0x100 EXP DUP2 SLOAD DUP2 PUSH1 0xFF MUL NOT AND SWAP1 DUP4 ISZERO ISZERO MUL OR SWAP1 SSTORE POP PUSH1 0x1 PUSH0 SWAP1 SLOAD SWAP1 PUSH2 0x100 EXP SWAP1 DIV PUSH1 0xFF AND SWAP1 POP SWAP3 SWAP2 POP POP JUMP JUMPDEST PUSH0 SLOAD DUP2 LT ISZERO PUSH2 0x211 JUMPI PUSH1 0x40 MLOAD PUSH32 0x8C379A000000000000000000000000000000000000000000000000000000000 DUP2 MSTORE PUSH1 0x4 ADD PUSH2 0x208 SWAP1 PUSH2 0x943 JUMP JUMPDEST PUSH1 0x40 MLOAD DUP1 SWAP2 SUB SWAP1 REVERT JUMPDEST POP JUMP JUMPDEST PUSH0 PUSH1 0x40 MLOAD SWAP1 POP SWAP1 JUMP JUMPDEST PUSH0 PUSH0 REVERT JUMPDEST PUSH0 PUSH0 REVERT JUMPDEST PUSH0 DUP2 SWAP1 POP SWAP2 SWAP1 POP JUMP JUMPDEST PUSH2 0x237 DUP2 PUSH2 0x225 JUMP JUMPDEST DUP2 EQ PUSH2 0x241 JUMPI PUSH0 PUSH0 REVERT JUMPDEST POP JUMP JUMPDEST PUSH0 DUP2 CALLDATALOAD SWAP1 POP PUSH2 0x252 DUP2 PUSH2 0x22E JUMP JUMPDEST SWAP3 SWAP2 POP POP JUMP JUMPDEST PUSH0 PUSH1 0x20 DUP3 DUP5 SUB SLT ISZERO PUSH2 0x26D JUMPI PUSH2 0x26C PUSH2 0x21D JUMP JUMPDEST JUMPDEST PUSH0 PUSH2 0x27A DUP5 DUP3 DUP6 ADD PUSH2 0x244 JUMP JUMPDEST SWAP2 POP POP SWAP3 SWAP2 POP POP JUMP JUMPDEST PUSH0 DUP2 MLOAD SWAP1 POP SWAP2 SWAP1 POP JUMP JUMPDEST PUSH0 DUP3 DUP3 MSTORE PUSH1 0x20 DUP3 ADD SWAP1 POP SWAP3 SWAP2 POP POP JUMP JUMPDEST DUP3 DUP2 DUP4 MCOPY PUSH0 DUP4 DUP4 ADD MSTORE POP POP POP JUMP JUMPDEST PUSH0 PUSH1 0x1F NOT PUSH1 0x1F DUP4 ADD AND SWAP1 POP SWAP2 SWAP1 POP JUMP JUMPDEST PUSH0 PUSH2 0x2C5 DUP3 PUSH2 0x283 JUMP JUMPDEST PUSH2 0x2CF DUP2 DUP6 PUSH2 0x28D JUMP JUMPDEST SWAP4 POP PUSH2 0x2DF DUP2 DUP6 PUSH1 0x20 DUP7 ADD PUSH2 0x29D JUMP JUMPDEST PUSH2 0x2E8 DUP2 PUSH2 0x2AB JUMP JUMPDEST DUP5 ADD SWAP2 POP POP SWAP3 SWAP2 POP POP JUMP JUMPDEST PUSH0 PUSH1 0x20 DUP3 ADD SWAP1 POP DUP2 DUP2 SUB PUSH0 DUP4 ADD MSTORE PUSH2 0x30B DUP2 DUP5 PUSH2 0x2BB JUMP JUMPDEST SWAP1 POP SWAP3 SWAP2 POP POP JUMP JUMPDEST PUSH2 0x31C DUP2 PUSH2 0x225 JUMP JUMPDEST DUP3 MSTORE POP POP JUMP JUMPDEST PUSH0 PUSH1 0x20 DUP3 ADD SWAP1 POP PUSH2 0x335 PUSH0 DUP4 ADD DUP5 PUSH2 0x313 JUMP JUMPDEST SWAP3 SWAP2 POP POP JUMP JUMPDEST PUSH0 PUSH0 REVERT JUMPDEST PUSH0 PUSH0 REVERT JUMPDEST PUSH32 0x4E487B7100000000000000000000000000000000000000000000000000000000 PUSH0 MSTORE PUSH1 0x41 PUSH1 0x4 MSTORE PUSH1 0x24 PUSH0 REVERT JUMPDEST PUSH2 0x379 DUP3 PUSH2 0x2AB JUMP JUMPDEST DUP2 ADD DUP2 DUP2 LT PUSH8 0xFFFFFFFFFFFFFFFF DUP3 GT OR ISZERO PUSH2 0x398 JUMPI PUSH2 0x397 PUSH2 0x343 JUMP JUMPDEST JUMPDEST DUP1 PUSH1 0x40 MSTORE POP POP POP JUMP JUMPDEST PUSH0 PUSH2 0x3AA PUSH2 0x214 JUMP JUMPDEST SWAP1 POP PUSH2 0x3B6 DUP3 DUP3 PUSH2 0x370 JUMP JUMPDEST SWAP2 SWAP1 POP JUMP JUMPDEST PUSH0 PUSH8 0xFFFFFFFFFFFFFFFF DUP3 GT ISZERO PUSH2 0x3D5 JUMPI PUSH2 0x3D4 PUSH2 0x343 JUMP JUMPDEST JUMPDEST PUSH2 0x3DE DUP3 PUSH2 0x2AB JUMP JUMPDEST SWAP1 POP PUSH1 0x20 DUP2 ADD SWAP1 POP SWAP2 SWAP1 POP JUMP JUMPDEST DUP3 DUP2 DUP4 CALLDATACOPY PUSH0 DUP4 DUP4 ADD MSTORE POP POP POP JUMP JUMPDEST PUSH0 PUSH2 0x40B PUSH2 0x406 DUP5 PUSH2 0x3BB JUMP JUMPDEST PUSH2 0x3A1 JUMP JUMPDEST SWAP1 POP DUP3 DUP2 MSTORE PUSH1 0x20 DUP2 ADD DUP5 DUP5 DUP5 ADD GT ISZERO PUSH2 0x427 JUMPI PUSH2 0x426 PUSH2 0x33F JUMP JUMPDEST JUMPDEST PUSH2 0x432 DUP5 DUP3 DUP6 PUSH2 0x3EB JUMP JUMPDEST POP SWAP4 SWAP3 POP POP POP JUMP JUMPDEST PUSH0 DUP3 PUSH1 0x1F DUP4 ADD SLT PUSH2 0x44E JUMPI PUSH2 0x44D PUSH2 0x33B JUMP JUMPDEST JUMPDEST DUP2 CALLDATALOAD PUSH2 0x45E DUP5 DUP3 PUSH1 0x20 DUP7 ADD PUSH2 0x3F9 JUMP JUMPDEST SWAP2 POP POP SWAP3 SWAP2 POP POP JUMP JUMPDEST PUSH0 PUSH0 PUSH1 0x40 DUP4 DUP6 SUB SLT ISZERO PUSH2 0x47D JUMPI PUSH2 0x47C PUSH2 0x21D JUMP JUMPDEST JUMPDEST PUSH0 DUP4 ADD CALLDATALOAD PUSH8 0xFFFFFFFFFFFFFFFF DUP2 GT ISZERO PUSH2 0x49A JUMPI PUSH2 0x499 PUSH2 0x221 JUMP JUMPDEST JUMPDEST PUSH2 0x4A6 DUP6 DUP3 DUP7 ADD PUSH2 0x43A JUMP JUMPDEST SWAP3 POP POP PUSH1 0x20 PUSH2 0x4B7 DUP6 DUP3 DUP7 ADD PUSH2 0x244 JUMP JUMPDEST SWAP2 POP POP SWAP3 POP SWAP3 SWAP1 POP JUMP JUMPDEST PUSH0 DUP2 ISZERO ISZERO SWAP1 POP SWAP2 SWAP1 POP JUMP JUMPDEST PUSH2 0x4D5 DUP2 PUSH2 0x4C1 JUMP JUMPDEST DUP3 MSTORE POP POP JUMP JUMPDEST PUSH0 PUSH1 0x20 DUP3 ADD SWAP1 POP PUSH2 0x4EE PUSH0 DUP4 ADD DUP5 PUSH2 0x4CC JUMP JUMPDEST SWAP3 SWAP2 POP POP JUMP JUMPDEST PUSH32 0x7375612073656E6861206573746120696E636F72726574610000000000000000 PUSH0 DUP3 ADD MSTORE POP JUMP JUMPDEST PUSH0 PUSH2 0x528 PUSH1 0x18 DUP4 PUSH2 0x28D JUMP JUMPDEST SWAP2 POP PUSH2 0x533 DUP3 PUSH2 0x4F4 JUMP JUMPDEST PUSH1 0x20 DUP3 ADD SWAP1 POP SWAP2 SWAP1 POP JUMP JUMPDEST PUSH0 PUSH1 0x20 DUP3 ADD SWAP1 POP DUP2 DUP2 SUB PUSH0 DUP4 ADD MSTORE PUSH2 0x555 DUP2 PUSH2 0x51C JUMP JUMPDEST SWAP1 POP SWAP2 SWAP1 POP JUMP JUMPDEST PUSH0 PUSH20 0xFFFFFFFFFFFFFFFFFFFFFFFFFFFFFFFFFFFFFFFF DUP3 AND SWAP1 POP SWAP2 SWAP1 POP JUMP JUMPDEST PUSH0 PUSH2 0x585 DUP3 PUSH2 0x55C JUMP JUMPDEST SWAP1 POP SWAP2 SWAP1 POP JUMP JUMPDEST PUSH0 DUP2 PUSH1 0x60 SHL SWAP1 POP SWAP2 SWAP1 POP JUMP JUMPDEST PUSH0 PUSH2 0x5A2 DUP3 PUSH2 0x58C JUMP JUMPDEST SWAP1 POP SWAP2 SWAP1 POP JUMP JUMPDEST PUSH0 PUSH2 0x5B3 DUP3 PUSH2 0x598 JUMP JUMPDEST SWAP1 POP SWAP2 SWAP1 POP JUMP JUMPDEST PUSH2 0x5CB PUSH2 0x5C6 DUP3 PUSH2 0x57B JUMP JUMPDEST PUSH2 0x5A9 JUMP JUMPDEST DUP3 MSTORE POP POP JUMP JUMPDEST PUSH0 DUP2 SWAP1 POP SWAP2 SWAP1 POP JUMP JUMPDEST PUSH2 0x5EB PUSH2 0x5E6 DUP3 PUSH2 0x225 JUMP JUMPDEST PUSH2 0x5D1 JUMP JUMPDEST DUP3 MSTORE POP POP JUMP JUMPDEST PUSH0 PUSH2 0x5FC DUP3 DUP7 PUSH2 0x5BA JUMP JUMPDEST PUSH1 0x14 DUP3 ADD SWAP2 POP PUSH2 0x60C DUP3 DUP6 PUSH2 0x5DA JUMP JUMPDEST PUSH1 0x20 DUP3 ADD SWAP2 POP PUSH2 0x61C DUP3 DUP5 PUSH2 0x5DA JUMP JUMPDEST PUSH1 0x20 DUP3 ADD SWAP2 POP DUP2 SWAP1 POP SWAP5 SWAP4 POP POP POP POP JUMP JUMPDEST PUSH32 0x4E487B7100000000000000000000000000000000000000000000000000000000 PUSH0 MSTORE PUSH1 0x22 PUSH1 0x4 MSTORE PUSH1 0x24 PUSH0 REVERT JUMPDEST PUSH0 PUSH1 0x2 DUP3 DIV SWAP1 POP PUSH1 0x1 DUP3 AND DUP1 PUSH2 0x671 JUMPI PUSH1 0x7F DUP3 AND SWAP2 POP JUMPDEST PUSH1 0x20 DUP3 LT DUP2 SUB PUSH2 0x684 JUMPI PUSH2 0x683 PUSH2 0x62D JUMP JUMPDEST JUMPDEST POP SWAP2 SWAP1 POP JUMP JUMPDEST PUSH0 DUP2 SWAP1 POP DUP2 PUSH0 MSTORE PUSH1 0x20 PUSH0 KECCAK256 SWAP1 POP SWAP2 SWAP1 POP JUMP JUMPDEST PUSH0 PUSH1 0x20 PUSH1 0x1F DUP4 ADD DIV SWAP1 POP SWAP2 SWAP1 POP JUMP JUMPDEST PUSH0 DUP3 DUP3 SHL SWAP1 POP SWAP3 SWAP2 POP POP JUMP JUMPDEST PUSH0 PUSH1 0x8 DUP4 MUL PUSH2 0x6E6 PUSH32 0xFFFFFFFFFFFFFFFFFFFFFFFFFFFFFFFFFFFFFFFFFFFFFFFFFFFFFFFFFFFFFFFF DUP3 PUSH2 0x6AB JUMP JUMPDEST PUSH2 0x6F0 DUP7 DUP4 PUSH2 0x6AB JUMP JUMPDEST SWAP6 POP DUP1 NOT DUP5 AND SWAP4 POP DUP1 DUP7 AND DUP5 OR SWAP3 POP POP POP SWAP4 SWAP3 POP POP POP JUMP JUMPDEST PUSH0 DUP2 SWAP1 POP SWAP2 SWAP1 POP JUMP JUMPDEST PUSH0 PUSH2 0x72B PUSH2 0x726 PUSH2 0x721 DUP5 PUSH2 0x225 JUMP JUMPDEST PUSH2 0x708 JUMP JUMPDEST PUSH2 0x225 JUMP JUMPDEST SWAP1 POP SWAP2 SWAP1 POP JUMP JUMPDEST PUSH0 DUP2 SWAP1 POP SWAP2 SWAP1 POP JUMP JUMPDEST PUSH2 0x744 DUP4 PUSH2 0x711 JUMP JUMPDEST PUSH2 0x758 PUSH2 0x750 DUP3 PUSH2 0x732 JUMP JUMPDEST DUP5 DUP5 SLOAD PUSH2 0x6B7 JUMP JUMPDEST DUP3 SSTORE POP POP POP POP JUMP JUMPDEST PUSH0 PUSH0 SWAP1 POP SWAP1 JUMP JUMPDEST PUSH2 0x76F PUSH2 0x760 JUMP JUMPDEST PUSH2 0x77A DUP2 DUP5 DUP5 PUSH2 0x73B JUMP JUMPDEST POP POP POP JUMP JUMPDEST JUMPDEST DUP2 DUP2 LT ISZERO PUSH2 0x79D JUMPI PUSH2 0x792 PUSH0 DUP3 PUSH2 0x767 JUMP JUMPDEST PUSH1 0x1 DUP2 ADD SWAP1 POP PUSH2 0x780 JUMP JUMPDEST POP POP JUMP JUMPDEST PUSH1 0x1F DUP3 GT ISZERO PUSH2 0x7E2 JUMPI PUSH2 0x7B3 DUP2 PUSH2 0x68A JUMP JUMPDEST PUSH2 0x7BC DUP5 PUSH2 0x69C JUMP JUMPDEST DUP2 ADD PUSH1 0x20 DUP6 LT ISZERO PUSH2 0x7CB JUMPI DUP2 SWAP1 POP JUMPDEST PUSH2 0x7DF PUSH2 0x7D7 DUP6 PUSH2 0x69C JUMP JUMPDEST DUP4 ADD DUP3 PUSH2 0x77F JUMP JUMPDEST POP POP JUMPDEST POP POP POP JUMP JUMPDEST PUSH0 DUP3 DUP3 SHR SWAP1 POP SWAP3 SWAP2 POP POP JUMP JUMPDEST PUSH0 PUSH2 0x802 PUSH0 NOT DUP5 PUSH1 0x8 MUL PUSH2 0x7E7 JUMP JUMPDEST NOT DUP1 DUP4 AND SWAP2 POP POP SWAP3 SWAP2 POP POP JUMP JUMPDEST PUSH0 PUSH2 0x81A DUP4 DUP4 PUSH2 0x7F3 JUMP JUMPDEST SWAP2 POP DUP3 PUSH1 0x2 MUL DUP3 OR SWAP1 POP SWAP3 SWAP2 POP POP JUMP JUMPDEST PUSH2 0x833 DUP3 PUSH2 0x283 JUMP JUMPDEST PUSH8 0xFFFFFFFFFFFFFFFF DUP2 GT ISZERO PUSH2 0x84C JUMPI PUSH2 0x84B PUSH2 0x343 JUMP JUMPDEST JUMPDEST PUSH2 0x856 DUP3 SLOAD PUSH2 0x65A JUMP JUMPDEST PUSH2 0x861 DUP3 DUP3 DUP6 PUSH2 0x7A1 JUMP JUMPDEST PUSH0 PUSH1 0x20 SWAP1 POP PUSH1 0x1F DUP4 GT PUSH1 0x1 DUP2 EQ PUSH2 0x892 JUMPI PUSH0 DUP5 ISZERO PUSH2 0x880 JUMPI DUP3 DUP8 ADD MLOAD SWAP1 POP JUMPDEST PUSH2 0x88A DUP6 DUP3 PUSH2 0x80F JUMP JUMPDEST DUP7 SSTORE POP PUSH2 0x8F1 JUMP JUMPDEST PUSH1 0x1F NOT DUP5 AND PUSH2 0x8A0 DUP7 PUSH2 0x68A JUMP JUMPDEST PUSH0 JUMPDEST DUP3 DUP2 LT ISZERO PUSH2 0x8C7 JUMPI DUP5 DUP10 ADD MLOAD DUP3 SSTORE PUSH1 0x1 DUP3 ADD SWAP2 POP PUSH1 0x20 DUP6 ADD SWAP5 POP PUSH1 0x20 DUP2 ADD SWAP1 POP PUSH2 0x8A2 JUMP JUMPDEST DUP7 DUP4 LT ISZERO PUSH2 0x8E4 JUMPI DUP5 DUP10 ADD MLOAD PUSH2 0x8E0 PUSH1 0x1F DUP10 AND DUP3 PUSH2 0x7F3 JUMP JUMPDEST DUP4 SSTORE POP JUMPDEST PUSH1 0x1 PUSH1 0x2 DUP9 MUL ADD DUP9 SSTORE POP POP POP JUMPDEST POP POP POP POP POP POP JUMP JUMPDEST PUSH32 0x6E616F2065207065726D697469646F0000000000000000000000000000000000 PUSH0 DUP3 ADD MSTORE POP JUMP JUMPDEST PUSH0 PUSH2 0x92D PUSH1 0xF DUP4 PUSH2 0x28D JUMP JUMPDEST SWAP2 POP PUSH2 0x938 DUP3 PUSH2 0x8F9 JUMP JUMPDEST PUSH1 0x20 DUP3 ADD SWAP1 POP SWAP2 SWAP1 POP JUMP JUMPDEST PUSH0 PUSH1 0x20 DUP3 ADD SWAP1 POP DUP2 DUP2 SUB PUSH0 DUP4 ADD MSTORE PUSH2 0x95A DUP2 PUSH2 0x921 JUMP JUMPDEST SWAP1 POP SWAP2 SWAP1 POP JUMP INVALID LOG2 PUSH5 0x6970667358 0x22 SLT KECCAK256 DELEGATECALL SWAP9 LOG3 0xCE CALLF 0xD169 PUSH0 0xF7 CALLDATASIZE SWAP6 DUP5 SLOAD REVERT EXTCALL 0x2A 0xCB 0xEB 0x27 0x2A SHR EQ SLT SSTORE PUSH3 0xC7C5B4 0xD0 CALLER STOP 0xB9 PUSH5 0x736F6C6343 STOP ADDMOD 0x1E STOP CALLER "
		},
		"gasEstimates": {
			"creation": {
				"codeDepositCost": "491000",
				"executionCost": "22627",
				"totalCost": "513627"
			},
			"external": {
				"EntraPlataform(string,uint256)": "infinite",
				"entreComsenha(uint256)": "infinite",
				"gerarSenha()": "infinite"
			},
			"internal": {
				"confereNumber(uint256)": "infinite"
			}
		},
		"methodIdentifiers": {
			"EntraPlataform(string,uint256)": "b1b1318e",
			"entreComsenha(uint256)": "063a6462",
			"gerarSenha()": "685a36e4"
		}
	},
	"abi": [
		{
			"inputs": [
				{
					"internalType": "string",
					"name": "_nome",
					"type": "string"
				},
				{
					"internalType": "uint256",
					"name": "_idade",
					"type": "uint256"
				}
			],
			"name": "EntraPlataform",
			"outputs": [
				{
					"internalType": "bool",
					"name": "",
					"type": "bool"
				}
			],
			"stateMutability": "nonpayable",
			"type": "function"
		},
		{
			"inputs": [
				{
					"internalType": "uint256",
					"name": "_senha",
					"type": "uint256"
				}
			],
			"name": "entreComsenha",
			"outputs": [
				{
					"internalType": "string",
					"name": "",
					"type": "string"
				}
			],
			"stateMutability": "view",
			"type": "function"
		},
		{
			"inputs": [],
			"name": "gerarSenha",
			"outputs": [
				{
					"internalType": "uint256",
					"name": "",
					"type": "uint256"
				}
			],
			"stateMutability": "nonpayable",
			"type": "function"
		}
	]
}