{
	"data": {
		"bytecode": {
			"linkReferences": {},
			"object": "60a06040526103e85f556001805f6101000a81548160ff021916908315150217905550348015602c575f5ffd5b50336001806101000a81548173ffffffffffffffffffffffffffffffffffffffff021916908373ffffffffffffffffffffffffffffffffffffffff1602179055503373ffffffffffffffffffffffffffffffffffffffff1660808173ffffffffffffffffffffffffffffffffffffffff16815250506080516105f16100b95f395f6102b201526105f15ff3fe608060405234801561000f575f5ffd5b506004361061007b575f3560e01c806370514bea1161005957806370514bea146100ea578063c68c061214610108578063c7420d7f14610138578063d085878c146101565761007b565b80630ff60f691461007f57806323e803b81461009b578063484e6bc7146100cc575b5f5ffd5b61009960048036038101906100949190610342565b610174565b005b6100b560048036038101906100b091906103c0565b6101bd565b6040516100c392919061046a565b60405180910390f35b6100d4610272565b6040516100e19190610498565b60405180910390f35b6100f2610277565b6040516100ff91906104f0565b60405180910390f35b610122600480360381019061011d9190610533565b61029b565b60405161012f9190610498565b60405180910390f35b6101406102b0565b60405161014d91906104f0565b60405180910390f35b61015e6102d4565b60405161016b9190610498565b60405180910390f35b5f606490505f6040518060400160405280600381526020017f4f6c61000000000000000000000000000000000000000000000000000000000081525090505f4290505050505050565b600281815481106101cc575f80fd5b905f5260205f2090600202015f91509050805f0180546101eb9061058b565b80601f01602080910402602001604051908101604052809291908181526020018280546102179061058b565b80156102625780601f1061023957610100808354040283529160200191610262565b820191905f5260205f20905b81548152906001019060200180831161024557829003601f168201915b5050505050908060010154905082565b5f5481565b60018054906101000a900473ffffffffffffffffffffffffffffffffffffffff1681565b6003602052805f5260405f205f915090505481565b7f000000000000000000000000000000000000000000000000000000000000000081565b600581565b5f5ffd5b5f5ffd5b5f5ffd5b5f5ffd5b5f5ffd5b5f5f83601f840112610302576103016102e1565b5b8235905067ffffffffffffffff81111561031f5761031e6102e5565b5b60208301915083600182028301111561033b5761033a6102e9565b5b9250929050565b5f5f60208385031215610358576103576102d9565b5b5f83013567ffffffffffffffff811115610375576103746102dd565b5b610381858286016102ed565b92509250509250929050565b5f819050919050565b61039f8161038d565b81146103a9575f5ffd5b50565b5f813590506103ba81610396565b92915050565b5f602082840312156103d5576103d46102d9565b5b5f6103e2848285016103ac565b91505092915050565b5f81519050919050565b5f82825260208201905092915050565b8281835e5f83830152505050565b5f601f19601f8301169050919050565b5f61042d826103eb565b61043781856103f5565b9350610447818560208601610405565b61045081610413565b840191505092915050565b6104648161038d565b82525050565b5f6040820190508181035f8301526104828185610423565b9050610491602083018461045b565b9392505050565b5f6020820190506104ab5f83018461045b565b92915050565b5f73ffffffffffffffffffffffffffffffffffffffff82169050919050565b5f6104da826104b1565b9050919050565b6104ea816104d0565b82525050565b5f6020820190506105035f8301846104e1565b92915050565b610512816104d0565b811461051c575f5ffd5b50565b5f8135905061052d81610509565b92915050565b5f60208284031215610548576105476102d9565b5b5f6105558482850161051f565b91505092915050565b7f4e487b71000000000000000000000000000000000000000000000000000000005f52602260045260245ffd5b5f60028204905060018216806105a257607f821691505b6020821081036105b5576105b461055e565b5b5091905056fea26469706673582212202bd2e9ae7c83b2e606e186dc889d774811de2e53a933efb37c690bc5c8f3de9564736f6c634300081e0033",
			"opcodes": "PUSH1 0xA0 PUSH1 0x40 MSTORE PUSH2 0x3E8 PUSH0 SSTORE PUSH1 0x1 DUP1 PUSH0 PUSH2 0x100 EXP DUP2 SLOAD DUP2 PUSH1 0xFF MUL NOT AND SWAP1 DUP4 ISZERO ISZERO MUL OR SWAP1 SSTORE POP CALLVALUE DUP1 ISZERO PUSH1 0x2C JUMPI PUSH0 PUSH0 REVERT JUMPDEST POP CALLER PUSH1 0x1 DUP1 PUSH2 0x100 EXP DUP2 SLOAD DUP2 PUSH20 0xFFFFFFFFFFFFFFFFFFFFFFFFFFFFFFFFFFFFFFFF MUL NOT AND SWAP1 DUP4 PUSH20 0xFFFFFFFFFFFFFFFFFFFFFFFFFFFFFFFFFFFFFFFF AND MUL OR SWAP1 SSTORE POP CALLER PUSH20 0xFFFFFFFFFFFFFFFFFFFFFFFFFFFFFFFFFFFFFFFF AND PUSH1 0x80 DUP2 PUSH20 0xFFFFFFFFFFFFFFFFFFFFFFFFFFFFFFFFFFFFFFFF AND DUP2 MSTORE POP POP PUSH1 0x80 MLOAD PUSH2 0x5F1 PUSH2 0xB9 PUSH0 CODECOPY PUSH0 PUSH2 0x2B2 ADD MSTORE PUSH2 0x5F1 PUSH0 RETURN INVALID PUSH1 0x80 PUSH1 0x40 MSTORE CALLVALUE DUP1 ISZERO PUSH2 0xF JUMPI PUSH0 PUSH0 REVERT JUMPDEST POP PUSH1 0x4 CALLDATASIZE LT PUSH2 0x7B JUMPI PUSH0 CALLDATALOAD PUSH1 0xE0 SHR DUP1 PUSH4 0x70514BEA GT PUSH2 0x59 JUMPI DUP1 PUSH4 0x70514BEA EQ PUSH2 0xEA JUMPI DUP1 PUSH4 0xC68C0612 EQ PUSH2 0x108 JUMPI DUP1 PUSH4 0xC7420D7F EQ PUSH2 0x138 JUMPI DUP1 PUSH4 0xD085878C EQ PUSH2 0x156 JUMPI PUSH2 0x7B JUMP JUMPDEST DUP1 PUSH4 0xFF60F69 EQ PUSH2 0x7F JUMPI DUP1 PUSH4 0x23E803B8 EQ PUSH2 0x9B JUMPI DUP1 PUSH4 0x484E6BC7 EQ PUSH2 0xCC JUMPI JUMPDEST PUSH0 PUSH0 REVERT JUMPDEST PUSH2 0x99 PUSH1 0x4 DUP1 CALLDATASIZE SUB DUP2 ADD SWAP1 PUSH2 0x94 SWAP2 SWAP1 PUSH2 0x342 JUMP JUMPDEST PUSH2 0x174 JUMP JUMPDEST STOP JUMPDEST PUSH2 0xB5 PUSH1 0x4 DUP1 CALLDATASIZE SUB DUP2 ADD SWAP1 PUSH2 0xB0 SWAP2 SWAP1 PUSH2 0x3C0 JUMP JUMPDEST PUSH2 0x1BD JUMP JUMPDEST PUSH1 0x40 MLOAD PUSH2 0xC3 SWAP3 SWAP2 SWAP1 PUSH2 0x46A JUMP JUMPDEST PUSH1 0x40 MLOAD DUP1 SWAP2 SUB SWAP1 RETURN JUMPDEST PUSH2 0xD4 PUSH2 0x272 JUMP JUMPDEST PUSH1 0x40 MLOAD PUSH2 0xE1 SWAP2 SWAP1 PUSH2 0x498 JUMP JUMPDEST PUSH1 0x40 MLOAD DUP1 SWAP2 SUB SWAP1 RETURN JUMPDEST PUSH2 0xF2 PUSH2 0x277 JUMP JUMPDEST PUSH1 0x40 MLOAD PUSH2 0xFF SWAP2 SWAP1 PUSH2 0x4F0 JUMP JUMPDEST PUSH1 0x40 MLOAD DUP1 SWAP2 SUB SWAP1 RETURN JUMPDEST PUSH2 0x122 PUSH1 0x4 DUP1 CALLDATASIZE SUB DUP2 ADD SWAP1 PUSH2 0x11D SWAP2 SWAP1 PUSH2 0x533 JUMP JUMPDEST PUSH2 0x29B JUMP JUMPDEST PUSH1 0x40 MLOAD PUSH2 0x12F SWAP2 SWAP1 PUSH2 0x498 JUMP JUMPDEST PUSH1 0x40 MLOAD DUP1 SWAP2 SUB SWAP1 RETURN JUMPDEST PUSH2 0x140 PUSH2 0x2B0 JUMP JUMPDEST PUSH1 0x40 MLOAD PUSH2 0x14D SWAP2 SWAP1 PUSH2 0x4F0 JUMP JUMPDEST PUSH1 0x40 MLOAD DUP1 SWAP2 SUB SWAP1 RETURN JUMPDEST PUSH2 0x15E PUSH2 0x2D4 JUMP JUMPDEST PUSH1 0x40 MLOAD PUSH2 0x16B SWAP2 SWAP1 PUSH2 0x498 JUMP JUMPDEST PUSH1 0x40 MLOAD DUP1 SWAP2 SUB SWAP1 RETURN JUMPDEST PUSH0 PUSH1 0x64 SWAP1 POP PUSH0 PUSH1 0x40 MLOAD DUP1 PUSH1 0x40 ADD PUSH1 0x40 MSTORE DUP1 PUSH1 0x3 DUP2 MSTORE PUSH1 0x20 ADD PUSH32 0x4F6C610000000000000000000000000000000000000000000000000000000000 DUP2 MSTORE POP SWAP1 POP PUSH0 TIMESTAMP SWAP1 POP POP POP POP POP POP JUMP JUMPDEST PUSH1 0x2 DUP2 DUP2 SLOAD DUP2 LT PUSH2 0x1CC JUMPI PUSH0 DUP1 REVERT JUMPDEST SWAP1 PUSH0 MSTORE PUSH1 0x20 PUSH0 KECCAK256 SWAP1 PUSH1 0x2 MUL ADD PUSH0 SWAP2 POP SWAP1 POP DUP1 PUSH0 ADD DUP1 SLOAD PUSH2 0x1EB SWAP1 PUSH2 0x58B JUMP JUMPDEST DUP1 PUSH1 0x1F ADD PUSH1 0x20 DUP1 SWAP2 DIV MUL PUSH1 0x20 ADD PUSH1 0x40 MLOAD SWAP1 DUP2 ADD PUSH1 0x40 MSTORE DUP1 SWAP3 SWAP2 SWAP1 DUP2 DUP2 MSTORE PUSH1 0x20 ADD DUP3 DUP1 SLOAD PUSH2 0x217 SWAP1 PUSH2 0x58B JUMP JUMPDEST DUP1 ISZERO PUSH2 0x262 JUMPI DUP1 PUSH1 0x1F LT PUSH2 0x239 JUMPI PUSH2 0x100 DUP1 DUP4 SLOAD DIV MUL DUP4 MSTORE SWAP2 PUSH1 0x20 ADD SWAP2 PUSH2 0x262 JUMP JUMPDEST DUP3 ADD SWAP2 SWAP1 PUSH0 MSTORE PUSH1 0x20 PUSH0 KECCAK256 SWAP1 JUMPDEST DUP2 SLOAD DUP2 MSTORE SWAP1 PUSH1 0x1 ADD SWAP1 PUSH1 0x20 ADD DUP1 DUP4 GT PUSH2 0x245 JUMPI DUP3 SWAP1 SUB PUSH1 0x1F AND DUP3 ADD SWAP2 JUMPDEST POP POP POP POP POP SWAP1 DUP1 PUSH1 0x1 ADD SLOAD SWAP1 POP DUP3 JUMP JUMPDEST PUSH0 SLOAD DUP2 JUMP JUMPDEST PUSH1 0x1 DUP1 SLOAD SWAP1 PUSH2 0x100 EXP SWAP1 DIV PUSH20 0xFFFFFFFFFFFFFFFFFFFFFFFFFFFFFFFFFFFFFFFF AND DUP2 JUMP JUMPDEST PUSH1 0x3 PUSH1 0x20 MSTORE DUP1 PUSH0 MSTORE PUSH1 0x40 PUSH0 KECCAK256 PUSH0 SWAP2 POP SWAP1 POP SLOAD DUP2 JUMP JUMPDEST PUSH32 0x0 DUP2 JUMP JUMPDEST PUSH1 0x5 DUP2 JUMP JUMPDEST PUSH0 PUSH0 REVERT JUMPDEST PUSH0 PUSH0 REVERT JUMPDEST PUSH0 PUSH0 REVERT JUMPDEST PUSH0 PUSH0 REVERT JUMPDEST PUSH0 PUSH0 REVERT JUMPDEST PUSH0 PUSH0 DUP4 PUSH1 0x1F DUP5 ADD SLT PUSH2 0x302 JUMPI PUSH2 0x301 PUSH2 0x2E1 JUMP JUMPDEST JUMPDEST DUP3 CALLDATALOAD SWAP1 POP PUSH8 0xFFFFFFFFFFFFFFFF DUP2 GT ISZERO PUSH2 0x31F JUMPI PUSH2 0x31E PUSH2 0x2E5 JUMP JUMPDEST JUMPDEST PUSH1 0x20 DUP4 ADD SWAP2 POP DUP4 PUSH1 0x1 DUP3 MUL DUP4 ADD GT ISZERO PUSH2 0x33B JUMPI PUSH2 0x33A PUSH2 0x2E9 JUMP JUMPDEST JUMPDEST SWAP3 POP SWAP3 SWAP1 POP JUMP JUMPDEST PUSH0 PUSH0 PUSH1 0x20 DUP4 DUP6 SUB SLT ISZERO PUSH2 0x358 JUMPI PUSH2 0x357 PUSH2 0x2D9 JUMP JUMPDEST JUMPDEST PUSH0 DUP4 ADD CALLDATALOAD PUSH8 0xFFFFFFFFFFFFFFFF DUP2 GT ISZERO PUSH2 0x375 JUMPI PUSH2 0x374 PUSH2 0x2DD JUMP JUMPDEST JUMPDEST PUSH2 0x381 DUP6 DUP3 DUP7 ADD PUSH2 0x2ED JUMP JUMPDEST SWAP3 POP SWAP3 POP POP SWAP3 POP SWAP3 SWAP1 POP JUMP JUMPDEST PUSH0 DUP2 SWAP1 POP SWAP2 SWAP1 POP JUMP JUMPDEST PUSH2 0x39F DUP2 PUSH2 0x38D JUMP JUMPDEST DUP2 EQ PUSH2 0x3A9 JUMPI PUSH0 PUSH0 REVERT JUMPDEST POP JUMP JUMPDEST PUSH0 DUP2 CALLDATALOAD SWAP1 POP PUSH2 0x3BA DUP2 PUSH2 0x396 JUMP JUMPDEST SWAP3 SWAP2 POP POP JUMP JUMPDEST PUSH0 PUSH1 0x20 DUP3 DUP5 SUB SLT ISZERO PUSH2 0x3D5 JUMPI PUSH2 0x3D4 PUSH2 0x2D9 JUMP JUMPDEST JUMPDEST PUSH0 PUSH2 0x3E2 DUP5 DUP3 DUP6 ADD PUSH2 0x3AC JUMP JUMPDEST SWAP2 POP POP SWAP3 SWAP2 POP POP JUMP JUMPDEST PUSH0 DUP2 MLOAD SWAP1 POP SWAP2 SWAP1 POP JUMP JUMPDEST PUSH0 DUP3 DUP3 MSTORE PUSH1 0x20 DUP3 ADD SWAP1 POP SWAP3 SWAP2 POP POP JUMP JUMPDEST DUP3 DUP2 DUP4 MCOPY PUSH0 DUP4 DUP4 ADD MSTORE POP POP POP JUMP JUMPDEST PUSH0 PUSH1 0x1F NOT PUSH1 0x1F DUP4 ADD AND SWAP1 POP SWAP2 SWAP1 POP JUMP JUMPDEST PUSH0 PUSH2 0x42D DUP3 PUSH2 0x3EB JUMP JUMPDEST PUSH2 0x437 DUP2 DUP6 PUSH2 0x3F5 JUMP JUMPDEST SWAP4 POP PUSH2 0x447 DUP2 DUP6 PUSH1 0x20 DUP7 ADD PUSH2 0x405 JUMP JUMPDEST PUSH2 0x450 DUP2 PUSH2 0x413 JUMP JUMPDEST DUP5 ADD SWAP2 POP POP SWAP3 SWAP2 POP POP JUMP JUMPDEST PUSH2 0x464 DUP2 PUSH2 0x38D JUMP JUMPDEST DUP3 MSTORE POP POP JUMP JUMPDEST PUSH0 PUSH1 0x40 DUP3 ADD SWAP1 POP DUP2 DUP2 SUB PUSH0 DUP4 ADD MSTORE PUSH2 0x482 DUP2 DUP6 PUSH2 0x423 JUMP JUMPDEST SWAP1 POP PUSH2 0x491 PUSH1 0x20 DUP4 ADD DUP5 PUSH2 0x45B JUMP JUMPDEST SWAP4 SWAP3 POP POP POP JUMP JUMPDEST PUSH0 PUSH1 0x20 DUP3 ADD SWAP1 POP PUSH2 0x4AB PUSH0 DUP4 ADD DUP5 PUSH2 0x45B JUMP JUMPDEST SWAP3 SWAP2 POP POP JUMP JUMPDEST PUSH0 PUSH20 0xFFFFFFFFFFFFFFFFFFFFFFFFFFFFFFFFFFFFFFFF DUP3 AND SWAP1 POP SWAP2 SWAP1 POP JUMP JUMPDEST PUSH0 PUSH2 0x4DA DUP3 PUSH2 0x4B1 JUMP JUMPDEST SWAP1 POP SWAP2 SWAP1 POP JUMP JUMPDEST PUSH2 0x4EA DUP2 PUSH2 0x4D0 JUMP JUMPDEST DUP3 MSTORE POP POP JUMP JUMPDEST PUSH0 PUSH1 0x20 DUP3 ADD SWAP1 POP PUSH2 0x503 PUSH0 DUP4 ADD DUP5 PUSH2 0x4E1 JUMP JUMPDEST SWAP3 SWAP2 POP POP JUMP JUMPDEST PUSH2 0x512 DUP2 PUSH2 0x4D0 JUMP JUMPDEST DUP2 EQ PUSH2 0x51C JUMPI PUSH0 PUSH0 REVERT JUMPDEST POP JUMP JUMPDEST PUSH0 DUP2 CALLDATALOAD SWAP1 POP PUSH2 0x52D DUP2 PUSH2 0x509 JUMP JUMPDEST SWAP3 SWAP2 POP POP JUMP JUMPDEST PUSH0 PUSH1 0x20 DUP3 DUP5 SUB SLT ISZERO PUSH2 0x548 JUMPI PUSH2 0x547 PUSH2 0x2D9 JUMP JUMPDEST JUMPDEST PUSH0 PUSH2 0x555 DUP5 DUP3 DUP6 ADD PUSH2 0x51F JUMP JUMPDEST SWAP2 POP POP SWAP3 SWAP2 POP POP JUMP JUMPDEST PUSH32 0x4E487B7100000000000000000000000000000000000000000000000000000000 PUSH0 MSTORE PUSH1 0x22 PUSH1 0x4 MSTORE PUSH1 0x24 PUSH0 REVERT JUMPDEST PUSH0 PUSH1 0x2 DUP3 DIV SWAP1 POP PUSH1 0x1 DUP3 AND DUP1 PUSH2 0x5A2 JUMPI PUSH1 0x7F DUP3 AND SWAP2 POP JUMPDEST PUSH1 0x20 DUP3 LT DUP2 SUB PUSH2 0x5B5 JUMPI PUSH2 0x5B4 PUSH2 0x55E JUMP JUMPDEST JUMPDEST POP SWAP2 SWAP1 POP JUMP INVALID LOG2 PUSH5 0x6970667358 0x22 SLT KECCAK256 0x2B 0xD2 0xE9 0xAE PUSH29 0x83B2E606E186DC889D774811DE2E53A933EFB37C690BC5C8F3DE956473 PUSH16 0x6C634300081E00330000000000000000 "
		},
		"gasEstimates": {
			"creation": {
				"codeDepositCost": "304200",
				"executionCost": "infinite",
				"totalCost": "infinite"
			},
			"external": {
				"CRIADOR()": "infinite",
				"TAXA_FIXA()": "391",
				"dono()": "2556",
				"exemplo(string)": "560",
				"listaDePessoas(uint256)": "infinite",
				"numeroGrande()": "2469",
				"saldos(address)": "2824"
			}
		},
		"methodIdentifiers": {
			"CRIADOR()": "c7420d7f",
			"TAXA_FIXA()": "d085878c",
			"dono()": "70514bea",
			"exemplo(string)": "0ff60f69",
			"listaDePessoas(uint256)": "23e803b8",
			"numeroGrande()": "484e6bc7",
			"saldos(address)": "c68c0612"
		}
	},
	"abi": [
		{
			"inputs": [],
			"stateMutability": "nonpayable",
			"type": "constructor"
		},
		{
			"inputs": [],
			"name": "CRIADOR",
			"outputs": [
				{
					"internalType": "address",
					"name": "",
					"type": "address"
				}
			],
			"stateMutability": "view",
			"type": "function"
		},
		{
			"inputs": [],
			"name": "TAXA_FIXA",
			"outputs": [
				{
					"internalType": "uint256",
					"name": "",
					"type": "uint256"
				}
			],
			"stateMutability": "view",
			"type": "function"
		},
		{
			"inputs": [],
			"name": "dono",
			"outputs": [
				{
					"internalType": "address",
					"name": "",
					"type": "address"
				}
			],
			"stateMutability": "view",
			"type": "function"
		},
		{
			"inputs": [
				{
					"internalType": "string",
					"name": "_texto",
					"type": "string"
				}
			],
			"name": "exemplo",
			"outputs": [],
			"stateMutability": "nonpayable",
			"type": "function"
		},
		{
			"inputs": [
				{
					"internalType": "uint256",
					"name": "",
					"type": "uint256"
				}
			],
			"name": "listaDePessoas",
			"outputs": [
				{
					"internalType": "string",
					"name": "nome",
					"type": "string"
				},
				{
					"internalType": "uint256",
					"name": "idade",
					"type": "uint256"
				}
			],
			"stateMutability": "view",
			"type": "function"
		},
		{
			"inputs": [],
			"name": "numeroGrande",
			"outputs": [
				{
					"internalType": "uint256",
					"name": "",
					"type": "uint256"
				}
			],
			"stateMutability": "view",
			"type": "function"
		},
		{
			"inputs": [
				{
					"internalType": "address",
					"name": "",
					"type": "address"
				}
			],
			"name": "saldos",
			"outputs": [
				{
					"internalType": "uint256",
					"name": "",
					"type": "uint256"
				}
			],
			"stateMutability": "view",
			"type": "function"
		}
	]
}