{
	"data": {
		"bytecode": {
			"linkReferences": {},
			"object": "608060405234801561000f575f5ffd5b50604051610ea6380380610ea683398181016040528101906100319190610269565b825f81905550816002908161004691906104dc565b508060035f6101000a81548173ffffffffffffffffffffffffffffffffffffffff021916908373ffffffffffffffffffffffffffffffffffffffff1602179055505050506105ab565b5f604051905090565b5f5ffd5b5f5ffd5b5f819050919050565b6100b2816100a0565b81146100bc575f5ffd5b50565b5f815190506100cd816100a9565b92915050565b5f5ffd5b5f5ffd5b5f601f19601f8301169050919050565b7f4e487b71000000000000000000000000000000000000000000000000000000005f52604160045260245ffd5b610121826100db565b810181811067ffffffffffffffff821117156101405761013f6100eb565b5b80604052505050565b5f61015261008f565b905061015e8282610118565b919050565b5f67ffffffffffffffff82111561017d5761017c6100eb565b5b610186826100db565b9050602081019050919050565b8281835e5f83830152505050565b5f6101b36101ae84610163565b610149565b9050828152602081018484840111156101cf576101ce6100d7565b5b6101da848285610193565b509392505050565b5f82601f8301126101f6576101f56100d3565b5b81516102068482602086016101a1565b91505092915050565b5f73ffffffffffffffffffffffffffffffffffffffff82169050919050565b5f6102388261020f565b9050919050565b6102488161022e565b8114610252575f5ffd5b50565b5f815190506102638161023f565b92915050565b5f5f5f606084860312156102805761027f610098565b5b5f61028d868287016100bf565b935050602084015167ffffffffffffffff8111156102ae576102ad61009c565b5b6102ba868287016101e2565b92505060406102cb86828701610255565b9150509250925092565b5f81519050919050565b7f4e487b71000000000000000000000000000000000000000000000000000000005f52602260045260245ffd5b5f600282049050600182168061032357607f821691505b602082108103610336576103356102df565b5b50919050565b5f819050815f5260205f209050919050565b5f6020601f8301049050919050565b5f82821b905092915050565b5f600883026103987fffffffffffffffffffffffffffffffffffffffffffffffffffffffffffffffff8261035d565b6103a2868361035d565b95508019841693508086168417925050509392505050565b5f819050919050565b5f6103dd6103d86103d3846100a0565b6103ba565b6100a0565b9050919050565b5f819050919050565b6103f6836103c3565b61040a610402826103e4565b848454610369565b825550505050565b5f5f905090565b610421610412565b61042c8184846103ed565b505050565b5b8181101561044f576104445f82610419565b600181019050610432565b5050565b601f821115610494576104658161033c565b61046e8461034e565b8101602085101561047d578190505b6104916104898561034e565b830182610431565b50505b505050565b5f82821c905092915050565b5f6104b45f1984600802610499565b1980831691505092915050565b5f6104cc83836104a5565b9150826002028217905092915050565b6104e5826102d5565b67ffffffffffffffff8111156104fe576104fd6100eb565b5b610508825461030c565b610513828285610453565b5f60209050601f831160018114610544575f8415610532578287015190505b61053c85826104c1565b8655506105a3565b601f1984166105528661033c565b5f5b8281101561057957848901518255600182019150602085019450602081019050610554565b868310156105965784890151610592601f8916826104a5565b8355505b6001600288020188555050505b505050505050565b6108ee806105b85f395ff3fe608060405234801561000f575f5ffd5b506004361061007b575f3560e01c8063bba88a4f11610059578063bba88a4f146100d7578063c7df0028146100f3578063f38b27431461010f578063f58586ee1461012d5761007b565b80632deb124b1461007f5780633cbfe3e51461009d578063b268199d146100b9575b5f5ffd5b61008761014b565b60405161009491906102e2565b60405180910390f35b6100b760048036038101906100b2919061036d565b6101d7565b005b6100c161021a565b6040516100ce91906103b0565b60405180910390f35b6100f160048036038101906100ec91906103f3565b61021f565b005b61010d6004803603810190610108919061054a565b610228565b005b61011761023b565b60405161012491906105a0565b60405180910390f35b610135610260565b60405161014291906105d3565b60405180910390f35b6002805461015890610619565b80601f016020809104026020016040519081016040528092919081815260200182805461018490610619565b80156101cf5780601f106101a6576101008083540402835291602001916101cf565b820191905f5260205f20905b8154815290600101906020018083116101b257829003601f168201915b505050505081565b8060035f6101000a81548173ffffffffffffffffffffffffffffffffffffffff021916908373ffffffffffffffffffffffffffffffffffffffff16021790555050565b5f5481565b805f8190555050565b806002908161023791906107e9565b5050565b60035f9054906101000a900473ffffffffffffffffffffffffffffffffffffffff1681565b60015f9054906101000a900460ff1681565b5f81519050919050565b5f82825260208201905092915050565b8281835e5f83830152505050565b5f601f19601f8301169050919050565b5f6102b482610272565b6102be818561027c565b93506102ce81856020860161028c565b6102d78161029a565b840191505092915050565b5f6020820190508181035f8301526102fa81846102aa565b905092915050565b5f604051905090565b5f5ffd5b5f5ffd5b5f73ffffffffffffffffffffffffffffffffffffffff82169050919050565b5f61033c82610313565b9050919050565b61034c81610332565b8114610356575f5ffd5b50565b5f8135905061036781610343565b92915050565b5f602082840312156103825761038161030b565b5b5f61038f84828501610359565b91505092915050565b5f819050919050565b6103aa81610398565b82525050565b5f6020820190506103c35f8301846103a1565b92915050565b6103d281610398565b81146103dc575f5ffd5b50565b5f813590506103ed816103c9565b92915050565b5f602082840312156104085761040761030b565b5b5f610415848285016103df565b91505092915050565b5f5ffd5b5f5ffd5b7f4e487b71000000000000000000000000000000000000000000000000000000005f52604160045260245ffd5b61045c8261029a565b810181811067ffffffffffffffff8211171561047b5761047a610426565b5b80604052505050565b5f61048d610302565b90506104998282610453565b919050565b5f67ffffffffffffffff8211156104b8576104b7610426565b5b6104c18261029a565b9050602081019050919050565b828183375f83830152505050565b5f6104ee6104e98461049e565b610484565b90508281526020810184848401111561050a57610509610422565b5b6105158482856104ce565b509392505050565b5f82601f8301126105315761053061041e565b5b81356105418482602086016104dc565b91505092915050565b5f6020828403121561055f5761055e61030b565b5b5f82013567ffffffffffffffff81111561057c5761057b61030f565b5b6105888482850161051d565b91505092915050565b61059a81610332565b82525050565b5f6020820190506105b35f830184610591565b92915050565b5f8115159050919050565b6105cd816105b9565b82525050565b5f6020820190506105e65f8301846105c4565b92915050565b7f4e487b71000000000000000000000000000000000000000000000000000000005f52602260045260245ffd5b5f600282049050600182168061063057607f821691505b602082108103610643576106426105ec565b5b50919050565b5f819050815f5260205f209050919050565b5f6020601f8301049050919050565b5f82821b905092915050565b5f600883026106a57fffffffffffffffffffffffffffffffffffffffffffffffffffffffffffffffff8261066a565b6106af868361066a565b95508019841693508086168417925050509392505050565b5f819050919050565b5f6106ea6106e56106e084610398565b6106c7565b610398565b9050919050565b5f819050919050565b610703836106d0565b61071761070f826106f1565b848454610676565b825550505050565b5f5f905090565b61072e61071f565b6107398184846106fa565b505050565b5b8181101561075c576107515f82610726565b60018101905061073f565b5050565b601f8211156107a15761077281610649565b61077b8461065b565b8101602085101561078a578190505b61079e6107968561065b565b83018261073e565b50505b505050565b5f82821c905092915050565b5f6107c15f19846008026107a6565b1980831691505092915050565b5f6107d983836107b2565b9150826002028217905092915050565b6107f282610272565b67ffffffffffffffff81111561080b5761080a610426565b5b6108158254610619565b610820828285610760565b5f60209050601f831160018114610851575f841561083f578287015190505b61084985826107ce565b8655506108b0565b601f19841661085f86610649565b5f5b8281101561088657848901518255600182019150602085019450602081019050610861565b868310156108a3578489015161089f601f8916826107b2565b8355505b6001600288020188555050505b50505050505056fea2646970667358221220df8ce5cbf801fd6f6d25deadefe77cebdfeac732db46718cb99ea897494e2efa64736f6c634300081e0033",
			"opcodes": "PUSH1 0x80 PUSH1 0x40 MSTORE CALLVALUE DUP1 ISZERO PUSH2 0xF JUMPI PUSH0 PUSH0 REVERT JUMPDEST POP PUSH1 0x40 MLOAD PUSH2 0xEA6 CODESIZE SUB DUP1 PUSH2 0xEA6 DUP4 CODECOPY DUP2 DUP2 ADD PUSH1 0x40 MSTORE DUP2 ADD SWAP1 PUSH2 0x31 SWAP2 SWAP1 PUSH2 0x269 JUMP JUMPDEST DUP3 PUSH0 DUP2 SWAP1 SSTORE POP DUP2 PUSH1 0x2 SWAP1 DUP2 PUSH2 0x46 SWAP2 SWAP1 PUSH2 0x4DC JUMP JUMPDEST POP DUP1 PUSH1 0x3 PUSH0 PUSH2 0x100 EXP DUP2 SLOAD DUP2 PUSH20 0xFFFFFFFFFFFFFFFFFFFFFFFFFFFFFFFFFFFFFFFF MUL NOT AND SWAP1 DUP4 PUSH20 0xFFFFFFFFFFFFFFFFFFFFFFFFFFFFFFFFFFFFFFFF AND MUL OR SWAP1 SSTORE POP POP POP POP PUSH2 0x5AB JUMP JUMPDEST PUSH0 PUSH1 0x40 MLOAD SWAP1 POP SWAP1 JUMP JUMPDEST PUSH0 PUSH0 REVERT JUMPDEST PUSH0 PUSH0 REVERT JUMPDEST PUSH0 DUP2 SWAP1 POP SWAP2 SWAP1 POP JUMP JUMPDEST PUSH2 0xB2 DUP2 PUSH2 0xA0 JUMP JUMPDEST DUP2 EQ PUSH2 0xBC JUMPI PUSH0 PUSH0 REVERT JUMPDEST POP JUMP JUMPDEST PUSH0 DUP2 MLOAD SWAP1 POP PUSH2 0xCD DUP2 PUSH2 0xA9 JUMP JUMPDEST SWAP3 SWAP2 POP POP JUMP JUMPDEST PUSH0 PUSH0 REVERT JUMPDEST PUSH0 PUSH0 REVERT JUMPDEST PUSH0 PUSH1 0x1F NOT PUSH1 0x1F DUP4 ADD AND SWAP1 POP SWAP2 SWAP1 POP JUMP JUMPDEST PUSH32 0x4E487B7100000000000000000000000000000000000000000000000000000000 PUSH0 MSTORE PUSH1 0x41 PUSH1 0x4 MSTORE PUSH1 0x24 PUSH0 REVERT JUMPDEST PUSH2 0x121 DUP3 PUSH2 0xDB JUMP JUMPDEST DUP2 ADD DUP2 DUP2 LT PUSH8 0xFFFFFFFFFFFFFFFF DUP3 GT OR ISZERO PUSH2 0x140 JUMPI PUSH2 0x13F PUSH2 0xEB JUMP JUMPDEST JUMPDEST DUP1 PUSH1 0x40 MSTORE POP POP POP JUMP JUMPDEST PUSH0 PUSH2 0x152 PUSH2 0x8F JUMP JUMPDEST SWAP1 POP PUSH2 0x15E DUP3 DUP3 PUSH2 0x118 JUMP JUMPDEST SWAP2 SWAP1 POP JUMP JUMPDEST PUSH0 PUSH8 0xFFFFFFFFFFFFFFFF DUP3 GT ISZERO PUSH2 0x17D JUMPI PUSH2 0x17C PUSH2 0xEB JUMP JUMPDEST JUMPDEST PUSH2 0x186 DUP3 PUSH2 0xDB JUMP JUMPDEST SWAP1 POP PUSH1 0x20 DUP2 ADD SWAP1 POP SWAP2 SWAP1 POP JUMP JUMPDEST DUP3 DUP2 DUP4 MCOPY PUSH0 DUP4 DUP4 ADD MSTORE POP POP POP JUMP JUMPDEST PUSH0 PUSH2 0x1B3 PUSH2 0x1AE DUP5 PUSH2 0x163 JUMP JUMPDEST PUSH2 0x149 JUMP JUMPDEST SWAP1 POP DUP3 DUP2 MSTORE PUSH1 0x20 DUP2 ADD DUP5 DUP5 DUP5 ADD GT ISZERO PUSH2 0x1CF JUMPI PUSH2 0x1CE PUSH2 0xD7 JUMP JUMPDEST JUMPDEST PUSH2 0x1DA DUP5 DUP3 DUP6 PUSH2 0x193 JUMP JUMPDEST POP SWAP4 SWAP3 POP POP POP JUMP JUMPDEST PUSH0 DUP3 PUSH1 0x1F DUP4 ADD SLT PUSH2 0x1F6 JUMPI PUSH2 0x1F5 PUSH2 0xD3 JUMP JUMPDEST JUMPDEST DUP2 MLOAD PUSH2 0x206 DUP5 DUP3 PUSH1 0x20 DUP7 ADD PUSH2 0x1A1 JUMP JUMPDEST SWAP2 POP POP SWAP3 SWAP2 POP POP JUMP JUMPDEST PUSH0 PUSH20 0xFFFFFFFFFFFFFFFFFFFFFFFFFFFFFFFFFFFFFFFF DUP3 AND SWAP1 POP SWAP2 SWAP1 POP JUMP JUMPDEST PUSH0 PUSH2 0x238 DUP3 PUSH2 0x20F JUMP JUMPDEST SWAP1 POP SWAP2 SWAP1 POP JUMP JUMPDEST PUSH2 0x248 DUP2 PUSH2 0x22E JUMP JUMPDEST DUP2 EQ PUSH2 0x252 JUMPI PUSH0 PUSH0 REVERT JUMPDEST POP JUMP JUMPDEST PUSH0 DUP2 MLOAD SWAP1 POP PUSH2 0x263 DUP2 PUSH2 0x23F JUMP JUMPDEST SWAP3 SWAP2 POP POP JUMP JUMPDEST PUSH0 PUSH0 PUSH0 PUSH1 0x60 DUP5 DUP7 SUB SLT ISZERO PUSH2 0x280 JUMPI PUSH2 0x27F PUSH2 0x98 JUMP JUMPDEST JUMPDEST PUSH0 PUSH2 0x28D DUP7 DUP3 DUP8 ADD PUSH2 0xBF JUMP JUMPDEST SWAP4 POP POP PUSH1 0x20 DUP5 ADD MLOAD PUSH8 0xFFFFFFFFFFFFFFFF DUP2 GT ISZERO PUSH2 0x2AE JUMPI PUSH2 0x2AD PUSH2 0x9C JUMP JUMPDEST JUMPDEST PUSH2 0x2BA DUP7 DUP3 DUP8 ADD PUSH2 0x1E2 JUMP JUMPDEST SWAP3 POP POP PUSH1 0x40 PUSH2 0x2CB DUP7 DUP3 DUP8 ADD PUSH2 0x255 JUMP JUMPDEST SWAP2 POP POP SWAP3 POP SWAP3 POP SWAP3 JUMP JUMPDEST PUSH0 DUP2 MLOAD SWAP1 POP SWAP2 SWAP1 POP JUMP JUMPDEST PUSH32 0x4E487B7100000000000000000000000000000000000000000000000000000000 PUSH0 MSTORE PUSH1 0x22 PUSH1 0x4 MSTORE PUSH1 0x24 PUSH0 REVERT JUMPDEST PUSH0 PUSH1 0x2 DUP3 DIV SWAP1 POP PUSH1 0x1 DUP3 AND DUP1 PUSH2 0x323 JUMPI PUSH1 0x7F DUP3 AND SWAP2 POP JUMPDEST PUSH1 0x20 DUP3 LT DUP2 SUB PUSH2 0x336 JUMPI PUSH2 0x335 PUSH2 0x2DF JUMP JUMPDEST JUMPDEST POP SWAP2 SWAP1 POP JUMP JUMPDEST PUSH0 DUP2 SWAP1 POP DUP2 PUSH0 MSTORE PUSH1 0x20 PUSH0 KECCAK256 SWAP1 POP SWAP2 SWAP1 POP JUMP JUMPDEST PUSH0 PUSH1 0x20 PUSH1 0x1F DUP4 ADD DIV SWAP1 POP SWAP2 SWAP1 POP JUMP JUMPDEST PUSH0 DUP3 DUP3 SHL SWAP1 POP SWAP3 SWAP2 POP POP JUMP JUMPDEST PUSH0 PUSH1 0x8 DUP4 MUL PUSH2 0x398 PUSH32 0xFFFFFFFFFFFFFFFFFFFFFFFFFFFFFFFFFFFFFFFFFFFFFFFFFFFFFFFFFFFFFFFF DUP3 PUSH2 0x35D JUMP JUMPDEST PUSH2 0x3A2 DUP7 DUP4 PUSH2 0x35D JUMP JUMPDEST SWAP6 POP DUP1 NOT DUP5 AND SWAP4 POP DUP1 DUP7 AND DUP5 OR SWAP3 POP POP POP SWAP4 SWAP3 POP POP POP JUMP JUMPDEST PUSH0 DUP2 SWAP1 POP SWAP2 SWAP1 POP JUMP JUMPDEST PUSH0 PUSH2 0x3DD PUSH2 0x3D8 PUSH2 0x3D3 DUP5 PUSH2 0xA0 JUMP JUMPDEST PUSH2 0x3BA JUMP JUMPDEST PUSH2 0xA0 JUMP JUMPDEST SWAP1 POP SWAP2 SWAP1 POP JUMP JUMPDEST PUSH0 DUP2 SWAP1 POP SWAP2 SWAP1 POP JUMP JUMPDEST PUSH2 0x3F6 DUP4 PUSH2 0x3C3 JUMP JUMPDEST PUSH2 0x40A PUSH2 0x402 DUP3 PUSH2 0x3E4 JUMP JUMPDEST DUP5 DUP5 SLOAD PUSH2 0x369 JUMP JUMPDEST DUP3 SSTORE POP POP POP POP JUMP JUMPDEST PUSH0 PUSH0 SWAP1 POP SWAP1 JUMP JUMPDEST PUSH2 0x421 PUSH2 0x412 JUMP JUMPDEST PUSH2 0x42C DUP2 DUP5 DUP5 PUSH2 0x3ED JUMP JUMPDEST POP POP POP JUMP JUMPDEST JUMPDEST DUP2 DUP2 LT ISZERO PUSH2 0x44F JUMPI PUSH2 0x444 PUSH0 DUP3 PUSH2 0x419 JUMP JUMPDEST PUSH1 0x1 DUP2 ADD SWAP1 POP PUSH2 0x432 JUMP JUMPDEST POP POP JUMP JUMPDEST PUSH1 0x1F DUP3 GT ISZERO PUSH2 0x494 JUMPI PUSH2 0x465 DUP2 PUSH2 0x33C JUMP JUMPDEST PUSH2 0x46E DUP5 PUSH2 0x34E JUMP JUMPDEST DUP2 ADD PUSH1 0x20 DUP6 LT ISZERO PUSH2 0x47D JUMPI DUP2 SWAP1 POP JUMPDEST PUSH2 0x491 PUSH2 0x489 DUP6 PUSH2 0x34E JUMP JUMPDEST DUP4 ADD DUP3 PUSH2 0x431 JUMP JUMPDEST POP POP JUMPDEST POP POP POP JUMP JUMPDEST PUSH0 DUP3 DUP3 SHR SWAP1 POP SWAP3 SWAP2 POP POP JUMP JUMPDEST PUSH0 PUSH2 0x4B4 PUSH0 NOT DUP5 PUSH1 0x8 MUL PUSH2 0x499 JUMP JUMPDEST NOT DUP1 DUP4 AND SWAP2 POP POP SWAP3 SWAP2 POP POP JUMP JUMPDEST PUSH0 PUSH2 0x4CC DUP4 DUP4 PUSH2 0x4A5 JUMP JUMPDEST SWAP2 POP DUP3 PUSH1 0x2 MUL DUP3 OR SWAP1 POP SWAP3 SWAP2 POP POP JUMP JUMPDEST PUSH2 0x4E5 DUP3 PUSH2 0x2D5 JUMP JUMPDEST PUSH8 0xFFFFFFFFFFFFFFFF DUP2 GT ISZERO PUSH2 0x4FE JUMPI PUSH2 0x4FD PUSH2 0xEB JUMP JUMPDEST JUMPDEST PUSH2 0x508 DUP3 SLOAD PUSH2 0x30C JUMP JUMPDEST PUSH2 0x513 DUP3 DUP3 DUP6 PUSH2 0x453 JUMP JUMPDEST PUSH0 PUSH1 0x20 SWAP1 POP PUSH1 0x1F DUP4 GT PUSH1 0x1 DUP2 EQ PUSH2 0x544 JUMPI PUSH0 DUP5 ISZERO PUSH2 0x532 JUMPI DUP3 DUP8 ADD MLOAD SWAP1 POP JUMPDEST PUSH2 0x53C DUP6 DUP3 PUSH2 0x4C1 JUMP JUMPDEST DUP7 SSTORE POP PUSH2 0x5A3 JUMP JUMPDEST PUSH1 0x1F NOT DUP5 AND PUSH2 0x552 DUP7 PUSH2 0x33C JUMP JUMPDEST PUSH0 JUMPDEST DUP3 DUP2 LT ISZERO PUSH2 0x579 JUMPI DUP5 DUP10 ADD MLOAD DUP3 SSTORE PUSH1 0x1 DUP3 ADD SWAP2 POP PUSH1 0x20 DUP6 ADD SWAP5 POP PUSH1 0x20 DUP2 ADD SWAP1 POP PUSH2 0x554 JUMP JUMPDEST DUP7 DUP4 LT ISZERO PUSH2 0x596 JUMPI DUP5 DUP10 ADD MLOAD PUSH2 0x592 PUSH1 0x1F DUP10 AND DUP3 PUSH2 0x4A5 JUMP JUMPDEST DUP4 SSTORE POP JUMPDEST PUSH1 0x1 PUSH1 0x2 DUP9 MUL ADD DUP9 SSTORE POP POP POP JUMPDEST POP POP POP POP POP POP JUMP JUMPDEST PUSH2 0x8EE DUP1 PUSH2 0x5B8 PUSH0 CODECOPY PUSH0 RETURN INVALID PUSH1 0x80 PUSH1 0x40 MSTORE CALLVALUE DUP1 ISZERO PUSH2 0xF JUMPI PUSH0 PUSH0 REVERT JUMPDEST POP PUSH1 0x4 CALLDATASIZE LT PUSH2 0x7B JUMPI PUSH0 CALLDATALOAD PUSH1 0xE0 SHR DUP1 PUSH4 0xBBA88A4F GT PUSH2 0x59 JUMPI DUP1 PUSH4 0xBBA88A4F EQ PUSH2 0xD7 JUMPI DUP1 PUSH4 0xC7DF0028 EQ PUSH2 0xF3 JUMPI DUP1 PUSH4 0xF38B2743 EQ PUSH2 0x10F JUMPI DUP1 PUSH4 0xF58586EE EQ PUSH2 0x12D JUMPI PUSH2 0x7B JUMP JUMPDEST DUP1 PUSH4 0x2DEB124B EQ PUSH2 0x7F JUMPI DUP1 PUSH4 0x3CBFE3E5 EQ PUSH2 0x9D JUMPI DUP1 PUSH4 0xB268199D EQ PUSH2 0xB9 JUMPI JUMPDEST PUSH0 PUSH0 REVERT JUMPDEST PUSH2 0x87 PUSH2 0x14B JUMP JUMPDEST PUSH1 0x40 MLOAD PUSH2 0x94 SWAP2 SWAP1 PUSH2 0x2E2 JUMP JUMPDEST PUSH1 0x40 MLOAD DUP1 SWAP2 SUB SWAP1 RETURN JUMPDEST PUSH2 0xB7 PUSH1 0x4 DUP1 CALLDATASIZE SUB DUP2 ADD SWAP1 PUSH2 0xB2 SWAP2 SWAP1 PUSH2 0x36D JUMP JUMPDEST PUSH2 0x1D7 JUMP JUMPDEST STOP JUMPDEST PUSH2 0xC1 PUSH2 0x21A JUMP JUMPDEST PUSH1 0x40 MLOAD PUSH2 0xCE SWAP2 SWAP1 PUSH2 0x3B0 JUMP JUMPDEST PUSH1 0x40 MLOAD DUP1 SWAP2 SUB SWAP1 RETURN JUMPDEST PUSH2 0xF1 PUSH1 0x4 DUP1 CALLDATASIZE SUB DUP2 ADD SWAP1 PUSH2 0xEC SWAP2 SWAP1 PUSH2 0x3F3 JUMP JUMPDEST PUSH2 0x21F JUMP JUMPDEST STOP JUMPDEST PUSH2 0x10D PUSH1 0x4 DUP1 CALLDATASIZE SUB DUP2 ADD SWAP1 PUSH2 0x108 SWAP2 SWAP1 PUSH2 0x54A JUMP JUMPDEST PUSH2 0x228 JUMP JUMPDEST STOP JUMPDEST PUSH2 0x117 PUSH2 0x23B JUMP JUMPDEST PUSH1 0x40 MLOAD PUSH2 0x124 SWAP2 SWAP1 PUSH2 0x5A0 JUMP JUMPDEST PUSH1 0x40 MLOAD DUP1 SWAP2 SUB SWAP1 RETURN JUMPDEST PUSH2 0x135 PUSH2 0x260 JUMP JUMPDEST PUSH1 0x40 MLOAD PUSH2 0x142 SWAP2 SWAP1 PUSH2 0x5D3 JUMP JUMPDEST PUSH1 0x40 MLOAD DUP1 SWAP2 SUB SWAP1 RETURN JUMPDEST PUSH1 0x2 DUP1 SLOAD PUSH2 0x158 SWAP1 PUSH2 0x619 JUMP JUMPDEST DUP1 PUSH1 0x1F ADD PUSH1 0x20 DUP1 SWAP2 DIV MUL PUSH1 0x20 ADD PUSH1 0x40 MLOAD SWAP1 DUP2 ADD PUSH1 0x40 MSTORE DUP1 SWAP3 SWAP2 SWAP1 DUP2 DUP2 MSTORE PUSH1 0x20 ADD DUP3 DUP1 SLOAD PUSH2 0x184 SWAP1 PUSH2 0x619 JUMP JUMPDEST DUP1 ISZERO PUSH2 0x1CF JUMPI DUP1 PUSH1 0x1F LT PUSH2 0x1A6 JUMPI PUSH2 0x100 DUP1 DUP4 SLOAD DIV MUL DUP4 MSTORE SWAP2 PUSH1 0x20 ADD SWAP2 PUSH2 0x1CF JUMP JUMPDEST DUP3 ADD SWAP2 SWAP1 PUSH0 MSTORE PUSH1 0x20 PUSH0 KECCAK256 SWAP1 JUMPDEST DUP2 SLOAD DUP2 MSTORE SWAP1 PUSH1 0x1 ADD SWAP1 PUSH1 0x20 ADD DUP1 DUP4 GT PUSH2 0x1B2 JUMPI DUP3 SWAP1 SUB PUSH1 0x1F AND DUP3 ADD SWAP2 JUMPDEST POP POP POP POP POP DUP2 JUMP JUMPDEST DUP1 PUSH1 0x3 PUSH0 PUSH2 0x100 EXP DUP2 SLOAD DUP2 PUSH20 0xFFFFFFFFFFFFFFFFFFFFFFFFFFFFFFFFFFFFFFFF MUL NOT AND SWAP1 DUP4 PUSH20 0xFFFFFFFFFFFFFFFFFFFFFFFFFFFFFFFFFFFFFFFF AND MUL OR SWAP1 SSTORE POP POP JUMP JUMPDEST PUSH0 SLOAD DUP2 JUMP JUMPDEST DUP1 PUSH0 DUP2 SWAP1 SSTORE POP POP JUMP JUMPDEST DUP1 PUSH1 0x2 SWAP1 DUP2 PUSH2 0x237 SWAP2 SWAP1 PUSH2 0x7E9 JUMP JUMPDEST POP POP JUMP JUMPDEST PUSH1 0x3 PUSH0 SWAP1 SLOAD SWAP1 PUSH2 0x100 EXP SWAP1 DIV PUSH20 0xFFFFFFFFFFFFFFFFFFFFFFFFFFFFFFFFFFFFFFFF AND DUP2 JUMP JUMPDEST PUSH1 0x1 PUSH0 SWAP1 SLOAD SWAP1 PUSH2 0x100 EXP SWAP1 DIV PUSH1 0xFF AND DUP2 JUMP JUMPDEST PUSH0 DUP2 MLOAD SWAP1 POP SWAP2 SWAP1 POP JUMP JUMPDEST PUSH0 DUP3 DUP3 MSTORE PUSH1 0x20 DUP3 ADD SWAP1 POP SWAP3 SWAP2 POP POP JUMP JUMPDEST DUP3 DUP2 DUP4 MCOPY PUSH0 DUP4 DUP4 ADD MSTORE POP POP POP JUMP JUMPDEST PUSH0 PUSH1 0x1F NOT PUSH1 0x1F DUP4 ADD AND SWAP1 POP SWAP2 SWAP1 POP JUMP JUMPDEST PUSH0 PUSH2 0x2B4 DUP3 PUSH2 0x272 JUMP JUMPDEST PUSH2 0x2BE DUP2 DUP6 PUSH2 0x27C JUMP JUMPDEST SWAP4 POP PUSH2 0x2CE DUP2 DUP6 PUSH1 0x20 DUP7 ADD PUSH2 0x28C JUMP JUMPDEST PUSH2 0x2D7 DUP2 PUSH2 0x29A JUMP JUMPDEST DUP5 ADD SWAP2 POP POP SWAP3 SWAP2 POP POP JUMP JUMPDEST PUSH0 PUSH1 0x20 DUP3 ADD SWAP1 POP DUP2 DUP2 SUB PUSH0 DUP4 ADD MSTORE PUSH2 0x2FA DUP2 DUP5 PUSH2 0x2AA JUMP JUMPDEST SWAP1 POP SWAP3 SWAP2 POP POP JUMP JUMPDEST PUSH0 PUSH1 0x40 MLOAD SWAP1 POP SWAP1 JUMP JUMPDEST PUSH0 PUSH0 REVERT JUMPDEST PUSH0 PUSH0 REVERT JUMPDEST PUSH0 PUSH20 0xFFFFFFFFFFFFFFFFFFFFFFFFFFFFFFFFFFFFFFFF DUP3 AND SWAP1 POP SWAP2 SWAP1 POP JUMP JUMPDEST PUSH0 PUSH2 0x33C DUP3 PUSH2 0x313 JUMP JUMPDEST SWAP1 POP SWAP2 SWAP1 POP JUMP JUMPDEST PUSH2 0x34C DUP2 PUSH2 0x332 JUMP JUMPDEST DUP2 EQ PUSH2 0x356 JUMPI PUSH0 PUSH0 REVERT JUMPDEST POP JUMP JUMPDEST PUSH0 DUP2 CALLDATALOAD SWAP1 POP PUSH2 0x367 DUP2 PUSH2 0x343 JUMP JUMPDEST SWAP3 SWAP2 POP POP JUMP JUMPDEST PUSH0 PUSH1 0x20 DUP3 DUP5 SUB SLT ISZERO PUSH2 0x382 JUMPI PUSH2 0x381 PUSH2 0x30B JUMP JUMPDEST JUMPDEST PUSH0 PUSH2 0x38F DUP5 DUP3 DUP6 ADD PUSH2 0x359 JUMP JUMPDEST SWAP2 POP POP SWAP3 SWAP2 POP POP JUMP JUMPDEST PUSH0 DUP2 SWAP1 POP SWAP2 SWAP1 POP JUMP JUMPDEST PUSH2 0x3AA DUP2 PUSH2 0x398 JUMP JUMPDEST DUP3 MSTORE POP POP JUMP JUMPDEST PUSH0 PUSH1 0x20 DUP3 ADD SWAP1 POP PUSH2 0x3C3 PUSH0 DUP4 ADD DUP5 PUSH2 0x3A1 JUMP JUMPDEST SWAP3 SWAP2 POP POP JUMP JUMPDEST PUSH2 0x3D2 DUP2 PUSH2 0x398 JUMP JUMPDEST DUP2 EQ PUSH2 0x3DC JUMPI PUSH0 PUSH0 REVERT JUMPDEST POP JUMP JUMPDEST PUSH0 DUP2 CALLDATALOAD SWAP1 POP PUSH2 0x3ED DUP2 PUSH2 0x3C9 JUMP JUMPDEST SWAP3 SWAP2 POP POP JUMP JUMPDEST PUSH0 PUSH1 0x20 DUP3 DUP5 SUB SLT ISZERO PUSH2 0x408 JUMPI PUSH2 0x407 PUSH2 0x30B JUMP JUMPDEST JUMPDEST PUSH0 PUSH2 0x415 DUP5 DUP3 DUP6 ADD PUSH2 0x3DF JUMP JUMPDEST SWAP2 POP POP SWAP3 SWAP2 POP POP JUMP JUMPDEST PUSH0 PUSH0 REVERT JUMPDEST PUSH0 PUSH0 REVERT JUMPDEST PUSH32 0x4E487B7100000000000000000000000000000000000000000000000000000000 PUSH0 MSTORE PUSH1 0x41 PUSH1 0x4 MSTORE PUSH1 0x24 PUSH0 REVERT JUMPDEST PUSH2 0x45C DUP3 PUSH2 0x29A JUMP JUMPDEST DUP2 ADD DUP2 DUP2 LT PUSH8 0xFFFFFFFFFFFFFFFF DUP3 GT OR ISZERO PUSH2 0x47B JUMPI PUSH2 0x47A PUSH2 0x426 JUMP JUMPDEST JUMPDEST DUP1 PUSH1 0x40 MSTORE POP POP POP JUMP JUMPDEST PUSH0 PUSH2 0x48D PUSH2 0x302 JUMP JUMPDEST SWAP1 POP PUSH2 0x499 DUP3 DUP3 PUSH2 0x453 JUMP JUMPDEST SWAP2 SWAP1 POP JUMP JUMPDEST PUSH0 PUSH8 0xFFFFFFFFFFFFFFFF DUP3 GT ISZERO PUSH2 0x4B8 JUMPI PUSH2 0x4B7 PUSH2 0x426 JUMP JUMPDEST JUMPDEST PUSH2 0x4C1 DUP3 PUSH2 0x29A JUMP JUMPDEST SWAP1 POP PUSH1 0x20 DUP2 ADD SWAP1 POP SWAP2 SWAP1 POP JUMP JUMPDEST DUP3 DUP2 DUP4 CALLDATACOPY PUSH0 DUP4 DUP4 ADD MSTORE POP POP POP JUMP JUMPDEST PUSH0 PUSH2 0x4EE PUSH2 0x4E9 DUP5 PUSH2 0x49E JUMP JUMPDEST PUSH2 0x484 JUMP JUMPDEST SWAP1 POP DUP3 DUP2 MSTORE PUSH1 0x20 DUP2 ADD DUP5 DUP5 DUP5 ADD GT ISZERO PUSH2 0x50A JUMPI PUSH2 0x509 PUSH2 0x422 JUMP JUMPDEST JUMPDEST PUSH2 0x515 DUP5 DUP3 DUP6 PUSH2 0x4CE JUMP JUMPDEST POP SWAP4 SWAP3 POP POP POP JUMP JUMPDEST PUSH0 DUP3 PUSH1 0x1F DUP4 ADD SLT PUSH2 0x531 JUMPI PUSH2 0x530 PUSH2 0x41E JUMP JUMPDEST JUMPDEST DUP2 CALLDATALOAD PUSH2 0x541 DUP5 DUP3 PUSH1 0x20 DUP7 ADD PUSH2 0x4DC JUMP JUMPDEST SWAP2 POP POP SWAP3 SWAP2 POP POP JUMP JUMPDEST PUSH0 PUSH1 0x20 DUP3 DUP5 SUB SLT ISZERO PUSH2 0x55F JUMPI PUSH2 0x55E PUSH2 0x30B JUMP JUMPDEST JUMPDEST PUSH0 DUP3 ADD CALLDATALOAD PUSH8 0xFFFFFFFFFFFFFFFF DUP2 GT ISZERO PUSH2 0x57C JUMPI PUSH2 0x57B PUSH2 0x30F JUMP JUMPDEST JUMPDEST PUSH2 0x588 DUP5 DUP3 DUP6 ADD PUSH2 0x51D JUMP JUMPDEST SWAP2 POP POP SWAP3 SWAP2 POP POP JUMP JUMPDEST PUSH2 0x59A DUP2 PUSH2 0x332 JUMP JUMPDEST DUP3 MSTORE POP POP JUMP JUMPDEST PUSH0 PUSH1 0x20 DUP3 ADD SWAP1 POP PUSH2 0x5B3 PUSH0 DUP4 ADD DUP5 PUSH2 0x591 JUMP JUMPDEST SWAP3 SWAP2 POP POP JUMP JUMPDEST PUSH0 DUP2 ISZERO ISZERO SWAP1 POP SWAP2 SWAP1 POP JUMP JUMPDEST PUSH2 0x5CD DUP2 PUSH2 0x5B9 JUMP JUMPDEST DUP3 MSTORE POP POP JUMP JUMPDEST PUSH0 PUSH1 0x20 DUP3 ADD SWAP1 POP PUSH2 0x5E6 PUSH0 DUP4 ADD DUP5 PUSH2 0x5C4 JUMP JUMPDEST SWAP3 SWAP2 POP POP JUMP JUMPDEST PUSH32 0x4E487B7100000000000000000000000000000000000000000000000000000000 PUSH0 MSTORE PUSH1 0x22 PUSH1 0x4 MSTORE PUSH1 0x24 PUSH0 REVERT JUMPDEST PUSH0 PUSH1 0x2 DUP3 DIV SWAP1 POP PUSH1 0x1 DUP3 AND DUP1 PUSH2 0x630 JUMPI PUSH1 0x7F DUP3 AND SWAP2 POP JUMPDEST PUSH1 0x20 DUP3 LT DUP2 SUB PUSH2 0x643 JUMPI PUSH2 0x642 PUSH2 0x5EC JUMP JUMPDEST JUMPDEST POP SWAP2 SWAP1 POP JUMP JUMPDEST PUSH0 DUP2 SWAP1 POP DUP2 PUSH0 MSTORE PUSH1 0x20 PUSH0 KECCAK256 SWAP1 POP SWAP2 SWAP1 POP JUMP JUMPDEST PUSH0 PUSH1 0x20 PUSH1 0x1F DUP4 ADD DIV SWAP1 POP SWAP2 SWAP1 POP JUMP JUMPDEST PUSH0 DUP3 DUP3 SHL SWAP1 POP SWAP3 SWAP2 POP POP JUMP JUMPDEST PUSH0 PUSH1 0x8 DUP4 MUL PUSH2 0x6A5 PUSH32 0xFFFFFFFFFFFFFFFFFFFFFFFFFFFFFFFFFFFFFFFFFFFFFFFFFFFFFFFFFFFFFFFF DUP3 PUSH2 0x66A JUMP JUMPDEST PUSH2 0x6AF DUP7 DUP4 PUSH2 0x66A JUMP JUMPDEST SWAP6 POP DUP1 NOT DUP5 AND SWAP4 POP DUP1 DUP7 AND DUP5 OR SWAP3 POP POP POP SWAP4 SWAP3 POP POP POP JUMP JUMPDEST PUSH0 DUP2 SWAP1 POP SWAP2 SWAP1 POP JUMP JUMPDEST PUSH0 PUSH2 0x6EA PUSH2 0x6E5 PUSH2 0x6E0 DUP5 PUSH2 0x398 JUMP JUMPDEST PUSH2 0x6C7 JUMP JUMPDEST PUSH2 0x398 JUMP JUMPDEST SWAP1 POP SWAP2 SWAP1 POP JUMP JUMPDEST PUSH0 DUP2 SWAP1 POP SWAP2 SWAP1 POP JUMP JUMPDEST PUSH2 0x703 DUP4 PUSH2 0x6D0 JUMP JUMPDEST PUSH2 0x717 PUSH2 0x70F DUP3 PUSH2 0x6F1 JUMP JUMPDEST DUP5 DUP5 SLOAD PUSH2 0x676 JUMP JUMPDEST DUP3 SSTORE POP POP POP POP JUMP JUMPDEST PUSH0 PUSH0 SWAP1 POP SWAP1 JUMP JUMPDEST PUSH2 0x72E PUSH2 0x71F JUMP JUMPDEST PUSH2 0x739 DUP2 DUP5 DUP5 PUSH2 0x6FA JUMP JUMPDEST POP POP POP JUMP JUMPDEST JUMPDEST DUP2 DUP2 LT ISZERO PUSH2 0x75C JUMPI PUSH2 0x751 PUSH0 DUP3 PUSH2 0x726 JUMP JUMPDEST PUSH1 0x1 DUP2 ADD SWAP1 POP PUSH2 0x73F JUMP JUMPDEST POP POP JUMP JUMPDEST PUSH1 0x1F DUP3 GT ISZERO PUSH2 0x7A1 JUMPI PUSH2 0x772 DUP2 PUSH2 0x649 JUMP JUMPDEST PUSH2 0x77B DUP5 PUSH2 0x65B JUMP JUMPDEST DUP2 ADD PUSH1 0x20 DUP6 LT ISZERO PUSH2 0x78A JUMPI DUP2 SWAP1 POP JUMPDEST PUSH2 0x79E PUSH2 0x796 DUP6 PUSH2 0x65B JUMP JUMPDEST DUP4 ADD DUP3 PUSH2 0x73E JUMP JUMPDEST POP POP JUMPDEST POP POP POP JUMP JUMPDEST PUSH0 DUP3 DUP3 SHR SWAP1 POP SWAP3 SWAP2 POP POP JUMP JUMPDEST PUSH0 PUSH2 0x7C1 PUSH0 NOT DUP5 PUSH1 0x8 MUL PUSH2 0x7A6 JUMP JUMPDEST NOT DUP1 DUP4 AND SWAP2 POP POP SWAP3 SWAP2 POP POP JUMP JUMPDEST PUSH0 PUSH2 0x7D9 DUP4 DUP4 PUSH2 0x7B2 JUMP JUMPDEST SWAP2 POP DUP3 PUSH1 0x2 MUL DUP3 OR SWAP1 POP SWAP3 SWAP2 POP POP JUMP JUMPDEST PUSH2 0x7F2 DUP3 PUSH2 0x272 JUMP JUMPDEST PUSH8 0xFFFFFFFFFFFFFFFF DUP2 GT ISZERO PUSH2 0x80B JUMPI PUSH2 0x80A PUSH2 0x426 JUMP JUMPDEST JUMPDEST PUSH2 0x815 DUP3 SLOAD PUSH2 0x619 JUMP JUMPDEST PUSH2 0x820 DUP3 DUP3 DUP6 PUSH2 0x760 JUMP JUMPDEST PUSH0 PUSH1 0x20 SWAP1 POP PUSH1 0x1F DUP4 GT PUSH1 0x1 DUP2 EQ PUSH2 0x851 JUMPI PUSH0 DUP5 ISZERO PUSH2 0x83F JUMPI DUP3 DUP8 ADD MLOAD SWAP1 POP JUMPDEST PUSH2 0x849 DUP6 DUP3 PUSH2 0x7CE JUMP JUMPDEST DUP7 SSTORE POP PUSH2 0x8B0 JUMP JUMPDEST PUSH1 0x1F NOT DUP5 AND PUSH2 0x85F DUP7 PUSH2 0x649 JUMP JUMPDEST PUSH0 JUMPDEST DUP3 DUP2 LT ISZERO PUSH2 0x886 JUMPI DUP5 DUP10 ADD MLOAD DUP3 SSTORE PUSH1 0x1 DUP3 ADD SWAP2 POP PUSH1 0x20 DUP6 ADD SWAP5 POP PUSH1 0x20 DUP2 ADD SWAP1 POP PUSH2 0x861 JUMP JUMPDEST DUP7 DUP4 LT ISZERO PUSH2 0x8A3 JUMPI DUP5 DUP10 ADD MLOAD PUSH2 0x89F PUSH1 0x1F DUP10 AND DUP3 PUSH2 0x7B2 JUMP JUMPDEST DUP4 SSTORE POP JUMPDEST PUSH1 0x1 PUSH1 0x2 DUP9 MUL ADD DUP9 SSTORE POP POP POP JUMPDEST POP POP POP POP POP POP JUMP INVALID LOG2 PUSH5 0x6970667358 0x22 SLT KECCAK256 0xDF DUP13 JUMPF 0xCBF8 ADD REVERT PUSH16 0x6D25DEADEFE77CEBDFEAC732DB46718C 0xB9 SWAP15 0xA8 SWAP8 BLOBHASH 0x4E 0x2E STATICCALL PUSH5 0x736F6C6343 STOP ADDMOD 0x1E STOP CALLER "
		},
		"gasEstimates": {
			"creation": {
				"codeDepositCost": "457200",
				"executionCost": "infinite",
				"totalCost": "infinite"
			},
			"external": {
				"endereco()": "2552",
				"idade()": "2469",
				"nome()": "infinite",
				"setEndereco(address)": "24738",
				"setIdade(uint256)": "22514",
				"setNome(string)": "infinite",
				"sucess()": "2532"
			}
		},
		"methodIdentifiers": {
			"endereco()": "f38b2743",
			"idade()": "b268199d",
			"nome()": "2deb124b",
			"setEndereco(address)": "3cbfe3e5",
			"setIdade(uint256)": "bba88a4f",
			"setNome(string)": "c7df0028",
			"sucess()": "f58586ee"
		}
	},
	"abi": [
		{
			"inputs": [
				{
					"internalType": "uint256",
					"name": "_idade",
					"type": "uint256"
				},
				{
					"internalType": "string",
					"name": "_nome",
					"type": "string"
				},
				{
					"internalType": "address",
					"name": "_endereco",
					"type": "address"
				}
			],
			"stateMutability": "nonpayable",
			"type": "constructor"
		},
		{
			"inputs": [],
			"name": "endereco",
			"outputs": [
				{
					"internalType": "address",
					"name": "",
					"type": "address"
				}
			],
			"stateMutability": "view",
			"type": "function"
		},
		{
			"inputs": [],
			"name": "idade",
			"outputs": [
				{
					"internalType": "uint256",
					"name": "",
					"type": "uint256"
				}
			],
			"stateMutability": "view",
			"type": "function"
		},
		{
			"inputs": [],
			"name": "nome",
			"outputs": [
				{
					"internalType": "string",
					"name": "",
					"type": "string"
				}
			],
			"stateMutability": "view",
			"type": "function"
		},
		{
			"inputs": [
				{
					"internalType": "address",
					"name": "_endereco",
					"type": "address"
				}
			],
			"name": "setEndereco",
			"outputs": [],
			"stateMutability": "nonpayable",
			"type": "function"
		},
		{
			"inputs": [
				{
					"internalType": "uint256",
					"name": "_idade",
					"type": "uint256"
				}
			],
			"name": "setIdade",
			"outputs": [],
			"stateMutability": "nonpayable",
			"type": "function"
		},
		{
			"inputs": [
				{
					"internalType": "string",
					"name": "_nome",
					"type": "string"
				}
			],
			"name": "setNome",
			"outputs": [],
			"stateMutability": "nonpayable",
			"type": "function"
		},
		{
			"inputs": [],
			"name": "sucess",
			"outputs": [
				{
					"internalType": "bool",
					"name": "",
					"type": "bool"
				}
			],
			"stateMutability": "view",
			"type": "function"
		}
	]
}